{
  "contractName": "Activatable",
  "abi": [
    {
      "constant": true,
      "inputs": [],
      "name": "activated",
      "outputs": [
        {
          "name": "",
          "type": "bool"
        }
      ],
      "payable": false,
      "stateMutability": "view",
      "type": "function"
    },
    {
      "constant": false,
      "inputs": [],
      "name": "activate",
      "outputs": [
        {
          "name": "",
          "type": "bool"
        }
      ],
      "payable": false,
      "stateMutability": "nonpayable",
      "type": "function"
    }
  ],
  "bytecode": "0x608060405234801561001057600080fd5b50610107806100206000396000f3006080604052600436106049576000357c0100000000000000000000000000000000000000000000000000000000900463ffffffff1680630f15f4c014604e578063186601ca14607a575b600080fd5b348015605957600080fd5b50606060a6565b604051808215151515815260200191505060405180910390f35b348015608557600080fd5b50608c60c9565b604051808215151515815260200191505060405180910390f35b600060016000806101000a81548160ff0219169083151502179055506001905090565b6000809054906101000a900460ff16815600a165627a7a7230582021d48593eff8c30e90b33545ee45ed766669661f2704f6af9b10179b65b81f3b0029",
  "source": "pragma solidity ^0.4.24;\n\ncontract Activatable {\n    bool public activated;\n\n    modifier whenActivated {\n        require(activated);\n        _;\n    }\n\n    modifier whenNotActivated {\n        require(!activated);\n        _;\n    }\n\n    function activate() public returns (bool) {\n        activated = true;\n        return true;\n    }\n}\n",
  "sourcePath": "tokenboost-solidity/contracts/Activatable.sol",
  "compiler": {
    "name": "solc",
    "version": "0.4.24+commit.e67f0147.Emscripten.clang"
  },
  "schemaVersion": "2.0.1",
  "updatedAt": "2018-09-18T23:50:12.811Z"
}