{
  "contractName": "ERC20SaleInputsRenderer",
  "abi": [
    {
      "constant": true,
      "inputs": [],
      "name": "TOKEN_ADDRESS",
      "outputs": [
        {
          "name": "",
          "type": "string"
        }
      ],
      "payable": false,
      "stateMutability": "view",
      "type": "function"
    },
    {
      "constant": true,
      "inputs": [],
      "name": "WHITEPAPER_URL",
      "outputs": [
        {
          "name": "",
          "type": "string"
        }
      ],
      "payable": false,
      "stateMutability": "view",
      "type": "function"
    },
    {
      "constant": true,
      "inputs": [],
      "name": "PROJECT_NAME",
      "outputs": [
        {
          "name": "",
          "type": "string"
        }
      ],
      "payable": false,
      "stateMutability": "view",
      "type": "function"
    },
    {
      "constant": true,
      "inputs": [],
      "name": "COVER_IMAGE_URL",
      "outputs": [
        {
          "name": "",
          "type": "string"
        }
      ],
      "payable": false,
      "stateMutability": "view",
      "type": "function"
    },
    {
      "constant": true,
      "inputs": [],
      "name": "LOGO_URL",
      "outputs": [
        {
          "name": "",
          "type": "string"
        }
      ],
      "payable": false,
      "stateMutability": "view",
      "type": "function"
    },
    {
      "constant": true,
      "inputs": [],
      "name": "SALE_NAME",
      "outputs": [
        {
          "name": "",
          "type": "string"
        }
      ],
      "payable": false,
      "stateMutability": "view",
      "type": "function"
    },
    {
      "constant": false,
      "inputs": [],
      "name": "renounceOwnership",
      "outputs": [],
      "payable": false,
      "stateMutability": "nonpayable",
      "type": "function"
    },
    {
      "constant": true,
      "inputs": [],
      "name": "PROJECT_DESCRIPTION",
      "outputs": [
        {
          "name": "",
          "type": "string"
        }
      ],
      "payable": false,
      "stateMutability": "view",
      "type": "function"
    },
    {
      "constant": true,
      "inputs": [],
      "name": "WEBSITE_URL",
      "outputs": [
        {
          "name": "",
          "type": "string"
        }
      ],
      "payable": false,
      "stateMutability": "view",
      "type": "function"
    },
    {
      "constant": true,
      "inputs": [],
      "name": "owner",
      "outputs": [
        {
          "name": "",
          "type": "address"
        }
      ],
      "payable": false,
      "stateMutability": "view",
      "type": "function"
    },
    {
      "constant": true,
      "inputs": [],
      "name": "UPDATE_CONFIRM",
      "outputs": [
        {
          "name": "",
          "type": "string"
        }
      ],
      "payable": false,
      "stateMutability": "view",
      "type": "function"
    },
    {
      "constant": true,
      "inputs": [],
      "name": "UPDATE",
      "outputs": [
        {
          "name": "",
          "type": "string"
        }
      ],
      "payable": false,
      "stateMutability": "view",
      "type": "function"
    },
    {
      "constant": true,
      "inputs": [],
      "name": "PROJECT_SUMMARY",
      "outputs": [
        {
          "name": "",
          "type": "string"
        }
      ],
      "payable": false,
      "stateMutability": "view",
      "type": "function"
    },
    {
      "constant": false,
      "inputs": [
        {
          "name": "locale",
          "type": "string"
        },
        {
          "name": "key",
          "type": "string"
        },
        {
          "name": "value",
          "type": "string"
        }
      ],
      "name": "setResource",
      "outputs": [],
      "payable": false,
      "stateMutability": "nonpayable",
      "type": "function"
    },
    {
      "constant": false,
      "inputs": [
        {
          "name": "_newOwner",
          "type": "address"
        }
      ],
      "name": "transferOwnership",
      "outputs": [],
      "payable": false,
      "stateMutability": "nonpayable",
      "type": "function"
    },
    {
      "constant": true,
      "inputs": [
        {
          "name": "locale",
          "type": "string"
        },
        {
          "name": "key",
          "type": "string"
        }
      ],
      "name": "resource",
      "outputs": [
        {
          "name": "",
          "type": "string"
        }
      ],
      "payable": false,
      "stateMutability": "view",
      "type": "function"
    },
    {
      "anonymous": false,
      "inputs": [
        {
          "indexed": true,
          "name": "previousOwner",
          "type": "address"
        }
      ],
      "name": "OwnershipRenounced",
      "type": "event"
    },
    {
      "anonymous": false,
      "inputs": [
        {
          "indexed": true,
          "name": "previousOwner",
          "type": "address"
        },
        {
          "indexed": true,
          "name": "newOwner",
          "type": "address"
        }
      ],
      "name": "OwnershipTransferred",
      "type": "event"
    },
    {
      "constant": true,
      "inputs": [
        {
          "name": "_locale",
          "type": "string"
        },
        {
          "name": "_sale",
          "type": "address"
        }
      ],
      "name": "render",
      "outputs": [
        {
          "name": "",
          "type": "string"
        }
      ],
      "payable": false,
      "stateMutability": "view",
      "type": "function"
    }
  ],
  "bytecode": "0x608060405260008054600160a060020a03191633179055613595806100256000396000f3006080604052600436106100d75763ffffffff60e060020a6000350416630bdf530081146100dc57806320350b5b146101665780632a3bd17f1461017b578063335d4b6d1461019057806361f57b0b146101a5578063663a7ae7146101ba578063715018a6146101cf57806371d55e0a146101e65780637588309d146101fb5780638da5cb5b14610210578063b07b3c7814610241578063ca1a70be14610256578063d30f6e20146102ba578063de4213dd146102cf578063ed3487fe146102e4578063f2fde38b146103b9578063f65a5c1b146103da575b600080fd5b3480156100e857600080fd5b506100f1610471565b6040805160208082528351818301528351919283929083019185019080838360005b8381101561012b578181015183820152602001610113565b50505050905090810190601f1680156101585780820380516001836020036101000a031916815260200191505b509250505060405180910390f35b34801561017257600080fd5b506100f16104a8565b34801561018757600080fd5b506100f16104df565b34801561019c57600080fd5b506100f1610516565b3480156101b157600080fd5b506100f161054d565b3480156101c657600080fd5b506100f1610584565b3480156101db57600080fd5b506101e46105bb565b005b3480156101f257600080fd5b506100f1610627565b34801561020757600080fd5b506100f161065e565b34801561021c57600080fd5b50610225610695565b60408051600160a060020a039092168252519081900360200190f35b34801561024d57600080fd5b506100f16106a4565b34801561026257600080fd5b506040805160206004803580820135601f81018490048402850184019095528484526100f194369492936024939284019190819084018382808284375094975050509235600160a060020a031693506106db92505050565b3480156102c657600080fd5b506100f16123d8565b3480156102db57600080fd5b506100f161240f565b3480156102f057600080fd5b506040805160206004803580820135601f81018490048402850184019095528484526101e494369492936024939284019190819084018382808284375050604080516020601f89358b018035918201839004830284018301909452808352979a99988101979196509182019450925082915084018382808284375050604080516020601f89358b018035918201839004830284018301909452808352979a9998810197919650918201945092508291508401838280828437509497506124469650505050505050565b3480156103c557600080fd5b506101e4600160a060020a0360043516612533565b3480156103e657600080fd5b506040805160206004803580820135601f81018490048402850184019095528484526100f194369492936024939284019190819084018382808284375050604080516020601f89358b018035918201839004830284018301909452808352979a9998810197919650918201945092508291508401838280828437509497506125569650505050505050565b60408051808201909152600d81527f746f6b656e5f6164647265737300000000000000000000000000000000000000602082015281565b60408051808201909152600e81527f776869746570617065725f75726c000000000000000000000000000000000000602082015281565b60408051808201909152600c81527f70726f6a6563745f6e616d650000000000000000000000000000000000000000602082015281565b60408051808201909152600f81527f636f7665725f696d6167655f75726c0000000000000000000000000000000000602082015281565b60408051808201909152600881527f6c6f676f5f75726c000000000000000000000000000000000000000000000000602082015281565b60408051808201909152600981527f73616c655f6e616d650000000000000000000000000000000000000000000000602082015281565b600054600160a060020a031633146105d257600080fd5b60008054604051600160a060020a03909116917ff8df31144d9c2f0f6b59d69b8b98abd5459d07f2742c4df920b25aae33c6482091a26000805473ffffffffffffffffffffffffffffffffffffffff19169055565b60408051808201909152601381527f70726f6a6563745f6465736372697074696f6e00000000000000000000000000602082015281565b60408051808201909152600b81527f776562736974655f75726c000000000000000000000000000000000000000000602082015281565b600054600160a060020a031681565b60408051808201909152600e81527f7570646174655f636f6e6669726d000000000000000000000000000000000000602082015281565b60408051600a80825261016082019092526060918291829160009190816020015b61070461333a565b8152602001906001900390816106fc57905050925060e0604051908101604052806001151581526020016040805190810160405280600d81526020017f746f6b656e5f616464726573730000000000000000000000000000000000000081525081526020016040805190810160405280600b81526020017f616464726573734564697400000000000000000000000000000000000000000081525081526020016001886040518082805190602001908083835b602083106107d65780518252601f1990920191602091820191016107b7565b51815160209384036101000a60001901801990921691161790529201948552506040805194859003820185208582018252600d8087527f746f6b656e5f616464726573730000000000000000000000000000000000000093870193845291519095945092508291908083835b602083106108615780518252601f199092019160209182019101610842565b518151600019602094850361010090810a820192831692199390931691909117909252949092019687526040805197889003820188208054601f60026001831615909802909501169590950492830182900482028801820190528187529294509250508301828280156109155780601f106108ea57610100808354040283529160200191610915565b820191906000526020600020905b8154815290600101906020018083116108f857829003601f168201915b505050505081526020016109a261099d88600160a060020a031663fc0c546a6040518163ffffffff1660e060020a028152600401602060405180830381600087803b15801561096357600080fd5b505af1158015610977573d6000803e3d6000fd5b505050506040513d602081101561098d57600080fd5b5051600160a060020a03166126a7565b61284e565b81526020016109af6128b2565b81526020016109bc612905565b90528351849060009081106109cd57fe5b9060200190602002018190525060e0604051908101604052806001151581526020016040805190810160405280600c81526020017f70726f6a6563745f6e616d65000000000000000000000000000000000000000081525081526020016040805190810160405280600881526020017f746578744564697400000000000000000000000000000000000000000000000081525081526020016001886040518082805190602001908083835b60208310610a975780518252601f199092019160209182019101610a78565b51815160209384036101000a60001901801990921691161790529201948552506040805194859003820185208582018252600c8087527f70726f6a6563745f6e616d65000000000000000000000000000000000000000093870193845291519095945092508291908083835b60208310610b225780518252601f199092019160209182019101610b03565b518151600019602094850361010090810a820192831692199390931691909117909252949092019687526040805197889003820188208054601f6002600183161590980290950116959095049283018290048202880182019052818752929450925050830182828015610bd65780601f10610bab57610100808354040283529160200191610bd6565b820191906000526020600020905b815481529060010190602001808311610bb957829003601f168201915b50505050508152602001610cb087600160a060020a0316639a33e3006040518163ffffffff1660e060020a028152600401600060405180830381600087803b158015610c2157600080fd5b505af1158015610c35573d6000803e3d6000fd5b505050506040513d6000823e601f3d908101601f191682016040526020811015610c5e57600080fd5b810190808051640100000000811115610c7657600080fd5b82016020810184811115610c8957600080fd5b8151640100000000811182820187101715610ca357600080fd5b505092919050505061284e565b8152602001610cbd6128b2565b8152602001610cca612905565b9052835184906001908110610cdb57fe5b9060200190602002018190525060e0604051908101604052806001151581526020016040805190810160405280600f81526020017f70726f6a6563745f73756d6d617279000000000000000000000000000000000081525081526020016040805190810160405280600881526020017f746578744564697400000000000000000000000000000000000000000000000081525081526020016001886040518082805190602001908083835b60208310610da55780518252601f199092019160209182019101610d86565b51815160209384036101000a60001901801990921691161790529201948552506040805194859003820185208582018252600f8087527f70726f6a6563745f73756d6d617279000000000000000000000000000000000093870193845291519095945092508291908083835b60208310610e305780518252601f199092019160209182019101610e11565b518151600019602094850361010090810a820192831692199390931691909117909252949092019687526040805197889003820188208054601f6002600183161590980290950116959095049283018290048202880182019052818752929450925050830182828015610ee45780601f10610eb957610100808354040283529160200191610ee4565b820191906000526020600020905b815481529060010190602001808311610ec757829003601f168201915b50505050508152602001610f2f87600160a060020a0316639ec318bf6040518163ffffffff1660e060020a028152600401600060405180830381600087803b158015610c2157600080fd5b8152602001610f3c6128b2565b8152602001610f49612905565b9052835184906002908110610f5a57fe5b9060200190602002018190525060e0604051908101604052806001151581526020016040805190810160405280601381526020017f70726f6a6563745f6465736372697074696f6e0000000000000000000000000081525081526020016040805190810160405280600c81526020017f6d61726b646f776e45646974000000000000000000000000000000000000000081525081526020016001886040518082805190602001908083835b602083106110245780518252601f199092019160209182019101611005565b51815160209384036101000a6000190180199092169116179052920194855250604080519485900382018520858201825260138087527f70726f6a6563745f6465736372697074696f6e0000000000000000000000000093870193845291519095945092508291908083835b602083106110af5780518252601f199092019160209182019101611090565b518151600019602094850361010090810a820192831692199390931691909117909252949092019687526040805197889003820188208054601f60026001831615909802909501169590950492830182900482028801820190528187529294509250508301828280156111635780601f1061113857610100808354040283529160200191611163565b820191906000526020600020905b81548152906001019060200180831161114657829003601f168201915b505050505081526020016111ae87600160a060020a031663755f047b6040518163ffffffff1660e060020a028152600401600060405180830381600087803b158015610c2157600080fd5b81526020016111bb6128b2565b81526020016111c8612905565b90528351849060039081106111d957fe5b9060200190602002018190525060e0604051908101604052806001151581526020016040805190810160405280600981526020017f73616c655f6e616d65000000000000000000000000000000000000000000000081525081526020016040805190810160405280600881526020017f746578744564697400000000000000000000000000000000000000000000000081525081526020016001886040518082805190602001908083835b602083106112a35780518252601f199092019160209182019101611284565b51815160209384036101000a6000190180199092169116179052920194855250604080519485900382018520858201825260098087527f73616c655f6e616d65000000000000000000000000000000000000000000000093870193845291519095945092508291908083835b6020831061132e5780518252601f19909201916020918201910161130f565b518151600019602094850361010090810a820192831692199390931691909117909252949092019687526040805197889003820188208054601f60026001831615909802909501169590950492830182900482028801820190528187529294509250508301828280156113e25780601f106113b7576101008083540402835291602001916113e2565b820191906000526020600020905b8154815290600101906020018083116113c557829003601f168201915b5050505050815260200161142d87600160a060020a03166306fdde036040518163ffffffff1660e060020a028152600401600060405180830381600087803b158015610c2157600080fd5b815260200161143a6128b2565b8152602001611447612905565b905283518490600490811061145857fe5b9060200190602002018190525060e0604051908101604052806001151581526020016040805190810160405280600881526020017f6c6f676f5f75726c00000000000000000000000000000000000000000000000081525081526020016040805190810160405280600781526020016000805160206134ba83398151915281525081526020016001886040518082805190602001908083835b602083106115105780518252601f1990920191602091820191016114f1565b51815160209384036101000a6000190180199092169116179052920194855250604080519485900382018520858201825260088087527f6c6f676f5f75726c00000000000000000000000000000000000000000000000093870193845291519095945092508291908083835b6020831061159b5780518252601f19909201916020918201910161157c565b518151600019602094850361010090810a820192831692199390931691909117909252949092019687526040805197889003820188208054601f600260018316159098029095011695909504928301829004820288018201905281875292945092505083018282801561164f5780601f106116245761010080835404028352916020019161164f565b820191906000526020600020905b81548152906001019060200180831161163257829003601f168201915b5050505050815260200161169a87600160a060020a031663993d77af6040518163ffffffff1660e060020a028152600401600060405180830381600087803b158015610c2157600080fd5b81526020016116a76128b2565b81526020016116b4612905565b90528351849060059081106116c557fe5b9060200190602002018190525060e0604051908101604052806001151581526020016040805190810160405280600f81526020017f636f7665725f696d6167655f75726c000000000000000000000000000000000081525081526020016040805190810160405280600781526020016000805160206134ba83398151915281525081526020016001886040518082805190602001908083835b6020831061177d5780518252601f19909201916020918201910161175e565b51815160209384036101000a60001901801990921691161790529201948552506040805194859003820185208582018252600f8087527f636f7665725f696d6167655f75726c000000000000000000000000000000000093870193845291519095945092508291908083835b602083106118085780518252601f1990920191602091820191016117e9565b518151600019602094850361010090810a820192831692199390931691909117909252949092019687526040805197889003820188208054601f60026001831615909802909501169590950492830182900482028801820190528187529294509250508301828280156118bc5780601f10611891576101008083540402835291602001916118bc565b820191906000526020600020905b81548152906001019060200180831161189f57829003601f168201915b5050505050815260200161190787600160a060020a031663dea53c206040518163ffffffff1660e060020a028152600401600060405180830381600087803b158015610c2157600080fd5b81526020016119146128b2565b8152602001611921612905565b905283518490600690811061193257fe5b9060200190602002018190525060e0604051908101604052806001151581526020016040805190810160405280600b81526020017f776562736974655f75726c00000000000000000000000000000000000000000081525081526020016040805190810160405280600781526020016000805160206134ba83398151915281525081526020016001886040518082805190602001908083835b602083106119ea5780518252601f1990920191602091820191016119cb565b51815160209384036101000a60001901801990921691161790529201948552506040805194859003820185208582018252600b8087527f776562736974655f75726c00000000000000000000000000000000000000000093870193845291519095945092508291908083835b60208310611a755780518252601f199092019160209182019101611a56565b518151600019602094850361010090810a820192831692199390931691909117909252949092019687526040805197889003820188208054601f6002600183161590980290950116959095049283018290048202880182019052818752929450925050830182828015611b295780601f10611afe57610100808354040283529160200191611b29565b820191906000526020600020905b815481529060010190602001808311611b0c57829003601f168201915b50505050508152602001611b7487600160a060020a031663abb5ca096040518163ffffffff1660e060020a028152600401600060405180830381600087803b158015610c2157600080fd5b8152602001611b816128b2565b8152602001611b8e612905565b9052835184906007908110611b9f57fe5b9060200190602002018190525060e0604051908101604052806001151581526020016040805190810160405280600e81526020017f776869746570617065725f75726c00000000000000000000000000000000000081525081526020016040805190810160405280600781526020016000805160206134ba83398151915281525081526020016001886040518082805190602001908083835b60208310611c575780518252601f199092019160209182019101611c38565b51815160209384036101000a60001901801990921691161790529201948552506040805194859003820185208582018252600e8087527f776869746570617065725f75726c00000000000000000000000000000000000093870193845291519095945092508291908083835b60208310611ce25780518252601f199092019160209182019101611cc3565b518151600019602094850361010090810a820192831692199390931691909117909252949092019687526040805197889003820188208054601f6002600183161590980290950116959095049283018290048202880182019052818752929450925050830182828015611d965780601f10611d6b57610100808354040283529160200191611d96565b820191906000526020600020905b815481529060010190602001808311611d7957829003601f168201915b50505050508152602001611de187600160a060020a0316632c7a72f86040518163ffffffff1660e060020a028152600401600060405180830381600087803b158015610c2157600080fd5b8152602001611dee6128b2565b8152602001611dfb612905565b9052835184906008908110611e0c57fe5b9060200190602002018190525060e0604051908101604052806001151581526020016040805190810160405280600681526020017f757064617465000000000000000000000000000000000000000000000000000081525081526020016040805190810160405280600681526020017f627574746f6e000000000000000000000000000000000000000000000000000081525081526020016001886040518082805190602001908083835b60208310611ed65780518252601f199092019160209182019101611eb7565b51815160209384036101000a6000190180199092169116179052920194855250604080519485900382018520858201825260068087527f757064617465000000000000000000000000000000000000000000000000000093870193845291519095945092508291908083835b60208310611f615780518252601f199092019160209182019101611f42565b518151600019602094850361010090810a820192831692199390931691909117909252949092019687526040805197889003820188208054601f60026001831615909802909501169590950492830182900482028801820190528187529294509250508301828280156120155780601f10611fea57610100808354040283529160200191612015565b820191906000526020600020905b815481529060010190602001808311611ff857829003601f168201915b505050505081526020016040805190810160405280600481526020017f6e756c6c00000000000000000000000000000000000000000000000000000000815250815260200160a06040519081016040528060011515815260200188600160a060020a03168152602001608060405190810160405280604781526020017f75706461746528737472696e672c737472696e672c737472696e672c7374726981526020017f6e672c737472696e672c737472696e672c737472696e672c737472696e672c6181526020017f6464726573732900000000000000000000000000000000000000000000000000815250815260200160c060405190810160405280609081526020016134da60909139815260200160018a6040518082805190602001908083835b602083106121575780518252601f199092019160209182019101612138565b51815160209384036101000a60001901801990921691161790529201948552506040805194859003820185208582018252600e8087527f7570646174655f636f6e6669726d00000000000000000000000000000000000093870193845291519095945092508291908083835b602083106121e25780518252601f1990920191602091820191016121c3565b518151600019602094850361010090810a820192831692199390931691909117909252949092019687526040805197889003820188208054601f60026001831615909802909501169590950492830182900482028801820190528187529294509250508301828280156122965780601f1061226b57610100808354040283529160200191612296565b820191906000526020600020905b81548152906001019060200180831161227957829003601f168201915b505050505081525081526020016122ab612905565b90528351849060099081106122bc57fe5b906020019060200201819052506040805190810160405280600181526020017f5b000000000000000000000000000000000000000000000000000000000000008152509150600090505b825181101561238d5760008111156123585761235561234060408051908101604052806001815260200160fa60020a600b02815250612992565b61234984612992565b9063ffffffff6129bb16565b91505b61238361234061237e858481518110151561236f57fe5b90602001906020020151612a32565b612992565b9150600101612306565b6123ce6123406040805190810160405280600181526020017f5d00000000000000000000000000000000000000000000000000000000000000815250612992565b9695505050505050565b60408051808201909152600681527f7570646174650000000000000000000000000000000000000000000000000000602082015281565b60408051808201909152600f81527f70726f6a6563745f73756d6d6172790000000000000000000000000000000000602082015281565b600054600160a060020a0316331461245d57600080fd5b806001846040518082805190602001908083835b602083106124905780518252601f199092019160209182019101612471565b51815160209384036101000a6000190180199092169116179052920194855250604051938490038101842087519094889450925082918401908083835b602083106124ec5780518252601f1990920191602091820191016124cd565b51815160209384036101000a6000190180199092169116179052920194855250604051938490038101909320845161252d9591949190910192509050613386565b50505050565b600054600160a060020a0316331461254a57600080fd5b61255381612d07565b50565b60606001836040518082805190602001908083835b6020831061258a5780518252601f19909201916020918201910161256b565b51815160209384036101000a6000190180199092169116179052920194855250604051938490038101842086519094879450925082918401908083835b602083106125e65780518252601f1990920191602091820191016125c7565b518151600019602094850361010090810a820192831692199390931691909117909252949092019687526040805197889003820188208054601f600260018316159098029095011695909504928301829004820288018201905281875292945092505083018282801561269a5780601f1061266f5761010080835404028352916020019161269a565b820191906000526020600020905b81548152906001019060200180831161267d57829003601f168201915b5050505050905092915050565b60408051602a80825260608083019093528291600091829182916020820161054080388339505081519195507f300000000000000000000000000000000000000000000000000000000000000091869150600090811061270357fe5b9060200101907effffffffffffffffffffffffffffffffffffffffffffffffffffffffffffff1916908160001a90535083517f7800000000000000000000000000000000000000000000000000000000000000908590600190811061276457fe5b9060200101907effffffffffffffffffffffffffffffffffffffffffffffffffffffffffffff1916908160001a905350859250600091505b602882101561284457506030600f8316016039600160a060020a03821611156127c3576027015b807f01000000000000000000000000000000000000000000000000000000000000000284836028036001018151811015156127fa57fe5b9060200101907effffffffffffffffffffffffffffffffffffffffffffffffffffffffffffff1916908160001a9053506010600160a060020a03841604925060019091019061279c565b5091949350505050565b60606128ac61287860408051908101604052806001815260200160f960020a601102815250612992565b61234961237e61288786612992565b61234960408051908101604052806001815260200160f960020a601102815250612992565b92915050565b6128ba613404565b506040805160a0810182526000808252602080830182905283518082018552828152838501528351808201855282815260608401528351908101909352825260808101919091525b90565b61290d613431565b6040805160608101825260008082528251818152602081810190945291928301919061294f565b61293c613455565b8152602001906001900390816129345790505b508152602001600060405190808252806020026020018201604052801561298a57816020015b60608152602001906001900390816129755790505b509052905090565b61299a613488565b50604080518082019091528151815260208281019082018190525b50919050565b606080600083600001518560000151016040519080825280601f01601f1916602001820160405280156129f8578160200160208202803883390190505b509150602082019050612a148186602001518760000151612d84565b845160208501518551612a2a9284019190612d84565b509392505050565b606080826000015115612ccc576040805190810160405280600781526020017f7b226964223a22000000000000000000000000000000000000000000000000008152509050612a90612a878460200151612992565b61234983612992565b9050612aba612a8760408051908101604052806001815260200160f960020a601102815250612992565b60a08401515190915015612b2157612b09612a876040805190810160405280600b81526020017f2c2022616374696f6e223a000000000000000000000000000000000000000000815250612992565b9050612b1e612a8761237e8560a00151612dc8565b90505b60c08301515115612b8557612b6d612a876040805190810160405280600a81526020017f2c20227461626c65223a00000000000000000000000000000000000000000000815250612992565b9050612b82612a8761237e8560c00151612f6b565b90505b612bc6612a876040805190810160405280600981526020017f2c2274797065223a220000000000000000000000000000000000000000000000815250612992565b9050612bd8612a878460400151612992565b9050612c1b612a876040805190810160405280600b81526020017f222c226c6162656c223a22000000000000000000000000000000000000000000815250612992565b9050612c2d612a878460600151612992565b9050612c70612a876040805190810160405280600981526020017f222c2264617461223a0000000000000000000000000000000000000000000000815250612992565b9050612c82612a878460800151612992565b9050612cc5612a876040805190810160405280600181526020017f7d00000000000000000000000000000000000000000000000000000000000000815250612992565b91506129b5565b60408051808201909152600481527f6e756c6c00000000000000000000000000000000000000000000000000000000602082015291506129b5565b600160a060020a0381161515612d1c57600080fd5b60008054604051600160a060020a03808516939216917f8be0079c531659141344cd1fd0a4f28419497f9722a3daafe3b4186f6b6457e091a36000805473ffffffffffffffffffffffffffffffffffffffff1916600160a060020a0392909216919091179055565b60005b60208210612da9578251845260209384019390920191601f1990910190612d87565b50905182516020929092036101000a6000190180199091169116179052565b606080826000015115612ccc576040805190810160405280600c81526020017f7b2261646472657373223a2200000000000000000000000000000000000000008152509050612e29612a8761237e8560200151600160a060020a03166126a7565b9050612e6c612a876040805190810160405280601681526020017f222c2266756e6374696f6e53656c6563746f72223a2200000000000000000000815250612992565b9050612e7e612a878460400151612992565b9050612ec1612a876040805190810160405280600e81526020017f222c22617267756d656e7473223a000000000000000000000000000000000000815250612992565b9050612ed3612a878460600151612992565b9050612f16612a876040805190810160405280600c81526020017f2c22636f6e6669726d223a220000000000000000000000000000000000000000815250612992565b9050612f28612a878460800151612992565b9050612cc5612a876040805190810160405280600281526020017f227d000000000000000000000000000000000000000000000000000000000000815250612992565b60608060008084600001511561314357505060408051808201909152600c81527f7b22636f6c756d6e73223a5b0000000000000000000000000000000000000000602082015290506000805b84602001515181101561303957600082111561300157612ffe612ff560408051908101604052806001815260200160fa60020a600b02815250612992565b61234985612992565b92505b61302b612ff561237e87602001518481518110151561301c57fe5b90602001906020020151613182565b925060019182019101612fb7565b61307a612ff56040805190810160405280600a81526020017f5d2c22726f7773223a5b00000000000000000000000000000000000000000000815250612992565b925060009150600090505b8460400151518110156130fb5760008211156130c6576130c3612ff560408051908101604052806001815260200160fa60020a600b02815250612992565b92505b6130ed612ff58660400151838151811015156130de57fe5b90602001906020020151612992565b925060019182019101613085565b61313c612ff56040805190810160405280600281526020017f5d7d000000000000000000000000000000000000000000000000000000000000815250612992565b935061317a565b60408051808201909152600481527f6e756c6c00000000000000000000000000000000000000000000000000000000602082015293505b505050919050565b606080826000015115612ccc576040805190810160405280600781526020017f7b226964223a220000000000000000000000000000000000000000000000000081525090506131d7612a878460200151612992565b9050613201612a8760408051908101604052806001815260200160f960020a601102815250612992565b6080840151519091501561329257613237612a8760408051908101604052806001815260200160fa60020a600b02815250612992565b905061327a612a876040805190810160405280600981526020017f22616374696f6e223a0000000000000000000000000000000000000000000000815250612992565b905061328f612a8761237e8560800151612dc8565b90505b6132d3612a876040805190810160405280600981526020017f2c2274797065223a220000000000000000000000000000000000000000000000815250612992565b90506132e5612a878460400151612992565b9050613328612a876040805190810160405280600b81526020017f222c226c6162656c223a22000000000000000000000000000000000000000000815250612992565b9050612f28612a878460600151612992565b6101a06040519081016040528060001515815260200160608152602001606081526020016060815260200160608152602001613374613404565b8152602001613381613431565b905290565b828054600181600116156101000203166002900490600052602060002090601f016020900481019282601f106133c757805160ff19168380011785556133f4565b828001600101855582156133f4579182015b828111156133f45782518255916020019190600101906133d9565b5061340092915061349f565b5090565b6040805160a081018252600080825260208201526060918101829052818101829052608081019190915290565b60606040519081016040528060001515815260200160608152602001606081525090565b61012060405190810160405280600015158152602001606081526020016060815260200160608152602001613381613404565b604080518082019091526000808252602082015290565b61290291905b8082111561340057600081556001016134a5560075726c45646974000000000000000000000000000000000000000000000000005b2270726f6a6563745f6e616d65222c2270726f6a6563745f73756d6d617279222c2270726f6a6563745f6465736372697074696f6e222c226c6f676f5f75726c222c22636f7665725f696d6167655f75726c222c22776562736974655f75726c222c22776869746570617065725f75726c222c2273616c655f6e616d65222c22746f6b656e5f61646472657373225da165627a7a7230582026c1eceb37dd351f519b9961f71d4e1a8500fc5d3f3a0e29c4ec0ddd5d3a65450029",
  "source": "pragma solidity ^0.4.24;\n\nimport \"./ERC20SaleWidgetRenderer.sol\";\nimport \"tokenboost-solidity/contracts/utils/UintUtils.sol\";\nimport \"tokenboost-solidity/contracts/utils/BoolUtils.sol\";\nimport \"tokenboost-solidity/contracts/utils/StringUtils.sol\";\nimport \"tokenboost-solidity/contracts/widget/Elements.sol\";\n\ncontract ERC20SaleInputsRenderer is ERC20SaleWidgetRenderer {\n    using strings for *;\n    using UintUtils for uint;\n    using BoolUtils for bool;\n    using AddressUtils for address;\n    using StringUtils for string;\n    using Elements for Elements.Element;\n\n    string public constant TOKEN_ADDRESS = \"token_address\";\n    string public constant PROJECT_NAME = \"project_name\";\n    string public constant PROJECT_SUMMARY = \"project_summary\";\n    string public constant PROJECT_DESCRIPTION = \"project_description\";\n    string public constant SALE_NAME = \"sale_name\";\n    string public constant LOGO_URL = \"logo_url\";\n    string public constant COVER_IMAGE_URL = \"cover_image_url\";\n    string public constant WEBSITE_URL = \"website_url\";\n    string public constant WHITEPAPER_URL = \"whitepaper_url\";\n    string public constant UPDATE = \"update\";\n    string public constant UPDATE_CONFIRM = \"update_confirm\";\n\n    function render(string _locale, ERC20Sale _sale) public view returns (string) {\n        Elements.Element[] memory elements = new Elements.Element[](10);\n        elements[0] = Elements.Element(\n            true,\n            TOKEN_ADDRESS,\n            \"addressEdit\",\n            resources[_locale][TOKEN_ADDRESS],\n            address(_sale.token()).toString().quoted(),\n            Actions.empty(),\n            Tables.empty()\n        );\n        elements[1] = Elements.Element(\n            true,\n            PROJECT_NAME,\n            \"textEdit\",\n            resources[_locale][PROJECT_NAME],\n            _sale.projectName().quoted(),\n            Actions.empty(),\n            Tables.empty()\n        );\n        elements[2] = Elements.Element(\n            true,\n            PROJECT_SUMMARY,\n            \"textEdit\",\n            resources[_locale][PROJECT_SUMMARY],\n            _sale.projectSummary().quoted(),\n            Actions.empty(),\n            Tables.empty()\n        );\n        elements[3] = Elements.Element(\n            true,\n            PROJECT_DESCRIPTION,\n            \"markdownEdit\",\n            resources[_locale][PROJECT_DESCRIPTION],\n            _sale.projectDescription().quoted(),\n            Actions.empty(),\n            Tables.empty()\n        );\n        elements[4] = Elements.Element(\n            true,\n            SALE_NAME,\n            \"textEdit\",\n            resources[_locale][SALE_NAME],\n            _sale.name().quoted(),\n            Actions.empty(),\n            Tables.empty()\n        );\n        elements[5] = Elements.Element(\n            true,\n            LOGO_URL,\n            \"urlEdit\",\n            resources[_locale][LOGO_URL],\n            _sale.logoUrl().quoted(),\n            Actions.empty(),\n            Tables.empty()\n        );\n        elements[6] = Elements.Element(\n            true,\n            COVER_IMAGE_URL,\n            \"urlEdit\",\n            resources[_locale][COVER_IMAGE_URL],\n            _sale.coverImageUrl().quoted(),\n            Actions.empty(),\n            Tables.empty()\n        );\n        elements[7] = Elements.Element(\n            true,\n            WEBSITE_URL,\n            \"urlEdit\",\n            resources[_locale][WEBSITE_URL],\n            _sale.websiteUrl().quoted(),\n            Actions.empty(),\n            Tables.empty()\n        );\n        elements[8] = Elements.Element(\n            true,\n            WHITEPAPER_URL,\n            \"urlEdit\",\n            resources[_locale][WHITEPAPER_URL],\n            _sale.whitepaperUrl().quoted(),\n            Actions.empty(),\n            Tables.empty()\n        );\n        elements[9] = Elements.Element(\n            true,\n            UPDATE,\n            \"button\",\n            resources[_locale][UPDATE],\n            \"null\",\n            Actions.Action(\n                true,\n                address(_sale),\n                \"update(string,string,string,string,string,string,string,string,address)\",\n                '[\"project_name\",\"project_summary\",\"project_description\",\"logo_url\",\"cover_image_url\",\"website_url\",\"whitepaper_url\",\"sale_name\",\"token_address\"]',\n                resources[_locale][UPDATE_CONFIRM]\n            ),\n            Tables.empty()\n        );\n        string memory json = \"[\";\n        for (uint i = 0; i < elements.length; i++) {\n            if (i > 0) {\n                json = json.toSlice().concat(','.toSlice());\n            }\n            json = json.toSlice().concat(elements[i].toJson().toSlice());\n        }\n        return json.toSlice().concat(']'.toSlice());\n    }\n}\n",
  "sourcePath": "/Users/yoonjae/SolidityProjects/tokenboost-solidity-erc20sale/contracts/sale/erc20/widget/ERC20SaleInputsRenderer.sol",
  "compiler": {
    "name": "solc",
    "version": "0.4.24+commit.e67f0147.Emscripten.clang"
  },
  "schemaVersion": "2.0.1",
  "updatedAt": "2018-10-12T05:02:47.268Z"
}