{
  "contractName": "ERC20SaleRenderer",
  "abi": [
    {
      "constant": true,
      "inputs": [],
      "name": "inputsRenderer",
      "outputs": [
        {
          "name": "",
          "type": "address"
        }
      ],
      "payable": false,
      "stateMutability": "view",
      "type": "function"
    },
    {
      "constant": false,
      "inputs": [
        {
          "name": "_renderers",
          "type": "address[]"
        }
      ],
      "name": "setAdminWidgetRenderers",
      "outputs": [],
      "payable": false,
      "stateMutability": "nonpayable",
      "type": "function"
    },
    {
      "constant": true,
      "inputs": [],
      "name": "numberOfAdminWidgetRenderers",
      "outputs": [
        {
          "name": "",
          "type": "uint256"
        }
      ],
      "payable": false,
      "stateMutability": "view",
      "type": "function"
    },
    {
      "constant": true,
      "inputs": [
        {
          "name": "index",
          "type": "uint256"
        }
      ],
      "name": "getAdminWidgetRendererAt",
      "outputs": [
        {
          "name": "",
          "type": "address"
        }
      ],
      "payable": false,
      "stateMutability": "view",
      "type": "function"
    },
    {
      "constant": false,
      "inputs": [
        {
          "name": "_renderers",
          "type": "address[]"
        }
      ],
      "name": "setUserWidgetRenderers",
      "outputs": [],
      "payable": false,
      "stateMutability": "nonpayable",
      "type": "function"
    },
    {
      "constant": true,
      "inputs": [],
      "name": "numberOfUserWidgetRenderers",
      "outputs": [
        {
          "name": "",
          "type": "uint256"
        }
      ],
      "payable": false,
      "stateMutability": "view",
      "type": "function"
    },
    {
      "constant": true,
      "inputs": [
        {
          "name": "index",
          "type": "uint256"
        }
      ],
      "name": "getUserWidgetRendererAt",
      "outputs": [
        {
          "name": "",
          "type": "address"
        }
      ],
      "payable": false,
      "stateMutability": "view",
      "type": "function"
    },
    {
      "constant": false,
      "inputs": [
        {
          "name": "_renderer",
          "type": "address"
        }
      ],
      "name": "setInputsRenderer",
      "outputs": [],
      "payable": false,
      "stateMutability": "nonpayable",
      "type": "function"
    },
    {
      "constant": true,
      "inputs": [
        {
          "name": "_locale",
          "type": "string"
        },
        {
          "name": "_sale",
          "type": "address"
        }
      ],
      "name": "adminWidgets",
      "outputs": [
        {
          "name": "jsonObject",
          "type": "string"
        }
      ],
      "payable": false,
      "stateMutability": "view",
      "type": "function"
    },
    {
      "constant": true,
      "inputs": [
        {
          "name": "_locale",
          "type": "string"
        },
        {
          "name": "_sale",
          "type": "address"
        }
      ],
      "name": "userWidgets",
      "outputs": [
        {
          "name": "jsonObject",
          "type": "string"
        }
      ],
      "payable": false,
      "stateMutability": "view",
      "type": "function"
    },
    {
      "constant": true,
      "inputs": [
        {
          "name": "_locale",
          "type": "string"
        },
        {
          "name": "_sale",
          "type": "address"
        }
      ],
      "name": "inputs",
      "outputs": [
        {
          "name": "jsonArray",
          "type": "string"
        }
      ],
      "payable": false,
      "stateMutability": "view",
      "type": "function"
    }
  ],
  "bytecode": "0x608060405234801561001057600080fd5b50610fac806100206000396000f3006080604052600436106100ae576000357c0100000000000000000000000000000000000000000000000000000000900463ffffffff1680626c8e7f146100b3578063020849be146101205780630a709e59146101865780633634a20c146101dd5780635d36af891461024357806385295c19146102b0578063a1f40d8f146102db578063bbb7b46a1461031e578063bf3bed5414610349578063e77cee3d1461044b578063e94995551461054d575b600080fd5b3480156100bf57600080fd5b506100de6004803603810190808035906020019092919050505061064f565b604051808273ffffffffffffffffffffffffffffffffffffffff1673ffffffffffffffffffffffffffffffffffffffff16815260200191505060405180910390f35b34801561012c57600080fd5b5061018460048036038101908080359060200190820180359060200190808060200260200160405190810160405280939291908181526020018383602002808284378201915050505050509192919290505050610692565b005b34801561019257600080fd5b5061019b6106ac565b604051808273ffffffffffffffffffffffffffffffffffffffff1673ffffffffffffffffffffffffffffffffffffffff16815260200191505060405180910390f35b3480156101e957600080fd5b50610241600480360381019080803590602001908201803590602001908080602002602001604051908101604052809392919081815260200183836020028082843782019150505050505091929192905050506106d2565b005b34801561024f57600080fd5b5061026e600480360381019080803590602001909291905050506106ec565b604051808273ffffffffffffffffffffffffffffffffffffffff1673ffffffffffffffffffffffffffffffffffffffff16815260200191505060405180910390f35b3480156102bc57600080fd5b506102c561072e565b6040518082815260200191505060405180910390f35b3480156102e757600080fd5b5061031c600480360381019080803573ffffffffffffffffffffffffffffffffffffffff16906020019092919050505061073a565b005b34801561032a57600080fd5b5061033361077e565b6040518082815260200191505060405180910390f35b34801561035557600080fd5b506103d0600480360381019080803590602001908201803590602001908080601f0160208091040260200160405190810160405280939291908181526020018383808284378201915050505050509192919290803573ffffffffffffffffffffffffffffffffffffffff16906020019092919050505061078b565b6040518080602001828103825283818151815260200191508051906020019080838360005b838110156104105780820151818401526020810190506103f5565b50505050905090810190601f16801561043d5780820380516001836020036101000a031916815260200191505b509250505060405180910390f35b34801561045757600080fd5b506104d2600480360381019080803590602001908201803590602001908080601f0160208091040260200160405190810160405280939291908181526020018383808284378201915050505050509192919290803573ffffffffffffffffffffffffffffffffffffffff169060200190929190505050610950565b6040518080602001828103825283818151815260200191508051906020019080838360005b838110156105125780820151818401526020810190506104f7565b50505050905090810190601f16801561053f5780820380516001836020036101000a031916815260200191505b509250505060405180910390f35b34801561055957600080fd5b506105d4600480360381019080803590602001908201803590602001908080601f0160208091040260200160405190810160405280939291908181526020018383808284378201915050505050509192919290803573ffffffffffffffffffffffffffffffffffffffff1690602001909291905050506109eb565b6040518080602001828103825283818151815260200191508051906020019080838360005b838110156106145780820151818401526020810190506105f9565b50505050905090810190601f1680156106415780820380516001836020036101000a031916815260200191505b509250505060405180910390f35b600060018281548110151561066057fe5b9060005260206000200160009054906101000a900473ffffffffffffffffffffffffffffffffffffffff169050919050565b80600190805190602001906106a8929190610e99565b5050565b600260009054906101000a900473ffffffffffffffffffffffffffffffffffffffff1681565b80600090805190602001906106e8929190610e99565b5050565b600080828154811015156106fc57fe5b9060005260206000200160009054906101000a900473ffffffffffffffffffffffffffffffffffffffff169050919050565b60008080549050905090565b80600260006101000a81548173ffffffffffffffffffffffffffffffffffffffff021916908373ffffffffffffffffffffffffffffffffffffffff16021790555050565b6000600180549050905090565b6060600260009054906101000a900473ffffffffffffffffffffffffffffffffffffffff1673ffffffffffffffffffffffffffffffffffffffff1663ca1a70be84846040518363ffffffff167c010000000000000000000000000000000000000000000000000000000002815260040180806020018373ffffffffffffffffffffffffffffffffffffffff1673ffffffffffffffffffffffffffffffffffffffff168152602001828103825284818151815260200191508051906020019080838360005b8381101561086a57808201518184015260208101905061084f565b50505050905090810190601f1680156108975780820380516001836020036101000a031916815260200191505b509350505050600060405180830381600087803b1580156108b757600080fd5b505af11580156108cb573d6000803e3d6000fd5b505050506040513d6000823e3d601f19601f8201168201806040525060208110156108f557600080fd5b81019080805164010000000081111561090d57600080fd5b8281019050602081018481111561092357600080fd5b815185600182028301116401000000008211171561094057600080fd5b5050929190505050905092915050565b60606109e3838360018054806020026020016040519081016040528092919081815260200182805480156109d957602002820191906000526020600020905b8160009054906101000a900473ffffffffffffffffffffffffffffffffffffffff1673ffffffffffffffffffffffffffffffffffffffff168152602001906001019080831161098f575b5050505050610a86565b905092915050565b6060610a7e83836000805480602002602001604051908101604052809291908181526020018280548015610a7457602002820191906000526020600020905b8160009054906101000a900473ffffffffffffffffffffffffffffffffffffffff1673ffffffffffffffffffffffffffffffffffffffff1681526020019060010190808311610a2a575b5050505050610a86565b905092915050565b606080600080600060606040805190810160405280600181526020017f5b00000000000000000000000000000000000000000000000000000000000000815250945060009350600092505b8651831015610d38578683815181101515610ae857fe5b9060200190602002015191508173ffffffffffffffffffffffffffffffffffffffff1663ca1a70be8a8a6040518363ffffffff167c010000000000000000000000000000000000000000000000000000000002815260040180806020018373ffffffffffffffffffffffffffffffffffffffff1673ffffffffffffffffffffffffffffffffffffffff168152602001828103825284818151815260200191508051906020019080838360005b83811015610baf578082015181840152602081019050610b94565b50505050905090810190601f168015610bdc5780820380516001836020036101000a031916815260200191505b509350505050600060405180830381600087803b158015610bfc57600080fd5b505af1158015610c10573d6000803e3d6000fd5b505050506040513d6000823e3d601f19601f820116820180604052506020811015610c3a57600080fd5b810190808051640100000000811115610c5257600080fd5b82810190506020810184811115610c6857600080fd5b8151856001820283011164010000000082111715610c8557600080fd5b50509291905050509050600081511115610d2b576000841115610cfd57610cfa610ce36040805190810160405280600181526020017f2c00000000000000000000000000000000000000000000000000000000000000815250610d9e565b610cec87610d9e565b610dcc90919063ffffffff16565b94505b610d20610d0982610d9e565b610d1287610d9e565b610dcc90919063ffffffff16565b945083806001019450505b8280600101935050610ad1565b610d90610d796040805190810160405280600181526020017f5d00000000000000000000000000000000000000000000000000000000000000815250610d9e565b610d8287610d9e565b610dcc90919063ffffffff16565b955050505050509392505050565b610da6610f23565b600060208301905060408051908101604052808451815260200182815250915050919050565b606080600083600001518560000151016040519080825280601f01601f191660200182016040528015610e0e5781602001602082028038833980820191505090505b509150602082019050610e2a8186602001518760000151610e4e565b610e438560000151820185602001518660000151610e4e565b819250505092915050565b60005b602082101515610e765782518452602084019350602083019250602082039150610e51565b6001826020036101000a0390508019835116818551168181178652505050505050565b828054828255906000526020600020908101928215610f12579160200282015b82811115610f115782518260006101000a81548173ffffffffffffffffffffffffffffffffffffffff021916908373ffffffffffffffffffffffffffffffffffffffff16021790555091602001919060010190610eb9565b5b509050610f1f9190610f3d565b5090565b604080519081016040528060008152602001600081525090565b610f7d91905b80821115610f7957600081816101000a81549073ffffffffffffffffffffffffffffffffffffffff021916905550600101610f43565b5090565b905600a165627a7a7230582038cee50a5744d4ed51d29a46e7c86acb050cce666377cad499e05024009500060029",
  "source": "pragma solidity ^0.4.24;\n\nimport \"../ERC20Sale.sol\";\nimport \"./ERC20SaleWidgetRenderer.sol\";\nimport \"./ERC20SaleInputsRenderer.sol\";\n\ncontract ERC20SaleRenderer {\n    using strings for *;\n\n    ERC20SaleWidgetRenderer[] adminWidgetRenderers;\n    ERC20SaleWidgetRenderer[] userWidgetRenderers;\n    ERC20SaleInputsRenderer public inputsRenderer;\n\n    function setAdminWidgetRenderers(ERC20SaleWidgetRenderer[] _renderers) public {\n        adminWidgetRenderers = _renderers;\n    }\n\n    function numberOfAdminWidgetRenderers() public view returns (uint) {\n        return adminWidgetRenderers.length;\n    }\n\n    function getAdminWidgetRendererAt(uint index) public view returns (ERC20SaleWidgetRenderer) {\n        return adminWidgetRenderers[index];\n    }\n\n    function setUserWidgetRenderers(ERC20SaleWidgetRenderer[] _renderers) public {\n        userWidgetRenderers = _renderers;\n    }\n\n    function numberOfUserWidgetRenderers() public view returns (uint) {\n        return userWidgetRenderers.length;\n    }\n\n    function getUserWidgetRendererAt(uint index) public view returns (ERC20SaleWidgetRenderer) {\n        return userWidgetRenderers[index];\n    }\n\n    function setInputsRenderer(ERC20SaleInputsRenderer _renderer) public {\n        inputsRenderer = _renderer;\n    }\n\n    function adminWidgets(string _locale, ERC20Sale _sale) public view returns (string jsonObject) {\n        return _widgets(_locale, _sale, adminWidgetRenderers);\n    }\n\n    function userWidgets(string _locale, ERC20Sale _sale) public view returns (string jsonObject) {\n        return _widgets(_locale, _sale, userWidgetRenderers);\n    }\n\n    function _widgets(string _locale, ERC20Sale _sale, ERC20SaleWidgetRenderer[] _widgetRenderes) private view returns (string) {\n        string memory json = \"[\";\n        uint length = 0;\n        for (uint i = 0; i < _widgetRenderes.length; i++) {\n            ERC20SaleWidgetRenderer renderer = _widgetRenderes[i];\n            string memory widget = renderer.render(_locale, _sale);\n            if (bytes(widget).length > 0) {\n                if (length > 0) {\n                    json = json.toSlice().concat(\",\".toSlice());\n                }\n                json = json.toSlice().concat(widget.toSlice());\n                length++;\n            }\n        }\n        return json.toSlice().concat(\"]\".toSlice());\n    }\n\n    function inputs(string _locale, ERC20Sale _sale) public view returns (string jsonArray) {\n        return inputsRenderer.render(_locale, _sale);\n    }\n}\n",
  "sourcePath": "/Users/yoonjae/SolidityProjects/tokenboost-solidity-erc20sale/contracts/sale/erc20/widget/ERC20SaleRenderer.sol",
  "compiler": {
    "name": "solc",
    "version": "0.4.24+commit.e67f0147.Emscripten.clang"
  },
  "schemaVersion": "2.0.1",
  "updatedAt": "2018-09-19T13:47:24.369Z"
}