{
  "contractName": "ERC20SaleRenderer",
  "abi": [
    {
      "constant": true,
      "inputs": [],
      "name": "inputsRenderer",
      "outputs": [
        {
          "name": "",
          "type": "address"
        }
      ],
      "payable": false,
      "stateMutability": "view",
      "type": "function"
    },
    {
      "constant": false,
      "inputs": [
        {
          "name": "_renderers",
          "type": "address[]"
        }
      ],
      "name": "setAdminWidgetRenderers",
      "outputs": [],
      "payable": false,
      "stateMutability": "nonpayable",
      "type": "function"
    },
    {
      "constant": true,
      "inputs": [],
      "name": "numberOfAdminWidgetRenderers",
      "outputs": [
        {
          "name": "",
          "type": "uint256"
        }
      ],
      "payable": false,
      "stateMutability": "view",
      "type": "function"
    },
    {
      "constant": true,
      "inputs": [
        {
          "name": "index",
          "type": "uint256"
        }
      ],
      "name": "getAdminWidgetRendererAt",
      "outputs": [
        {
          "name": "",
          "type": "address"
        }
      ],
      "payable": false,
      "stateMutability": "view",
      "type": "function"
    },
    {
      "constant": false,
      "inputs": [
        {
          "name": "_renderers",
          "type": "address[]"
        }
      ],
      "name": "setUserWidgetRenderers",
      "outputs": [],
      "payable": false,
      "stateMutability": "nonpayable",
      "type": "function"
    },
    {
      "constant": true,
      "inputs": [],
      "name": "numberOfUserWidgetRenderers",
      "outputs": [
        {
          "name": "",
          "type": "uint256"
        }
      ],
      "payable": false,
      "stateMutability": "view",
      "type": "function"
    },
    {
      "constant": true,
      "inputs": [
        {
          "name": "index",
          "type": "uint256"
        }
      ],
      "name": "getUserWidgetRendererAt",
      "outputs": [
        {
          "name": "",
          "type": "address"
        }
      ],
      "payable": false,
      "stateMutability": "view",
      "type": "function"
    },
    {
      "constant": false,
      "inputs": [
        {
          "name": "_renderer",
          "type": "address"
        }
      ],
      "name": "setInputsRenderer",
      "outputs": [],
      "payable": false,
      "stateMutability": "nonpayable",
      "type": "function"
    },
    {
      "constant": true,
      "inputs": [
        {
          "name": "_locale",
          "type": "string"
        },
        {
          "name": "_sale",
          "type": "address"
        }
      ],
      "name": "adminWidgets",
      "outputs": [
        {
          "name": "jsonObject",
          "type": "string"
        }
      ],
      "payable": false,
      "stateMutability": "view",
      "type": "function"
    },
    {
      "constant": true,
      "inputs": [
        {
          "name": "_locale",
          "type": "string"
        },
        {
          "name": "_sale",
          "type": "address"
        }
      ],
      "name": "userWidgets",
      "outputs": [
        {
          "name": "jsonObject",
          "type": "string"
        }
      ],
      "payable": false,
      "stateMutability": "view",
      "type": "function"
    },
    {
      "constant": true,
      "inputs": [
        {
          "name": "_locale",
          "type": "string"
        },
        {
          "name": "_sale",
          "type": "address"
        }
      ],
      "name": "inputs",
      "outputs": [
        {
          "name": "jsonArray",
          "type": "string"
        }
      ],
      "payable": false,
      "stateMutability": "view",
      "type": "function"
    }
  ],
  "bytecode": "0x608060405234801561001057600080fd5b50610b0c806100206000396000f3006080604052600436106100ad5763ffffffff7c01000000000000000000000000000000000000000000000000000000006000350416626c8e7f81146100b2578063020849be146100e65780630a709e591461013d5780633634a20c146101525780635d36af89146101a757806385295c19146101bf578063a1f40d8f146101e6578063bbb7b46a14610207578063bf3bed541461021c578063e77cee3d146102f5578063e949955514610359575b600080fd5b3480156100be57600080fd5b506100ca6004356103bd565b60408051600160a060020a039092168252519081900360200190f35b3480156100f257600080fd5b506040805160206004803580820135838102808601850190965280855261013b953695939460249493850192918291850190849080828437509497506103e99650505050505050565b005b34801561014957600080fd5b506100ca610400565b34801561015e57600080fd5b506040805160206004803580820135838102808601850190965280855261013b9536959394602494938501929182918501908490808284375094975061040f9650505050505050565b3480156101b357600080fd5b506100ca600435610422565b3480156101cb57600080fd5b506101d4610432565b60408051918252519081900360200190f35b3480156101f257600080fd5b5061013b600160a060020a0360043516610439565b34801561021357600080fd5b506101d4610468565b34801561022857600080fd5b506040805160206004803580820135601f810184900484028501840190955284845261028094369492936024939284019190819084018382808284375094975050509235600160a060020a0316935061046e92505050565b6040805160208082528351818301528351919283929083019185019080838360005b838110156102ba5781810151838201526020016102a2565b50505050905090810190601f1680156102e75780820380516001836020036101000a031916815260200191505b509250505060405180910390f35b34801561030157600080fd5b506040805160206004803580820135601f810184900484028501840190955284845261028094369492936024939284019190819084018382808284375094975050509235600160a060020a031693506105d292505050565b34801561036557600080fd5b506040805160206004803580820135601f810184900484028501840190955284845261028094369492936024939284019190819084018382808284375094975050509235600160a060020a0316935061064092505050565b60006001828154811015156103ce57fe5b600091825260209091200154600160a060020a031692915050565b80516103fc906001906020840190610a26565b5050565b600254600160a060020a031681565b80516103fc906000906020840190610a26565b600080828154811015156103ce57fe5b6000545b90565b6002805473ffffffffffffffffffffffffffffffffffffffff1916600160a060020a0392909216919091179055565b60015490565b600254604080517fca1a70be000000000000000000000000000000000000000000000000000000008152600160a060020a03848116602483015260048201928352855160448301528551606094919091169263ca1a70be9287928792918291606490910190602086019080838360005b838110156104f65781810151838201526020016104de565b50505050905090810190601f1680156105235780820380516001836020036101000a031916815260200191505b509350505050600060405180830381600087803b15801561054357600080fd5b505af1158015610557573d6000803e3d6000fd5b505050506040513d6000823e601f3d908101601f19168201604052602081101561058057600080fd5b81019080805164010000000081111561059857600080fd5b820160208101848111156105ab57600080fd5b81516401000000008111828201871017156105c557600080fd5b5090979650505050505050565b60606106398383600180548060200260200160405190810160405280929190818152602001828054801561062f57602002820191906000526020600020905b8154600160a060020a03168152600190910190602001808311610611575b50505050506106a1565b9392505050565b60606106398383600080548060200260200160405190810160405280929190818152602001828054801561062f57602002820191906000526020600020908154600160a060020a031681526001909101906020018083116106115750505050505b60408051808201909152600181527f5b00000000000000000000000000000000000000000000000000000000000000602082015260609060008080845b86518310156108f75786838151811015156106f557fe5b90602001906020020151915081600160a060020a031663ca1a70be8a8a6040518363ffffffff167c0100000000000000000000000000000000000000000000000000000000028152600401808060200183600160a060020a0316600160a060020a03168152602001828103825284818151815260200191508051906020019080838360005b8381101561079257818101518382015260200161077a565b50505050905090810190601f1680156107bf5780820380516001836020036101000a031916815260200191505b509350505050600060405180830381600087803b1580156107df57600080fd5b505af11580156107f3573d6000803e3d6000fd5b505050506040513d6000823e601f3d908101601f19168201604052602081101561081c57600080fd5b81019080805164010000000081111561083457600080fd5b8201602081018481111561084757600080fd5b815164010000000081118282018710171561086157600080fd5b505092919050505090506000815111156108ec5760008411156108d7576108d46108bf6040805190810160405280600181526020017f2c00000000000000000000000000000000000000000000000000000000000000815250610945565b6108c887610945565b9063ffffffff61096b16565b94505b6108e36108bf82610945565b94506001909301925b6001909201916106de565b6109386108bf6040805190810160405280600181526020017f5d00000000000000000000000000000000000000000000000000000000000000815250610945565b9998505050505050505050565b61094d610a98565b50604080518082019091528151815260209182019181019190915290565b606080600083600001518560000151016040519080825280601f01601f1916602001820160405280156109a8578160200160208202803883390190505b5091506020820190506109c481866020015187600001516109e2565b8451602085015185516109da92840191906109e2565b509392505050565b60005b60208210610a07578251845260209384019390920191601f19909101906109e5565b50905182516020929092036101000a6000190180199091169116179052565b828054828255906000526020600020908101928215610a88579160200282015b82811115610a88578251825473ffffffffffffffffffffffffffffffffffffffff1916600160a060020a03909116178255602090920191600190910190610a46565b50610a94929150610aaf565b5090565b604080518082019091526000808252602082015290565b61043691905b80821115610a9457805473ffffffffffffffffffffffffffffffffffffffff19168155600101610ab55600a165627a7a7230582033ff79a89c3c30dbc751b357e7c1b6099d41babf7d3b1296b164772e8f3f72290029",
  "source": "pragma solidity ^0.4.24;\n\nimport \"../ERC20Sale.sol\";\nimport \"./ERC20SaleWidgetRenderer.sol\";\nimport \"./ERC20SaleInputsRenderer.sol\";\n\ncontract ERC20SaleRenderer {\n    using strings for *;\n\n    ERC20SaleWidgetRenderer[] adminWidgetRenderers;\n    ERC20SaleWidgetRenderer[] userWidgetRenderers;\n    ERC20SaleInputsRenderer public inputsRenderer;\n\n    function setAdminWidgetRenderers(ERC20SaleWidgetRenderer[] _renderers) public {\n        adminWidgetRenderers = _renderers;\n    }\n\n    function numberOfAdminWidgetRenderers() public view returns (uint) {\n        return adminWidgetRenderers.length;\n    }\n\n    function getAdminWidgetRendererAt(uint index) public view returns (ERC20SaleWidgetRenderer) {\n        return adminWidgetRenderers[index];\n    }\n\n    function setUserWidgetRenderers(ERC20SaleWidgetRenderer[] _renderers) public {\n        userWidgetRenderers = _renderers;\n    }\n\n    function numberOfUserWidgetRenderers() public view returns (uint) {\n        return userWidgetRenderers.length;\n    }\n\n    function getUserWidgetRendererAt(uint index) public view returns (ERC20SaleWidgetRenderer) {\n        return userWidgetRenderers[index];\n    }\n\n    function setInputsRenderer(ERC20SaleInputsRenderer _renderer) public {\n        inputsRenderer = _renderer;\n    }\n\n    function adminWidgets(string _locale, ERC20Sale _sale) public view returns (string jsonObject) {\n        return _widgets(_locale, _sale, adminWidgetRenderers);\n    }\n\n    function userWidgets(string _locale, ERC20Sale _sale) public view returns (string jsonObject) {\n        return _widgets(_locale, _sale, userWidgetRenderers);\n    }\n\n    function _widgets(string _locale, ERC20Sale _sale, ERC20SaleWidgetRenderer[] _widgetRenderes) private view returns (string) {\n        string memory json = \"[\";\n        uint length = 0;\n        for (uint i = 0; i < _widgetRenderes.length; i++) {\n            ERC20SaleWidgetRenderer renderer = _widgetRenderes[i];\n            string memory widget = renderer.render(_locale, _sale);\n            if (bytes(widget).length > 0) {\n                if (length > 0) {\n                    json = json.toSlice().concat(\",\".toSlice());\n                }\n                json = json.toSlice().concat(widget.toSlice());\n                length++;\n            }\n        }\n        return json.toSlice().concat(\"]\".toSlice());\n    }\n\n    function inputs(string _locale, ERC20Sale _sale) public view returns (string jsonArray) {\n        return inputsRenderer.render(_locale, _sale);\n    }\n}\n",
  "sourcePath": "/Users/yoonjae/SolidityProjects/tokenboost-solidity-erc20sale/contracts/sale/erc20/widget/ERC20SaleRenderer.sol",
  "compiler": {
    "name": "solc",
    "version": "0.4.24+commit.e67f0147.Emscripten.clang"
  },
  "schemaVersion": "2.0.1",
  "updatedAt": "2018-10-05T08:52:04.326Z"
}