{
  "contractName": "ERC20Sale",
  "abi": [
    {
      "constant": true,
      "inputs": [
        {
          "name": "_interfaceId",
          "type": "bytes4"
        }
      ],
      "name": "supportsInterface",
      "outputs": [
        {
          "name": "",
          "type": "bool"
        }
      ],
      "payable": false,
      "stateMutability": "view",
      "type": "function"
    },
    {
      "constant": true,
      "inputs": [],
      "name": "name",
      "outputs": [
        {
          "name": "",
          "type": "string"
        }
      ],
      "payable": false,
      "stateMutability": "view",
      "type": "function"
    },
    {
      "constant": true,
      "inputs": [],
      "name": "numberOfStrategies",
      "outputs": [
        {
          "name": "",
          "type": "uint256"
        }
      ],
      "payable": false,
      "stateMutability": "view",
      "type": "function"
    },
    {
      "constant": false,
      "inputs": [],
      "name": "activate",
      "outputs": [
        {
          "name": "",
          "type": "bool"
        }
      ],
      "payable": false,
      "stateMutability": "nonpayable",
      "type": "function"
    },
    {
      "constant": true,
      "inputs": [
        {
          "name": "index",
          "type": "uint256"
        }
      ],
      "name": "strategyAt",
      "outputs": [
        {
          "name": "",
          "type": "address"
        }
      ],
      "payable": false,
      "stateMutability": "view",
      "type": "function"
    },
    {
      "constant": true,
      "inputs": [],
      "name": "activated",
      "outputs": [
        {
          "name": "",
          "type": "bool"
        }
      ],
      "payable": false,
      "stateMutability": "view",
      "type": "function"
    },
    {
      "constant": true,
      "inputs": [],
      "name": "InterfaceId_ERC165",
      "outputs": [
        {
          "name": "",
          "type": "bytes4"
        }
      ],
      "payable": false,
      "stateMutability": "view",
      "type": "function"
    },
    {
      "constant": true,
      "inputs": [],
      "name": "started",
      "outputs": [
        {
          "name": "",
          "type": "bool"
        }
      ],
      "payable": false,
      "stateMutability": "view",
      "type": "function"
    },
    {
      "constant": true,
      "inputs": [],
      "name": "InterfaceId_ERC20Sale",
      "outputs": [
        {
          "name": "",
          "type": "bytes4"
        }
      ],
      "payable": false,
      "stateMutability": "view",
      "type": "function"
    },
    {
      "constant": true,
      "inputs": [],
      "name": "whitepaperUrl",
      "outputs": [
        {
          "name": "",
          "type": "string"
        }
      ],
      "payable": false,
      "stateMutability": "view",
      "type": "function"
    },
    {
      "constant": true,
      "inputs": [],
      "name": "numberOfActivatedStrategies",
      "outputs": [
        {
          "name": "",
          "type": "uint256"
        }
      ],
      "payable": false,
      "stateMutability": "view",
      "type": "function"
    },
    {
      "constant": false,
      "inputs": [],
      "name": "withdraw",
      "outputs": [
        {
          "name": "",
          "type": "bool"
        }
      ],
      "payable": false,
      "stateMutability": "nonpayable",
      "type": "function"
    },
    {
      "constant": true,
      "inputs": [],
      "name": "weiRaised",
      "outputs": [
        {
          "name": "",
          "type": "uint256"
        }
      ],
      "payable": false,
      "stateMutability": "view",
      "type": "function"
    },
    {
      "constant": true,
      "inputs": [
        {
          "name": "index",
          "type": "uint256"
        }
      ],
      "name": "activatedStrategyAt",
      "outputs": [
        {
          "name": "",
          "type": "address"
        }
      ],
      "payable": false,
      "stateMutability": "view",
      "type": "function"
    },
    {
      "constant": true,
      "inputs": [],
      "name": "template",
      "outputs": [
        {
          "name": "",
          "type": "address"
        }
      ],
      "payable": false,
      "stateMutability": "view",
      "type": "function"
    },
    {
      "constant": false,
      "inputs": [],
      "name": "renounceOwnership",
      "outputs": [],
      "payable": false,
      "stateMutability": "nonpayable",
      "type": "function"
    },
    {
      "constant": true,
      "inputs": [],
      "name": "projectDescription",
      "outputs": [
        {
          "name": "",
          "type": "string"
        }
      ],
      "payable": false,
      "stateMutability": "view",
      "type": "function"
    },
    {
      "constant": false,
      "inputs": [
        {
          "name": "_template",
          "type": "address"
        },
        {
          "name": "_bytecode",
          "type": "bytes"
        }
      ],
      "name": "addStrategy",
      "outputs": [],
      "payable": true,
      "stateMutability": "payable",
      "type": "function"
    },
    {
      "constant": true,
      "inputs": [],
      "name": "owner",
      "outputs": [
        {
          "name": "",
          "type": "address"
        }
      ],
      "payable": false,
      "stateMutability": "view",
      "type": "function"
    },
    {
      "constant": true,
      "inputs": [],
      "name": "logoUrl",
      "outputs": [
        {
          "name": "",
          "type": "string"
        }
      ],
      "payable": false,
      "stateMutability": "view",
      "type": "function"
    },
    {
      "constant": true,
      "inputs": [],
      "name": "projectName",
      "outputs": [
        {
          "name": "",
          "type": "string"
        }
      ],
      "payable": false,
      "stateMutability": "view",
      "type": "function"
    },
    {
      "constant": true,
      "inputs": [],
      "name": "successful",
      "outputs": [
        {
          "name": "",
          "type": "bool"
        }
      ],
      "payable": false,
      "stateMutability": "view",
      "type": "function"
    },
    {
      "constant": true,
      "inputs": [],
      "name": "projectSummary",
      "outputs": [
        {
          "name": "",
          "type": "string"
        }
      ],
      "payable": false,
      "stateMutability": "view",
      "type": "function"
    },
    {
      "constant": true,
      "inputs": [],
      "name": "websiteUrl",
      "outputs": [
        {
          "name": "",
          "type": "string"
        }
      ],
      "payable": false,
      "stateMutability": "view",
      "type": "function"
    },
    {
      "constant": false,
      "inputs": [],
      "name": "claimRefund",
      "outputs": [
        {
          "name": "",
          "type": "bool"
        }
      ],
      "payable": false,
      "stateMutability": "nonpayable",
      "type": "function"
    },
    {
      "constant": true,
      "inputs": [],
      "name": "finished",
      "outputs": [
        {
          "name": "",
          "type": "bool"
        }
      ],
      "payable": false,
      "stateMutability": "view",
      "type": "function"
    },
    {
      "constant": true,
      "inputs": [],
      "name": "withdrawn",
      "outputs": [
        {
          "name": "",
          "type": "bool"
        }
      ],
      "payable": false,
      "stateMutability": "view",
      "type": "function"
    },
    {
      "constant": true,
      "inputs": [
        {
          "name": "_purchaser",
          "type": "address"
        }
      ],
      "name": "paymentOf",
      "outputs": [
        {
          "name": "weiAmount",
          "type": "uint256"
        }
      ],
      "payable": false,
      "stateMutability": "view",
      "type": "function"
    },
    {
      "constant": true,
      "inputs": [],
      "name": "InterfaceId_Sale",
      "outputs": [
        {
          "name": "",
          "type": "bytes4"
        }
      ],
      "payable": false,
      "stateMutability": "view",
      "type": "function"
    },
    {
      "constant": true,
      "inputs": [],
      "name": "coverImageUrl",
      "outputs": [
        {
          "name": "",
          "type": "string"
        }
      ],
      "payable": false,
      "stateMutability": "view",
      "type": "function"
    },
    {
      "constant": false,
      "inputs": [
        {
          "name": "_newOwner",
          "type": "address"
        }
      ],
      "name": "transferOwnership",
      "outputs": [],
      "payable": false,
      "stateMutability": "nonpayable",
      "type": "function"
    },
    {
      "constant": true,
      "inputs": [],
      "name": "InterfaceId_Contract",
      "outputs": [
        {
          "name": "",
          "type": "bytes4"
        }
      ],
      "payable": false,
      "stateMutability": "view",
      "type": "function"
    },
    {
      "constant": true,
      "inputs": [],
      "name": "token",
      "outputs": [
        {
          "name": "",
          "type": "address"
        }
      ],
      "payable": false,
      "stateMutability": "view",
      "type": "function"
    },
    {
      "inputs": [
        {
          "name": "_owner",
          "type": "address"
        },
        {
          "name": "_projectName",
          "type": "string"
        },
        {
          "name": "_name",
          "type": "string"
        },
        {
          "name": "_token",
          "type": "address"
        }
      ],
      "payable": false,
      "stateMutability": "nonpayable",
      "type": "constructor"
    },
    {
      "payable": true,
      "stateMutability": "payable",
      "type": "fallback"
    },
    {
      "anonymous": false,
      "inputs": [
        {
          "indexed": true,
          "name": "purchaser",
          "type": "address"
        },
        {
          "indexed": false,
          "name": "weiAmount",
          "type": "uint256"
        },
        {
          "indexed": false,
          "name": "tokenAmount",
          "type": "uint256"
        }
      ],
      "name": "TokenPurchase",
      "type": "event"
    },
    {
      "anonymous": false,
      "inputs": [
        {
          "indexed": true,
          "name": "previousOwner",
          "type": "address"
        }
      ],
      "name": "OwnershipRenounced",
      "type": "event"
    },
    {
      "anonymous": false,
      "inputs": [
        {
          "indexed": true,
          "name": "previousOwner",
          "type": "address"
        },
        {
          "indexed": true,
          "name": "newOwner",
          "type": "address"
        }
      ],
      "name": "OwnershipTransferred",
      "type": "event"
    },
    {
      "constant": true,
      "inputs": [],
      "name": "numberOfPurchasers",
      "outputs": [
        {
          "name": "",
          "type": "uint256"
        }
      ],
      "payable": false,
      "stateMutability": "view",
      "type": "function"
    },
    {
      "constant": true,
      "inputs": [
        {
          "name": "_index",
          "type": "uint256"
        }
      ],
      "name": "purchaserAt",
      "outputs": [
        {
          "name": "",
          "type": "address"
        }
      ],
      "payable": false,
      "stateMutability": "view",
      "type": "function"
    },
    {
      "constant": true,
      "inputs": [
        {
          "name": "_purchaser",
          "type": "address"
        }
      ],
      "name": "tokenAmountOf",
      "outputs": [
        {
          "name": "",
          "type": "uint256"
        }
      ],
      "payable": false,
      "stateMutability": "view",
      "type": "function"
    },
    {
      "constant": false,
      "inputs": [
        {
          "name": "_projectName",
          "type": "string"
        },
        {
          "name": "_projectSummary",
          "type": "string"
        },
        {
          "name": "_projectDescription",
          "type": "string"
        },
        {
          "name": "_logoUrl",
          "type": "string"
        },
        {
          "name": "_coverImageUrl",
          "type": "string"
        },
        {
          "name": "_websiteUrl",
          "type": "string"
        },
        {
          "name": "_whitepaperUrl",
          "type": "string"
        },
        {
          "name": "_name",
          "type": "string"
        },
        {
          "name": "_token",
          "type": "address"
        }
      ],
      "name": "update",
      "outputs": [],
      "payable": false,
      "stateMutability": "nonpayable",
      "type": "function"
    },
    {
      "constant": false,
      "inputs": [
        {
          "name": "_projectName",
          "type": "string"
        },
        {
          "name": "_projectSummary",
          "type": "string"
        },
        {
          "name": "_projectDescription",
          "type": "string"
        },
        {
          "name": "_logoUrl",
          "type": "string"
        },
        {
          "name": "_coverImageUrl",
          "type": "string"
        },
        {
          "name": "_websiteUrl",
          "type": "string"
        },
        {
          "name": "_whitepaperUrl",
          "type": "string"
        },
        {
          "name": "_name",
          "type": "string"
        }
      ],
      "name": "update",
      "outputs": [],
      "payable": false,
      "stateMutability": "nonpayable",
      "type": "function"
    },
    {
      "constant": true,
      "inputs": [
        {
          "name": "_weiAmount",
          "type": "uint256"
        }
      ],
      "name": "purchasable",
      "outputs": [
        {
          "name": "",
          "type": "bool"
        }
      ],
      "payable": false,
      "stateMutability": "view",
      "type": "function"
    },
    {
      "constant": true,
      "inputs": [
        {
          "name": "_weiAmount",
          "type": "uint256"
        }
      ],
      "name": "getTokenAmount",
      "outputs": [
        {
          "name": "",
          "type": "uint256"
        }
      ],
      "payable": false,
      "stateMutability": "view",
      "type": "function"
    }
  ],
  "bytecode": "0x60806040523480156200001157600080fd5b5060405162002503380380620025038339810160409081528151602083015191830151606084015160008054600160a060020a031916331790559193928301920190838383826200008b7f01ffc9a700000000000000000000000000000000000000000000000000000000640100000000620001d1810204565b600160a060020a0381161515620000a157600080fd5b6002805433600160a060020a03199182161790915560008054909116600160a060020a038316179055620000fe7f6125ede500000000000000000000000000000000000000000000000000000000640100000000620001d1810204565b5081516200011490600390602085019062000241565b5080516200012a90600a90602084019062000241565b506200015f7f8139792d00000000000000000000000000000000000000000000000000000000640100000000620001d1810204565b505050600160a060020a03811615156200017857600080fd5b60128054600160a060020a031916600160a060020a038316179055620001c77ffd20e2b900000000000000000000000000000000000000000000000000000000640100000000620001d1810204565b50505050620002e6565b7fffffffff0000000000000000000000000000000000000000000000000000000080821614156200020157600080fd5b7fffffffff00000000000000000000000000000000000000000000000000000000166000908152600160208190526040909120805460ff19169091179055565b828054600181600116156101000203166002900490600052602060002090601f016020900481019282601f106200028457805160ff1916838001178555620002b4565b82800160010185558215620002b4579182015b82811115620002b457825182559160200191906001019062000297565b50620002c2929150620002c6565b5090565b620002e391905b80821115620002c25760008155600101620002cd565b90565b61220d80620002f66000396000f3006080604052600436106101d45763ffffffff60e060020a60003504166301ffc9a781146102c157806306fdde031461030c5780630956e5a6146103965780630f15f4c0146103bd5780630fc8c0b6146103d2578063148cb6e614610406578063186601ca1461061e57806319fa8f50146106335780631f2698ab1461067a57806327f6c75a1461068f5780632c7a72f8146106a4578063334ff632146106b95780633ccfd60b146106ce5780634042b66f146106e35780635027a916146106f8578063580c2ae914610710578063655ded03146107255780636f2ddd931461073d578063715018a614610752578063755f047b146107675780637aeedf2a1461077c5780638da5cb5b146107d657806391c62b79146107eb57806397b150ca14610803578063993d77af146108245780639a33e300146108395780639a9e3fd81461084e5780639ec318bf14610863578063abb5ca0914610878578063b5545a3c1461088d578063bef4876b146108a2578063c2507ac1146108b7578063c80ec522146108cf578063cf7c2b31146108e4578063d04be2da14610905578063dea53c201461091a578063df1c5c7c1461092f578063f2fde38b14610b3a578063fbf964eb14610b5b578063fc0c546a14610b70575b6000806000600260149054906101000a900460ff1615156101f457600080fd5b6101fc610b85565b1561020657600080fd5b61020e610c62565b151561021957600080fd5b61022234610d3e565b151561022d57600080fd5b33925061023983610e2a565b6102438334610ed5565b61024c34610f56565b91506102588383611052565b610262838361109b565b905061026e8183611184565b151561027957600080fd5b60408051348152602081018490528151600160a060020a038616927fcd60aa75dea3072fbc07ae6d7d856b5dc5f4eee88854f5b4abf7b680ef8bc50f928290030190a2505050005b3480156102cd57600080fd5b506102f87bffffffffffffffffffffffffffffffffffffffffffffffffffffffff1960043516611262565b604080519115158252519081900360200190f35b34801561031857600080fd5b50610321611296565b6040805160208082528351818301528351919283929083019185019080838360005b8381101561035b578181015183820152602001610343565b50505050905090810190601f1680156103885780820380516001836020036101000a031916815260200191505b509250505060405180910390f35b3480156103a257600080fd5b506103ab611324565b60408051918252519081900360200190f35b3480156103c957600080fd5b506102f861132b565b3480156103de57600080fd5b506103ea600435611466565b60408051600160a060020a039092168252519081900360200190f35b34801561041257600080fd5b506040805160206004803580820135601f810184900484028501840190955284845261061c94369492936024939284019190819084018382808284375050604080516020601f89358b018035918201839004830284018301909452808352979a99988101979196509182019450925082915084018382808284375050604080516020601f89358b018035918201839004830284018301909452808352979a99988101979196509182019450925082915084018382808284375050604080516020601f89358b018035918201839004830284018301909452808352979a99988101979196509182019450925082915084018382808284375050604080516020601f89358b018035918201839004830284018301909452808352979a99988101979196509182019450925082915084018382808284375050604080516020601f89358b018035918201839004830284018301909452808352979a99988101979196509182019450925082915084018382808284375050604080516020601f89358b018035918201839004830284018301909452808352979a99988101979196509182019450925082915084018382808284375050604080516020601f89358b018035918201839004830284018301909452808352979a99988101979196509182019450925082915084018382808284375094975050509235600160a060020a0316935061149292505050565b005b34801561062a57600080fd5b506102f86114d9565b34801561063f57600080fd5b506106486114e9565b604080517bffffffffffffffffffffffffffffffffffffffffffffffffffffffff199092168252519081900360200190f35b34801561068657600080fd5b506102f8610c62565b34801561069b57600080fd5b5061064861150d565b3480156106b057600080fd5b50610321611531565b3480156106c557600080fd5b506103ab61158c565b3480156106da57600080fd5b506102f8611592565b3480156106ef57600080fd5b506103ab61163b565b34801561070457600080fd5b506103ea600435611641565b34801561071c57600080fd5b506103ab611652565b34801561073157600080fd5b506102f8600435610d3e565b34801561074957600080fd5b506103ea611658565b34801561075e57600080fd5b5061061c611667565b34801561077357600080fd5b506103216116d3565b60408051602060046024803582810135601f810185900485028601850190965285855261061c958335600160a060020a031695369560449491939091019190819084018382808284375094975061172e9650505050505050565b3480156107e257600080fd5b506103ea611aa1565b3480156107f757600080fd5b506103ea600435611ab0565b34801561080f57600080fd5b506103ab600160a060020a0360043516611ac1565b34801561083057600080fd5b50610321611adc565b34801561084557600080fd5b50610321611b37565b34801561085a57600080fd5b506102f8611b92565b34801561086f57600080fd5b50610321611c66565b34801561088457600080fd5b50610321611cc1565b34801561089957600080fd5b506102f8611d1c565b3480156108ae57600080fd5b506102f8610b85565b3480156108c357600080fd5b506103ab600435610f56565b3480156108db57600080fd5b506102f8611dc0565b3480156108f057600080fd5b506103ab600160a060020a0360043516611dc9565b34801561091157600080fd5b50610648611de4565b34801561092657600080fd5b50610321611e08565b34801561093b57600080fd5b506040805160206004803580820135601f810184900484028501840190955284845261061c94369492936024939284019190819084018382808284375050604080516020601f89358b018035918201839004830284018301909452808352979a99988101979196509182019450925082915084018382808284375050604080516020601f89358b018035918201839004830284018301909452808352979a99988101979196509182019450925082915084018382808284375050604080516020601f89358b018035918201839004830284018301909452808352979a99988101979196509182019450925082915084018382808284375050604080516020601f89358b018035918201839004830284018301909452808352979a99988101979196509182019450925082915084018382808284375050604080516020601f89358b018035918201839004830284018301909452808352979a99988101979196509182019450925082915084018382808284375050604080516020601f89358b018035918201839004830284018301909452808352979a99988101979196509182019450925082915084018382808284375050604080516020601f89358b018035918201839004830284018301909452808352979a999881019791965091820194509250829150840183828082843750949750611e639650505050505050565b348015610b4657600080fd5b5061061c600160a060020a0360043516611f3b565b348015610b6757600080fd5b50610648611f5e565b348015610b7c57600080fd5b506103ea611f82565b6000806000610b92610c62565b1515610ba15760009250610c5d565b5060009050805b600e54811015610c59578180610c4f5750600e805482908110610bc757fe5b9060005260206000200160009054906101000a9004600160a060020a0316600160a060020a031663bef4876b6040518163ffffffff1660e060020a028152600401602060405180830381600087803b158015610c2257600080fd5b505af1158015610c36573d6000803e3d6000fd5b505050506040513d6020811015610c4c57600080fd5b50515b9150600101610ba8565b8192505b505090565b6000806000600260149054906101000a900460ff161515610c865760009250610c5d565b5060009050805b600e54811015610c59578180610d345750600e805482908110610cac57fe5b9060005260206000200160009054906101000a9004600160a060020a0316600160a060020a0316631f2698ab6040518163ffffffff1660e060020a028152600401602060405180830381600087803b158015610d0757600080fd5b505af1158015610d1b573d6000803e3d6000fd5b505050506040513d6020811015610d3157600080fd5b50515b9150600101610c8d565b6000600181805b600e54821015610e1e57600e805483908110610d5d57fe5b600091825260209091200154600160a060020a03169050828015610e115750604080517f4f9a82d6000000000000000000000000000000000000000000000000000000008152336004820152602481018790529051600160a060020a03831691634f9a82d69160448083019260209291908290030181600087803b158015610de457600080fd5b505af1158015610df8573d6000803e3d6000fd5b505050506040513d6020811015610e0e57600080fd5b50515b9250600190910190610d45565b8293505b505050919050565b60005b601054811015610e785781600160a060020a0316601082815481101515610e5057fe5b600091825260209091200154600160a060020a03161415610e7057610ed1565b600101610e2d565b601080546001810182556000919091527f1b6847dc741a1b0cd08d278845f9d819d87b734759afb55fe2de5cb82a9ae67201805473ffffffffffffffffffffffffffffffffffffffff1916600160a060020a0384161790555b5050565b610edd610b85565b15610ee757600080fd5b610eef610c62565b1515610efa57600080fd5b600160a060020a0382166000908152600f6020526040902054610f23908263ffffffff611f9116565b600160a060020a0383166000908152600f6020526040902055600b54610f4f908263ffffffff611f9116565b600b555050565b60008080805b600e5483101561104757600e805484908110610f7457fe5b6000918252602080832090910154604080517f5589530e000000000000000000000000000000000000000000000000000000008152336004820152602481018a90529051600160a060020a0390921695508593635589530e9360448084019491939192918390030190829087803b158015610fee57600080fd5b505af1158015611002573d6000803e3d6000fd5b505050506040513d602081101561101857600080fd5b50519050600081111561103c57611035858263ffffffff611fa416565b9350610e22565b600190920191610f5c565b506000949350505050565b600160a060020a03821660009081526011602052604090205461107b908263ffffffff611f9116565b600160a060020a0390921660009081526011602052604090209190915550565b600080805b600e5482101561117857600e8054839081106110b857fe5b6000918252602080832090910154604080517fe67c8646000000000000000000000000000000000000000000000000000000008152600160a060020a038a81166004830152602482018a90529151919092169450849363e67c864693604480850194919392918390030190829087803b15801561113457600080fd5b505af1158015611148573d6000803e3d6000fd5b505050506040513d602081101561115e57600080fd5b50511561116d5780925061117c565b6001909101906110a0565b8492505b505092915050565b600080805b600e5482101561104757600e8054839081106111a157fe5b6000918252602080832090910154604080517f587775e8000000000000000000000000000000000000000000000000000000008152600160a060020a038a81166004830152602482018a90529151919092169450849363587775e893604480850194919392918390030190829087803b15801561121d57600080fd5b505af1158015611231573d6000803e3d6000fd5b505050506040513d602081101561124757600080fd5b505115611257576001925061117c565b600190910190611189565b7bffffffffffffffffffffffffffffffffffffffffffffffffffffffff191660009081526001602052604090205460ff1690565b600a805460408051602060026001851615610100026000190190941693909304601f8101849004840282018401909252818152929183018282801561131c5780601f106112f15761010080835404028352916020019161131c565b820191906000526020600020905b8154815290600101906020018083116112ff57829003601f168201915b505050505081565b600d545b90565b6000805481908190600160a060020a0316331461134757600080fd5b600091505b600d5482101561145757600d80548390811061136457fe5b9060005260206000200160009054906101000a9004600160a060020a0316905080600160a060020a031663186601ca6040518163ffffffff1660e060020a028152600401602060405180830381600087803b1580156113c257600080fd5b505af11580156113d6573d6000803e3d6000fd5b505050506040513d60208110156113ec57600080fd5b50511561144c57600e80546001810182556000919091527fbb7b4a454dc3493923482f07822329ed19e8244eff582cc204f8554c3620c3fd01805473ffffffffffffffffffffffffffffffffffffffff1916600160a060020a0383161790555b60019091019061134c565b61145f611fcd565b9250505090565b6000600d8281548110151561147757fe5b600091825260209091200154600160a060020a031692915050565b6114a28989898989898989611e63565b6012805473ffffffffffffffffffffffffffffffffffffffff1916600160a060020a03929092169190911790555050505050505050565b60025460a060020a900460ff1681565b7f01ffc9a70000000000000000000000000000000000000000000000000000000081565b7ffd20e2b90000000000000000000000000000000000000000000000000000000081565b6009805460408051602060026001851615610100026000190190941693909304601f8101849004840282018401909252818152929183018282801561131c5780601f106112f15761010080835404028352916020019161131c565b600e5490565b60008054600160a060020a031633146115aa57600080fd5b60025460a060020a900460ff1615156115c257600080fd5b600c5460ff16156115d257600080fd5b6115da610b85565b15156115e557600080fd5b6115ed611b92565b15156115f857600080fd5b600c805460ff19166001179055600b54604051339180156108fc02916000818181858888f19350505050158015611633573d6000803e3d6000fd5b506001905090565b600b5481565b6000600e8281548110151561147757fe5b60105490565b600254600160a060020a031681565b600054600160a060020a0316331461167e57600080fd5b60008054604051600160a060020a03909116917ff8df31144d9c2f0f6b59d69b8b98abd5459d07f2742c4df920b25aae33c6482091a26000805473ffffffffffffffffffffffffffffffffffffffff19169055565b6005805460408051602060026001851615610100026000190190941693909304601f8101849004840282018401909252818152929183018282801561131c5780601f106112f15761010080835404028352916020019161131c565b6000805460609190600160a060020a0316331461174a57600080fd5b60025460a060020a900460ff161561176157600080fd5b604080517f01ffc9a70000000000000000000000000000000000000000000000000000000080825260048201529051600160a060020a038616916301ffc9a79160248083019260209291908290030181600087803b1580156117c257600080fd5b505af11580156117d6573d6000803e3d6000fd5b505050506040513d60208110156117ec57600080fd5b505115156117f957600080fd5b604080517f01ffc9a70000000000000000000000000000000000000000000000000000000081527fd48445ff0000000000000000000000000000000000000000000000000000000060048201529051600160a060020a038616916301ffc9a79160248083019260209291908290030181600087803b15801561187a57600080fd5b505af115801561188e573d6000803e3d6000fd5b505050506040513d60208110156118a457600080fd5b505115156118b157600080fd5b6118ba84611ff6565b15156118c557600080fd5b60408051336020808301919091523082840152825180830384018152606083018085527f6535b4a500000000000000000000000000000000000000000000000000000000905260648301938452865160a48401528651909550600160a060020a03881693636535b4a593349389938993928392608482019260c4909201919087019080838360005b8381101561196557818101518382015260200161194d565b50505050905090810190601f1680156119925780820380516001836020036101000a031916815260200191505b50838103825284518152845160209182019186019080838360005b838110156119c55781810151838201526020016119ad565b50505050905090810190601f1680156119f25780820380516001836020036101000a031916815260200191505b509450505050506020604051808303818588803b158015611a1257600080fd5b505af1158015611a26573d6000803e3d6000fd5b50505050506040513d6020811015611a3d57600080fd5b5051600d80546001810182556000919091527fd7b6990105719101dabeb77144f2a3385c8033acd3af97e9423a695e81ad1eb501805473ffffffffffffffffffffffffffffffffffffffff1916600160a060020a0390921691909117905550505050565b600054600160a060020a031681565b600060108281548110151561147757fe5b600160a060020a031660009081526011602052604090205490565b6006805460408051602060026001851615610100026000190190941693909304601f8101849004840282018401909252818152929183018282801561131c5780601f106112f15761010080835404028352916020019161131c565b6003805460408051602060026001851615610100026000190190941693909304601f8101849004840282018401909252818152929183018282801561131c5780601f106112f15761010080835404028352916020019161131c565b6000806000611b9f610c62565b1515611bae5760009250610c5d565b5060009050805b600e54811015610c59578180611c5c5750600e805482908110611bd457fe5b9060005260206000200160009054906101000a9004600160a060020a0316600160a060020a0316639a9e3fd86040518163ffffffff1660e060020a028152600401602060405180830381600087803b158015611c2f57600080fd5b505af1158015611c43573d6000803e3d6000fd5b505050506040513d6020811015611c5957600080fd5b50515b9150600101611bb5565b6004805460408051602060026001851615610100026000190190941693909304601f8101849004840282018401909252818152929183018282801561131c5780601f106112f15761010080835404028352916020019161131c565b6008805460408051602060026001851615610100026000190190941693909304601f8101849004840282018401909252818152929183018282801561131c5780601f106112f15761010080835404028352916020019161131c565b600254600090819060a060020a900460ff161515611d3957600080fd5b611d41610b85565b1515611d4c57600080fd5b611d54611b92565b15611d5e57600080fd5b50336000908152600f6020526040812054908111611d7b57600080fd5b336000818152600f60205260408082208290555183156108fc0291849190818181858888f19350505050158015611db6573d6000803e3d6000fd5b50600191505b5090565b600c5460ff1681565b600160a060020a03166000908152600f602052604090205490565b7f8139792d0000000000000000000000000000000000000000000000000000000081565b6007805460408051602060026001851615610100026000190190941693909304601f8101849004840282018401909252818152929183018282801561131c5780601f106112f15761010080835404028352916020019161131c565b600054600160a060020a03163314611e7a57600080fd5b60025460a060020a900460ff1615611e9157600080fd5b8751611ea49060039060208b0190612153565b508651611eb89060049060208a0190612153565b508551611ecc906005906020890190612153565b508451611ee0906006906020880190612153565b508351611ef4906007906020870190612153565b508251611f08906008906020860190612153565b508151611f1c906009906020850190612153565b508051611f3090600a906020840190612153565b505050505050505050565b600054600160a060020a03163314611f5257600080fd5b611f5b816120d6565b50565b7f6125ede50000000000000000000000000000000000000000000000000000000081565b601254600160a060020a031681565b81810182811015611f9e57fe5b92915050565b6000821515611fb557506000611f9e565b50818102818382811515611fc557fe5b0414611f9e57fe5b6002805474ff0000000000000000000000000000000000000000191660a060020a179055600190565b600080805b600d548210156120ca57600d80548390811061201357fe5b9060005260206000200160009054906101000a9004600160a060020a0316905083600160a060020a031681600160a060020a0316636f2ddd936040518163ffffffff1660e060020a028152600401602060405180830381600087803b15801561207b57600080fd5b505af115801561208f573d6000803e3d6000fd5b505050506040513d60208110156120a557600080fd5b5051600160a060020a031614156120bf57600092506120cf565b600190910190611ffb565b600192505b5050919050565b600160a060020a03811615156120eb57600080fd5b60008054604051600160a060020a03808516939216917f8be0079c531659141344cd1fd0a4f28419497f9722a3daafe3b4186f6b6457e091a36000805473ffffffffffffffffffffffffffffffffffffffff1916600160a060020a0392909216919091179055565b828054600181600116156101000203166002900490600052602060002090601f016020900481019282601f1061219457805160ff19168380011785556121c1565b828001600101855582156121c1579182015b828111156121c15782518255916020019190600101906121a6565b50611dbc926113289250905b80821115611dbc57600081556001016121cd5600a165627a7a72305820fda5e4307ddec0728ae19811c910beda8e77073703ae68fa73b359001a44b2f80029",
  "source": "pragma solidity ^0.4.24;\n\nimport \"tokenboost-solidity/contracts/sale/Sale.sol\";\nimport \"tokenboost-solidity/contracts/utils/strings.sol\";\nimport \"zeppelin-solidity/contracts/token/ERC20/ERC20.sol\";\nimport \"../../strategy/sale/erc20/ERC20SaleStrategy.sol\";\n\ncontract ERC20Sale is Sale {\n    using SafeMath for uint256;\n    using strings for *;\n\n    /**\n     * @notice this.owner.selector ^ this.renounceOwnership.selector ^ this.transferOwnership.selector\n        ^ this.template.selector ^ this.activate.selector\n        ^ this.projectName.selector ^ this.projectSummary.selector ^ this.projectDescription.selector\n        ^ this.logoUrl.selector ^ this.coverImageUrl.selector ^ this.websiteUrl.selector ^ this.whitepaperUrl.selector\n        ^ this.name.selector ^ this.weiRaised.selector ^ this.withdrawn.selector\n        ^ this.started.selector ^ this.successful.selector ^ this.finished.selector ^ this.paymentOf.selector\n        ^ bytes4(keccak256(\"update(string,string,string,string,string,string,string,string)\"))\n        ^ bytes4(keccak256(\"update(string,string,string,string,string,string,string,string,address)\"))\n        ^ this.addStrategy.selector ^ this.numberOfStrategies.selector ^ this.strategyAt.selector\n        ^ this.numberOfActivatedStrategies.selector ^ this.activatedStrategyAt.selector ^ this.withdraw.selector\n        ^ this.claimRefund.selector ^ this.token.selector ^ this.numberOfPurchasers.selector ^ this.purchaserAt.selector\n        ^ this.tokenAmountOf.selector ^ this.purchasable.selector ^ this.getTokenAmount.selector\n     */\n    bytes4 public constant InterfaceId_ERC20Sale = 0xfd20e2b9;\n\n    event TokenPurchase(\n        address indexed purchaser,\n        uint256 weiAmount,\n        uint256 tokenAmount\n    );\n\n    address[] purchasers;\n    mapping(address => uint256) tokenAmountOfPurchaser;\n    ERC20 public token;\n\n    constructor(\n        address _owner,\n        string _projectName,\n        string _name,\n        ERC20 _token\n    ) public Sale(_owner, _projectName, _name) {\n        require(_token != address(0));\n\n        token = _token;\n\n        _registerInterface(InterfaceId_ERC20Sale);\n    }\n\n    function numberOfPurchasers() public view returns (uint256) {\n        return purchasers.length;\n    }\n\n    function purchaserAt(uint256 _index) public view returns (address) {\n        return purchasers[_index];\n    }\n\n    function tokenAmountOf(address _purchaser) public view returns (uint256) {\n        return tokenAmountOfPurchaser[_purchaser];\n    }\n\n    function update(\n        string _projectName,\n        string _projectSummary,\n        string _projectDescription,\n        string _logoUrl,\n        string _coverImageUrl,\n        string _websiteUrl,\n        string _whitepaperUrl,\n        string _name,\n        ERC20 _token\n    ) public {\n        super.update(\n            _projectName,\n            _projectSummary,\n            _projectDescription,\n            _logoUrl,\n            _coverImageUrl,\n            _websiteUrl,\n            _whitepaperUrl,\n            _name\n        );\n        token = _token;\n    }\n\n    function() whenActivated external payable {\n        require(!finished());\n        require(started());\n        require(purchasable(msg.value));\n\n        address purchaser = msg.sender;\n        _addPurchaser(purchaser);\n        increasePaymentOf(purchaser, msg.value);\n\n        uint256 tokenAmount = getTokenAmount(msg.value);\n        _updateTokenAmount(purchaser, tokenAmount);\n\n        address tokenReceiver = _tokenReceiver(purchaser, tokenAmount);\n        require(_supplyTokens(tokenReceiver, tokenAmount));\n\n        emit TokenPurchase(purchaser, msg.value, tokenAmount);\n    }\n\n    function purchasable(uint256 _weiAmount) public view returns (bool) {\n        bool p = true;\n        for (uint i = 0; i < activatedStrategies.length; i++) {\n            ERC20SaleStrategy strategy = ERC20SaleStrategy(activatedStrategies[i]);\n            p = p && strategy.purchasable(msg.sender, _weiAmount);\n        }\n        return p;\n    }\n\n    function _addPurchaser(address _purchaser) private {\n        for(uint i = 0; i < purchasers.length; i++) {\n            if (purchasers[i] == _purchaser) {\n                return;\n            }\n        }\n        purchasers.push(_purchaser);\n    }\n\n    function getTokenAmount(uint256 _weiAmount) public view returns (uint256) {\n        for (uint i = 0; i < activatedStrategies.length; i++) {\n            ERC20SaleStrategy strategy = ERC20SaleStrategy(activatedStrategies[i]);\n            uint256 rate = strategy.tokenRate(msg.sender, _weiAmount);\n            if (rate > 0) {\n                return _weiAmount.mul(rate);\n            }\n        }\n        return 0;\n    }\n\n    function _updateTokenAmount(address _purchaser, uint256 _tokenAmount) private {\n        tokenAmountOfPurchaser[_purchaser] = tokenAmountOfPurchaser[_purchaser].add(_tokenAmount);\n    }\n\n    function _tokenReceiver(address _purchaser, uint256 _tokenAmount) private returns (address) {\n        for (uint i = 0; i < activatedStrategies.length; i++) {\n            ERC20SaleStrategy strategy = ERC20SaleStrategy(activatedStrategies[i]);\n            if (strategy.receivesTokens(_purchaser, _tokenAmount)) {\n                return address(strategy);\n            }\n        }\n        return _purchaser;\n    }\n\n    function _supplyTokens(address _to, uint256 _tokenAmount) private returns (bool) {\n        for (uint i = 0; i < activatedStrategies.length; i++) {\n            ERC20SaleStrategy strategy = ERC20SaleStrategy(activatedStrategies[i]);\n            if (strategy.supplyTokens(_to, _tokenAmount)) {\n                return true;\n            }\n        }\n        return false;\n    }\n}\n",
  "sourcePath": "/Users/yoonjae/SolidityProjects/tokenboost-solidity-erc20sale/contracts/sale/erc20/ERC20Sale.sol",
  "compiler": {
    "name": "solc",
    "version": "0.4.24+commit.e67f0147.Emscripten.clang"
  },
  "schemaVersion": "2.0.1",
  "updatedAt": "2018-10-19T08:03:18.623Z"
}