{
  "contractName": "ERC20Sale",
  "abi": [
    {
      "constant": true,
      "inputs": [
        {
          "name": "_interfaceId",
          "type": "bytes4"
        }
      ],
      "name": "supportsInterface",
      "outputs": [
        {
          "name": "",
          "type": "bool"
        }
      ],
      "payable": false,
      "stateMutability": "view",
      "type": "function"
    },
    {
      "constant": true,
      "inputs": [],
      "name": "name",
      "outputs": [
        {
          "name": "",
          "type": "string"
        }
      ],
      "payable": false,
      "stateMutability": "view",
      "type": "function"
    },
    {
      "constant": true,
      "inputs": [],
      "name": "numberOfStrategies",
      "outputs": [
        {
          "name": "",
          "type": "uint256"
        }
      ],
      "payable": false,
      "stateMutability": "view",
      "type": "function"
    },
    {
      "constant": false,
      "inputs": [],
      "name": "activate",
      "outputs": [
        {
          "name": "",
          "type": "bool"
        }
      ],
      "payable": false,
      "stateMutability": "nonpayable",
      "type": "function"
    },
    {
      "constant": true,
      "inputs": [
        {
          "name": "index",
          "type": "uint256"
        }
      ],
      "name": "strategyAt",
      "outputs": [
        {
          "name": "",
          "type": "address"
        }
      ],
      "payable": false,
      "stateMutability": "view",
      "type": "function"
    },
    {
      "constant": true,
      "inputs": [],
      "name": "activated",
      "outputs": [
        {
          "name": "",
          "type": "bool"
        }
      ],
      "payable": false,
      "stateMutability": "view",
      "type": "function"
    },
    {
      "constant": true,
      "inputs": [],
      "name": "InterfaceId_ERC165",
      "outputs": [
        {
          "name": "",
          "type": "bytes4"
        }
      ],
      "payable": false,
      "stateMutability": "view",
      "type": "function"
    },
    {
      "constant": true,
      "inputs": [],
      "name": "started",
      "outputs": [
        {
          "name": "",
          "type": "bool"
        }
      ],
      "payable": false,
      "stateMutability": "view",
      "type": "function"
    },
    {
      "constant": true,
      "inputs": [],
      "name": "InterfaceId_ERC20Sale",
      "outputs": [
        {
          "name": "",
          "type": "bytes4"
        }
      ],
      "payable": false,
      "stateMutability": "view",
      "type": "function"
    },
    {
      "constant": true,
      "inputs": [],
      "name": "whitepaperUrl",
      "outputs": [
        {
          "name": "",
          "type": "string"
        }
      ],
      "payable": false,
      "stateMutability": "view",
      "type": "function"
    },
    {
      "constant": true,
      "inputs": [],
      "name": "numberOfActivatedStrategies",
      "outputs": [
        {
          "name": "",
          "type": "uint256"
        }
      ],
      "payable": false,
      "stateMutability": "view",
      "type": "function"
    },
    {
      "constant": false,
      "inputs": [],
      "name": "withdraw",
      "outputs": [
        {
          "name": "",
          "type": "bool"
        }
      ],
      "payable": false,
      "stateMutability": "nonpayable",
      "type": "function"
    },
    {
      "constant": true,
      "inputs": [],
      "name": "weiRaised",
      "outputs": [
        {
          "name": "",
          "type": "uint256"
        }
      ],
      "payable": false,
      "stateMutability": "view",
      "type": "function"
    },
    {
      "constant": true,
      "inputs": [
        {
          "name": "index",
          "type": "uint256"
        }
      ],
      "name": "activatedStrategyAt",
      "outputs": [
        {
          "name": "",
          "type": "address"
        }
      ],
      "payable": false,
      "stateMutability": "view",
      "type": "function"
    },
    {
      "constant": true,
      "inputs": [],
      "name": "template",
      "outputs": [
        {
          "name": "",
          "type": "address"
        }
      ],
      "payable": false,
      "stateMutability": "view",
      "type": "function"
    },
    {
      "constant": false,
      "inputs": [],
      "name": "renounceOwnership",
      "outputs": [],
      "payable": false,
      "stateMutability": "nonpayable",
      "type": "function"
    },
    {
      "constant": true,
      "inputs": [],
      "name": "projectDescription",
      "outputs": [
        {
          "name": "",
          "type": "string"
        }
      ],
      "payable": false,
      "stateMutability": "view",
      "type": "function"
    },
    {
      "constant": false,
      "inputs": [
        {
          "name": "_template",
          "type": "address"
        },
        {
          "name": "_bytecode",
          "type": "bytes"
        }
      ],
      "name": "addStrategy",
      "outputs": [],
      "payable": true,
      "stateMutability": "payable",
      "type": "function"
    },
    {
      "constant": true,
      "inputs": [],
      "name": "owner",
      "outputs": [
        {
          "name": "",
          "type": "address"
        }
      ],
      "payable": false,
      "stateMutability": "view",
      "type": "function"
    },
    {
      "constant": true,
      "inputs": [],
      "name": "logoUrl",
      "outputs": [
        {
          "name": "",
          "type": "string"
        }
      ],
      "payable": false,
      "stateMutability": "view",
      "type": "function"
    },
    {
      "constant": true,
      "inputs": [],
      "name": "projectName",
      "outputs": [
        {
          "name": "",
          "type": "string"
        }
      ],
      "payable": false,
      "stateMutability": "view",
      "type": "function"
    },
    {
      "constant": true,
      "inputs": [],
      "name": "successful",
      "outputs": [
        {
          "name": "",
          "type": "bool"
        }
      ],
      "payable": false,
      "stateMutability": "view",
      "type": "function"
    },
    {
      "constant": true,
      "inputs": [],
      "name": "projectSummary",
      "outputs": [
        {
          "name": "",
          "type": "string"
        }
      ],
      "payable": false,
      "stateMutability": "view",
      "type": "function"
    },
    {
      "constant": true,
      "inputs": [],
      "name": "websiteUrl",
      "outputs": [
        {
          "name": "",
          "type": "string"
        }
      ],
      "payable": false,
      "stateMutability": "view",
      "type": "function"
    },
    {
      "constant": false,
      "inputs": [],
      "name": "claimRefund",
      "outputs": [
        {
          "name": "",
          "type": "bool"
        }
      ],
      "payable": false,
      "stateMutability": "nonpayable",
      "type": "function"
    },
    {
      "constant": true,
      "inputs": [],
      "name": "finished",
      "outputs": [
        {
          "name": "",
          "type": "bool"
        }
      ],
      "payable": false,
      "stateMutability": "view",
      "type": "function"
    },
    {
      "constant": true,
      "inputs": [],
      "name": "withdrawn",
      "outputs": [
        {
          "name": "",
          "type": "bool"
        }
      ],
      "payable": false,
      "stateMutability": "view",
      "type": "function"
    },
    {
      "constant": true,
      "inputs": [
        {
          "name": "_purchaser",
          "type": "address"
        }
      ],
      "name": "paymentOf",
      "outputs": [
        {
          "name": "weiAmount",
          "type": "uint256"
        }
      ],
      "payable": false,
      "stateMutability": "view",
      "type": "function"
    },
    {
      "constant": true,
      "inputs": [],
      "name": "InterfaceId_Sale",
      "outputs": [
        {
          "name": "",
          "type": "bytes4"
        }
      ],
      "payable": false,
      "stateMutability": "view",
      "type": "function"
    },
    {
      "constant": true,
      "inputs": [],
      "name": "coverImageUrl",
      "outputs": [
        {
          "name": "",
          "type": "string"
        }
      ],
      "payable": false,
      "stateMutability": "view",
      "type": "function"
    },
    {
      "constant": false,
      "inputs": [
        {
          "name": "_newOwner",
          "type": "address"
        }
      ],
      "name": "transferOwnership",
      "outputs": [],
      "payable": false,
      "stateMutability": "nonpayable",
      "type": "function"
    },
    {
      "constant": true,
      "inputs": [],
      "name": "InterfaceId_Contract",
      "outputs": [
        {
          "name": "",
          "type": "bytes4"
        }
      ],
      "payable": false,
      "stateMutability": "view",
      "type": "function"
    },
    {
      "constant": true,
      "inputs": [],
      "name": "token",
      "outputs": [
        {
          "name": "",
          "type": "address"
        }
      ],
      "payable": false,
      "stateMutability": "view",
      "type": "function"
    },
    {
      "inputs": [
        {
          "name": "_owner",
          "type": "address"
        },
        {
          "name": "_projectName",
          "type": "string"
        },
        {
          "name": "_name",
          "type": "string"
        },
        {
          "name": "_token",
          "type": "address"
        }
      ],
      "payable": false,
      "stateMutability": "nonpayable",
      "type": "constructor"
    },
    {
      "payable": true,
      "stateMutability": "payable",
      "type": "fallback"
    },
    {
      "anonymous": false,
      "inputs": [
        {
          "indexed": true,
          "name": "purchaser",
          "type": "address"
        },
        {
          "indexed": false,
          "name": "weiAmount",
          "type": "uint256"
        },
        {
          "indexed": false,
          "name": "tokenAmount",
          "type": "uint256"
        }
      ],
      "name": "TokenPurchase",
      "type": "event"
    },
    {
      "anonymous": false,
      "inputs": [
        {
          "indexed": true,
          "name": "previousOwner",
          "type": "address"
        }
      ],
      "name": "OwnershipRenounced",
      "type": "event"
    },
    {
      "anonymous": false,
      "inputs": [
        {
          "indexed": true,
          "name": "previousOwner",
          "type": "address"
        },
        {
          "indexed": true,
          "name": "newOwner",
          "type": "address"
        }
      ],
      "name": "OwnershipTransferred",
      "type": "event"
    },
    {
      "constant": false,
      "inputs": [
        {
          "name": "_projectName",
          "type": "string"
        },
        {
          "name": "_projectSummary",
          "type": "string"
        },
        {
          "name": "_projectDescription",
          "type": "string"
        },
        {
          "name": "_logoUrl",
          "type": "string"
        },
        {
          "name": "_coverImageUrl",
          "type": "string"
        },
        {
          "name": "_websiteUrl",
          "type": "string"
        },
        {
          "name": "_whitepaperUrl",
          "type": "string"
        },
        {
          "name": "_name",
          "type": "string"
        },
        {
          "name": "_token",
          "type": "address"
        }
      ],
      "name": "update",
      "outputs": [],
      "payable": false,
      "stateMutability": "nonpayable",
      "type": "function"
    },
    {
      "constant": false,
      "inputs": [
        {
          "name": "_projectName",
          "type": "string"
        },
        {
          "name": "_projectSummary",
          "type": "string"
        },
        {
          "name": "_projectDescription",
          "type": "string"
        },
        {
          "name": "_logoUrl",
          "type": "string"
        },
        {
          "name": "_coverImageUrl",
          "type": "string"
        },
        {
          "name": "_websiteUrl",
          "type": "string"
        },
        {
          "name": "_whitepaperUrl",
          "type": "string"
        },
        {
          "name": "_name",
          "type": "string"
        }
      ],
      "name": "update",
      "outputs": [],
      "payable": false,
      "stateMutability": "nonpayable",
      "type": "function"
    },
    {
      "constant": true,
      "inputs": [
        {
          "name": "_weiAmount",
          "type": "uint256"
        }
      ],
      "name": "purchasable",
      "outputs": [
        {
          "name": "",
          "type": "bool"
        }
      ],
      "payable": false,
      "stateMutability": "view",
      "type": "function"
    },
    {
      "constant": true,
      "inputs": [
        {
          "name": "_weiAmount",
          "type": "uint256"
        }
      ],
      "name": "getTokenAmount",
      "outputs": [
        {
          "name": "",
          "type": "uint256"
        }
      ],
      "payable": false,
      "stateMutability": "view",
      "type": "function"
    }
  ],
  "bytecode": "0x60806040523480156200001157600080fd5b5060405162002333380380620023338339810160409081528151602083015191830151606084015160008054600160a060020a031916331790559193928301920190838383826200008b7f01ffc9a700000000000000000000000000000000000000000000000000000000640100000000620001bb810204565b6002805433600160a060020a03199182161790915560008054909116600160a060020a038316179055620000e87f6125ede500000000000000000000000000000000000000000000000000000000640100000000620001bb810204565b508151620000fe9060039060208501906200022b565b5080516200011490600a9060208401906200022b565b50620001497f8139792d00000000000000000000000000000000000000000000000000000000640100000000620001bb810204565b505050600160a060020a03811615156200016257600080fd5b60108054600160a060020a031916600160a060020a038316179055620001b17f5f57e78900000000000000000000000000000000000000000000000000000000640100000000620001bb810204565b50505050620002d0565b7fffffffff000000000000000000000000000000000000000000000000000000008082161415620001eb57600080fd5b7fffffffff00000000000000000000000000000000000000000000000000000000166000908152600160208190526040909120805460ff19169091179055565b828054600181600116156101000203166002900490600052602060002090601f016020900481019282601f106200026e57805160ff19168380011785556200029e565b828001600101855582156200029e579182015b828111156200029e57825182559160200191906001019062000281565b50620002ac929150620002b0565b5090565b620002cd91905b80821115620002ac5760008155600101620002b7565b90565b61205380620002e06000396000f3006080604052600436106101b35763ffffffff60e060020a60003504166301ffc9a7811461027d57806306fdde03146102c85780630956e5a6146103525780630f15f4c0146103795780630fc8c0b61461038e578063148cb6e6146103c2578063186601ca146105da57806319fa8f50146105ef5780631f2698ab1461063657806327f6c75a1461064b5780632c7a72f814610660578063334ff632146106755780633ccfd60b1461068a5780634042b66f1461069f5780635027a916146106b4578063655ded03146106cc5780636f2ddd93146106e4578063715018a6146106f9578063755f047b1461070e5780637aeedf2a146107235780638da5cb5b1461077d578063993d77af146107925780639a33e300146107a75780639a9e3fd8146107bc5780639ec318bf146107d1578063abb5ca09146107e6578063b5545a3c146107fb578063bef4876b14610810578063c2507ac114610825578063c80ec5221461083d578063cf7c2b3114610852578063d04be2da14610873578063dea53c2014610888578063df1c5c7c1461089d578063f2fde38b14610aa8578063fbf964eb14610ac9578063fc0c546a14610ade575b600254600090819060a060020a900460ff1615156101d057600080fd5b6101d8610af3565b156101e257600080fd5b6101ea610bd0565b15156101f557600080fd5b6101fe34610cac565b151561020957600080fd5b6102133334610d96565b61021c34610e17565b91506102283383610f13565b90506102348183610ffc565b151561023f57600080fd5b6040805134815260208101849052815133927fcd60aa75dea3072fbc07ae6d7d856b5dc5f4eee88854f5b4abf7b680ef8bc50f928290030190a25050005b34801561028957600080fd5b506102b47bffffffffffffffffffffffffffffffffffffffffffffffffffffffff19600435166110da565b604080519115158252519081900360200190f35b3480156102d457600080fd5b506102dd61110e565b6040805160208082528351818301528351919283929083019185019080838360005b838110156103175781810151838201526020016102ff565b50505050905090810190601f1680156103445780820380516001836020036101000a031916815260200191505b509250505060405180910390f35b34801561035e57600080fd5b5061036761119c565b60408051918252519081900360200190f35b34801561038557600080fd5b506102b46111a3565b34801561039a57600080fd5b506103a66004356112de565b60408051600160a060020a039092168252519081900360200190f35b3480156103ce57600080fd5b506040805160206004803580820135601f81018490048402850184019095528484526105d894369492936024939284019190819084018382808284375050604080516020601f89358b018035918201839004830284018301909452808352979a99988101979196509182019450925082915084018382808284375050604080516020601f89358b018035918201839004830284018301909452808352979a99988101979196509182019450925082915084018382808284375050604080516020601f89358b018035918201839004830284018301909452808352979a99988101979196509182019450925082915084018382808284375050604080516020601f89358b018035918201839004830284018301909452808352979a99988101979196509182019450925082915084018382808284375050604080516020601f89358b018035918201839004830284018301909452808352979a99988101979196509182019450925082915084018382808284375050604080516020601f89358b018035918201839004830284018301909452808352979a99988101979196509182019450925082915084018382808284375050604080516020601f89358b018035918201839004830284018301909452808352979a99988101979196509182019450925082915084018382808284375094975050509235600160a060020a0316935061130a92505050565b005b3480156105e657600080fd5b506102b4611351565b3480156105fb57600080fd5b50610604611361565b604080517bffffffffffffffffffffffffffffffffffffffffffffffffffffffff199092168252519081900360200190f35b34801561064257600080fd5b506102b4610bd0565b34801561065757600080fd5b50610604611385565b34801561066c57600080fd5b506102dd6113a9565b34801561068157600080fd5b50610367611404565b34801561069657600080fd5b506102b461140a565b3480156106ab57600080fd5b506103676114b3565b3480156106c057600080fd5b506103a66004356114b9565b3480156106d857600080fd5b506102b4600435610cac565b3480156106f057600080fd5b506103a66114ca565b34801561070557600080fd5b506105d86114d9565b34801561071a57600080fd5b506102dd611545565b60408051602060046024803582810135601f81018590048502860185019096528585526105d8958335600160a060020a03169536956044949193909101919081908401838280828437509497506115a09650505050505050565b34801561078957600080fd5b506103a6611913565b34801561079e57600080fd5b506102dd611922565b3480156107b357600080fd5b506102dd61197d565b3480156107c857600080fd5b506102b46119d8565b3480156107dd57600080fd5b506102dd611aac565b3480156107f257600080fd5b506102dd611b07565b34801561080757600080fd5b506102b4611b62565b34801561081c57600080fd5b506102b4610af3565b34801561083157600080fd5b50610367600435610e17565b34801561084957600080fd5b506102b4611c06565b34801561085e57600080fd5b50610367600160a060020a0360043516611c0f565b34801561087f57600080fd5b50610604611c2a565b34801561089457600080fd5b506102dd611c4e565b3480156108a957600080fd5b506040805160206004803580820135601f81018490048402850184019095528484526105d894369492936024939284019190819084018382808284375050604080516020601f89358b018035918201839004830284018301909452808352979a99988101979196509182019450925082915084018382808284375050604080516020601f89358b018035918201839004830284018301909452808352979a99988101979196509182019450925082915084018382808284375050604080516020601f89358b018035918201839004830284018301909452808352979a99988101979196509182019450925082915084018382808284375050604080516020601f89358b018035918201839004830284018301909452808352979a99988101979196509182019450925082915084018382808284375050604080516020601f89358b018035918201839004830284018301909452808352979a99988101979196509182019450925082915084018382808284375050604080516020601f89358b018035918201839004830284018301909452808352979a99988101979196509182019450925082915084018382808284375050604080516020601f89358b018035918201839004830284018301909452808352979a999881019791965091820194509250829150840183828082843750949750611ca99650505050505050565b348015610ab457600080fd5b506105d8600160a060020a0360043516611d81565b348015610ad557600080fd5b50610604611da4565b348015610aea57600080fd5b506103a6611dc8565b6000806000610b00610bd0565b1515610b0f5760009250610bcb565b5060009050805b600e54811015610bc7578180610bbd5750600e805482908110610b3557fe5b9060005260206000200160009054906101000a9004600160a060020a0316600160a060020a031663bef4876b6040518163ffffffff1660e060020a028152600401602060405180830381600087803b158015610b9057600080fd5b505af1158015610ba4573d6000803e3d6000fd5b505050506040513d6020811015610bba57600080fd5b50515b9150600101610b16565b8192505b505090565b6000806000600260149054906101000a900460ff161515610bf45760009250610bcb565b5060009050805b600e54811015610bc7578180610ca25750600e805482908110610c1a57fe5b9060005260206000200160009054906101000a9004600160a060020a0316600160a060020a0316631f2698ab6040518163ffffffff1660e060020a028152600401602060405180830381600087803b158015610c7557600080fd5b505af1158015610c89573d6000803e3d6000fd5b505050506040513d6020811015610c9f57600080fd5b50515b9150600101610bfb565b60008080805b600e54821015610d8a57600e805483908110610cca57fe5b600091825260209091200154600160a060020a031690508280610d7d5750604080517f4f9a82d6000000000000000000000000000000000000000000000000000000008152336004820152602481018790529051600160a060020a03831691634f9a82d69160448083019260209291908290030181600087803b158015610d5057600080fd5b505af1158015610d64573d6000803e3d6000fd5b505050506040513d6020811015610d7a57600080fd5b50515b9250600190910190610cb2565b8293505b505050919050565b610d9e610af3565b15610da857600080fd5b610db0610bd0565b1515610dbb57600080fd5b600160a060020a0382166000908152600f6020526040902054610de4908263ffffffff611dd716565b600160a060020a0383166000908152600f6020526040902055600b54610e10908263ffffffff611dd716565b600b555050565b60008080805b600e54831015610f0857600e805484908110610e3557fe5b6000918252602080832090910154604080517f5589530e000000000000000000000000000000000000000000000000000000008152336004820152602481018a90529051600160a060020a0390921695508593635589530e9360448084019491939192918390030190829087803b158015610eaf57600080fd5b505af1158015610ec3573d6000803e3d6000fd5b505050506040513d6020811015610ed957600080fd5b505190506000811115610efd57610ef6858263ffffffff611dea16565b9350610d8e565b600190920191610e1d565b506000949350505050565b600080805b600e54821015610ff057600e805483908110610f3057fe5b6000918252602080832090910154604080517fe67c8646000000000000000000000000000000000000000000000000000000008152600160a060020a038a81166004830152602482018a90529151919092169450849363e67c864693604480850194919392918390030190829087803b158015610fac57600080fd5b505af1158015610fc0573d6000803e3d6000fd5b505050506040513d6020811015610fd657600080fd5b505115610fe557809250610ff4565b600190910190610f18565b8492505b505092915050565b600080805b600e54821015610f0857600e80548390811061101957fe5b6000918252602080832090910154604080517f587775e8000000000000000000000000000000000000000000000000000000008152600160a060020a038a81166004830152602482018a90529151919092169450849363587775e893604480850194919392918390030190829087803b15801561109557600080fd5b505af11580156110a9573d6000803e3d6000fd5b505050506040513d60208110156110bf57600080fd5b5051156110cf5760019250610ff4565b600190910190611001565b7bffffffffffffffffffffffffffffffffffffffffffffffffffffffff191660009081526001602052604090205460ff1690565b600a805460408051602060026001851615610100026000190190941693909304601f810184900484028201840190925281815292918301828280156111945780601f1061116957610100808354040283529160200191611194565b820191906000526020600020905b81548152906001019060200180831161117757829003601f168201915b505050505081565b600d545b90565b6000805481908190600160a060020a031633146111bf57600080fd5b600091505b600d548210156112cf57600d8054839081106111dc57fe5b9060005260206000200160009054906101000a9004600160a060020a0316905080600160a060020a031663186601ca6040518163ffffffff1660e060020a028152600401602060405180830381600087803b15801561123a57600080fd5b505af115801561124e573d6000803e3d6000fd5b505050506040513d602081101561126457600080fd5b5051156112c457600e80546001810182556000919091527fbb7b4a454dc3493923482f07822329ed19e8244eff582cc204f8554c3620c3fd01805473ffffffffffffffffffffffffffffffffffffffff1916600160a060020a0383161790555b6001909101906111c4565b6112d7611e13565b9250505090565b6000600d828154811015156112ef57fe5b600091825260209091200154600160a060020a031692915050565b61131a8989898989898989611ca9565b6010805473ffffffffffffffffffffffffffffffffffffffff1916600160a060020a03929092169190911790555050505050505050565b60025460a060020a900460ff1681565b7f01ffc9a70000000000000000000000000000000000000000000000000000000081565b7f5f57e7890000000000000000000000000000000000000000000000000000000081565b6009805460408051602060026001851615610100026000190190941693909304601f810184900484028201840190925281815292918301828280156111945780601f1061116957610100808354040283529160200191611194565b600e5490565b60008054600160a060020a0316331461142257600080fd5b60025460a060020a900460ff16151561143a57600080fd5b600c5460ff161561144a57600080fd5b611452610af3565b151561145d57600080fd5b6114656119d8565b151561147057600080fd5b600c805460ff19166001179055600b54604051339180156108fc02916000818181858888f193505050501580156114ab573d6000803e3d6000fd5b506001905090565b600b5481565b6000600e828154811015156112ef57fe5b600254600160a060020a031681565b600054600160a060020a031633146114f057600080fd5b60008054604051600160a060020a03909116917ff8df31144d9c2f0f6b59d69b8b98abd5459d07f2742c4df920b25aae33c6482091a26000805473ffffffffffffffffffffffffffffffffffffffff19169055565b6005805460408051602060026001851615610100026000190190941693909304601f810184900484028201840190925281815292918301828280156111945780601f1061116957610100808354040283529160200191611194565b6000805460609190600160a060020a031633146115bc57600080fd5b60025460a060020a900460ff16156115d357600080fd5b604080517f01ffc9a70000000000000000000000000000000000000000000000000000000080825260048201529051600160a060020a038616916301ffc9a79160248083019260209291908290030181600087803b15801561163457600080fd5b505af1158015611648573d6000803e3d6000fd5b505050506040513d602081101561165e57600080fd5b5051151561166b57600080fd5b604080517f01ffc9a70000000000000000000000000000000000000000000000000000000081527fd48445ff0000000000000000000000000000000000000000000000000000000060048201529051600160a060020a038616916301ffc9a79160248083019260209291908290030181600087803b1580156116ec57600080fd5b505af1158015611700573d6000803e3d6000fd5b505050506040513d602081101561171657600080fd5b5051151561172357600080fd5b61172c84611e3c565b151561173757600080fd5b60408051336020808301919091523082840152825180830384018152606083018085527f6535b4a500000000000000000000000000000000000000000000000000000000905260648301938452865160a48401528651909550600160a060020a03881693636535b4a593349389938993928392608482019260c4909201919087019080838360005b838110156117d75781810151838201526020016117bf565b50505050905090810190601f1680156118045780820380516001836020036101000a031916815260200191505b50838103825284518152845160209182019186019080838360005b8381101561183757818101518382015260200161181f565b50505050905090810190601f1680156118645780820380516001836020036101000a031916815260200191505b509450505050506020604051808303818588803b15801561188457600080fd5b505af1158015611898573d6000803e3d6000fd5b50505050506040513d60208110156118af57600080fd5b5051600d80546001810182556000919091527fd7b6990105719101dabeb77144f2a3385c8033acd3af97e9423a695e81ad1eb501805473ffffffffffffffffffffffffffffffffffffffff1916600160a060020a0390921691909117905550505050565b600054600160a060020a031681565b6006805460408051602060026001851615610100026000190190941693909304601f810184900484028201840190925281815292918301828280156111945780601f1061116957610100808354040283529160200191611194565b6003805460408051602060026001851615610100026000190190941693909304601f810184900484028201840190925281815292918301828280156111945780601f1061116957610100808354040283529160200191611194565b60008060006119e5610bd0565b15156119f45760009250610bcb565b5060009050805b600e54811015610bc7578180611aa25750600e805482908110611a1a57fe5b9060005260206000200160009054906101000a9004600160a060020a0316600160a060020a0316639a9e3fd86040518163ffffffff1660e060020a028152600401602060405180830381600087803b158015611a7557600080fd5b505af1158015611a89573d6000803e3d6000fd5b505050506040513d6020811015611a9f57600080fd5b50515b91506001016119fb565b6004805460408051602060026001851615610100026000190190941693909304601f810184900484028201840190925281815292918301828280156111945780601f1061116957610100808354040283529160200191611194565b6008805460408051602060026001851615610100026000190190941693909304601f810184900484028201840190925281815292918301828280156111945780601f1061116957610100808354040283529160200191611194565b600254600090819060a060020a900460ff161515611b7f57600080fd5b611b87610af3565b1515611b9257600080fd5b611b9a6119d8565b15611ba457600080fd5b50336000908152600f6020526040812054908111611bc157600080fd5b336000818152600f60205260408082208290555183156108fc0291849190818181858888f19350505050158015611bfc573d6000803e3d6000fd5b50600191505b5090565b600c5460ff1681565b600160a060020a03166000908152600f602052604090205490565b7f8139792d0000000000000000000000000000000000000000000000000000000081565b6007805460408051602060026001851615610100026000190190941693909304601f810184900484028201840190925281815292918301828280156111945780601f1061116957610100808354040283529160200191611194565b600054600160a060020a03163314611cc057600080fd5b60025460a060020a900460ff1615611cd757600080fd5b8751611cea9060039060208b0190611f99565b508651611cfe9060049060208a0190611f99565b508551611d12906005906020890190611f99565b508451611d26906006906020880190611f99565b508351611d3a906007906020870190611f99565b508251611d4e906008906020860190611f99565b508151611d62906009906020850190611f99565b508051611d7690600a906020840190611f99565b505050505050505050565b600054600160a060020a03163314611d9857600080fd5b611da181611f1c565b50565b7f6125ede50000000000000000000000000000000000000000000000000000000081565b601054600160a060020a031681565b81810182811015611de457fe5b92915050565b6000821515611dfb57506000611de4565b50818102818382811515611e0b57fe5b0414611de457fe5b6002805474ff0000000000000000000000000000000000000000191660a060020a179055600190565b600080805b600d54821015611f1057600d805483908110611e5957fe5b9060005260206000200160009054906101000a9004600160a060020a0316905083600160a060020a031681600160a060020a0316636f2ddd936040518163ffffffff1660e060020a028152600401602060405180830381600087803b158015611ec157600080fd5b505af1158015611ed5573d6000803e3d6000fd5b505050506040513d6020811015611eeb57600080fd5b5051600160a060020a03161415611f055760009250611f15565b600190910190611e41565b600192505b5050919050565b600160a060020a0381161515611f3157600080fd5b60008054604051600160a060020a03808516939216917f8be0079c531659141344cd1fd0a4f28419497f9722a3daafe3b4186f6b6457e091a36000805473ffffffffffffffffffffffffffffffffffffffff1916600160a060020a0392909216919091179055565b828054600181600116156101000203166002900490600052602060002090601f016020900481019282601f10611fda57805160ff1916838001178555612007565b82800160010185558215612007579182015b82811115612007578251825591602001919060010190611fec565b50611c02926111a09250905b80821115611c0257600081556001016120135600a165627a7a72305820fbbc73b31ce305a623d3d2667a0b6416813a2d1623b33ef1762f389433f890b80029",
  "source": "pragma solidity ^0.4.24;\n\nimport \"tokenboost-solidity/contracts/sale/Sale.sol\";\nimport \"tokenboost-solidity/contracts/utils/strings.sol\";\nimport \"zeppelin-solidity/contracts/token/ERC20/ERC20.sol\";\nimport \"../../strategy/sale/erc20/ERC20SaleStrategy.sol\";\n\ncontract ERC20Sale is Sale {\n    using SafeMath for uint256;\n    using strings for *;\n\n    /**\n     * @notice this.owner.selector ^ this.renounceOwnership.selector ^ this.transferOwnership.selector\n        ^ this.template.selector ^ this.activate.selector\n        ^ this.projectName.selector ^ this.projectSummary.selector ^ this.projectDescription.selector\n        ^ this.logoUrl.selector ^ this.coverImageUrl.selector ^ this.websiteUrl.selector ^ this.whitepaperUrl.selector\n        ^ this.name.selector ^ this.weiRaised.selector ^ this.withdrawn.selector\n        ^ this.started.selector ^ this.successful.selector ^ this.finished.selector ^ this.paymentOf.selector\n        ^ bytes4(keccak256(\"update(string,string,string,string,string,string,string,string)\"))\n        ^ bytes4(keccak256(\"update(string,string,string,string,string,string,string,string,address)\"))\n        ^ this.addStrategy.selector ^ this.numberOfStrategies.selector ^ this.strategyAt.selector\n        ^ this.numberOfActivatedStrategies.selector ^ this.activatedStrategyAt.selector ^ this.withdraw.selector\n        ^ this.claimRefund.selector ^ this.purchasable.selector ^ this.getTokenAmount.selector\n     */\n    bytes4 public constant InterfaceId_ERC20Sale = 0x5f57e789;\n\n    event TokenPurchase(\n        address indexed purchaser,\n        uint256 weiAmount,\n        uint256 tokenAmount\n    );\n\n    ERC20 public token;\n\n    constructor(\n        address _owner,\n        string _projectName,\n        string _name,\n        ERC20 _token\n    ) public Sale(_owner, _projectName, _name) {\n        require(_token != address(0));\n\n        token = _token;\n\n        _registerInterface(InterfaceId_ERC20Sale);\n    }\n\n    function update(\n        string _projectName,\n        string _projectSummary,\n        string _projectDescription,\n        string _logoUrl,\n        string _coverImageUrl,\n        string _websiteUrl,\n        string _whitepaperUrl,\n        string _name,\n        ERC20 _token\n    ) public {\n        super.update(\n            _projectName,\n            _projectSummary,\n            _projectDescription,\n            _logoUrl,\n            _coverImageUrl,\n            _websiteUrl,\n            _whitepaperUrl,\n            _name\n        );\n        token = _token;\n    }\n\n    function() whenActivated external payable {\n        require(!finished());\n        require(started());\n        require(purchasable(msg.value));\n\n        increasePaymentOf(msg.sender, msg.value);\n\n        uint256 tokenAmount = getTokenAmount(msg.value);\n        address tokenReceiver = _tokenReceiver(msg.sender, tokenAmount);\n        require(_supplyTokens(tokenReceiver, tokenAmount));\n\n        emit TokenPurchase(msg.sender, msg.value, tokenAmount);\n    }\n\n    function purchasable(uint256 _weiAmount) public view returns (bool) {\n        bool p = false;\n        for (uint i = 0; i < activatedStrategies.length; i++) {\n            ERC20SaleStrategy strategy = ERC20SaleStrategy(activatedStrategies[i]);\n            p = p || strategy.purchasable(msg.sender, _weiAmount);\n        }\n        return p;\n    }\n\n    function getTokenAmount(uint256 _weiAmount) public view returns (uint256) {\n        for (uint i = 0; i < activatedStrategies.length; i++) {\n            ERC20SaleStrategy strategy = ERC20SaleStrategy(activatedStrategies[i]);\n            uint256 rate = strategy.tokenRate(msg.sender, _weiAmount);\n            if (rate > 0) {\n                return _weiAmount.mul(rate);\n            }\n        }\n        return 0;\n    }\n\n    function _tokenReceiver(address _purchaser, uint256 _tokenAmount) private returns (address) {\n        for (uint i = 0; i < activatedStrategies.length; i++) {\n            ERC20SaleStrategy strategy = ERC20SaleStrategy(activatedStrategies[i]);\n            if (strategy.receivesTokens(_purchaser, _tokenAmount)) {\n                return address(strategy);\n            }\n        }\n        return _purchaser;\n    }\n\n    function _supplyTokens(address _to, uint256 _tokenAmount) private returns (bool) {\n        for (uint i = 0; i < activatedStrategies.length; i++) {\n            ERC20SaleStrategy strategy = ERC20SaleStrategy(activatedStrategies[i]);\n            if (strategy.supplyTokens(_to, _tokenAmount)) {\n                return true;\n            }\n        }\n        return false;\n    }\n}\n",
  "sourcePath": "/Users/yoonjae/SolidityProjects/tokenboost-solidity-erc20sale/contracts/sale/erc20/ERC20Sale.sol",
  "compiler": {
    "name": "solc",
    "version": "0.4.24+commit.e67f0147.Emscripten.clang"
  },
  "schemaVersion": "2.0.1",
  "updatedAt": "2018-10-07T16:15:54.406Z"
}