{
  "contractName": "ERC20Sale",
  "abi": [
    {
      "constant": true,
      "inputs": [
        {
          "name": "_interfaceId",
          "type": "bytes4"
        }
      ],
      "name": "supportsInterface",
      "outputs": [
        {
          "name": "",
          "type": "bool"
        }
      ],
      "payable": false,
      "stateMutability": "view",
      "type": "function"
    },
    {
      "constant": true,
      "inputs": [],
      "name": "name",
      "outputs": [
        {
          "name": "",
          "type": "string"
        }
      ],
      "payable": false,
      "stateMutability": "view",
      "type": "function"
    },
    {
      "constant": true,
      "inputs": [],
      "name": "numberOfStrategies",
      "outputs": [
        {
          "name": "",
          "type": "uint256"
        }
      ],
      "payable": false,
      "stateMutability": "view",
      "type": "function"
    },
    {
      "constant": false,
      "inputs": [],
      "name": "activate",
      "outputs": [
        {
          "name": "",
          "type": "bool"
        }
      ],
      "payable": false,
      "stateMutability": "nonpayable",
      "type": "function"
    },
    {
      "constant": true,
      "inputs": [
        {
          "name": "index",
          "type": "uint256"
        }
      ],
      "name": "strategyAt",
      "outputs": [
        {
          "name": "",
          "type": "address"
        }
      ],
      "payable": false,
      "stateMutability": "view",
      "type": "function"
    },
    {
      "constant": true,
      "inputs": [],
      "name": "activated",
      "outputs": [
        {
          "name": "",
          "type": "bool"
        }
      ],
      "payable": false,
      "stateMutability": "view",
      "type": "function"
    },
    {
      "constant": true,
      "inputs": [],
      "name": "InterfaceId_ERC165",
      "outputs": [
        {
          "name": "",
          "type": "bytes4"
        }
      ],
      "payable": false,
      "stateMutability": "view",
      "type": "function"
    },
    {
      "constant": true,
      "inputs": [],
      "name": "started",
      "outputs": [
        {
          "name": "",
          "type": "bool"
        }
      ],
      "payable": false,
      "stateMutability": "view",
      "type": "function"
    },
    {
      "constant": true,
      "inputs": [],
      "name": "InterfaceId_ERC20Sale",
      "outputs": [
        {
          "name": "",
          "type": "bytes4"
        }
      ],
      "payable": false,
      "stateMutability": "view",
      "type": "function"
    },
    {
      "constant": true,
      "inputs": [],
      "name": "whitepaperUrl",
      "outputs": [
        {
          "name": "",
          "type": "string"
        }
      ],
      "payable": false,
      "stateMutability": "view",
      "type": "function"
    },
    {
      "constant": true,
      "inputs": [],
      "name": "numberOfActivatedStrategies",
      "outputs": [
        {
          "name": "",
          "type": "uint256"
        }
      ],
      "payable": false,
      "stateMutability": "view",
      "type": "function"
    },
    {
      "constant": false,
      "inputs": [],
      "name": "withdraw",
      "outputs": [
        {
          "name": "",
          "type": "bool"
        }
      ],
      "payable": false,
      "stateMutability": "nonpayable",
      "type": "function"
    },
    {
      "constant": true,
      "inputs": [],
      "name": "weiRaised",
      "outputs": [
        {
          "name": "",
          "type": "uint256"
        }
      ],
      "payable": false,
      "stateMutability": "view",
      "type": "function"
    },
    {
      "constant": true,
      "inputs": [
        {
          "name": "index",
          "type": "uint256"
        }
      ],
      "name": "activatedStrategyAt",
      "outputs": [
        {
          "name": "",
          "type": "address"
        }
      ],
      "payable": false,
      "stateMutability": "view",
      "type": "function"
    },
    {
      "constant": true,
      "inputs": [],
      "name": "template",
      "outputs": [
        {
          "name": "",
          "type": "address"
        }
      ],
      "payable": false,
      "stateMutability": "view",
      "type": "function"
    },
    {
      "constant": false,
      "inputs": [],
      "name": "renounceOwnership",
      "outputs": [],
      "payable": false,
      "stateMutability": "nonpayable",
      "type": "function"
    },
    {
      "constant": true,
      "inputs": [],
      "name": "projectDescription",
      "outputs": [
        {
          "name": "",
          "type": "string"
        }
      ],
      "payable": false,
      "stateMutability": "view",
      "type": "function"
    },
    {
      "constant": false,
      "inputs": [
        {
          "name": "_template",
          "type": "address"
        },
        {
          "name": "_bytecode",
          "type": "bytes"
        }
      ],
      "name": "addStrategy",
      "outputs": [],
      "payable": true,
      "stateMutability": "payable",
      "type": "function"
    },
    {
      "constant": true,
      "inputs": [],
      "name": "owner",
      "outputs": [
        {
          "name": "",
          "type": "address"
        }
      ],
      "payable": false,
      "stateMutability": "view",
      "type": "function"
    },
    {
      "constant": true,
      "inputs": [],
      "name": "logoUrl",
      "outputs": [
        {
          "name": "",
          "type": "string"
        }
      ],
      "payable": false,
      "stateMutability": "view",
      "type": "function"
    },
    {
      "constant": true,
      "inputs": [],
      "name": "projectName",
      "outputs": [
        {
          "name": "",
          "type": "string"
        }
      ],
      "payable": false,
      "stateMutability": "view",
      "type": "function"
    },
    {
      "constant": true,
      "inputs": [],
      "name": "successful",
      "outputs": [
        {
          "name": "",
          "type": "bool"
        }
      ],
      "payable": false,
      "stateMutability": "view",
      "type": "function"
    },
    {
      "constant": true,
      "inputs": [],
      "name": "projectSummary",
      "outputs": [
        {
          "name": "",
          "type": "string"
        }
      ],
      "payable": false,
      "stateMutability": "view",
      "type": "function"
    },
    {
      "constant": true,
      "inputs": [],
      "name": "websiteUrl",
      "outputs": [
        {
          "name": "",
          "type": "string"
        }
      ],
      "payable": false,
      "stateMutability": "view",
      "type": "function"
    },
    {
      "constant": false,
      "inputs": [],
      "name": "claimRefund",
      "outputs": [
        {
          "name": "",
          "type": "bool"
        }
      ],
      "payable": false,
      "stateMutability": "nonpayable",
      "type": "function"
    },
    {
      "constant": true,
      "inputs": [],
      "name": "finished",
      "outputs": [
        {
          "name": "",
          "type": "bool"
        }
      ],
      "payable": false,
      "stateMutability": "view",
      "type": "function"
    },
    {
      "constant": true,
      "inputs": [],
      "name": "withdrawn",
      "outputs": [
        {
          "name": "",
          "type": "bool"
        }
      ],
      "payable": false,
      "stateMutability": "view",
      "type": "function"
    },
    {
      "constant": true,
      "inputs": [
        {
          "name": "_purchaser",
          "type": "address"
        }
      ],
      "name": "paymentOf",
      "outputs": [
        {
          "name": "weiAmount",
          "type": "uint256"
        }
      ],
      "payable": false,
      "stateMutability": "view",
      "type": "function"
    },
    {
      "constant": true,
      "inputs": [],
      "name": "InterfaceId_Sale",
      "outputs": [
        {
          "name": "",
          "type": "bytes4"
        }
      ],
      "payable": false,
      "stateMutability": "view",
      "type": "function"
    },
    {
      "constant": true,
      "inputs": [],
      "name": "coverImageUrl",
      "outputs": [
        {
          "name": "",
          "type": "string"
        }
      ],
      "payable": false,
      "stateMutability": "view",
      "type": "function"
    },
    {
      "constant": false,
      "inputs": [
        {
          "name": "_newOwner",
          "type": "address"
        }
      ],
      "name": "transferOwnership",
      "outputs": [],
      "payable": false,
      "stateMutability": "nonpayable",
      "type": "function"
    },
    {
      "constant": true,
      "inputs": [],
      "name": "InterfaceId_Contract",
      "outputs": [
        {
          "name": "",
          "type": "bytes4"
        }
      ],
      "payable": false,
      "stateMutability": "view",
      "type": "function"
    },
    {
      "constant": true,
      "inputs": [],
      "name": "token",
      "outputs": [
        {
          "name": "",
          "type": "address"
        }
      ],
      "payable": false,
      "stateMutability": "view",
      "type": "function"
    },
    {
      "inputs": [
        {
          "name": "_owner",
          "type": "address"
        },
        {
          "name": "_projectName",
          "type": "string"
        },
        {
          "name": "_name",
          "type": "string"
        },
        {
          "name": "_token",
          "type": "address"
        }
      ],
      "payable": false,
      "stateMutability": "nonpayable",
      "type": "constructor"
    },
    {
      "payable": true,
      "stateMutability": "payable",
      "type": "fallback"
    },
    {
      "anonymous": false,
      "inputs": [
        {
          "indexed": true,
          "name": "purchaser",
          "type": "address"
        },
        {
          "indexed": false,
          "name": "weiAmount",
          "type": "uint256"
        },
        {
          "indexed": false,
          "name": "tokenAmount",
          "type": "uint256"
        }
      ],
      "name": "TokenPurchase",
      "type": "event"
    },
    {
      "anonymous": false,
      "inputs": [
        {
          "indexed": true,
          "name": "previousOwner",
          "type": "address"
        }
      ],
      "name": "OwnershipRenounced",
      "type": "event"
    },
    {
      "anonymous": false,
      "inputs": [
        {
          "indexed": true,
          "name": "previousOwner",
          "type": "address"
        },
        {
          "indexed": true,
          "name": "newOwner",
          "type": "address"
        }
      ],
      "name": "OwnershipTransferred",
      "type": "event"
    },
    {
      "constant": false,
      "inputs": [
        {
          "name": "_projectName",
          "type": "string"
        },
        {
          "name": "_projectSummary",
          "type": "string"
        },
        {
          "name": "_projectDescription",
          "type": "string"
        },
        {
          "name": "_logoUrl",
          "type": "string"
        },
        {
          "name": "_coverImageUrl",
          "type": "string"
        },
        {
          "name": "_websiteUrl",
          "type": "string"
        },
        {
          "name": "_whitepaperUrl",
          "type": "string"
        },
        {
          "name": "_name",
          "type": "string"
        },
        {
          "name": "_token",
          "type": "address"
        }
      ],
      "name": "update",
      "outputs": [],
      "payable": false,
      "stateMutability": "nonpayable",
      "type": "function"
    },
    {
      "constant": false,
      "inputs": [
        {
          "name": "_projectName",
          "type": "string"
        },
        {
          "name": "_projectSummary",
          "type": "string"
        },
        {
          "name": "_projectDescription",
          "type": "string"
        },
        {
          "name": "_logoUrl",
          "type": "string"
        },
        {
          "name": "_coverImageUrl",
          "type": "string"
        },
        {
          "name": "_websiteUrl",
          "type": "string"
        },
        {
          "name": "_whitepaperUrl",
          "type": "string"
        },
        {
          "name": "_name",
          "type": "string"
        }
      ],
      "name": "update",
      "outputs": [],
      "payable": false,
      "stateMutability": "nonpayable",
      "type": "function"
    }
  ],
  "bytecode": "0x60806040523480156200001157600080fd5b50604051620037ed380380620037ed8339810180604052810190808051906020019092919080518201929190602001805182019291906020018051906020019092919050505083838382336000806101000a81548173ffffffffffffffffffffffffffffffffffffffff021916908373ffffffffffffffffffffffffffffffffffffffff160217905550620000d86301ffc9a77c01000000000000000000000000000000000000000000000000000000000262000291640100000000026401000000009004565b33600260006101000a81548173ffffffffffffffffffffffffffffffffffffffff021916908373ffffffffffffffffffffffffffffffffffffffff160217905550806000806101000a81548173ffffffffffffffffffffffffffffffffffffffff021916908373ffffffffffffffffffffffffffffffffffffffff16021790555062000196636125ede57c01000000000000000000000000000000000000000000000000000000000262000291640100000000026401000000009004565b508160039080519060200190620001af9291906200034f565b5080600a9080519060200190620001c89291906200034f565b5062000206638139792d7c01000000000000000000000000000000000000000000000000000000000262000291640100000000026401000000009004565b50505080601060006101000a81548173ffffffffffffffffffffffffffffffffffffffff021916908373ffffffffffffffffffffffffffffffffffffffff160217905550620002876395b5cfcb7c01000000000000000000000000000000000000000000000000000000000262000291640100000000026401000000009004565b50505050620003fe565b63ffffffff7c010000000000000000000000000000000000000000000000000000000002817bffffffffffffffffffffffffffffffffffffffffffffffffffffffff191614151515620002e357600080fd5b6001806000837bffffffffffffffffffffffffffffffffffffffffffffffffffffffff19167bffffffffffffffffffffffffffffffffffffffffffffffffffffffff1916815260200190815260200160002060006101000a81548160ff02191690831515021790555050565b828054600181600116156101000203166002900490600052602060002090601f016020900481019282601f106200039257805160ff1916838001178555620003c3565b82800160010185558215620003c3579182015b82811115620003c2578251825591602001919060010190620003a5565b5b509050620003d29190620003d6565b5090565b620003fb91905b80821115620003f7576000816000905550600101620003dd565b5090565b90565b6133df806200040e6000396000f3006080604052600436106101b7576000357c0100000000000000000000000000000000000000000000000000000000900463ffffffff16806301ffc9a7146102a057806306fdde03146103045780630956e5a6146103945780630f15f4c0146103bf5780630fc8c0b6146103ee578063148cb6e61461045b578063186601ca146106ce57806319fa8f50146106fd5780631f2698ab1461076657806327f6c75a146107955780632c7a72f8146107fe578063334ff6321461088e5780633ccfd60b146108b95780634042b66f146108e85780635027a916146109135780636f2ddd9314610980578063715018a6146109d7578063755f047b146109ee5780637aeedf2a14610a7e5780638da5cb5b14610afa578063993d77af14610b515780639a33e30014610be15780639a9e3fd814610c715780639ec318bf14610ca0578063abb5ca0914610d30578063b5545a3c14610dc0578063bef4876b14610def578063c80ec52214610e1e578063cf7c2b3114610e4d578063d04be2da14610ea4578063dea53c2014610f0d578063df1c5c7c14610f9d578063f2fde38b146111f0578063fbf964eb14611233578063fc0c546a1461129c575b600080600260149054906101000a900460ff1615156101d557600080fd5b6101dd6112f3565b1515156101e957600080fd5b6101f161141e565b15156101fc57600080fd5b61020534611551565b151561021057600080fd5b61021a33346116aa565b61022334611785565b915061022f33836118fb565b905061023b8183611a51565b151561024657600080fd5b3373ffffffffffffffffffffffffffffffffffffffff167fcd60aa75dea3072fbc07ae6d7d856b5dc5f4eee88854f5b4abf7b680ef8bc50f3484604051808381526020018281526020019250505060405180910390a25050005b3480156102ac57600080fd5b506102ea60048036038101908080357bffffffffffffffffffffffffffffffffffffffffffffffffffffffff19169060200190929190505050611ba9565b604051808215151515815260200191505060405180910390f35b34801561031057600080fd5b50610319611c11565b6040518080602001828103825283818151815260200191508051906020019080838360005b8381101561035957808201518184015260208101905061033e565b50505050905090810190601f1680156103865780820380516001836020036101000a031916815260200191505b509250505060405180910390f35b3480156103a057600080fd5b506103a9611caf565b6040518082815260200191505060405180910390f35b3480156103cb57600080fd5b506103d4611cbc565b604051808215151515815260200191505060405180910390f35b3480156103fa57600080fd5b5061041960048036038101908080359060200190929190505050611e91565b604051808273ffffffffffffffffffffffffffffffffffffffff1673ffffffffffffffffffffffffffffffffffffffff16815260200191505060405180910390f35b34801561046757600080fd5b506106cc600480360381019080803590602001908201803590602001908080601f0160208091040260200160405190810160405280939291908181526020018383808284378201915050505050509192919290803590602001908201803590602001908080601f0160208091040260200160405190810160405280939291908181526020018383808284378201915050505050509192919290803590602001908201803590602001908080601f0160208091040260200160405190810160405280939291908181526020018383808284378201915050505050509192919290803590602001908201803590602001908080601f0160208091040260200160405190810160405280939291908181526020018383808284378201915050505050509192919290803590602001908201803590602001908080601f0160208091040260200160405190810160405280939291908181526020018383808284378201915050505050509192919290803590602001908201803590602001908080601f0160208091040260200160405190810160405280939291908181526020018383808284378201915050505050509192919290803590602001908201803590602001908080601f0160208091040260200160405190810160405280939291908181526020018383808284378201915050505050509192919290803590602001908201803590602001908080601f0160208091040260200160405190810160405280939291908181526020018383808284378201915050505050509192919290803573ffffffffffffffffffffffffffffffffffffffff169060200190929190505050611ed4565b005b3480156106da57600080fd5b506106e3611f30565b604051808215151515815260200191505060405180910390f35b34801561070957600080fd5b50610712611f43565b60405180827bffffffffffffffffffffffffffffffffffffffffffffffffffffffff19167bffffffffffffffffffffffffffffffffffffffffffffffffffffffff1916815260200191505060405180910390f35b34801561077257600080fd5b5061077b61141e565b604051808215151515815260200191505060405180910390f35b3480156107a157600080fd5b506107aa611f6a565b60405180827bffffffffffffffffffffffffffffffffffffffffffffffffffffffff19167bffffffffffffffffffffffffffffffffffffffffffffffffffffffff1916815260200191505060405180910390f35b34801561080a57600080fd5b50610813611f91565b6040518080602001828103825283818151815260200191508051906020019080838360005b83811015610853578082015181840152602081019050610838565b50505050905090810190601f1680156108805780820380516001836020036101000a031916815260200191505b509250505060405180910390f35b34801561089a57600080fd5b506108a361202f565b6040518082815260200191505060405180910390f35b3480156108c557600080fd5b506108ce61203c565b604051808215151515815260200191505060405180910390f35b3480156108f457600080fd5b506108fd612161565b6040518082815260200191505060405180910390f35b34801561091f57600080fd5b5061093e60048036038101908080359060200190929190505050612167565b604051808273ffffffffffffffffffffffffffffffffffffffff1673ffffffffffffffffffffffffffffffffffffffff16815260200191505060405180910390f35b34801561098c57600080fd5b506109956121aa565b604051808273ffffffffffffffffffffffffffffffffffffffff1673ffffffffffffffffffffffffffffffffffffffff16815260200191505060405180910390f35b3480156109e357600080fd5b506109ec6121d0565b005b3480156109fa57600080fd5b50610a036122d2565b6040518080602001828103825283818151815260200191508051906020019080838360005b83811015610a43578082015181840152602081019050610a28565b50505050905090810190601f168015610a705780820380516001836020036101000a031916815260200191505b509250505060405180910390f35b610af8600480360381019080803573ffffffffffffffffffffffffffffffffffffffff169060200190929190803590602001908201803590602001908080601f0160208091040260200160405190810160405280939291908181526020018383808284378201915050505050509192919290505050612370565b005b348015610b0657600080fd5b50610b0f612856565b604051808273ffffffffffffffffffffffffffffffffffffffff1673ffffffffffffffffffffffffffffffffffffffff16815260200191505060405180910390f35b348015610b5d57600080fd5b50610b6661287b565b6040518080602001828103825283818151815260200191508051906020019080838360005b83811015610ba6578082015181840152602081019050610b8b565b50505050905090810190601f168015610bd35780820380516001836020036101000a031916815260200191505b509250505060405180910390f35b348015610bed57600080fd5b50610bf6612919565b6040518080602001828103825283818151815260200191508051906020019080838360005b83811015610c36578082015181840152602081019050610c1b565b50505050905090810190601f168015610c635780820380516001836020036101000a031916815260200191505b509250505060405180910390f35b348015610c7d57600080fd5b50610c866129b7565b604051808215151515815260200191505060405180910390f35b348015610cac57600080fd5b50610cb5612ae2565b6040518080602001828103825283818151815260200191508051906020019080838360005b83811015610cf5578082015181840152602081019050610cda565b50505050905090810190601f168015610d225780820380516001836020036101000a031916815260200191505b509250505060405180910390f35b348015610d3c57600080fd5b50610d45612b80565b6040518080602001828103825283818151815260200191508051906020019080838360005b83811015610d85578082015181840152602081019050610d6a565b50505050905090810190601f168015610db25780820380516001836020036101000a031916815260200191505b509250505060405180910390f35b348015610dcc57600080fd5b50610dd5612c1e565b604051808215151515815260200191505060405180910390f35b348015610dfb57600080fd5b50610e046112f3565b604051808215151515815260200191505060405180910390f35b348015610e2a57600080fd5b50610e33612d48565b604051808215151515815260200191505060405180910390f35b348015610e5957600080fd5b50610e8e600480360381019080803573ffffffffffffffffffffffffffffffffffffffff169060200190929190505050612d5b565b6040518082815260200191505060405180910390f35b348015610eb057600080fd5b50610eb9612da4565b60405180827bffffffffffffffffffffffffffffffffffffffffffffffffffffffff19167bffffffffffffffffffffffffffffffffffffffffffffffffffffffff1916815260200191505060405180910390f35b348015610f1957600080fd5b50610f22612dcb565b6040518080602001828103825283818151815260200191508051906020019080838360005b83811015610f62578082015181840152602081019050610f47565b50505050905090810190601f168015610f8f5780820380516001836020036101000a031916815260200191505b509250505060405180910390f35b348015610fa957600080fd5b506111ee600480360381019080803590602001908201803590602001908080601f0160208091040260200160405190810160405280939291908181526020018383808284378201915050505050509192919290803590602001908201803590602001908080601f0160208091040260200160405190810160405280939291908181526020018383808284378201915050505050509192919290803590602001908201803590602001908080601f0160208091040260200160405190810160405280939291908181526020018383808284378201915050505050509192919290803590602001908201803590602001908080601f0160208091040260200160405190810160405280939291908181526020018383808284378201915050505050509192919290803590602001908201803590602001908080601f0160208091040260200160405190810160405280939291908181526020018383808284378201915050505050509192919290803590602001908201803590602001908080601f0160208091040260200160405190810160405280939291908181526020018383808284378201915050505050509192919290803590602001908201803590602001908080601f0160208091040260200160405190810160405280939291908181526020018383808284378201915050505050509192919290803590602001908201803590602001908080601f0160208091040260200160405190810160405280939291908181526020018383808284378201915050505050509192919290505050612e69565b005b3480156111fc57600080fd5b50611231600480360381019080803573ffffffffffffffffffffffffffffffffffffffff169060200190929190505050612fa2565b005b34801561123f57600080fd5b50611248613009565b60405180827bffffffffffffffffffffffffffffffffffffffffffffffffffffffff19167bffffffffffffffffffffffffffffffffffffffffffffffffffffffff1916815260200191505060405180910390f35b3480156112a857600080fd5b506112b1613030565b604051808273ffffffffffffffffffffffffffffffffffffffff1673ffffffffffffffffffffffffffffffffffffffff16815260200191505060405180910390f35b600080600061130061141e565b151561130f5760009250611419565b60019150600090505b600e80549050811015611415578180156114065750600e8181548110151561133c57fe5b9060005260206000200160009054906101000a900473ffffffffffffffffffffffffffffffffffffffff1673ffffffffffffffffffffffffffffffffffffffff1663bef4876b6040518163ffffffff167c0100000000000000000000000000000000000000000000000000000000028152600401602060405180830381600087803b1580156113ca57600080fd5b505af11580156113de573d6000803e3d6000fd5b505050506040513d60208110156113f457600080fd5b81019080805190602001909291905050505b91508080600101915050611318565b8192505b505090565b6000806000600260149054906101000a900460ff161515611442576000925061154c565b60019150600090505b600e80549050811015611548578180156115395750600e8181548110151561146f57fe5b9060005260206000200160009054906101000a900473ffffffffffffffffffffffffffffffffffffffff1673ffffffffffffffffffffffffffffffffffffffff16631f2698ab6040518163ffffffff167c0100000000000000000000000000000000000000000000000000000000028152600401602060405180830381600087803b1580156114fd57600080fd5b505af1158015611511573d6000803e3d6000fd5b505050506040513d602081101561152757600080fd5b81019080805190602001909291905050505b9150808060010191505061144b565b8192505b505090565b60008060008060019250600091505b600e8054905082101561169f57600e8281548110151561157c57fe5b9060005260206000200160009054906101000a900473ffffffffffffffffffffffffffffffffffffffff16905082801561169057508073ffffffffffffffffffffffffffffffffffffffff16634f9a82d633876040518363ffffffff167c0100000000000000000000000000000000000000000000000000000000028152600401808373ffffffffffffffffffffffffffffffffffffffff1673ffffffffffffffffffffffffffffffffffffffff16815260200182815260200192505050602060405180830381600087803b15801561165457600080fd5b505af1158015611668573d6000803e3d6000fd5b505050506040513d602081101561167e57600080fd5b81019080805190602001909291905050505b92508180600101925050611560565b829350505050919050565b6116b26112f3565b1515156116be57600080fd5b6116c661141e565b15156116d157600080fd5b61172381600f60008573ffffffffffffffffffffffffffffffffffffffff1673ffffffffffffffffffffffffffffffffffffffff1681526020019081526020016000205461305690919063ffffffff16565b600f60008473ffffffffffffffffffffffffffffffffffffffff1673ffffffffffffffffffffffffffffffffffffffff1681526020019081526020016000208190555061177b81600b5461305690919063ffffffff16565b600b819055505050565b6000806000806000859350600092505b600e805490508310156118ef57600e838154811015156117b157fe5b9060005260206000200160009054906101000a900473ffffffffffffffffffffffffffffffffffffffff1691508173ffffffffffffffffffffffffffffffffffffffff16635589530e33886040518363ffffffff167c0100000000000000000000000000000000000000000000000000000000028152600401808373ffffffffffffffffffffffffffffffffffffffff1673ffffffffffffffffffffffffffffffffffffffff16815260200182815260200192505050602060405180830381600087803b15801561188157600080fd5b505af1158015611895573d6000803e3d6000fd5b505050506040513d60208110156118ab57600080fd5b810190808051906020019092919050505090506000811115156118cd57600080fd5b6118e0818561307290919063ffffffff16565b93508280600101935050611795565b83945050505050919050565b60008060008091505b600e80549050821015611a4557600e8281548110151561192057fe5b9060005260206000200160009054906101000a900473ffffffffffffffffffffffffffffffffffffffff1690508073ffffffffffffffffffffffffffffffffffffffff1663e67c864686866040518363ffffffff167c0100000000000000000000000000000000000000000000000000000000028152600401808373ffffffffffffffffffffffffffffffffffffffff1673ffffffffffffffffffffffffffffffffffffffff16815260200182815260200192505050602060405180830381600087803b1580156119f057600080fd5b505af1158015611a04573d6000803e3d6000fd5b505050506040513d6020811015611a1a57600080fd5b810190808051906020019092919050505015611a3857809250611a49565b8180600101925050611904565b8492505b505092915050565b60008060008091505b600e80549050821015611b9c57600e82815481101515611a7657fe5b9060005260206000200160009054906101000a900473ffffffffffffffffffffffffffffffffffffffff1690508073ffffffffffffffffffffffffffffffffffffffff1663587775e886866040518363ffffffff167c0100000000000000000000000000000000000000000000000000000000028152600401808373ffffffffffffffffffffffffffffffffffffffff1673ffffffffffffffffffffffffffffffffffffffff16815260200182815260200192505050602060405180830381600087803b158015611b4657600080fd5b505af1158015611b5a573d6000803e3d6000fd5b505050506040513d6020811015611b7057600080fd5b810190808051906020019092919050505015611b8f5760019250611ba1565b8180600101925050611a5a565b600092505b505092915050565b600060016000837bffffffffffffffffffffffffffffffffffffffffffffffffffffffff19167bffffffffffffffffffffffffffffffffffffffffffffffffffffffff1916815260200190815260200160002060009054906101000a900460ff169050919050565b600a8054600181600116156101000203166002900480601f016020809104026020016040519081016040528092919081815260200182805460018160011615610100020316600290048015611ca75780601f10611c7c57610100808354040283529160200191611ca7565b820191906000526020600020905b815481529060010190602001808311611c8a57829003601f168201915b505050505081565b6000600d80549050905090565b60008060008060009054906101000a900473ffffffffffffffffffffffffffffffffffffffff1673ffffffffffffffffffffffffffffffffffffffff163373ffffffffffffffffffffffffffffffffffffffff16141515611d1c57600080fd5b600091505b600d80549050821015611e8257600d82815481101515611d3d57fe5b9060005260206000200160009054906101000a900473ffffffffffffffffffffffffffffffffffffffff1690508073ffffffffffffffffffffffffffffffffffffffff1663186601ca6040518163ffffffff167c0100000000000000000000000000000000000000000000000000000000028152600401602060405180830381600087803b158015611dce57600080fd5b505af1158015611de2573d6000803e3d6000fd5b505050506040513d6020811015611df857600080fd5b810190808051906020019092919050505015611e7557600e8190806001815401808255809150509060018203906000526020600020016000909192909190916101000a81548173ffffffffffffffffffffffffffffffffffffffff021916908373ffffffffffffffffffffffffffffffffffffffff160217905550505b8180600101925050611d21565b611e8a6130aa565b9250505090565b6000600d82815481101515611ea257fe5b9060005260206000200160009054906101000a900473ffffffffffffffffffffffffffffffffffffffff169050919050565b611ee48989898989898989612e69565b80601060006101000a81548173ffffffffffffffffffffffffffffffffffffffff021916908373ffffffffffffffffffffffffffffffffffffffff160217905550505050505050505050565b600260149054906101000a900460ff1681565b6301ffc9a77c01000000000000000000000000000000000000000000000000000000000281565b6395b5cfcb7c01000000000000000000000000000000000000000000000000000000000281565b60098054600181600116156101000203166002900480601f0160208091040260200160405190810160405280929190818152602001828054600181600116156101000203166002900480156120275780601f10611ffc57610100808354040283529160200191612027565b820191906000526020600020905b81548152906001019060200180831161200a57829003601f168201915b505050505081565b6000600e80549050905090565b60008060009054906101000a900473ffffffffffffffffffffffffffffffffffffffff1673ffffffffffffffffffffffffffffffffffffffff163373ffffffffffffffffffffffffffffffffffffffff1614151561209957600080fd5b600260149054906101000a900460ff1615156120b457600080fd5b600c60009054906101000a900460ff161515156120d057600080fd5b6120d86112f3565b15156120e357600080fd5b6120eb6129b7565b15156120f657600080fd5b6001600c60006101000a81548160ff0219169083151502179055503373ffffffffffffffffffffffffffffffffffffffff166108fc600b549081150290604051600060405180830381858888f19350505050158015612159573d6000803e3d6000fd5b506001905090565b600b5481565b6000600e8281548110151561217857fe5b9060005260206000200160009054906101000a900473ffffffffffffffffffffffffffffffffffffffff169050919050565b600260009054906101000a900473ffffffffffffffffffffffffffffffffffffffff1681565b6000809054906101000a900473ffffffffffffffffffffffffffffffffffffffff1673ffffffffffffffffffffffffffffffffffffffff163373ffffffffffffffffffffffffffffffffffffffff1614151561222b57600080fd5b6000809054906101000a900473ffffffffffffffffffffffffffffffffffffffff1673ffffffffffffffffffffffffffffffffffffffff167ff8df31144d9c2f0f6b59d69b8b98abd5459d07f2742c4df920b25aae33c6482060405160405180910390a260008060006101000a81548173ffffffffffffffffffffffffffffffffffffffff021916908373ffffffffffffffffffffffffffffffffffffffff160217905550565b60058054600181600116156101000203166002900480601f0160208091040260200160405190810160405280929190818152602001828054600181600116156101000203166002900480156123685780601f1061233d57610100808354040283529160200191612368565b820191906000526020600020905b81548152906001019060200180831161234b57829003601f168201915b505050505081565b606060008060009054906101000a900473ffffffffffffffffffffffffffffffffffffffff1673ffffffffffffffffffffffffffffffffffffffff163373ffffffffffffffffffffffffffffffffffffffff161415156123cf57600080fd5b600260149054906101000a900460ff161515156123eb57600080fd5b8373ffffffffffffffffffffffffffffffffffffffff166301ffc9a7806040518263ffffffff167c010000000000000000000000000000000000000000000000000000000002815260040180827c0100000000000000000000000000000000000000000000000000000000027bffffffffffffffffffffffffffffffffffffffffffffffffffffffff19168152602001915050602060405180830381600087803b15801561249857600080fd5b505af11580156124ac573d6000803e3d6000fd5b505050506040513d60208110156124c257600080fd5b810190808051906020019092919050505015156124de57600080fd5b8373ffffffffffffffffffffffffffffffffffffffff166301ffc9a763d48445ff6040518263ffffffff167c010000000000000000000000000000000000000000000000000000000002815260040180827c0100000000000000000000000000000000000000000000000000000000027bffffffffffffffffffffffffffffffffffffffffffffffffffffffff19168152602001915050602060405180830381600087803b15801561258f57600080fd5b505af11580156125a3573d6000803e3d6000fd5b505050506040513d60208110156125b957600080fd5b810190808051906020019092919050505015156125d557600080fd5b6125de846130ce565b15156125e957600080fd5b3330604051602001808373ffffffffffffffffffffffffffffffffffffffff1673ffffffffffffffffffffffffffffffffffffffff1681526020018273ffffffffffffffffffffffffffffffffffffffff1673ffffffffffffffffffffffffffffffffffffffff1681526020019250505060405160208183030381529060405291508373ffffffffffffffffffffffffffffffffffffffff16636535b4a53485856040518463ffffffff167c0100000000000000000000000000000000000000000000000000000000028152600401808060200180602001838103835285818151815260200191508051906020019080838360005b838110156126f95780820151818401526020810190506126de565b50505050905090810190601f1680156127265780820380516001836020036101000a031916815260200191505b50838103825284818151815260200191508051906020019080838360005b8381101561275f578082015181840152602081019050612744565b50505050905090810190601f16801561278c5780820380516001836020036101000a031916815260200191505b509450505050506020604051808303818588803b1580156127ac57600080fd5b505af11580156127c0573d6000803e3d6000fd5b50505050506040513d60208110156127d757600080fd5b81019080805190602001909291905050509050600d8190806001815401808255809150509060018203906000526020600020016000909192909190916101000a81548173ffffffffffffffffffffffffffffffffffffffff021916908373ffffffffffffffffffffffffffffffffffffffff1602179055505050505050565b6000809054906101000a900473ffffffffffffffffffffffffffffffffffffffff1681565b60068054600181600116156101000203166002900480601f0160208091040260200160405190810160405280929190818152602001828054600181600116156101000203166002900480156129115780601f106128e657610100808354040283529160200191612911565b820191906000526020600020905b8154815290600101906020018083116128f457829003601f168201915b505050505081565b60038054600181600116156101000203166002900480601f0160208091040260200160405190810160405280929190818152602001828054600181600116156101000203166002900480156129af5780601f10612984576101008083540402835291602001916129af565b820191906000526020600020905b81548152906001019060200180831161299257829003601f168201915b505050505081565b60008060006129c461141e565b15156129d35760009250612add565b60019150600090505b600e80549050811015612ad957818015612aca5750600e81815481101515612a0057fe5b9060005260206000200160009054906101000a900473ffffffffffffffffffffffffffffffffffffffff1673ffffffffffffffffffffffffffffffffffffffff16639a9e3fd86040518163ffffffff167c0100000000000000000000000000000000000000000000000000000000028152600401602060405180830381600087803b158015612a8e57600080fd5b505af1158015612aa2573d6000803e3d6000fd5b505050506040513d6020811015612ab857600080fd5b81019080805190602001909291905050505b915080806001019150506129dc565b8192505b505090565b60048054600181600116156101000203166002900480601f016020809104026020016040519081016040528092919081815260200182805460018160011615610100020316600290048015612b785780601f10612b4d57610100808354040283529160200191612b78565b820191906000526020600020905b815481529060010190602001808311612b5b57829003601f168201915b505050505081565b60088054600181600116156101000203166002900480601f016020809104026020016040519081016040528092919081815260200182805460018160011615610100020316600290048015612c165780601f10612beb57610100808354040283529160200191612c16565b820191906000526020600020905b815481529060010190602001808311612bf957829003601f168201915b505050505081565b600080600260149054906101000a900460ff161515612c3c57600080fd5b612c446112f3565b1515612c4f57600080fd5b612c576129b7565b151515612c6357600080fd5b600f60003373ffffffffffffffffffffffffffffffffffffffff1673ffffffffffffffffffffffffffffffffffffffff168152602001908152602001600020549050600081111515612cb457600080fd5b6000600f60003373ffffffffffffffffffffffffffffffffffffffff1673ffffffffffffffffffffffffffffffffffffffff168152602001908152602001600020819055503373ffffffffffffffffffffffffffffffffffffffff166108fc829081150290604051600060405180830381858888f19350505050158015612d3f573d6000803e3d6000fd5b50600191505090565b600c60009054906101000a900460ff1681565b6000600f60008373ffffffffffffffffffffffffffffffffffffffff1673ffffffffffffffffffffffffffffffffffffffff168152602001908152602001600020549050919050565b638139792d7c01000000000000000000000000000000000000000000000000000000000281565b60078054600181600116156101000203166002900480601f016020809104026020016040519081016040528092919081815260200182805460018160011615610100020316600290048015612e615780601f10612e3657610100808354040283529160200191612e61565b820191906000526020600020905b815481529060010190602001808311612e4457829003601f168201915b505050505081565b6000809054906101000a900473ffffffffffffffffffffffffffffffffffffffff1673ffffffffffffffffffffffffffffffffffffffff163373ffffffffffffffffffffffffffffffffffffffff16141515612ec457600080fd5b600260149054906101000a900460ff16151515612ee057600080fd5b8760039080519060200190612ef692919061330e565b508660049080519060200190612f0d92919061330e565b508560059080519060200190612f2492919061330e565b508460069080519060200190612f3b92919061330e565b508360079080519060200190612f5292919061330e565b508260089080519060200190612f6992919061330e565b508160099080519060200190612f8092919061330e565b5080600a9080519060200190612f9792919061330e565b505050505050505050565b6000809054906101000a900473ffffffffffffffffffffffffffffffffffffffff1673ffffffffffffffffffffffffffffffffffffffff163373ffffffffffffffffffffffffffffffffffffffff16141515612ffd57600080fd5b61300681613214565b50565b636125ede57c01000000000000000000000000000000000000000000000000000000000281565b601060009054906101000a900473ffffffffffffffffffffffffffffffffffffffff1681565b6000818301905082811015151561306957fe5b80905092915050565b60008083141561308557600090506130a4565b818302905081838281151561309657fe5b041415156130a057fe5b8090505b92915050565b60006001600260146101000a81548160ff0219169083151502179055506001905090565b60008060008091505b600d8054905082101561320857600d828154811015156130f357fe5b9060005260206000200160009054906101000a900473ffffffffffffffffffffffffffffffffffffffff1690508373ffffffffffffffffffffffffffffffffffffffff168173ffffffffffffffffffffffffffffffffffffffff16636f2ddd936040518163ffffffff167c0100000000000000000000000000000000000000000000000000000000028152600401602060405180830381600087803b15801561319b57600080fd5b505af11580156131af573d6000803e3d6000fd5b505050506040513d60208110156131c557600080fd5b810190808051906020019092919050505073ffffffffffffffffffffffffffffffffffffffff1614156131fb576000925061320d565b81806001019250506130d7565b600192505b5050919050565b600073ffffffffffffffffffffffffffffffffffffffff168173ffffffffffffffffffffffffffffffffffffffff161415151561325057600080fd5b8073ffffffffffffffffffffffffffffffffffffffff166000809054906101000a900473ffffffffffffffffffffffffffffffffffffffff1673ffffffffffffffffffffffffffffffffffffffff167f8be0079c531659141344cd1fd0a4f28419497f9722a3daafe3b4186f6b6457e060405160405180910390a3806000806101000a81548173ffffffffffffffffffffffffffffffffffffffff021916908373ffffffffffffffffffffffffffffffffffffffff16021790555050565b828054600181600116156101000203166002900490600052602060002090601f016020900481019282601f1061334f57805160ff191683800117855561337d565b8280016001018555821561337d579182015b8281111561337c578251825591602001919060010190613361565b5b50905061338a919061338e565b5090565b6133b091905b808211156133ac576000816000905550600101613394565b5090565b905600a165627a7a7230582090097096624f9e2d50240232fd87533bce6fce136a8dc57b13881271e61f04100029",
  "source": "pragma solidity ^0.4.24;\n\nimport \"tokenboost-solidity/contracts/sale/Sale.sol\";\nimport \"tokenboost-solidity/contracts/utils/strings.sol\";\nimport \"zeppelin-solidity/contracts/token/ERC20/ERC20.sol\";\nimport \"../../strategy/sale/erc20/ERC20SaleStrategy.sol\";\n\ncontract ERC20Sale is Sale {\n    using SafeMath for uint256;\n    using strings for *;\n\n    /**\n     * @notice this.owner.selector ^ this.renounceOwnership.selector ^ this.transferOwnership.selector\n        ^ this.template.selector ^ this.activate.selector\n        ^ this.projectName.selector ^ this.projectSummary.selector ^ this.projectDescription.selector\n        ^ this.logoUrl.selector ^ this.coverImageUrl.selector ^ this.websiteUrl.selector ^ this.whitepaperUrl.selector\n        ^ this.name.selector ^ this.weiRaised.selector ^ this.withdrawn.selector ^ this.ready.selector\n        ^ this.started.selector ^ this.successful.selector ^ this.finished.selector ^ this.paymentOf.selector\n        ^ bytes4(keccak256(\"update(string,string,string,string,string,string,string,string)\"))\n        ^ bytes4(keccak256(\"update(string,string,string,string,string,string,string,string,address)\"))\n        ^ this.addStrategy.selector ^ this.numberOfStrategies.selector ^ this.strategyAt.selector\n        ^ this.numberOfActivatedStrategies.selector ^ this.activatedStrategyAt.selector\n        ^ this.withdraw.selector ^ this.claimRefund.selector\n     */\n    bytes4 public constant InterfaceId_ERC20Sale = 0x95b5cfcb;\n\n    event TokenPurchase(\n        address indexed purchaser,\n        uint256 weiAmount,\n        uint256 tokenAmount\n    );\n\n    ERC20 public token;\n\n    constructor(\n        address _owner,\n        string _projectName,\n        string _name,\n        ERC20 _token\n    ) public Sale(_owner, _projectName, _name) {\n        token = _token;\n\n        _registerInterface(InterfaceId_ERC20Sale);\n    }\n\n    function update(\n        string _projectName,\n        string _projectSummary,\n        string _projectDescription,\n        string _logoUrl,\n        string _coverImageUrl,\n        string _websiteUrl,\n        string _whitepaperUrl,\n        string _name,\n        ERC20 _token\n    ) public {\n        super.update(\n            _projectName,\n            _projectSummary,\n            _projectDescription,\n            _logoUrl,\n            _coverImageUrl,\n            _websiteUrl,\n            _whitepaperUrl,\n            _name\n        );\n        token = _token;\n    }\n\n    function() whenActivated external payable {\n        require(!finished());\n        require(started());\n        require(_purchasable(msg.value));\n\n        increasePaymentOf(msg.sender, msg.value);\n\n        uint256 tokenAmount = _getTokenAmount(msg.value);\n        address tokenReceiver = _tokenReceiver(msg.sender, tokenAmount);\n        require(_supplyTokens(tokenReceiver, tokenAmount));\n\n        emit TokenPurchase(msg.sender, msg.value, tokenAmount);\n    }\n\n    function _purchasable(uint256 _weiAmount) private view returns (bool) {\n        bool p = true;\n        for (uint i = 0; i < activatedStrategies.length; i++) {\n            ERC20SaleStrategy strategy = ERC20SaleStrategy(activatedStrategies[i]);\n            p = p && strategy.purchasable(msg.sender, _weiAmount);\n        }\n        return p;\n    }\n\n    function _getTokenAmount(uint256 _weiAmount) private view returns (uint256) {\n        uint256 tokenAmount = _weiAmount;\n        for (uint i = 0; i < activatedStrategies.length; i++) {\n            ERC20SaleStrategy strategy = ERC20SaleStrategy(activatedStrategies[i]);\n            uint256 rate = strategy.tokenRate(msg.sender, _weiAmount);\n            require(rate > 0);\n\n            tokenAmount = tokenAmount.mul(rate);\n        }\n        return tokenAmount;\n    }\n\n    function _tokenReceiver(address _purchaser, uint256 _tokenAmount) private returns (address) {\n        for (uint i = 0; i < activatedStrategies.length; i++) {\n            ERC20SaleStrategy strategy = ERC20SaleStrategy(activatedStrategies[i]);\n            if (strategy.receivesTokens(_purchaser, _tokenAmount)) {\n                return address(strategy);\n            }\n        }\n        return _purchaser;\n    }\n\n    function _supplyTokens(address _to, uint256 _tokenAmount) private returns (bool) {\n        for (uint i = 0; i < activatedStrategies.length; i++) {\n            ERC20SaleStrategy strategy = ERC20SaleStrategy(activatedStrategies[i]);\n            if (strategy.supplyTokens(_to, _tokenAmount)) {\n                return true;\n            }\n        }\n        return false;\n    }\n}\n",
  "sourcePath": "/Users/yoonjae/SolidityProjects/tokenboost-solidity-erc20sale/contracts/sale/erc20/ERC20Sale.sol",
  "compiler": {
    "name": "solc",
    "version": "0.4.24+commit.e67f0147.Emscripten.clang"
  },
  "schemaVersion": "2.0.1",
  "updatedAt": "2018-09-18T23:50:12.809Z"
}