{
  "contractName": "ERC20Sale",
  "abi": [
    {
      "constant": true,
      "inputs": [
        {
          "name": "_interfaceId",
          "type": "bytes4"
        }
      ],
      "name": "supportsInterface",
      "outputs": [
        {
          "name": "",
          "type": "bool"
        }
      ],
      "payable": false,
      "stateMutability": "view",
      "type": "function"
    },
    {
      "constant": true,
      "inputs": [],
      "name": "name",
      "outputs": [
        {
          "name": "",
          "type": "string"
        }
      ],
      "payable": false,
      "stateMutability": "view",
      "type": "function"
    },
    {
      "constant": true,
      "inputs": [],
      "name": "numberOfStrategies",
      "outputs": [
        {
          "name": "",
          "type": "uint256"
        }
      ],
      "payable": false,
      "stateMutability": "view",
      "type": "function"
    },
    {
      "constant": false,
      "inputs": [],
      "name": "activate",
      "outputs": [
        {
          "name": "",
          "type": "bool"
        }
      ],
      "payable": false,
      "stateMutability": "nonpayable",
      "type": "function"
    },
    {
      "constant": true,
      "inputs": [
        {
          "name": "index",
          "type": "uint256"
        }
      ],
      "name": "strategyAt",
      "outputs": [
        {
          "name": "",
          "type": "address"
        }
      ],
      "payable": false,
      "stateMutability": "view",
      "type": "function"
    },
    {
      "constant": true,
      "inputs": [],
      "name": "activated",
      "outputs": [
        {
          "name": "",
          "type": "bool"
        }
      ],
      "payable": false,
      "stateMutability": "view",
      "type": "function"
    },
    {
      "constant": true,
      "inputs": [],
      "name": "InterfaceId_ERC165",
      "outputs": [
        {
          "name": "",
          "type": "bytes4"
        }
      ],
      "payable": false,
      "stateMutability": "view",
      "type": "function"
    },
    {
      "constant": true,
      "inputs": [],
      "name": "started",
      "outputs": [
        {
          "name": "",
          "type": "bool"
        }
      ],
      "payable": false,
      "stateMutability": "view",
      "type": "function"
    },
    {
      "constant": true,
      "inputs": [],
      "name": "InterfaceId_ERC20Sale",
      "outputs": [
        {
          "name": "",
          "type": "bytes4"
        }
      ],
      "payable": false,
      "stateMutability": "view",
      "type": "function"
    },
    {
      "constant": true,
      "inputs": [],
      "name": "whitepaperUrl",
      "outputs": [
        {
          "name": "",
          "type": "string"
        }
      ],
      "payable": false,
      "stateMutability": "view",
      "type": "function"
    },
    {
      "constant": true,
      "inputs": [],
      "name": "numberOfActivatedStrategies",
      "outputs": [
        {
          "name": "",
          "type": "uint256"
        }
      ],
      "payable": false,
      "stateMutability": "view",
      "type": "function"
    },
    {
      "constant": false,
      "inputs": [],
      "name": "withdraw",
      "outputs": [
        {
          "name": "",
          "type": "bool"
        }
      ],
      "payable": false,
      "stateMutability": "nonpayable",
      "type": "function"
    },
    {
      "constant": true,
      "inputs": [],
      "name": "weiRaised",
      "outputs": [
        {
          "name": "",
          "type": "uint256"
        }
      ],
      "payable": false,
      "stateMutability": "view",
      "type": "function"
    },
    {
      "constant": true,
      "inputs": [
        {
          "name": "index",
          "type": "uint256"
        }
      ],
      "name": "activatedStrategyAt",
      "outputs": [
        {
          "name": "",
          "type": "address"
        }
      ],
      "payable": false,
      "stateMutability": "view",
      "type": "function"
    },
    {
      "constant": true,
      "inputs": [],
      "name": "template",
      "outputs": [
        {
          "name": "",
          "type": "address"
        }
      ],
      "payable": false,
      "stateMutability": "view",
      "type": "function"
    },
    {
      "constant": false,
      "inputs": [],
      "name": "renounceOwnership",
      "outputs": [],
      "payable": false,
      "stateMutability": "nonpayable",
      "type": "function"
    },
    {
      "constant": true,
      "inputs": [],
      "name": "projectDescription",
      "outputs": [
        {
          "name": "",
          "type": "string"
        }
      ],
      "payable": false,
      "stateMutability": "view",
      "type": "function"
    },
    {
      "constant": false,
      "inputs": [
        {
          "name": "_template",
          "type": "address"
        },
        {
          "name": "_bytecode",
          "type": "bytes"
        }
      ],
      "name": "addStrategy",
      "outputs": [],
      "payable": true,
      "stateMutability": "payable",
      "type": "function"
    },
    {
      "constant": true,
      "inputs": [],
      "name": "owner",
      "outputs": [
        {
          "name": "",
          "type": "address"
        }
      ],
      "payable": false,
      "stateMutability": "view",
      "type": "function"
    },
    {
      "constant": true,
      "inputs": [],
      "name": "logoUrl",
      "outputs": [
        {
          "name": "",
          "type": "string"
        }
      ],
      "payable": false,
      "stateMutability": "view",
      "type": "function"
    },
    {
      "constant": true,
      "inputs": [],
      "name": "projectName",
      "outputs": [
        {
          "name": "",
          "type": "string"
        }
      ],
      "payable": false,
      "stateMutability": "view",
      "type": "function"
    },
    {
      "constant": true,
      "inputs": [],
      "name": "successful",
      "outputs": [
        {
          "name": "",
          "type": "bool"
        }
      ],
      "payable": false,
      "stateMutability": "view",
      "type": "function"
    },
    {
      "constant": true,
      "inputs": [],
      "name": "projectSummary",
      "outputs": [
        {
          "name": "",
          "type": "string"
        }
      ],
      "payable": false,
      "stateMutability": "view",
      "type": "function"
    },
    {
      "constant": true,
      "inputs": [],
      "name": "websiteUrl",
      "outputs": [
        {
          "name": "",
          "type": "string"
        }
      ],
      "payable": false,
      "stateMutability": "view",
      "type": "function"
    },
    {
      "constant": false,
      "inputs": [],
      "name": "claimRefund",
      "outputs": [
        {
          "name": "",
          "type": "bool"
        }
      ],
      "payable": false,
      "stateMutability": "nonpayable",
      "type": "function"
    },
    {
      "constant": true,
      "inputs": [],
      "name": "finished",
      "outputs": [
        {
          "name": "",
          "type": "bool"
        }
      ],
      "payable": false,
      "stateMutability": "view",
      "type": "function"
    },
    {
      "constant": true,
      "inputs": [],
      "name": "withdrawn",
      "outputs": [
        {
          "name": "",
          "type": "bool"
        }
      ],
      "payable": false,
      "stateMutability": "view",
      "type": "function"
    },
    {
      "constant": true,
      "inputs": [
        {
          "name": "_purchaser",
          "type": "address"
        }
      ],
      "name": "paymentOf",
      "outputs": [
        {
          "name": "weiAmount",
          "type": "uint256"
        }
      ],
      "payable": false,
      "stateMutability": "view",
      "type": "function"
    },
    {
      "constant": true,
      "inputs": [],
      "name": "InterfaceId_Sale",
      "outputs": [
        {
          "name": "",
          "type": "bytes4"
        }
      ],
      "payable": false,
      "stateMutability": "view",
      "type": "function"
    },
    {
      "constant": true,
      "inputs": [],
      "name": "coverImageUrl",
      "outputs": [
        {
          "name": "",
          "type": "string"
        }
      ],
      "payable": false,
      "stateMutability": "view",
      "type": "function"
    },
    {
      "constant": false,
      "inputs": [
        {
          "name": "_newOwner",
          "type": "address"
        }
      ],
      "name": "transferOwnership",
      "outputs": [],
      "payable": false,
      "stateMutability": "nonpayable",
      "type": "function"
    },
    {
      "constant": true,
      "inputs": [],
      "name": "InterfaceId_Contract",
      "outputs": [
        {
          "name": "",
          "type": "bytes4"
        }
      ],
      "payable": false,
      "stateMutability": "view",
      "type": "function"
    },
    {
      "constant": true,
      "inputs": [],
      "name": "token",
      "outputs": [
        {
          "name": "",
          "type": "address"
        }
      ],
      "payable": false,
      "stateMutability": "view",
      "type": "function"
    },
    {
      "inputs": [
        {
          "name": "_owner",
          "type": "address"
        },
        {
          "name": "_projectName",
          "type": "string"
        },
        {
          "name": "_name",
          "type": "string"
        },
        {
          "name": "_token",
          "type": "address"
        }
      ],
      "payable": false,
      "stateMutability": "nonpayable",
      "type": "constructor"
    },
    {
      "payable": true,
      "stateMutability": "payable",
      "type": "fallback"
    },
    {
      "anonymous": false,
      "inputs": [
        {
          "indexed": true,
          "name": "purchaser",
          "type": "address"
        },
        {
          "indexed": false,
          "name": "weiAmount",
          "type": "uint256"
        },
        {
          "indexed": false,
          "name": "tokenAmount",
          "type": "uint256"
        }
      ],
      "name": "TokenPurchase",
      "type": "event"
    },
    {
      "anonymous": false,
      "inputs": [
        {
          "indexed": true,
          "name": "previousOwner",
          "type": "address"
        }
      ],
      "name": "OwnershipRenounced",
      "type": "event"
    },
    {
      "anonymous": false,
      "inputs": [
        {
          "indexed": true,
          "name": "previousOwner",
          "type": "address"
        },
        {
          "indexed": true,
          "name": "newOwner",
          "type": "address"
        }
      ],
      "name": "OwnershipTransferred",
      "type": "event"
    },
    {
      "constant": false,
      "inputs": [
        {
          "name": "_projectName",
          "type": "string"
        },
        {
          "name": "_projectSummary",
          "type": "string"
        },
        {
          "name": "_projectDescription",
          "type": "string"
        },
        {
          "name": "_logoUrl",
          "type": "string"
        },
        {
          "name": "_coverImageUrl",
          "type": "string"
        },
        {
          "name": "_websiteUrl",
          "type": "string"
        },
        {
          "name": "_whitepaperUrl",
          "type": "string"
        },
        {
          "name": "_name",
          "type": "string"
        },
        {
          "name": "_token",
          "type": "address"
        }
      ],
      "name": "update",
      "outputs": [],
      "payable": false,
      "stateMutability": "nonpayable",
      "type": "function"
    },
    {
      "constant": false,
      "inputs": [
        {
          "name": "_projectName",
          "type": "string"
        },
        {
          "name": "_projectSummary",
          "type": "string"
        },
        {
          "name": "_projectDescription",
          "type": "string"
        },
        {
          "name": "_logoUrl",
          "type": "string"
        },
        {
          "name": "_coverImageUrl",
          "type": "string"
        },
        {
          "name": "_websiteUrl",
          "type": "string"
        },
        {
          "name": "_whitepaperUrl",
          "type": "string"
        },
        {
          "name": "_name",
          "type": "string"
        }
      ],
      "name": "update",
      "outputs": [],
      "payable": false,
      "stateMutability": "nonpayable",
      "type": "function"
    },
    {
      "constant": true,
      "inputs": [
        {
          "name": "_weiAmount",
          "type": "uint256"
        }
      ],
      "name": "purchasable",
      "outputs": [
        {
          "name": "",
          "type": "bool"
        }
      ],
      "payable": false,
      "stateMutability": "view",
      "type": "function"
    },
    {
      "constant": true,
      "inputs": [
        {
          "name": "_weiAmount",
          "type": "uint256"
        }
      ],
      "name": "getTokenAmount",
      "outputs": [
        {
          "name": "",
          "type": "uint256"
        }
      ],
      "payable": false,
      "stateMutability": "view",
      "type": "function"
    }
  ],
  "bytecode": "0x60806040523480156200001157600080fd5b506040516200234b3803806200234b8339810160409081528151602083015191830151606084015160008054600160a060020a031916331790559193928301920190838383826200008b7f01ffc9a700000000000000000000000000000000000000000000000000000000640100000000620001d1810204565b600160a060020a0381161515620000a157600080fd5b6002805433600160a060020a03199182161790915560008054909116600160a060020a038316179055620000fe7f6125ede500000000000000000000000000000000000000000000000000000000640100000000620001d1810204565b5081516200011490600390602085019062000241565b5080516200012a90600a90602084019062000241565b506200015f7f8139792d00000000000000000000000000000000000000000000000000000000640100000000620001d1810204565b505050600160a060020a03811615156200017857600080fd5b60108054600160a060020a031916600160a060020a038316179055620001c77f5f57e78900000000000000000000000000000000000000000000000000000000640100000000620001d1810204565b50505050620002e6565b7fffffffff0000000000000000000000000000000000000000000000000000000080821614156200020157600080fd5b7fffffffff00000000000000000000000000000000000000000000000000000000166000908152600160208190526040909120805460ff19169091179055565b828054600181600116156101000203166002900490600052602060002090601f016020900481019282601f106200028457805160ff1916838001178555620002b4565b82800160010185558215620002b4579182015b82811115620002b457825182559160200191906001019062000297565b50620002c2929150620002c6565b5090565b620002e391905b80821115620002c25760008155600101620002cd565b90565b61205580620002f66000396000f3006080604052600436106101b35763ffffffff60e060020a60003504166301ffc9a7811461027d57806306fdde03146102c85780630956e5a6146103525780630f15f4c0146103795780630fc8c0b61461038e578063148cb6e6146103c2578063186601ca146105da57806319fa8f50146105ef5780631f2698ab1461063657806327f6c75a1461064b5780632c7a72f814610660578063334ff632146106755780633ccfd60b1461068a5780634042b66f1461069f5780635027a916146106b4578063655ded03146106cc5780636f2ddd93146106e4578063715018a6146106f9578063755f047b1461070e5780637aeedf2a146107235780638da5cb5b1461077d578063993d77af146107925780639a33e300146107a75780639a9e3fd8146107bc5780639ec318bf146107d1578063abb5ca09146107e6578063b5545a3c146107fb578063bef4876b14610810578063c2507ac114610825578063c80ec5221461083d578063cf7c2b3114610852578063d04be2da14610873578063dea53c2014610888578063df1c5c7c1461089d578063f2fde38b14610aa8578063fbf964eb14610ac9578063fc0c546a14610ade575b600254600090819060a060020a900460ff1615156101d057600080fd5b6101d8610af3565b156101e257600080fd5b6101ea610bd0565b15156101f557600080fd5b6101fe34610cac565b151561020957600080fd5b6102133334610d98565b61021c34610e19565b91506102283383610f15565b90506102348183610ffe565b151561023f57600080fd5b6040805134815260208101849052815133927fcd60aa75dea3072fbc07ae6d7d856b5dc5f4eee88854f5b4abf7b680ef8bc50f928290030190a25050005b34801561028957600080fd5b506102b47bffffffffffffffffffffffffffffffffffffffffffffffffffffffff19600435166110dc565b604080519115158252519081900360200190f35b3480156102d457600080fd5b506102dd611110565b6040805160208082528351818301528351919283929083019185019080838360005b838110156103175781810151838201526020016102ff565b50505050905090810190601f1680156103445780820380516001836020036101000a031916815260200191505b509250505060405180910390f35b34801561035e57600080fd5b5061036761119e565b60408051918252519081900360200190f35b34801561038557600080fd5b506102b46111a5565b34801561039a57600080fd5b506103a66004356112e0565b60408051600160a060020a039092168252519081900360200190f35b3480156103ce57600080fd5b506040805160206004803580820135601f81018490048402850184019095528484526105d894369492936024939284019190819084018382808284375050604080516020601f89358b018035918201839004830284018301909452808352979a99988101979196509182019450925082915084018382808284375050604080516020601f89358b018035918201839004830284018301909452808352979a99988101979196509182019450925082915084018382808284375050604080516020601f89358b018035918201839004830284018301909452808352979a99988101979196509182019450925082915084018382808284375050604080516020601f89358b018035918201839004830284018301909452808352979a99988101979196509182019450925082915084018382808284375050604080516020601f89358b018035918201839004830284018301909452808352979a99988101979196509182019450925082915084018382808284375050604080516020601f89358b018035918201839004830284018301909452808352979a99988101979196509182019450925082915084018382808284375050604080516020601f89358b018035918201839004830284018301909452808352979a99988101979196509182019450925082915084018382808284375094975050509235600160a060020a0316935061130c92505050565b005b3480156105e657600080fd5b506102b4611353565b3480156105fb57600080fd5b50610604611363565b604080517bffffffffffffffffffffffffffffffffffffffffffffffffffffffff199092168252519081900360200190f35b34801561064257600080fd5b506102b4610bd0565b34801561065757600080fd5b50610604611387565b34801561066c57600080fd5b506102dd6113ab565b34801561068157600080fd5b50610367611406565b34801561069657600080fd5b506102b461140c565b3480156106ab57600080fd5b506103676114b5565b3480156106c057600080fd5b506103a66004356114bb565b3480156106d857600080fd5b506102b4600435610cac565b3480156106f057600080fd5b506103a66114cc565b34801561070557600080fd5b506105d86114db565b34801561071a57600080fd5b506102dd611547565b60408051602060046024803582810135601f81018590048502860185019096528585526105d8958335600160a060020a03169536956044949193909101919081908401838280828437509497506115a29650505050505050565b34801561078957600080fd5b506103a6611915565b34801561079e57600080fd5b506102dd611924565b3480156107b357600080fd5b506102dd61197f565b3480156107c857600080fd5b506102b46119da565b3480156107dd57600080fd5b506102dd611aae565b3480156107f257600080fd5b506102dd611b09565b34801561080757600080fd5b506102b4611b64565b34801561081c57600080fd5b506102b4610af3565b34801561083157600080fd5b50610367600435610e19565b34801561084957600080fd5b506102b4611c08565b34801561085e57600080fd5b50610367600160a060020a0360043516611c11565b34801561087f57600080fd5b50610604611c2c565b34801561089457600080fd5b506102dd611c50565b3480156108a957600080fd5b506040805160206004803580820135601f81018490048402850184019095528484526105d894369492936024939284019190819084018382808284375050604080516020601f89358b018035918201839004830284018301909452808352979a99988101979196509182019450925082915084018382808284375050604080516020601f89358b018035918201839004830284018301909452808352979a99988101979196509182019450925082915084018382808284375050604080516020601f89358b018035918201839004830284018301909452808352979a99988101979196509182019450925082915084018382808284375050604080516020601f89358b018035918201839004830284018301909452808352979a99988101979196509182019450925082915084018382808284375050604080516020601f89358b018035918201839004830284018301909452808352979a99988101979196509182019450925082915084018382808284375050604080516020601f89358b018035918201839004830284018301909452808352979a99988101979196509182019450925082915084018382808284375050604080516020601f89358b018035918201839004830284018301909452808352979a999881019791965091820194509250829150840183828082843750949750611cab9650505050505050565b348015610ab457600080fd5b506105d8600160a060020a0360043516611d83565b348015610ad557600080fd5b50610604611da6565b348015610aea57600080fd5b506103a6611dca565b6000806000610b00610bd0565b1515610b0f5760009250610bcb565b5060009050805b600e54811015610bc7578180610bbd5750600e805482908110610b3557fe5b9060005260206000200160009054906101000a9004600160a060020a0316600160a060020a031663bef4876b6040518163ffffffff1660e060020a028152600401602060405180830381600087803b158015610b9057600080fd5b505af1158015610ba4573d6000803e3d6000fd5b505050506040513d6020811015610bba57600080fd5b50515b9150600101610b16565b8192505b505090565b6000806000600260149054906101000a900460ff161515610bf45760009250610bcb565b5060009050805b600e54811015610bc7578180610ca25750600e805482908110610c1a57fe5b9060005260206000200160009054906101000a9004600160a060020a0316600160a060020a0316631f2698ab6040518163ffffffff1660e060020a028152600401602060405180830381600087803b158015610c7557600080fd5b505af1158015610c89573d6000803e3d6000fd5b505050506040513d6020811015610c9f57600080fd5b50515b9150600101610bfb565b6000600181805b600e54821015610d8c57600e805483908110610ccb57fe5b600091825260209091200154600160a060020a03169050828015610d7f5750604080517f4f9a82d6000000000000000000000000000000000000000000000000000000008152336004820152602481018790529051600160a060020a03831691634f9a82d69160448083019260209291908290030181600087803b158015610d5257600080fd5b505af1158015610d66573d6000803e3d6000fd5b505050506040513d6020811015610d7c57600080fd5b50515b9250600190910190610cb3565b8293505b505050919050565b610da0610af3565b15610daa57600080fd5b610db2610bd0565b1515610dbd57600080fd5b600160a060020a0382166000908152600f6020526040902054610de6908263ffffffff611dd916565b600160a060020a0383166000908152600f6020526040902055600b54610e12908263ffffffff611dd916565b600b555050565b60008080805b600e54831015610f0a57600e805484908110610e3757fe5b6000918252602080832090910154604080517f5589530e000000000000000000000000000000000000000000000000000000008152336004820152602481018a90529051600160a060020a0390921695508593635589530e9360448084019491939192918390030190829087803b158015610eb157600080fd5b505af1158015610ec5573d6000803e3d6000fd5b505050506040513d6020811015610edb57600080fd5b505190506000811115610eff57610ef8858263ffffffff611dec16565b9350610d90565b600190920191610e1f565b506000949350505050565b600080805b600e54821015610ff257600e805483908110610f3257fe5b6000918252602080832090910154604080517fe67c8646000000000000000000000000000000000000000000000000000000008152600160a060020a038a81166004830152602482018a90529151919092169450849363e67c864693604480850194919392918390030190829087803b158015610fae57600080fd5b505af1158015610fc2573d6000803e3d6000fd5b505050506040513d6020811015610fd857600080fd5b505115610fe757809250610ff6565b600190910190610f1a565b8492505b505092915050565b600080805b600e54821015610f0a57600e80548390811061101b57fe5b6000918252602080832090910154604080517f587775e8000000000000000000000000000000000000000000000000000000008152600160a060020a038a81166004830152602482018a90529151919092169450849363587775e893604480850194919392918390030190829087803b15801561109757600080fd5b505af11580156110ab573d6000803e3d6000fd5b505050506040513d60208110156110c157600080fd5b5051156110d15760019250610ff6565b600190910190611003565b7bffffffffffffffffffffffffffffffffffffffffffffffffffffffff191660009081526001602052604090205460ff1690565b600a805460408051602060026001851615610100026000190190941693909304601f810184900484028201840190925281815292918301828280156111965780601f1061116b57610100808354040283529160200191611196565b820191906000526020600020905b81548152906001019060200180831161117957829003601f168201915b505050505081565b600d545b90565b6000805481908190600160a060020a031633146111c157600080fd5b600091505b600d548210156112d157600d8054839081106111de57fe5b9060005260206000200160009054906101000a9004600160a060020a0316905080600160a060020a031663186601ca6040518163ffffffff1660e060020a028152600401602060405180830381600087803b15801561123c57600080fd5b505af1158015611250573d6000803e3d6000fd5b505050506040513d602081101561126657600080fd5b5051156112c657600e80546001810182556000919091527fbb7b4a454dc3493923482f07822329ed19e8244eff582cc204f8554c3620c3fd01805473ffffffffffffffffffffffffffffffffffffffff1916600160a060020a0383161790555b6001909101906111c6565b6112d9611e15565b9250505090565b6000600d828154811015156112f157fe5b600091825260209091200154600160a060020a031692915050565b61131c8989898989898989611cab565b6010805473ffffffffffffffffffffffffffffffffffffffff1916600160a060020a03929092169190911790555050505050505050565b60025460a060020a900460ff1681565b7f01ffc9a70000000000000000000000000000000000000000000000000000000081565b7f5f57e7890000000000000000000000000000000000000000000000000000000081565b6009805460408051602060026001851615610100026000190190941693909304601f810184900484028201840190925281815292918301828280156111965780601f1061116b57610100808354040283529160200191611196565b600e5490565b60008054600160a060020a0316331461142457600080fd5b60025460a060020a900460ff16151561143c57600080fd5b600c5460ff161561144c57600080fd5b611454610af3565b151561145f57600080fd5b6114676119da565b151561147257600080fd5b600c805460ff19166001179055600b54604051339180156108fc02916000818181858888f193505050501580156114ad573d6000803e3d6000fd5b506001905090565b600b5481565b6000600e828154811015156112f157fe5b600254600160a060020a031681565b600054600160a060020a031633146114f257600080fd5b60008054604051600160a060020a03909116917ff8df31144d9c2f0f6b59d69b8b98abd5459d07f2742c4df920b25aae33c6482091a26000805473ffffffffffffffffffffffffffffffffffffffff19169055565b6005805460408051602060026001851615610100026000190190941693909304601f810184900484028201840190925281815292918301828280156111965780601f1061116b57610100808354040283529160200191611196565b6000805460609190600160a060020a031633146115be57600080fd5b60025460a060020a900460ff16156115d557600080fd5b604080517f01ffc9a70000000000000000000000000000000000000000000000000000000080825260048201529051600160a060020a038616916301ffc9a79160248083019260209291908290030181600087803b15801561163657600080fd5b505af115801561164a573d6000803e3d6000fd5b505050506040513d602081101561166057600080fd5b5051151561166d57600080fd5b604080517f01ffc9a70000000000000000000000000000000000000000000000000000000081527fd48445ff0000000000000000000000000000000000000000000000000000000060048201529051600160a060020a038616916301ffc9a79160248083019260209291908290030181600087803b1580156116ee57600080fd5b505af1158015611702573d6000803e3d6000fd5b505050506040513d602081101561171857600080fd5b5051151561172557600080fd5b61172e84611e3e565b151561173957600080fd5b60408051336020808301919091523082840152825180830384018152606083018085527f6535b4a500000000000000000000000000000000000000000000000000000000905260648301938452865160a48401528651909550600160a060020a03881693636535b4a593349389938993928392608482019260c4909201919087019080838360005b838110156117d95781810151838201526020016117c1565b50505050905090810190601f1680156118065780820380516001836020036101000a031916815260200191505b50838103825284518152845160209182019186019080838360005b83811015611839578181015183820152602001611821565b50505050905090810190601f1680156118665780820380516001836020036101000a031916815260200191505b509450505050506020604051808303818588803b15801561188657600080fd5b505af115801561189a573d6000803e3d6000fd5b50505050506040513d60208110156118b157600080fd5b5051600d80546001810182556000919091527fd7b6990105719101dabeb77144f2a3385c8033acd3af97e9423a695e81ad1eb501805473ffffffffffffffffffffffffffffffffffffffff1916600160a060020a0390921691909117905550505050565b600054600160a060020a031681565b6006805460408051602060026001851615610100026000190190941693909304601f810184900484028201840190925281815292918301828280156111965780601f1061116b57610100808354040283529160200191611196565b6003805460408051602060026001851615610100026000190190941693909304601f810184900484028201840190925281815292918301828280156111965780601f1061116b57610100808354040283529160200191611196565b60008060006119e7610bd0565b15156119f65760009250610bcb565b5060009050805b600e54811015610bc7578180611aa45750600e805482908110611a1c57fe5b9060005260206000200160009054906101000a9004600160a060020a0316600160a060020a0316639a9e3fd86040518163ffffffff1660e060020a028152600401602060405180830381600087803b158015611a7757600080fd5b505af1158015611a8b573d6000803e3d6000fd5b505050506040513d6020811015611aa157600080fd5b50515b91506001016119fd565b6004805460408051602060026001851615610100026000190190941693909304601f810184900484028201840190925281815292918301828280156111965780601f1061116b57610100808354040283529160200191611196565b6008805460408051602060026001851615610100026000190190941693909304601f810184900484028201840190925281815292918301828280156111965780601f1061116b57610100808354040283529160200191611196565b600254600090819060a060020a900460ff161515611b8157600080fd5b611b89610af3565b1515611b9457600080fd5b611b9c6119da565b15611ba657600080fd5b50336000908152600f6020526040812054908111611bc357600080fd5b336000818152600f60205260408082208290555183156108fc0291849190818181858888f19350505050158015611bfe573d6000803e3d6000fd5b50600191505b5090565b600c5460ff1681565b600160a060020a03166000908152600f602052604090205490565b7f8139792d0000000000000000000000000000000000000000000000000000000081565b6007805460408051602060026001851615610100026000190190941693909304601f810184900484028201840190925281815292918301828280156111965780601f1061116b57610100808354040283529160200191611196565b600054600160a060020a03163314611cc257600080fd5b60025460a060020a900460ff1615611cd957600080fd5b8751611cec9060039060208b0190611f9b565b508651611d009060049060208a0190611f9b565b508551611d14906005906020890190611f9b565b508451611d28906006906020880190611f9b565b508351611d3c906007906020870190611f9b565b508251611d50906008906020860190611f9b565b508151611d64906009906020850190611f9b565b508051611d7890600a906020840190611f9b565b505050505050505050565b600054600160a060020a03163314611d9a57600080fd5b611da381611f1e565b50565b7f6125ede50000000000000000000000000000000000000000000000000000000081565b601054600160a060020a031681565b81810182811015611de657fe5b92915050565b6000821515611dfd57506000611de6565b50818102818382811515611e0d57fe5b0414611de657fe5b6002805474ff0000000000000000000000000000000000000000191660a060020a179055600190565b600080805b600d54821015611f1257600d805483908110611e5b57fe5b9060005260206000200160009054906101000a9004600160a060020a0316905083600160a060020a031681600160a060020a0316636f2ddd936040518163ffffffff1660e060020a028152600401602060405180830381600087803b158015611ec357600080fd5b505af1158015611ed7573d6000803e3d6000fd5b505050506040513d6020811015611eed57600080fd5b5051600160a060020a03161415611f075760009250611f17565b600190910190611e43565b600192505b5050919050565b600160a060020a0381161515611f3357600080fd5b60008054604051600160a060020a03808516939216917f8be0079c531659141344cd1fd0a4f28419497f9722a3daafe3b4186f6b6457e091a36000805473ffffffffffffffffffffffffffffffffffffffff1916600160a060020a0392909216919091179055565b828054600181600116156101000203166002900490600052602060002090601f016020900481019282601f10611fdc57805160ff1916838001178555612009565b82800160010185558215612009579182015b82811115612009578251825591602001919060010190611fee565b50611c04926111a29250905b80821115611c0457600081556001016120155600a165627a7a72305820b1b7db378a537af5181e7485743030a4922f29242ac3c5458a3173cd772132590029",
  "source": "pragma solidity ^0.4.24;\n\nimport \"tokenboost-solidity/contracts/sale/Sale.sol\";\nimport \"tokenboost-solidity/contracts/utils/strings.sol\";\nimport \"zeppelin-solidity/contracts/token/ERC20/ERC20.sol\";\nimport \"../../strategy/sale/erc20/ERC20SaleStrategy.sol\";\n\ncontract ERC20Sale is Sale {\n    using SafeMath for uint256;\n    using strings for *;\n\n    /**\n     * @notice this.owner.selector ^ this.renounceOwnership.selector ^ this.transferOwnership.selector\n        ^ this.template.selector ^ this.activate.selector\n        ^ this.projectName.selector ^ this.projectSummary.selector ^ this.projectDescription.selector\n        ^ this.logoUrl.selector ^ this.coverImageUrl.selector ^ this.websiteUrl.selector ^ this.whitepaperUrl.selector\n        ^ this.name.selector ^ this.weiRaised.selector ^ this.withdrawn.selector\n        ^ this.started.selector ^ this.successful.selector ^ this.finished.selector ^ this.paymentOf.selector\n        ^ bytes4(keccak256(\"update(string,string,string,string,string,string,string,string)\"))\n        ^ bytes4(keccak256(\"update(string,string,string,string,string,string,string,string,address)\"))\n        ^ this.addStrategy.selector ^ this.numberOfStrategies.selector ^ this.strategyAt.selector\n        ^ this.numberOfActivatedStrategies.selector ^ this.activatedStrategyAt.selector ^ this.withdraw.selector\n        ^ this.claimRefund.selector ^ this.purchasable.selector ^ this.getTokenAmount.selector\n     */\n    bytes4 public constant InterfaceId_ERC20Sale = 0x5f57e789;\n\n    event TokenPurchase(\n        address indexed purchaser,\n        uint256 weiAmount,\n        uint256 tokenAmount\n    );\n\n    ERC20 public token;\n\n    constructor(\n        address _owner,\n        string _projectName,\n        string _name,\n        ERC20 _token\n    ) public Sale(_owner, _projectName, _name) {\n        require(_token != address(0));\n\n        token = _token;\n\n        _registerInterface(InterfaceId_ERC20Sale);\n    }\n\n    function update(\n        string _projectName,\n        string _projectSummary,\n        string _projectDescription,\n        string _logoUrl,\n        string _coverImageUrl,\n        string _websiteUrl,\n        string _whitepaperUrl,\n        string _name,\n        ERC20 _token\n    ) public {\n        super.update(\n            _projectName,\n            _projectSummary,\n            _projectDescription,\n            _logoUrl,\n            _coverImageUrl,\n            _websiteUrl,\n            _whitepaperUrl,\n            _name\n        );\n        token = _token;\n    }\n\n    function() whenActivated external payable {\n        require(!finished());\n        require(started());\n        require(purchasable(msg.value));\n\n        increasePaymentOf(msg.sender, msg.value);\n\n        uint256 tokenAmount = getTokenAmount(msg.value);\n        address tokenReceiver = _tokenReceiver(msg.sender, tokenAmount);\n        require(_supplyTokens(tokenReceiver, tokenAmount));\n\n        emit TokenPurchase(msg.sender, msg.value, tokenAmount);\n    }\n\n    function purchasable(uint256 _weiAmount) public view returns (bool) {\n        bool p = true;\n        for (uint i = 0; i < activatedStrategies.length; i++) {\n            ERC20SaleStrategy strategy = ERC20SaleStrategy(activatedStrategies[i]);\n            p = p && strategy.purchasable(msg.sender, _weiAmount);\n        }\n        return p;\n    }\n\n    function getTokenAmount(uint256 _weiAmount) public view returns (uint256) {\n        for (uint i = 0; i < activatedStrategies.length; i++) {\n            ERC20SaleStrategy strategy = ERC20SaleStrategy(activatedStrategies[i]);\n            uint256 rate = strategy.tokenRate(msg.sender, _weiAmount);\n            if (rate > 0) {\n                return _weiAmount.mul(rate);\n            }\n        }\n        return 0;\n    }\n\n    function _tokenReceiver(address _purchaser, uint256 _tokenAmount) private returns (address) {\n        for (uint i = 0; i < activatedStrategies.length; i++) {\n            ERC20SaleStrategy strategy = ERC20SaleStrategy(activatedStrategies[i]);\n            if (strategy.receivesTokens(_purchaser, _tokenAmount)) {\n                return address(strategy);\n            }\n        }\n        return _purchaser;\n    }\n\n    function _supplyTokens(address _to, uint256 _tokenAmount) private returns (bool) {\n        for (uint i = 0; i < activatedStrategies.length; i++) {\n            ERC20SaleStrategy strategy = ERC20SaleStrategy(activatedStrategies[i]);\n            if (strategy.supplyTokens(_to, _tokenAmount)) {\n                return true;\n            }\n        }\n        return false;\n    }\n}\n",
  "sourcePath": "/Users/yoonjae/SolidityProjects/tokenboost-solidity-erc20sale/contracts/sale/erc20/ERC20Sale.sol",
  "compiler": {
    "name": "solc",
    "version": "0.4.24+commit.e67f0147.Emscripten.clang"
  },
  "schemaVersion": "2.0.1",
  "updatedAt": "2018-10-12T05:05:34.478Z"
}