{
  "contractName": "ERC20SaleInputsRenderer",
  "abi": [
    {
      "constant": true,
      "inputs": [],
      "name": "TOKEN_ADDRESS",
      "outputs": [
        {
          "name": "",
          "type": "string"
        }
      ],
      "payable": false,
      "stateMutability": "view",
      "type": "function"
    },
    {
      "constant": true,
      "inputs": [],
      "name": "WHITEPAPER_URL",
      "outputs": [
        {
          "name": "",
          "type": "string"
        }
      ],
      "payable": false,
      "stateMutability": "view",
      "type": "function"
    },
    {
      "constant": true,
      "inputs": [],
      "name": "PROJECT_NAME",
      "outputs": [
        {
          "name": "",
          "type": "string"
        }
      ],
      "payable": false,
      "stateMutability": "view",
      "type": "function"
    },
    {
      "constant": true,
      "inputs": [],
      "name": "COVER_IMAGE_URL",
      "outputs": [
        {
          "name": "",
          "type": "string"
        }
      ],
      "payable": false,
      "stateMutability": "view",
      "type": "function"
    },
    {
      "constant": true,
      "inputs": [],
      "name": "LOGO_URL",
      "outputs": [
        {
          "name": "",
          "type": "string"
        }
      ],
      "payable": false,
      "stateMutability": "view",
      "type": "function"
    },
    {
      "constant": true,
      "inputs": [],
      "name": "SALE_NAME",
      "outputs": [
        {
          "name": "",
          "type": "string"
        }
      ],
      "payable": false,
      "stateMutability": "view",
      "type": "function"
    },
    {
      "constant": false,
      "inputs": [],
      "name": "renounceOwnership",
      "outputs": [],
      "payable": false,
      "stateMutability": "nonpayable",
      "type": "function"
    },
    {
      "constant": true,
      "inputs": [],
      "name": "PROJECT_DESCRIPTION",
      "outputs": [
        {
          "name": "",
          "type": "string"
        }
      ],
      "payable": false,
      "stateMutability": "view",
      "type": "function"
    },
    {
      "constant": true,
      "inputs": [],
      "name": "WEBSITE_URL",
      "outputs": [
        {
          "name": "",
          "type": "string"
        }
      ],
      "payable": false,
      "stateMutability": "view",
      "type": "function"
    },
    {
      "constant": true,
      "inputs": [],
      "name": "owner",
      "outputs": [
        {
          "name": "",
          "type": "address"
        }
      ],
      "payable": false,
      "stateMutability": "view",
      "type": "function"
    },
    {
      "constant": true,
      "inputs": [],
      "name": "UPDATE_CONFIRM",
      "outputs": [
        {
          "name": "",
          "type": "string"
        }
      ],
      "payable": false,
      "stateMutability": "view",
      "type": "function"
    },
    {
      "constant": true,
      "inputs": [],
      "name": "UPDATE",
      "outputs": [
        {
          "name": "",
          "type": "string"
        }
      ],
      "payable": false,
      "stateMutability": "view",
      "type": "function"
    },
    {
      "constant": true,
      "inputs": [],
      "name": "PROJECT_SUMMARY",
      "outputs": [
        {
          "name": "",
          "type": "string"
        }
      ],
      "payable": false,
      "stateMutability": "view",
      "type": "function"
    },
    {
      "constant": false,
      "inputs": [
        {
          "name": "locale",
          "type": "string"
        },
        {
          "name": "key",
          "type": "string"
        },
        {
          "name": "value",
          "type": "string"
        }
      ],
      "name": "setResource",
      "outputs": [],
      "payable": false,
      "stateMutability": "nonpayable",
      "type": "function"
    },
    {
      "constant": false,
      "inputs": [
        {
          "name": "_newOwner",
          "type": "address"
        }
      ],
      "name": "transferOwnership",
      "outputs": [],
      "payable": false,
      "stateMutability": "nonpayable",
      "type": "function"
    },
    {
      "constant": true,
      "inputs": [
        {
          "name": "locale",
          "type": "string"
        },
        {
          "name": "key",
          "type": "string"
        }
      ],
      "name": "resource",
      "outputs": [
        {
          "name": "",
          "type": "string"
        }
      ],
      "payable": false,
      "stateMutability": "view",
      "type": "function"
    },
    {
      "anonymous": false,
      "inputs": [
        {
          "indexed": true,
          "name": "previousOwner",
          "type": "address"
        }
      ],
      "name": "OwnershipRenounced",
      "type": "event"
    },
    {
      "anonymous": false,
      "inputs": [
        {
          "indexed": true,
          "name": "previousOwner",
          "type": "address"
        },
        {
          "indexed": true,
          "name": "newOwner",
          "type": "address"
        }
      ],
      "name": "OwnershipTransferred",
      "type": "event"
    },
    {
      "constant": true,
      "inputs": [
        {
          "name": "_locale",
          "type": "string"
        },
        {
          "name": "_sale",
          "type": "address"
        }
      ],
      "name": "render",
      "outputs": [
        {
          "name": "",
          "type": "string"
        }
      ],
      "payable": false,
      "stateMutability": "view",
      "type": "function"
    }
  ],
  "bytecode": "0x6080604052336000806101000a81548173ffffffffffffffffffffffffffffffffffffffff021916908373ffffffffffffffffffffffffffffffffffffffff160217905550614ca4806100536000396000f3006080604052600436106100f1576000357c0100000000000000000000000000000000000000000000000000000000900463ffffffff1680630bdf5300146100f657806320350b5b146101865780632a3bd17f14610216578063335d4b6d146102a657806361f57b0b14610336578063663a7ae7146103c6578063715018a61461045657806371d55e0a1461046d5780637588309d146104fd5780638da5cb5b1461058d578063b07b3c78146105e4578063ca1a70be14610674578063d30f6e2014610776578063de4213dd14610806578063ed3487fe14610896578063f2fde38b1461098b578063f65a5c1b146109ce575b600080fd5b34801561010257600080fd5b5061010b610af6565b6040518080602001828103825283818151815260200191508051906020019080838360005b8381101561014b578082015181840152602081019050610130565b50505050905090810190601f1680156101785780820380516001836020036101000a031916815260200191505b509250505060405180910390f35b34801561019257600080fd5b5061019b610b2f565b6040518080602001828103825283818151815260200191508051906020019080838360005b838110156101db5780820151818401526020810190506101c0565b50505050905090810190601f1680156102085780820380516001836020036101000a031916815260200191505b509250505060405180910390f35b34801561022257600080fd5b5061022b610b68565b6040518080602001828103825283818151815260200191508051906020019080838360005b8381101561026b578082015181840152602081019050610250565b50505050905090810190601f1680156102985780820380516001836020036101000a031916815260200191505b509250505060405180910390f35b3480156102b257600080fd5b506102bb610ba1565b6040518080602001828103825283818151815260200191508051906020019080838360005b838110156102fb5780820151818401526020810190506102e0565b50505050905090810190601f1680156103285780820380516001836020036101000a031916815260200191505b509250505060405180910390f35b34801561034257600080fd5b5061034b610bda565b6040518080602001828103825283818151815260200191508051906020019080838360005b8381101561038b578082015181840152602081019050610370565b50505050905090810190601f1680156103b85780820380516001836020036101000a031916815260200191505b509250505060405180910390f35b3480156103d257600080fd5b506103db610c13565b6040518080602001828103825283818151815260200191508051906020019080838360005b8381101561041b578082015181840152602081019050610400565b50505050905090810190601f1680156104485780820380516001836020036101000a031916815260200191505b509250505060405180910390f35b34801561046257600080fd5b5061046b610c4c565b005b34801561047957600080fd5b50610482610d4e565b6040518080602001828103825283818151815260200191508051906020019080838360005b838110156104c25780820151818401526020810190506104a7565b50505050905090810190601f1680156104ef5780820380516001836020036101000a031916815260200191505b509250505060405180910390f35b34801561050957600080fd5b50610512610d87565b6040518080602001828103825283818151815260200191508051906020019080838360005b83811015610552578082015181840152602081019050610537565b50505050905090810190601f16801561057f5780820380516001836020036101000a031916815260200191505b509250505060405180910390f35b34801561059957600080fd5b506105a2610dc0565b604051808273ffffffffffffffffffffffffffffffffffffffff1673ffffffffffffffffffffffffffffffffffffffff16815260200191505060405180910390f35b3480156105f057600080fd5b506105f9610de5565b6040518080602001828103825283818151815260200191508051906020019080838360005b8381101561063957808201518184015260208101905061061e565b50505050905090810190601f1680156106665780820380516001836020036101000a031916815260200191505b509250505060405180910390f35b34801561068057600080fd5b506106fb600480360381019080803590602001908201803590602001908080601f0160208091040260200160405190810160405280939291908181526020018383808284378201915050505050509192919290803573ffffffffffffffffffffffffffffffffffffffff169060200190929190505050610e1e565b6040518080602001828103825283818151815260200191508051906020019080838360005b8381101561073b578082015181840152602081019050610720565b50505050905090810190601f1680156107685780820380516001836020036101000a031916815260200191505b509250505060405180910390f35b34801561078257600080fd5b5061078b613347565b6040518080602001828103825283818151815260200191508051906020019080838360005b838110156107cb5780820151818401526020810190506107b0565b50505050905090810190601f1680156107f85780820380516001836020036101000a031916815260200191505b509250505060405180910390f35b34801561081257600080fd5b5061081b613380565b6040518080602001828103825283818151815260200191508051906020019080838360005b8381101561085b578082015181840152602081019050610840565b50505050905090810190601f1680156108885780820380516001836020036101000a031916815260200191505b509250505060405180910390f35b3480156108a257600080fd5b50610989600480360381019080803590602001908201803590602001908080601f0160208091040260200160405190810160405280939291908181526020018383808284378201915050505050509192919290803590602001908201803590602001908080601f0160208091040260200160405190810160405280939291908181526020018383808284378201915050505050509192919290803590602001908201803590602001908080601f01602080910402602001604051908101604052809392919081815260200183838082843782019150505050505091929192905050506133b9565b005b34801561099757600080fd5b506109cc600480360381019080803573ffffffffffffffffffffffffffffffffffffffff169060200190929190505050613502565b005b3480156109da57600080fd5b50610a7b600480360381019080803590602001908201803590602001908080601f0160208091040260200160405190810160405280939291908181526020018383808284378201915050505050509192919290803590602001908201803590602001908080601f0160208091040260200160405190810160405280939291908181526020018383808284378201915050505050509192919290505050613569565b6040518080602001828103825283818151815260200191508051906020019080838360005b83811015610abb578082015181840152602081019050610aa0565b50505050905090810190601f168015610ae85780820380516001836020036101000a031916815260200191505b509250505060405180910390f35b6040805190810160405280600d81526020017f746f6b656e5f616464726573730000000000000000000000000000000000000081525081565b6040805190810160405280600e81526020017f776869746570617065725f75726c00000000000000000000000000000000000081525081565b6040805190810160405280600c81526020017f70726f6a6563745f6e616d65000000000000000000000000000000000000000081525081565b6040805190810160405280600f81526020017f636f7665725f696d6167655f75726c000000000000000000000000000000000081525081565b6040805190810160405280600881526020017f6c6f676f5f75726c00000000000000000000000000000000000000000000000081525081565b6040805190810160405280600981526020017f73616c655f6e616d65000000000000000000000000000000000000000000000081525081565b6000809054906101000a900473ffffffffffffffffffffffffffffffffffffffff1673ffffffffffffffffffffffffffffffffffffffff163373ffffffffffffffffffffffffffffffffffffffff16141515610ca757600080fd5b6000809054906101000a900473ffffffffffffffffffffffffffffffffffffffff1673ffffffffffffffffffffffffffffffffffffffff167ff8df31144d9c2f0f6b59d69b8b98abd5459d07f2742c4df920b25aae33c6482060405160405180910390a260008060006101000a81548173ffffffffffffffffffffffffffffffffffffffff021916908373ffffffffffffffffffffffffffffffffffffffff160217905550565b6040805190810160405280601381526020017f70726f6a6563745f6465736372697074696f6e0000000000000000000000000081525081565b6040805190810160405280600b81526020017f776562736974655f75726c00000000000000000000000000000000000000000081525081565b6000809054906101000a900473ffffffffffffffffffffffffffffffffffffffff1681565b6040805190810160405280600e81526020017f7570646174655f636f6e6669726d00000000000000000000000000000000000081525081565b60608060606000600a604051908082528060200260200182016040528015610e6057816020015b610e4d6149cb565b815260200190600190039081610e455790505b50925060e0604051908101604052806001151581526020016040805190810160405280600d81526020017f746f6b656e5f616464726573730000000000000000000000000000000000000081525081526020016040805190810160405280600b81526020017f616464726573734564697400000000000000000000000000000000000000000081525081526020016001886040518082805190602001908083835b602083101515610f265780518252602082019150602081019050602083039250610f01565b6001836020036101000a03801982511681845116808217855250505050505090500191505090815260200160405180910390206040805190810160405280600d81526020017f746f6b656e5f61646472657373000000000000000000000000000000000000008152506040518082805190602001908083835b602083101515610fc45780518252602082019150602081019050602083039250610f9f565b6001836020036101000a03801982511681845116808217855250505050505090500191505090815260200160405180910390208054600181600116156101000203166002900480601f01602080910402602001604051908101604052809291908181526020018280546001816001161561010002031660029004801561108b5780601f106110605761010080835404028352916020019161108b565b820191906000526020600020905b81548152906001019060200180831161106e57829003601f168201915b5050505050815260200161115a6111558873ffffffffffffffffffffffffffffffffffffffff1663fc0c546a6040518163ffffffff167c0100000000000000000000000000000000000000000000000000000000028152600401602060405180830381600087803b1580156110ff57600080fd5b505af1158015611113573d6000803e3d6000fd5b505050506040513d602081101561112957600080fd5b810190808051906020019092919050505073ffffffffffffffffffffffffffffffffffffffff166136e0565b6138e9565b81526020016111676139a1565b8152602001611174613a20565b81525083600081518110151561118657fe5b9060200190602002018190525060e0604051908101604052806001151581526020016040805190810160405280600c81526020017f70726f6a6563745f6e616d65000000000000000000000000000000000000000081525081526020016040805190810160405280600881526020017f746578744564697400000000000000000000000000000000000000000000000081525081526020016001886040518082805190602001908083835b6020831015156112565780518252602082019150602081019050602083039250611231565b6001836020036101000a03801982511681845116808217855250505050505090500191505090815260200160405180910390206040805190810160405280600c81526020017f70726f6a6563745f6e616d6500000000000000000000000000000000000000008152506040518082805190602001908083835b6020831015156112f457805182526020820191506020810190506020830392506112cf565b6001836020036101000a03801982511681845116808217855250505050505090500191505090815260200160405180910390208054600181600116156101000203166002900480601f0160208091040260200160405190810160405280929190818152602001828054600181600116156101000203166002900480156113bb5780601f10611390576101008083540402835291602001916113bb565b820191906000526020600020905b81548152906001019060200180831161139e57829003601f168201915b505050505081526020016114c28773ffffffffffffffffffffffffffffffffffffffff16639a33e3006040518163ffffffff167c0100000000000000000000000000000000000000000000000000000000028152600401600060405180830381600087803b15801561142c57600080fd5b505af1158015611440573d6000803e3d6000fd5b505050506040513d6000823e3d601f19601f82011682018060405250602081101561146a57600080fd5b81019080805164010000000081111561148257600080fd5b8281019050602081018481111561149857600080fd5b81518560018202830111640100000000821117156114b557600080fd5b50509291905050506138e9565b81526020016114cf6139a1565b81526020016114dc613a20565b8152508360018151811015156114ee57fe5b9060200190602002018190525060e0604051908101604052806001151581526020016040805190810160405280600f81526020017f70726f6a6563745f73756d6d617279000000000000000000000000000000000081525081526020016040805190810160405280600881526020017f746578744564697400000000000000000000000000000000000000000000000081525081526020016001886040518082805190602001908083835b6020831015156115be5780518252602082019150602081019050602083039250611599565b6001836020036101000a03801982511681845116808217855250505050505090500191505090815260200160405180910390206040805190810160405280600f81526020017f70726f6a6563745f73756d6d61727900000000000000000000000000000000008152506040518082805190602001908083835b60208310151561165c5780518252602082019150602081019050602083039250611637565b6001836020036101000a03801982511681845116808217855250505050505090500191505090815260200160405180910390208054600181600116156101000203166002900480601f0160208091040260200160405190810160405280929190818152602001828054600181600116156101000203166002900480156117235780601f106116f857610100808354040283529160200191611723565b820191906000526020600020905b81548152906001019060200180831161170657829003601f168201915b5050505050815260200161182a8773ffffffffffffffffffffffffffffffffffffffff16639ec318bf6040518163ffffffff167c0100000000000000000000000000000000000000000000000000000000028152600401600060405180830381600087803b15801561179457600080fd5b505af11580156117a8573d6000803e3d6000fd5b505050506040513d6000823e3d601f19601f8201168201806040525060208110156117d257600080fd5b8101908080516401000000008111156117ea57600080fd5b8281019050602081018481111561180057600080fd5b815185600182028301116401000000008211171561181d57600080fd5b50509291905050506138e9565b81526020016118376139a1565b8152602001611844613a20565b81525083600281518110151561185657fe5b9060200190602002018190525060e0604051908101604052806001151581526020016040805190810160405280601381526020017f70726f6a6563745f6465736372697074696f6e0000000000000000000000000081525081526020016040805190810160405280600c81526020017f6d61726b646f776e45646974000000000000000000000000000000000000000081525081526020016001886040518082805190602001908083835b6020831015156119265780518252602082019150602081019050602083039250611901565b6001836020036101000a03801982511681845116808217855250505050505090500191505090815260200160405180910390206040805190810160405280601381526020017f70726f6a6563745f6465736372697074696f6e000000000000000000000000008152506040518082805190602001908083835b6020831015156119c4578051825260208201915060208101905060208303925061199f565b6001836020036101000a03801982511681845116808217855250505050505090500191505090815260200160405180910390208054600181600116156101000203166002900480601f016020809104026020016040519081016040528092919081815260200182805460018160011615610100020316600290048015611a8b5780601f10611a6057610100808354040283529160200191611a8b565b820191906000526020600020905b815481529060010190602001808311611a6e57829003601f168201915b50505050508152602001611b928773ffffffffffffffffffffffffffffffffffffffff16639ec318bf6040518163ffffffff167c0100000000000000000000000000000000000000000000000000000000028152600401600060405180830381600087803b158015611afc57600080fd5b505af1158015611b10573d6000803e3d6000fd5b505050506040513d6000823e3d601f19601f820116820180604052506020811015611b3a57600080fd5b810190808051640100000000811115611b5257600080fd5b82810190506020810184811115611b6857600080fd5b8151856001820283011164010000000082111715611b8557600080fd5b50509291905050506138e9565b8152602001611b9f6139a1565b8152602001611bac613a20565b815250836003815181101515611bbe57fe5b9060200190602002018190525060e0604051908101604052806001151581526020016040805190810160405280600981526020017f73616c655f6e616d65000000000000000000000000000000000000000000000081525081526020016040805190810160405280600881526020017f746578744564697400000000000000000000000000000000000000000000000081525081526020016001886040518082805190602001908083835b602083101515611c8e5780518252602082019150602081019050602083039250611c69565b6001836020036101000a03801982511681845116808217855250505050505090500191505090815260200160405180910390206040805190810160405280600981526020017f73616c655f6e616d6500000000000000000000000000000000000000000000008152506040518082805190602001908083835b602083101515611d2c5780518252602082019150602081019050602083039250611d07565b6001836020036101000a03801982511681845116808217855250505050505090500191505090815260200160405180910390208054600181600116156101000203166002900480601f016020809104026020016040519081016040528092919081815260200182805460018160011615610100020316600290048015611df35780601f10611dc857610100808354040283529160200191611df3565b820191906000526020600020905b815481529060010190602001808311611dd657829003601f168201915b50505050508152602001611efa8773ffffffffffffffffffffffffffffffffffffffff166306fdde036040518163ffffffff167c0100000000000000000000000000000000000000000000000000000000028152600401600060405180830381600087803b158015611e6457600080fd5b505af1158015611e78573d6000803e3d6000fd5b505050506040513d6000823e3d601f19601f820116820180604052506020811015611ea257600080fd5b810190808051640100000000811115611eba57600080fd5b82810190506020810184811115611ed057600080fd5b8151856001820283011164010000000082111715611eed57600080fd5b50509291905050506138e9565b8152602001611f076139a1565b8152602001611f14613a20565b815250836004815181101515611f2657fe5b9060200190602002018190525060e0604051908101604052806001151581526020016040805190810160405280600881526020017f6c6f676f5f75726c00000000000000000000000000000000000000000000000081525081526020016040805190810160405280600781526020017f75726c456469740000000000000000000000000000000000000000000000000081525081526020016001886040518082805190602001908083835b602083101515611ff65780518252602082019150602081019050602083039250611fd1565b6001836020036101000a03801982511681845116808217855250505050505090500191505090815260200160405180910390206040805190810160405280600881526020017f6c6f676f5f75726c0000000000000000000000000000000000000000000000008152506040518082805190602001908083835b602083101515612094578051825260208201915060208101905060208303925061206f565b6001836020036101000a03801982511681845116808217855250505050505090500191505090815260200160405180910390208054600181600116156101000203166002900480601f01602080910402602001604051908101604052809291908181526020018280546001816001161561010002031660029004801561215b5780601f106121305761010080835404028352916020019161215b565b820191906000526020600020905b81548152906001019060200180831161213e57829003601f168201915b505050505081526020016122628773ffffffffffffffffffffffffffffffffffffffff1663993d77af6040518163ffffffff167c0100000000000000000000000000000000000000000000000000000000028152600401600060405180830381600087803b1580156121cc57600080fd5b505af11580156121e0573d6000803e3d6000fd5b505050506040513d6000823e3d601f19601f82011682018060405250602081101561220a57600080fd5b81019080805164010000000081111561222257600080fd5b8281019050602081018481111561223857600080fd5b815185600182028301116401000000008211171561225557600080fd5b50509291905050506138e9565b815260200161226f6139a1565b815260200161227c613a20565b81525083600581518110151561228e57fe5b9060200190602002018190525060e0604051908101604052806001151581526020016040805190810160405280600f81526020017f636f7665725f696d6167655f75726c000000000000000000000000000000000081525081526020016040805190810160405280600781526020017f75726c456469740000000000000000000000000000000000000000000000000081525081526020016001886040518082805190602001908083835b60208310151561235e5780518252602082019150602081019050602083039250612339565b6001836020036101000a03801982511681845116808217855250505050505090500191505090815260200160405180910390206040805190810160405280600f81526020017f636f7665725f696d6167655f75726c00000000000000000000000000000000008152506040518082805190602001908083835b6020831015156123fc57805182526020820191506020810190506020830392506123d7565b6001836020036101000a03801982511681845116808217855250505050505090500191505090815260200160405180910390208054600181600116156101000203166002900480601f0160208091040260200160405190810160405280929190818152602001828054600181600116156101000203166002900480156124c35780601f10612498576101008083540402835291602001916124c3565b820191906000526020600020905b8154815290600101906020018083116124a657829003601f168201915b505050505081526020016125ca8773ffffffffffffffffffffffffffffffffffffffff1663dea53c206040518163ffffffff167c0100000000000000000000000000000000000000000000000000000000028152600401600060405180830381600087803b15801561253457600080fd5b505af1158015612548573d6000803e3d6000fd5b505050506040513d6000823e3d601f19601f82011682018060405250602081101561257257600080fd5b81019080805164010000000081111561258a57600080fd5b828101905060208101848111156125a057600080fd5b81518560018202830111640100000000821117156125bd57600080fd5b50509291905050506138e9565b81526020016125d76139a1565b81526020016125e4613a20565b8152508360068151811015156125f657fe5b9060200190602002018190525060e0604051908101604052806001151581526020016040805190810160405280600b81526020017f776562736974655f75726c00000000000000000000000000000000000000000081525081526020016040805190810160405280600781526020017f75726c456469740000000000000000000000000000000000000000000000000081525081526020016001886040518082805190602001908083835b6020831015156126c657805182526020820191506020810190506020830392506126a1565b6001836020036101000a03801982511681845116808217855250505050505090500191505090815260200160405180910390206040805190810160405280600b81526020017f776562736974655f75726c0000000000000000000000000000000000000000008152506040518082805190602001908083835b602083101515612764578051825260208201915060208101905060208303925061273f565b6001836020036101000a03801982511681845116808217855250505050505090500191505090815260200160405180910390208054600181600116156101000203166002900480601f01602080910402602001604051908101604052809291908181526020018280546001816001161561010002031660029004801561282b5780601f106128005761010080835404028352916020019161282b565b820191906000526020600020905b81548152906001019060200180831161280e57829003601f168201915b505050505081526020016129328773ffffffffffffffffffffffffffffffffffffffff1663abb5ca096040518163ffffffff167c0100000000000000000000000000000000000000000000000000000000028152600401600060405180830381600087803b15801561289c57600080fd5b505af11580156128b0573d6000803e3d6000fd5b505050506040513d6000823e3d601f19601f8201168201806040525060208110156128da57600080fd5b8101908080516401000000008111156128f257600080fd5b8281019050602081018481111561290857600080fd5b815185600182028301116401000000008211171561292557600080fd5b50509291905050506138e9565b815260200161293f6139a1565b815260200161294c613a20565b81525083600781518110151561295e57fe5b9060200190602002018190525060e0604051908101604052806001151581526020016040805190810160405280600e81526020017f776869746570617065725f75726c00000000000000000000000000000000000081525081526020016040805190810160405280600781526020017f75726c456469740000000000000000000000000000000000000000000000000081525081526020016001886040518082805190602001908083835b602083101515612a2e5780518252602082019150602081019050602083039250612a09565b6001836020036101000a03801982511681845116808217855250505050505090500191505090815260200160405180910390206040805190810160405280600e81526020017f776869746570617065725f75726c0000000000000000000000000000000000008152506040518082805190602001908083835b602083101515612acc5780518252602082019150602081019050602083039250612aa7565b6001836020036101000a03801982511681845116808217855250505050505090500191505090815260200160405180910390208054600181600116156101000203166002900480601f016020809104026020016040519081016040528092919081815260200182805460018160011615610100020316600290048015612b935780601f10612b6857610100808354040283529160200191612b93565b820191906000526020600020905b815481529060010190602001808311612b7657829003601f168201915b50505050508152602001612c9a8773ffffffffffffffffffffffffffffffffffffffff16632c7a72f86040518163ffffffff167c0100000000000000000000000000000000000000000000000000000000028152600401600060405180830381600087803b158015612c0457600080fd5b505af1158015612c18573d6000803e3d6000fd5b505050506040513d6000823e3d601f19601f820116820180604052506020811015612c4257600080fd5b810190808051640100000000811115612c5a57600080fd5b82810190506020810184811115612c7057600080fd5b8151856001820283011164010000000082111715612c8d57600080fd5b50509291905050506138e9565b8152602001612ca76139a1565b8152602001612cb4613a20565b815250836008815181101515612cc657fe5b9060200190602002018190525060e0604051908101604052806001151581526020016040805190810160405280600681526020017f757064617465000000000000000000000000000000000000000000000000000081525081526020016040805190810160405280600681526020017f627574746f6e000000000000000000000000000000000000000000000000000081525081526020016001886040518082805190602001908083835b602083101515612d965780518252602082019150602081019050602083039250612d71565b6001836020036101000a03801982511681845116808217855250505050505090500191505090815260200160405180910390206040805190810160405280600681526020017f75706461746500000000000000000000000000000000000000000000000000008152506040518082805190602001908083835b602083101515612e345780518252602082019150602081019050602083039250612e0f565b6001836020036101000a03801982511681845116808217855250505050505090500191505090815260200160405180910390208054600181600116156101000203166002900480601f016020809104026020016040519081016040528092919081815260200182805460018160011615610100020316600290048015612efb5780601f10612ed057610100808354040283529160200191612efb565b820191906000526020600020905b815481529060010190602001808311612ede57829003601f168201915b505050505081526020016040805190810160405280600481526020017f6e756c6c00000000000000000000000000000000000000000000000000000000815250815260200160a0604051908101604052806001151581526020018873ffffffffffffffffffffffffffffffffffffffff168152602001608060405190810160405280604781526020017f75706461746528737472696e672c737472696e672c737472696e672c7374726981526020017f6e672c737472696e672c737472696e672c737472696e672c737472696e672c6181526020017f6464726573732900000000000000000000000000000000000000000000000000815250815260200160c06040519081016040528060908152602001614be960909139815260200160018a6040518082805190602001908083835b602083101515613050578051825260208201915060208101905060208303925061302b565b6001836020036101000a03801982511681845116808217855250505050505090500191505090815260200160405180910390206040805190810160405280600e81526020017f7570646174655f636f6e6669726d0000000000000000000000000000000000008152506040518082805190602001908083835b6020831015156130ee57805182526020820191506020810190506020830392506130c9565b6001836020036101000a03801982511681845116808217855250505050505090500191505090815260200160405180910390208054600181600116156101000203166002900480601f0160208091040260200160405190810160405280929190818152602001828054600181600116156101000203166002900480156131b55780601f1061318a576101008083540402835291602001916131b5565b820191906000526020600020905b81548152906001019060200180831161319857829003601f168201915b505050505081525081526020016131ca613a20565b8152508360098151811015156131dc57fe5b906020019060200201819052506040805190810160405280600181526020017f5b000000000000000000000000000000000000000000000000000000000000008152509150600090505b82518110156132e4576000811115613293576132906132796040805190810160405280600181526020017f2c00000000000000000000000000000000000000000000000000000000000000815250613abc565b61328284613abc565b613aea90919063ffffffff16565b91505b6132d56132be6132b985848151811015156132aa57fe5b90602001906020020151613b6c565b613abc565b6132c784613abc565b613aea90919063ffffffff16565b91508080600101915050613226565b61333c6133256040805190810160405280600181526020017f5d00000000000000000000000000000000000000000000000000000000000000815250613abc565b61332e84613abc565b613aea90919063ffffffff16565b935050505092915050565b6040805190810160405280600681526020017f757064617465000000000000000000000000000000000000000000000000000081525081565b6040805190810160405280600f81526020017f70726f6a6563745f73756d6d617279000000000000000000000000000000000081525081565b6000809054906101000a900473ffffffffffffffffffffffffffffffffffffffff1673ffffffffffffffffffffffffffffffffffffffff163373ffffffffffffffffffffffffffffffffffffffff1614151561341457600080fd5b806001846040518082805190602001908083835b60208310151561344d5780518252602082019150602081019050602083039250613428565b6001836020036101000a0380198251168184511680821785525050505050509050019150509081526020016040518091039020836040518082805190602001908083835b6020831015156134b65780518252602082019150602081019050602083039250613491565b6001836020036101000a038019825116818451168082178552505050505050905001915050908152602001604051809103902090805190602001906134fc929190614a18565b50505050565b6000809054906101000a900473ffffffffffffffffffffffffffffffffffffffff1673ffffffffffffffffffffffffffffffffffffffff163373ffffffffffffffffffffffffffffffffffffffff1614151561355d57600080fd5b61356681613f8f565b50565b60606001836040518082805190602001908083835b6020831015156135a3578051825260208201915060208101905060208303925061357e565b6001836020036101000a0380198251168184511680821785525050505050509050019150509081526020016040518091039020826040518082805190602001908083835b60208310151561360c57805182526020820191506020810190506020830392506135e7565b6001836020036101000a03801982511681845116808217855250505050505090500191505090815260200160405180910390208054600181600116156101000203166002900480601f0160208091040260200160405190810160405280929190818152602001828054600181600116156101000203166002900480156136d35780601f106136a8576101008083540402835291602001916136d3565b820191906000526020600020905b8154815290600101906020018083116136b657829003601f168201915b5050505050905092915050565b6060806000806000602a6040519080825280601f01601f19166020018201604052801561371c5781602001602082028038833980820191505090505b50935060307f01000000000000000000000000000000000000000000000000000000000000000284600081518110151561375257fe5b9060200101907effffffffffffffffffffffffffffffffffffffffffffffffffffffffffffff1916908160001a90535060787f0100000000000000000000000000000000000000000000000000000000000000028460018151811015156137b557fe5b9060200101907effffffffffffffffffffffffffffffffffffffffffffffffffffffffffffff1916908160001a905350859250600091505b60288210156138dd57603060108473ffffffffffffffffffffffffffffffffffffffff1681151561381a57fe5b0601905060398173ffffffffffffffffffffffffffffffffffffffff161115613844576027810190505b807f010000000000000000000000000000000000000000000000000000000000000002846001846028030181518110151561387b57fe5b9060200101907effffffffffffffffffffffffffffffffffffffffffffffffffffffffffffff1916908160001a90535060108373ffffffffffffffffffffffffffffffffffffffff168115156138cd57fe5b04925081806001019250506137ed565b83945050505050919050565b606061399a61392c6040805190810160405280600181526020017f2200000000000000000000000000000000000000000000000000000000000000815250613abc565b61398c61398761393b86613abc565b6139796040805190810160405280600181526020017f2200000000000000000000000000000000000000000000000000000000000000815250613abc565b613aea90919063ffffffff16565b613abc565b613aea90919063ffffffff16565b9050919050565b6139a9614a98565b60a060405190810160405280600015158152602001600073ffffffffffffffffffffffffffffffffffffffff16815260200160206040519081016040528060008152508152602001602060405190810160405280600081525081526020016020604051908101604052806000815250815250905090565b613a28614ae0565b6060604051908101604052806000151581526020016000604051908082528060200260200182016040528015613a7857816020015b613a65614b04565b815260200190600190039081613a5d5790505b5081526020016000604051908082528060200260200182016040528015613ab357816020015b6060815260200190600190039081613a9e5790505b50815250905090565b613ac4614b3d565b600060208301905060408051908101604052808451815260200182815250915050919050565b606080600083600001518560000151016040519080825280601f01601f191660200182016040528015613b2c5781602001602082028038833980820191505090505b509150602082019050613b488186602001518760000151614089565b613b618560000151820185602001518660000151614089565b819250505092915050565b606080826000015115613f50576040805190810160405280600781526020017f7b226964223a22000000000000000000000000000000000000000000000000008152509050613bd8613bc18460200151613abc565b613bca83613abc565b613aea90919063ffffffff16565b9050613c32613c1b6040805190810160405280600181526020017f2200000000000000000000000000000000000000000000000000000000000000815250613abc565b613c2483613abc565b613aea90919063ffffffff16565b90508260a001516000015115613cce57613c9a613c836040805190810160405280600b81526020017f2c2022616374696f6e223a000000000000000000000000000000000000000000815250613abc565b613c8c83613abc565b613aea90919063ffffffff16565b9050613ccb613cb4613caf8560a001516140d4565b613abc565b613cbd83613abc565b613aea90919063ffffffff16565b90505b8260c001516000015115613d6857613d34613d1d6040805190810160405280600a81526020017f2c20227461626c65223a00000000000000000000000000000000000000000000815250613abc565b613d2683613abc565b613aea90919063ffffffff16565b9050613d65613d4e613d498560c00151614387565b613abc565b613d5783613abc565b613aea90919063ffffffff16565b90505b613dc0613da96040805190810160405280600981526020017f2c2274797065223a220000000000000000000000000000000000000000000000815250613abc565b613db283613abc565b613aea90919063ffffffff16565b9050613de9613dd28460400151613abc565b613ddb83613abc565b613aea90919063ffffffff16565b9050613e43613e2c6040805190810160405280600b81526020017f222c226c6162656c223a22000000000000000000000000000000000000000000815250613abc565b613e3583613abc565b613aea90919063ffffffff16565b9050613e6c613e558460600151613abc565b613e5e83613abc565b613aea90919063ffffffff16565b9050613ec6613eaf6040805190810160405280600981526020017f222c2264617461223a0000000000000000000000000000000000000000000000815250613abc565b613eb883613abc565b613aea90919063ffffffff16565b9050613eef613ed88460800151613abc565b613ee183613abc565b613aea90919063ffffffff16565b9050613f49613f326040805190810160405280600181526020017f7d00000000000000000000000000000000000000000000000000000000000000815250613abc565b613f3b83613abc565b613aea90919063ffffffff16565b9150613f89565b6040805190810160405280600481526020017f6e756c6c0000000000000000000000000000000000000000000000000000000081525091505b50919050565b600073ffffffffffffffffffffffffffffffffffffffff168173ffffffffffffffffffffffffffffffffffffffff1614151515613fcb57600080fd5b8073ffffffffffffffffffffffffffffffffffffffff166000809054906101000a900473ffffffffffffffffffffffffffffffffffffffff1673ffffffffffffffffffffffffffffffffffffffff167f8be0079c531659141344cd1fd0a4f28419497f9722a3daafe3b4186f6b6457e060405160405180910390a3806000806101000a81548173ffffffffffffffffffffffffffffffffffffffff021916908373ffffffffffffffffffffffffffffffffffffffff16021790555050565b60005b6020821015156140b1578251845260208401935060208301925060208203915061408c565b6001826020036101000a0390508019835116818551168181178652505050505050565b606080826000015115614348576040805190810160405280600c81526020017f7b2261646472657373223a220000000000000000000000000000000000000000815250905061415e614147614142856020015173ffffffffffffffffffffffffffffffffffffffff166136e0565b613abc565b61415083613abc565b613aea90919063ffffffff16565b90506141b86141a16040805190810160405280601681526020017f222c2266756e6374696f6e53656c6563746f72223a2200000000000000000000815250613abc565b6141aa83613abc565b613aea90919063ffffffff16565b90506141e16141ca8460400151613abc565b6141d383613abc565b613aea90919063ffffffff16565b905061423b6142246040805190810160405280600e81526020017f222c22617267756d656e7473223a000000000000000000000000000000000000815250613abc565b61422d83613abc565b613aea90919063ffffffff16565b905061426461424d8460600151613abc565b61425683613abc565b613aea90919063ffffffff16565b90506142be6142a76040805190810160405280600c81526020017f2c22636f6e6669726d223a220000000000000000000000000000000000000000815250613abc565b6142b083613abc565b613aea90919063ffffffff16565b90506142e76142d08460800151613abc565b6142d983613abc565b613aea90919063ffffffff16565b905061434161432a6040805190810160405280600281526020017f227d000000000000000000000000000000000000000000000000000000000000815250613abc565b61433383613abc565b613aea90919063ffffffff16565b9150614381565b6040805190810160405280600481526020017f6e756c6c0000000000000000000000000000000000000000000000000000000081525091505b50919050565b60608060008084600001511561462a576040805190810160405280600c81526020017f7b22636f6c756d6e73223a5b0000000000000000000000000000000000000000815250925060009150600090505b8460200151518110156144a45760008211156144495761444661442f6040805190810160405280600181526020017f2c00000000000000000000000000000000000000000000000000000000000000815250613abc565b61443885613abc565b613aea90919063ffffffff16565b92505b61448f61447861447387602001518481518110151561446457fe5b9060200190602002015161466b565b613abc565b61448185613abc565b613aea90919063ffffffff16565b925060018201915080806001019150506143d8565b6144fc6144e56040805190810160405280600a81526020017f5d2c22726f7773223a5b00000000000000000000000000000000000000000000815250613abc565b6144ee85613abc565b613aea90919063ffffffff16565b925060009150600090505b8460400151518110156145cb5760008211156145785761457561455e6040805190810160405280600181526020017f2c00000000000000000000000000000000000000000000000000000000000000815250613abc565b61456785613abc565b613aea90919063ffffffff16565b92505b6145b661459f86604001518381518110151561459057fe5b90602001906020020151613abc565b6145a885613abc565b613aea90919063ffffffff16565b92506001820191508080600101915050614507565b61462361460c6040805190810160405280600281526020017f5d7d000000000000000000000000000000000000000000000000000000000000815250613abc565b61461585613abc565b613aea90919063ffffffff16565b9350614663565b6040805190810160405280600481526020017f6e756c6c0000000000000000000000000000000000000000000000000000000081525093505b505050919050565b60608082600001511561498c576040805190810160405280600781526020017f7b226964223a220000000000000000000000000000000000000000000000000081525090506146d76146c08460200151613abc565b6146c983613abc565b613aea90919063ffffffff16565b905061473161471a6040805190810160405280600181526020017f2200000000000000000000000000000000000000000000000000000000000000815250613abc565b61472383613abc565b613aea90919063ffffffff16565b905082608001516000015115614827576147996147826040805190810160405280600181526020017f2c00000000000000000000000000000000000000000000000000000000000000815250613abc565b61478b83613abc565b613aea90919063ffffffff16565b90506147f36147dc6040805190810160405280600981526020017f22616374696f6e223a0000000000000000000000000000000000000000000000815250613abc565b6147e583613abc565b613aea90919063ffffffff16565b905061482461480d61480885608001516140d4565b613abc565b61481683613abc565b613aea90919063ffffffff16565b90505b61487f6148686040805190810160405280600981526020017f2c2274797065223a220000000000000000000000000000000000000000000000815250613abc565b61487183613abc565b613aea90919063ffffffff16565b90506148a86148918460400151613abc565b61489a83613abc565b613aea90919063ffffffff16565b90506149026148eb6040805190810160405280600b81526020017f222c226c6162656c223a22000000000000000000000000000000000000000000815250613abc565b6148f483613abc565b613aea90919063ffffffff16565b905061492b6149148460600151613abc565b61491d83613abc565b613aea90919063ffffffff16565b905061498561496e6040805190810160405280600281526020017f227d000000000000000000000000000000000000000000000000000000000000815250613abc565b61497783613abc565b613aea90919063ffffffff16565b91506149c5565b6040805190810160405280600481526020017f6e756c6c0000000000000000000000000000000000000000000000000000000081525091505b50919050565b6101a06040519081016040528060001515815260200160608152602001606081526020016060815260200160608152602001614a05614b57565b8152602001614a12614b9f565b81525090565b828054600181600116156101000203166002900490600052602060002090601f016020900481019282601f10614a5957805160ff1916838001178555614a87565b82800160010185558215614a87579182015b82811115614a86578251825591602001919060010190614a6b565b5b509050614a949190614bc3565b5090565b60a060405190810160405280600015158152602001600073ffffffffffffffffffffffffffffffffffffffff1681526020016060815260200160608152602001606081525090565b60606040519081016040528060001515815260200160608152602001606081525090565b61012060405190810160405280600015158152602001606081526020016060815260200160608152602001614b37614b57565b81525090565b604080519081016040528060008152602001600081525090565b60a060405190810160405280600015158152602001600073ffffffffffffffffffffffffffffffffffffffff1681526020016060815260200160608152602001606081525090565b60606040519081016040528060001515815260200160608152602001606081525090565b614be591905b80821115614be1576000816000905550600101614bc9565b5090565b9056005b2270726f6a6563745f6e616d65222c2270726f6a6563745f73756d6d617279222c2270726f6a6563745f6465736372697074696f6e222c226c6f676f5f75726c222c22636f7665725f696d6167655f75726c222c22776562736974655f75726c222c22776869746570617065725f75726c222c2273616c655f6e616d65222c22746f6b656e5f61646472657373225da165627a7a7230582011c28f94be1788e66ac1483e5041bf5fb6d8f3152f69c6e29a2752b29bd76f0d0029",
  "source": "pragma solidity ^0.4.24;\n\nimport \"./ERC20SaleWidgetRenderer.sol\";\nimport \"tokenboost-solidity/contracts/utils/UintUtils.sol\";\nimport \"tokenboost-solidity/contracts/utils/BoolUtils.sol\";\nimport \"tokenboost-solidity/contracts/utils/StringUtils.sol\";\nimport \"tokenboost-solidity/contracts/widget/Elements.sol\";\n\ncontract ERC20SaleInputsRenderer is ERC20SaleWidgetRenderer {\n    using strings for *;\n    using UintUtils for uint;\n    using BoolUtils for bool;\n    using AddressUtils for address;\n    using StringUtils for string;\n    using Elements for Elements.Element;\n\n    string public constant TOKEN_ADDRESS = \"token_address\";\n    string public constant PROJECT_NAME = \"project_name\";\n    string public constant PROJECT_SUMMARY = \"project_summary\";\n    string public constant PROJECT_DESCRIPTION = \"project_description\";\n    string public constant SALE_NAME = \"sale_name\";\n    string public constant LOGO_URL = \"logo_url\";\n    string public constant COVER_IMAGE_URL = \"cover_image_url\";\n    string public constant WEBSITE_URL = \"website_url\";\n    string public constant WHITEPAPER_URL = \"whitepaper_url\";\n    string public constant UPDATE = \"update\";\n    string public constant UPDATE_CONFIRM = \"update_confirm\";\n\n    function render(string _locale, ERC20Sale _sale) public view returns (string) {\n        Elements.Element[] memory elements = new Elements.Element[](10);\n        elements[0] = Elements.Element(\n            true,\n            TOKEN_ADDRESS,\n            \"addressEdit\",\n            resources[_locale][TOKEN_ADDRESS],\n            address(_sale.token()).toString().quoted(),\n            Actions.empty(),\n            Tables.empty()\n        );\n        elements[1] = Elements.Element(\n            true,\n            PROJECT_NAME,\n            \"textEdit\",\n            resources[_locale][PROJECT_NAME],\n            _sale.projectName().quoted(),\n            Actions.empty(),\n            Tables.empty()\n        );\n        elements[2] = Elements.Element(\n            true,\n            PROJECT_SUMMARY,\n            \"textEdit\",\n            resources[_locale][PROJECT_SUMMARY],\n            _sale.projectSummary().quoted(),\n            Actions.empty(),\n            Tables.empty()\n        );\n        elements[3] = Elements.Element(\n            true,\n            PROJECT_DESCRIPTION,\n            \"markdownEdit\",\n            resources[_locale][PROJECT_DESCRIPTION],\n            _sale.projectSummary().quoted(),\n            Actions.empty(),\n            Tables.empty()\n        );\n        elements[4] = Elements.Element(\n            true,\n            SALE_NAME,\n            \"textEdit\",\n            resources[_locale][SALE_NAME],\n            _sale.name().quoted(),\n            Actions.empty(),\n            Tables.empty()\n        );\n        elements[5] = Elements.Element(\n            true,\n            LOGO_URL,\n            \"urlEdit\",\n            resources[_locale][LOGO_URL],\n            _sale.logoUrl().quoted(),\n            Actions.empty(),\n            Tables.empty()\n        );\n        elements[6] = Elements.Element(\n            true,\n            COVER_IMAGE_URL,\n            \"urlEdit\",\n            resources[_locale][COVER_IMAGE_URL],\n            _sale.coverImageUrl().quoted(),\n            Actions.empty(),\n            Tables.empty()\n        );\n        elements[7] = Elements.Element(\n            true,\n            WEBSITE_URL,\n            \"urlEdit\",\n            resources[_locale][WEBSITE_URL],\n            _sale.websiteUrl().quoted(),\n            Actions.empty(),\n            Tables.empty()\n        );\n        elements[8] = Elements.Element(\n            true,\n            WHITEPAPER_URL,\n            \"urlEdit\",\n            resources[_locale][WHITEPAPER_URL],\n            _sale.whitepaperUrl().quoted(),\n            Actions.empty(),\n            Tables.empty()\n        );\n        elements[9] = Elements.Element(\n            true,\n            UPDATE,\n            \"button\",\n            resources[_locale][UPDATE],\n            \"null\",\n            Actions.Action(\n                true,\n                address(_sale),\n                \"update(string,string,string,string,string,string,string,string,address)\",\n                '[\"project_name\",\"project_summary\",\"project_description\",\"logo_url\",\"cover_image_url\",\"website_url\",\"whitepaper_url\",\"sale_name\",\"token_address\"]',\n                resources[_locale][UPDATE_CONFIRM]\n            ),\n            Tables.empty()\n        );\n        string memory json = \"[\";\n        for (uint i = 0; i < elements.length; i++) {\n            if (i > 0) {\n                json = json.toSlice().concat(','.toSlice());\n            }\n            json = json.toSlice().concat(elements[i].toJson().toSlice());\n        }\n        return json.toSlice().concat(']'.toSlice());\n    }\n}\n",
  "sourcePath": "/Users/yoonjae/SolidityProjects/tokenboost-solidity-erc20sale/contracts/sale/erc20/widget/ERC20SaleInputsRenderer.sol",
  "compiler": {
    "name": "solc",
    "version": "0.4.24+commit.e67f0147.Emscripten.clang"
  },
  "schemaVersion": "2.0.1",
  "updatedAt": "2018-09-19T13:47:24.375Z"
}