{
  "contractName": "ERC20SaleStrategyTemplate",
  "abi": [
    {
      "constant": true,
      "inputs": [
        {
          "name": "_interfaceId",
          "type": "bytes4"
        }
      ],
      "name": "supportsInterface",
      "outputs": [
        {
          "name": "",
          "type": "bool"
        }
      ],
      "payable": false,
      "stateMutability": "view",
      "type": "function"
    },
    {
      "constant": true,
      "inputs": [],
      "name": "InterfaceId_ERC165",
      "outputs": [
        {
          "name": "",
          "type": "bytes4"
        }
      ],
      "payable": false,
      "stateMutability": "view",
      "type": "function"
    },
    {
      "constant": true,
      "inputs": [],
      "name": "beneficiary",
      "outputs": [
        {
          "name": "",
          "type": "address"
        }
      ],
      "payable": false,
      "stateMutability": "view",
      "type": "function"
    },
    {
      "constant": true,
      "inputs": [],
      "name": "bytecodeHash",
      "outputs": [
        {
          "name": "",
          "type": "bytes32"
        }
      ],
      "payable": false,
      "stateMutability": "view",
      "type": "function"
    },
    {
      "constant": true,
      "inputs": [
        {
          "name": "_locale",
          "type": "string"
        }
      ],
      "name": "name",
      "outputs": [
        {
          "name": "",
          "type": "string"
        }
      ],
      "payable": false,
      "stateMutability": "view",
      "type": "function"
    },
    {
      "constant": true,
      "inputs": [],
      "name": "InterfaceId_Template",
      "outputs": [
        {
          "name": "",
          "type": "bytes4"
        }
      ],
      "payable": false,
      "stateMutability": "view",
      "type": "function"
    },
    {
      "constant": false,
      "inputs": [],
      "name": "renounceOwnership",
      "outputs": [],
      "payable": false,
      "stateMutability": "nonpayable",
      "type": "function"
    },
    {
      "constant": true,
      "inputs": [
        {
          "name": "_locale",
          "type": "string"
        }
      ],
      "name": "description",
      "outputs": [
        {
          "name": "",
          "type": "string"
        }
      ],
      "payable": false,
      "stateMutability": "view",
      "type": "function"
    },
    {
      "constant": true,
      "inputs": [],
      "name": "owner",
      "outputs": [
        {
          "name": "",
          "type": "address"
        }
      ],
      "payable": false,
      "stateMutability": "view",
      "type": "function"
    },
    {
      "constant": true,
      "inputs": [],
      "name": "price",
      "outputs": [
        {
          "name": "",
          "type": "uint256"
        }
      ],
      "payable": false,
      "stateMutability": "view",
      "type": "function"
    },
    {
      "constant": false,
      "inputs": [
        {
          "name": "_locale",
          "type": "string"
        },
        {
          "name": "_name",
          "type": "string"
        },
        {
          "name": "_description",
          "type": "string"
        }
      ],
      "name": "setNameAndDescription",
      "outputs": [],
      "payable": false,
      "stateMutability": "nonpayable",
      "type": "function"
    },
    {
      "constant": false,
      "inputs": [
        {
          "name": "_newOwner",
          "type": "address"
        }
      ],
      "name": "transferOwnership",
      "outputs": [],
      "payable": false,
      "stateMutability": "nonpayable",
      "type": "function"
    },
    {
      "inputs": [
        {
          "name": "_bytecodeHash",
          "type": "bytes32"
        },
        {
          "name": "_price",
          "type": "uint256"
        },
        {
          "name": "_beneficiary",
          "type": "address"
        }
      ],
      "payable": false,
      "stateMutability": "nonpayable",
      "type": "constructor"
    },
    {
      "anonymous": false,
      "inputs": [
        {
          "indexed": true,
          "name": "creator",
          "type": "address"
        },
        {
          "indexed": true,
          "name": "contractAddress",
          "type": "address"
        }
      ],
      "name": "Instantiated",
      "type": "event"
    },
    {
      "anonymous": false,
      "inputs": [
        {
          "indexed": true,
          "name": "previousOwner",
          "type": "address"
        }
      ],
      "name": "OwnershipRenounced",
      "type": "event"
    },
    {
      "anonymous": false,
      "inputs": [
        {
          "indexed": true,
          "name": "previousOwner",
          "type": "address"
        },
        {
          "indexed": true,
          "name": "newOwner",
          "type": "address"
        }
      ],
      "name": "OwnershipTransferred",
      "type": "event"
    },
    {
      "constant": false,
      "inputs": [
        {
          "name": "_bytecode",
          "type": "bytes"
        },
        {
          "name": "_args",
          "type": "bytes"
        }
      ],
      "name": "instantiate",
      "outputs": [
        {
          "name": "contractAddress",
          "type": "address"
        }
      ],
      "payable": true,
      "stateMutability": "payable",
      "type": "function"
    }
  ],
  "bytecode": "0x608060405234801561001057600080fd5b50604051606080611952833981018060405281019080805190602001909291908051906020019092919080519060200190929190505050828282828282828282336000806101000a81548173ffffffffffffffffffffffffffffffffffffffff021916908373ffffffffffffffffffffffffffffffffffffffff1602179055506100cb6301ffc9a77c0100000000000000000000000000000000000000000000000000000000026101d4640100000000026401000000009004565b82600481600019169055508160058190555080600660006101000a81548173ffffffffffffffffffffffffffffffffffffffff021916908373ffffffffffffffffffffffffffffffffffffffff1602179055506000600554111561018857600073ffffffffffffffffffffffffffffffffffffffff16600660009054906101000a900473ffffffffffffffffffffffffffffffffffffffff1673ffffffffffffffffffffffffffffffffffffffff161415151561018757600080fd5b5b6101c363d48445ff7c0100000000000000000000000000000000000000000000000000000000026101d4640100000000026401000000009004565b505050505050505050505050610291565b63ffffffff7c010000000000000000000000000000000000000000000000000000000002817bffffffffffffffffffffffffffffffffffffffffffffffffffffffff19161415151561022557600080fd5b6001806000837bffffffffffffffffffffffffffffffffffffffffffffffffffffffff19167bffffffffffffffffffffffffffffffffffffffffffffffffffffffff1916815260200190815260200160002060006101000a81548160ff02191690831515021790555050565b6116b2806102a06000396000f3006080604052600436106100c5576000357c0100000000000000000000000000000000000000000000000000000000900463ffffffff16806301ffc9a7146100ca57806319fa8f501461012e57806338af3eed14610197578063420c6a2c146101ee5780635b43bc99146102215780636535b4a5146103035780636e63d109146103e5578063715018a61461044e57806388255199146104655780638da5cb5b14610547578063a035b1fe1461059e578063b649c913146105c9578063f2fde38b146106be575b600080fd5b3480156100d657600080fd5b5061011460048036038101908080357bffffffffffffffffffffffffffffffffffffffffffffffffffffffff19169060200190929190505050610701565b604051808215151515815260200191505060405180910390f35b34801561013a57600080fd5b50610143610769565b60405180827bffffffffffffffffffffffffffffffffffffffffffffffffffffffff19167bffffffffffffffffffffffffffffffffffffffffffffffffffffffff1916815260200191505060405180910390f35b3480156101a357600080fd5b506101ac610790565b604051808273ffffffffffffffffffffffffffffffffffffffff1673ffffffffffffffffffffffffffffffffffffffff16815260200191505060405180910390f35b3480156101fa57600080fd5b506102036107b6565b60405180826000191660001916815260200191505060405180910390f35b34801561022d57600080fd5b50610288600480360381019080803590602001908201803590602001908080601f01602080910402602001604051908101604052809392919081815260200183838082843782019150505050505091929192905050506107bc565b6040518080602001828103825283818151815260200191508051906020019080838360005b838110156102c85780820151818401526020810190506102ad565b50505050905090810190601f1680156102f55780820380516001836020036101000a031916815260200191505b509250505060405180910390f35b6103a3600480360381019080803590602001908201803590602001908080601f0160208091040260200160405190810160405280939291908181526020018383808284378201915050505050509192919290803590602001908201803590602001908080601f01602080910402602001604051908101604052809392919081815260200183838082843782019150505050505091929192905050506108c9565b604051808273ffffffffffffffffffffffffffffffffffffffff1673ffffffffffffffffffffffffffffffffffffffff16815260200191505060405180910390f35b3480156103f157600080fd5b506103fa6109d9565b60405180827bffffffffffffffffffffffffffffffffffffffffffffffffffffffff19167bffffffffffffffffffffffffffffffffffffffffffffffffffffffff1916815260200191505060405180910390f35b34801561045a57600080fd5b50610463610a00565b005b34801561047157600080fd5b506104cc600480360381019080803590602001908201803590602001908080601f0160208091040260200160405190810160405280939291908181526020018383808284378201915050505050509192919290505050610b02565b6040518080602001828103825283818151815260200191508051906020019080838360005b8381101561050c5780820151818401526020810190506104f1565b50505050905090810190601f1680156105395780820380516001836020036101000a031916815260200191505b509250505060405180910390f35b34801561055357600080fd5b5061055c610c0f565b604051808273ffffffffffffffffffffffffffffffffffffffff1673ffffffffffffffffffffffffffffffffffffffff16815260200191505060405180910390f35b3480156105aa57600080fd5b506105b3610c34565b6040518082815260200191505060405180910390f35b3480156105d557600080fd5b506106bc600480360381019080803590602001908201803590602001908080601f0160208091040260200160405190810160405280939291908181526020018383808284378201915050505050509192919290803590602001908201803590602001908080601f0160208091040260200160405190810160405280939291908181526020018383808284378201915050505050509192919290803590602001908201803590602001908080601f0160208091040260200160405190810160405280939291908181526020018383808284378201915050505050509192919290505050610c3a565b005b3480156106ca57600080fd5b506106ff600480360381019080803573ffffffffffffffffffffffffffffffffffffffff169060200190929190505050610d9a565b005b600060016000837bffffffffffffffffffffffffffffffffffffffffffffffffffffffff19167bffffffffffffffffffffffffffffffffffffffffffffffffffffffff1916815260200190815260200160002060009054906101000a900460ff169050919050565b6301ffc9a77c01000000000000000000000000000000000000000000000000000000000281565b600660009054906101000a900473ffffffffffffffffffffffffffffffffffffffff1681565b60045481565b60606002826040518082805190602001908083835b6020831015156107f657805182526020820191506020810190506020830392506107d1565b6001836020036101000a03801982511681845116808217855250505050505090500191505090815260200160405180910390208054600181600116156101000203166002900480601f0160208091040260200160405190810160405280929190818152602001828054600181600116156101000203166002900480156108bd5780601f10610892576101008083540402835291602001916108bd565b820191906000526020600020905b8154815290600101906020018083116108a057829003601f168201915b50505050509050919050565b6000806108d68484610e01565b90508073ffffffffffffffffffffffffffffffffffffffff166301ffc9a763a0d0304b6040518263ffffffff167c010000000000000000000000000000000000000000000000000000000002815260040180827c0100000000000000000000000000000000000000000000000000000000027bffffffffffffffffffffffffffffffffffffffffffffffffffffffff19168152602001915050602060405180830381600087803b15801561098957600080fd5b505af115801561099d573d6000803e3d6000fd5b505050506040513d60208110156109b357600080fd5b810190808051906020019092919050505015156109cf57600080fd5b8091505092915050565b63d48445ff7c01000000000000000000000000000000000000000000000000000000000281565b6000809054906101000a900473ffffffffffffffffffffffffffffffffffffffff1673ffffffffffffffffffffffffffffffffffffffff163373ffffffffffffffffffffffffffffffffffffffff16141515610a5b57600080fd5b6000809054906101000a900473ffffffffffffffffffffffffffffffffffffffff1673ffffffffffffffffffffffffffffffffffffffff167ff8df31144d9c2f0f6b59d69b8b98abd5459d07f2742c4df920b25aae33c6482060405160405180910390a260008060006101000a81548173ffffffffffffffffffffffffffffffffffffffff021916908373ffffffffffffffffffffffffffffffffffffffff160217905550565b60606003826040518082805190602001908083835b602083101515610b3c5780518252602082019150602081019050602083039250610b17565b6001836020036101000a03801982511681845116808217855250505050505090500191505090815260200160405180910390208054600181600116156101000203166002900480601f016020809104026020016040519081016040528092919081815260200182805460018160011615610100020316600290048015610c035780601f10610bd857610100808354040283529160200191610c03565b820191906000526020600020905b815481529060010190602001808311610be657829003601f168201915b50505050509050919050565b6000809054906101000a900473ffffffffffffffffffffffffffffffffffffffff1681565b60055481565b6000809054906101000a900473ffffffffffffffffffffffffffffffffffffffff1673ffffffffffffffffffffffffffffffffffffffff163373ffffffffffffffffffffffffffffffffffffffff16141515610c9557600080fd5b816002846040518082805190602001908083835b602083101515610cce5780518252602082019150602081019050602083039250610ca9565b6001836020036101000a03801982511681845116808217855250505050505090500191505090815260200160405180910390209080519060200190610d149291906115e1565b50806003846040518082805190602001908083835b602083101515610d4e5780518252602082019150602081019050602083039250610d29565b6001836020036101000a03801982511681845116808217855250505050505090500191505090815260200160405180910390209080519060200190610d949291906115e1565b50505050565b6000809054906101000a900473ffffffffffffffffffffffffffffffffffffffff1673ffffffffffffffffffffffffffffffffffffffff163373ffffffffffffffffffffffffffffffffffffffff16141515610df557600080fd5b610dfe81610f11565b50565b600080610e0e848461100b565b90508073ffffffffffffffffffffffffffffffffffffffff166301ffc9a76304c8123d6040518263ffffffff167c010000000000000000000000000000000000000000000000000000000002815260040180827c0100000000000000000000000000000000000000000000000000000000027bffffffffffffffffffffffffffffffffffffffffffffffffffffffff19168152602001915050602060405180830381600087803b158015610ec157600080fd5b505af1158015610ed5573d6000803e3d6000fd5b505050506040513d6020811015610eeb57600080fd5b81019080805190602001909291905050501515610f0757600080fd5b8091505092915050565b600073ffffffffffffffffffffffffffffffffffffffff168173ffffffffffffffffffffffffffffffffffffffff1614151515610f4d57600080fd5b8073ffffffffffffffffffffffffffffffffffffffff166000809054906101000a900473ffffffffffffffffffffffffffffffffffffffff1673ffffffffffffffffffffffffffffffffffffffff167f8be0079c531659141344cd1fd0a4f28419497f9722a3daafe3b4186f6b6457e060405160405180910390a3806000806101000a81548173ffffffffffffffffffffffffffffffffffffffff021916908373ffffffffffffffffffffffffffffffffffffffff16021790555050565b600080611018848461111b565b90508073ffffffffffffffffffffffffffffffffffffffff166301ffc9a7636e3019256040518263ffffffff167c010000000000000000000000000000000000000000000000000000000002815260040180827c0100000000000000000000000000000000000000000000000000000000027bffffffffffffffffffffffffffffffffffffffffffffffffffffffff19168152602001915050602060405180830381600087803b1580156110cb57600080fd5b505af11580156110df573d6000803e3d6000fd5b505050506040513d60208110156110f557600080fd5b8101908080519060200190929190505050151561111157600080fd5b8091505092915050565b600060606000846040518082805190602001908083835b6020831015156111575780518252602082019150602081019050602083039250611132565b6001836020036101000a0380198251168184511680821785525050505050509050019150506040518091039020600019166004546000191614151561119b57600080fd5b84846040516020018083805190602001908083835b6020831015156111d557805182526020820191506020810190506020830392506111b0565b6001836020036101000a03801982511681845116808217855250505050505090500182805190602001908083835b6020831015156112285780518252602082019150602081019050602083039250611203565b6001836020036101000a0380198251168184511680821785525050505050509050019250505060405160208183030381529060405291508151602083016000f09250600073ffffffffffffffffffffffffffffffffffffffff168373ffffffffffffffffffffffffffffffffffffffff16141561130d576040517f08c379a000000000000000000000000000000000000000000000000000000000815260040180806020018281038252601b8152602001807f43616e6e6f7420696e7374616e746961746520636f6e7472616374000000000081525060200191505060405180910390fd5b8290508073ffffffffffffffffffffffffffffffffffffffff166301ffc9a7806040518263ffffffff167c010000000000000000000000000000000000000000000000000000000002815260040180827c0100000000000000000000000000000000000000000000000000000000027bffffffffffffffffffffffffffffffffffffffffffffffffffffffff19168152602001915050602060405180830381600087803b1580156113bd57600080fd5b505af11580156113d1573d6000803e3d6000fd5b505050506040513d60208110156113e757600080fd5b8101908080519060200190929190505050151561140357600080fd5b8073ffffffffffffffffffffffffffffffffffffffff166301ffc9a7636125ede56040518263ffffffff167c010000000000000000000000000000000000000000000000000000000002815260040180827c0100000000000000000000000000000000000000000000000000000000027bffffffffffffffffffffffffffffffffffffffffffffffffffffffff19168152602001915050602060405180830381600087803b1580156114b457600080fd5b505af11580156114c8573d6000803e3d6000fd5b505050506040513d60208110156114de57600080fd5b810190808051906020019092919050505015156114fa57600080fd5b6000600554111561157f576005543414151561151557600080fd5b600660009054906101000a900473ffffffffffffffffffffffffffffffffffffffff1673ffffffffffffffffffffffffffffffffffffffff166108fc349081150290604051600060405180830381858888f1935050505015801561157d573d6000803e3d6000fd5b505b8273ffffffffffffffffffffffffffffffffffffffff163373ffffffffffffffffffffffffffffffffffffffff167f4b9699a19830f077a7203307c78b030d114793c7d90c38f8293304371864b5e160405160405180910390a3505092915050565b828054600181600116156101000203166002900490600052602060002090601f016020900481019282601f1061162257805160ff1916838001178555611650565b82800160010185558215611650579182015b8281111561164f578251825591602001919060010190611634565b5b50905061165d9190611661565b5090565b61168391905b8082111561167f576000816000905550600101611667565b5090565b905600a165627a7a723058206c68b8ab34c1ddc9466b1df9a366a81028147e4dab2798e7849f15d41c15c5be0029",
  "source": "pragma solidity ^0.4.24;\n\nimport \"tokenboost-solidity/contracts/template/strategy/sale/SaleStrategyTemplate.sol\";\nimport \"../../../../strategy/sale/erc20/ERC20SaleStrategy.sol\";\n\ncontract ERC20SaleStrategyTemplate is SaleStrategyTemplate {\n    constructor(\n        bytes32 _bytecodeHash,\n        uint _price,\n        address _beneficiary\n    ) public\n    SaleStrategyTemplate(\n        _bytecodeHash,\n        _price,\n        _beneficiary\n    ) {\n    }\n\n    function instantiate(bytes _bytecode, bytes _args) public payable returns (address contractAddress) {\n        ERC20SaleStrategy strategy = ERC20SaleStrategy(super.instantiate(_bytecode, _args));\n        // InterfaceId_ERC20SaleStrategy\n        require(strategy.supportsInterface(0xa0d0304b));\n        return strategy;\n    }\n}\n",
  "sourcePath": "/Users/yoonjae/SolidityProjects/tokenboost-solidity-erc20sale/contracts/template/strategy/sale/erc20/ERC20SaleStrategyTemplate.sol",
  "compiler": {
    "name": "solc",
    "version": "0.4.24+commit.e67f0147.Emscripten.clang"
  },
  "schemaVersion": "2.0.1",
  "updatedAt": "2018-09-18T23:48:50.050Z"
}