{
  "contractName": "ERC20SaleStrategyRegistry",
  "abi": [
    {
      "constant": true,
      "inputs": [
        {
          "name": "_index",
          "type": "uint256"
        }
      ],
      "name": "identifierAt",
      "outputs": [
        {
          "name": "identifier",
          "type": "string"
        }
      ],
      "payable": false,
      "stateMutability": "view",
      "type": "function"
    },
    {
      "constant": true,
      "inputs": [],
      "name": "numberOfIdentifiers",
      "outputs": [
        {
          "name": "size",
          "type": "uint256"
        }
      ],
      "payable": false,
      "stateMutability": "view",
      "type": "function"
    },
    {
      "constant": true,
      "inputs": [
        {
          "name": "_identifier",
          "type": "string"
        }
      ],
      "name": "latestTemplateOf",
      "outputs": [
        {
          "name": "template",
          "type": "address"
        }
      ],
      "payable": false,
      "stateMutability": "view",
      "type": "function"
    },
    {
      "constant": true,
      "inputs": [
        {
          "name": "_identifier",
          "type": "string"
        }
      ],
      "name": "versionsOf",
      "outputs": [
        {
          "name": "version",
          "type": "uint256[]"
        }
      ],
      "payable": false,
      "stateMutability": "view",
      "type": "function"
    },
    {
      "constant": true,
      "inputs": [
        {
          "name": "_identifier",
          "type": "string"
        },
        {
          "name": "_version",
          "type": "uint256"
        }
      ],
      "name": "templateOf",
      "outputs": [
        {
          "name": "template",
          "type": "address"
        }
      ],
      "payable": false,
      "stateMutability": "view",
      "type": "function"
    },
    {
      "constant": false,
      "inputs": [
        {
          "name": "_identifier",
          "type": "string"
        },
        {
          "name": "_version",
          "type": "uint256"
        },
        {
          "name": "_template",
          "type": "address"
        }
      ],
      "name": "register",
      "outputs": [],
      "payable": false,
      "stateMutability": "nonpayable",
      "type": "function"
    },
    {
      "constant": false,
      "inputs": [],
      "name": "renounceOwnership",
      "outputs": [],
      "payable": false,
      "stateMutability": "nonpayable",
      "type": "function"
    },
    {
      "constant": true,
      "inputs": [],
      "name": "owner",
      "outputs": [
        {
          "name": "",
          "type": "address"
        }
      ],
      "payable": false,
      "stateMutability": "view",
      "type": "function"
    },
    {
      "constant": false,
      "inputs": [
        {
          "name": "_newOwner",
          "type": "address"
        }
      ],
      "name": "transferOwnership",
      "outputs": [],
      "payable": false,
      "stateMutability": "nonpayable",
      "type": "function"
    },
    {
      "constant": false,
      "inputs": [],
      "name": "open",
      "outputs": [],
      "payable": false,
      "stateMutability": "nonpayable",
      "type": "function"
    },
    {
      "anonymous": false,
      "inputs": [
        {
          "indexed": true,
          "name": "previousOwner",
          "type": "address"
        }
      ],
      "name": "OwnershipRenounced",
      "type": "event"
    },
    {
      "anonymous": false,
      "inputs": [
        {
          "indexed": true,
          "name": "previousOwner",
          "type": "address"
        },
        {
          "indexed": true,
          "name": "newOwner",
          "type": "address"
        }
      ],
      "name": "OwnershipTransferred",
      "type": "event"
    }
  ],
  "bytecode": "0x60806040526000336000806101000a81548173ffffffffffffffffffffffffffffffffffffffff021916908373ffffffffffffffffffffffffffffffffffffffff16021790555080600060146101000a81548160ff02191690831515021790555050611356806100706000396000f3006080604052600436106100a4576000357c0100000000000000000000000000000000000000000000000000000000900463ffffffff168063121a42c0146100a957806324d48c0d1461014f5780632a4798da1461017a5780632cf5cf8b146102235780635147fba1146102e15780635dc1aad314610394578063715018a6146104275780638da5cb5b1461043e578063f2fde38b14610495578063fcfff16f146104d8575b600080fd5b3480156100b557600080fd5b506100d4600480360381019080803590602001909291905050506104ef565b6040518080602001828103825283818151815260200191508051906020019080838360005b838110156101145780820151818401526020810190506100f9565b50505050905090810190601f1680156101415780820380516001836020036101000a031916815260200191505b509250505060405180910390f35b34801561015b57600080fd5b506101646105aa565b6040518082815260200191505060405180910390f35b34801561018657600080fd5b506101e1600480360381019080803590602001908201803590602001908080601f01602080910402602001604051908101604052809392919081815260200183838082843782019150505050505091929192905050506105b7565b604051808273ffffffffffffffffffffffffffffffffffffffff1673ffffffffffffffffffffffffffffffffffffffff16815260200191505060405180910390f35b34801561022f57600080fd5b5061028a600480360381019080803590602001908201803590602001908080601f01602080910402602001604051908101604052809392919081815260200183838082843782019150505050505091929192905050506106eb565b6040518080602001828103825283818151815260200191508051906020019060200280838360005b838110156102cd5780820151818401526020810190506102b2565b505050509050019250505060405180910390f35b3480156102ed57600080fd5b50610352600480360381019080803590602001908201803590602001908080601f0160208091040260200160405190810160405280939291908181526020018383808284378201915050505050509192919290803590602001909291905050506107ae565b604051808273ffffffffffffffffffffffffffffffffffffffff1673ffffffffffffffffffffffffffffffffffffffff16815260200191505060405180910390f35b3480156103a057600080fd5b50610425600480360381019080803590602001908201803590602001908080601f016020809104026020016040519081016040528093929190818152602001838380828437820191505050505050919291929080359060200190929190803573ffffffffffffffffffffffffffffffffffffffff169060200190929190505050610855565b005b34801561043357600080fd5b5061043c610f85565b005b34801561044a57600080fd5b50610453611087565b604051808273ffffffffffffffffffffffffffffffffffffffff1673ffffffffffffffffffffffffffffffffffffffff16815260200191505060405180910390f35b3480156104a157600080fd5b506104d6600480360381019080803573ffffffffffffffffffffffffffffffffffffffff1690602001909291905050506110ac565b005b3480156104e457600080fd5b506104ed611113565b005b606060018281548110151561050057fe5b906000526020600020018054600181600116156101000203166002900480601f01602080910402602001604051908101604052809291908181526020018280546001816001161561010002031660029004801561059e5780601f106105735761010080835404028352916020019161059e565b820191906000526020600020905b81548152906001019060200180831161058157829003601f168201915b50505050509050919050565b6000600180549050905090565b6000806003836040518082805190602001908083835b6020831015156105f257805182526020820191506020810190506020830392506105cd565b6001836020036101000a038019825116818451168082178552505050505050905001915050908152602001604051809103902090506004836040518082805190602001908083835b60208310151561065f578051825260208201915060208101905060208303925061063a565b6001836020036101000a038019825116818451168082178552505050505050905001915050908152602001604051809103902060008260018480549050038154811015156106a957fe5b9060005260206000200154815260200190815260200160002060009054906101000a900473ffffffffffffffffffffffffffffffffffffffff16915050919050565b60606003826040518082805190602001908083835b6020831015156107255780518252602082019150602081019050602083039250610700565b6001836020036101000a03801982511681845116808217855250505050505090500191505090815260200160405180910390208054806020026020016040519081016040528092919081815260200182805480156107a257602002820191906000526020600020905b81548152602001906001019080831161078e575b50505050509050919050565b60006004836040518082805190602001908083835b6020831015156107e857805182526020820191506020810190506020830392506107c3565b6001836020036101000a0380198251168184511680821785525050505050509050019150509081526020016040518091039020600083815260200190815260200160002060009054906101000a900473ffffffffffffffffffffffffffffffffffffffff16905092915050565b600080600060149054906101000a900460ff16806108bf57506000809054906101000a900473ffffffffffffffffffffffffffffffffffffffff1673ffffffffffffffffffffffffffffffffffffffff163373ffffffffffffffffffffffffffffffffffffffff16145b15156108ca57600080fd5b8273ffffffffffffffffffffffffffffffffffffffff166301ffc9a7806040518263ffffffff167c010000000000000000000000000000000000000000000000000000000002815260040180827c0100000000000000000000000000000000000000000000000000000000027bffffffffffffffffffffffffffffffffffffffffffffffffffffffff19168152602001915050602060405180830381600087803b15801561097757600080fd5b505af115801561098b573d6000803e3d6000fd5b505050506040513d60208110156109a157600080fd5b810190808051906020019092919050505015156109bd57600080fd5b8273ffffffffffffffffffffffffffffffffffffffff166301ffc9a763d48445ff6040518263ffffffff167c010000000000000000000000000000000000000000000000000000000002815260040180827c0100000000000000000000000000000000000000000000000000000000027bffffffffffffffffffffffffffffffffffffffffffffffffffffffff19168152602001915050602060405180830381600087803b158015610a6e57600080fd5b505af1158015610a82573d6000803e3d6000fd5b505050506040513d6020811015610a9857600080fd5b81019080805190602001909291905050501515610ab457600080fd5b6002856040518082805190602001908083835b602083101515610aec5780518252602082019150602081019050602083039250610ac7565b6001836020036101000a038019825116818451168082178552505050505050905001915050908152602001604051809103902060009054906101000a900473ffffffffffffffffffffffffffffffffffffffff169150600073ffffffffffffffffffffffffffffffffffffffff168273ffffffffffffffffffffffffffffffffffffffff161480610ba857503373ffffffffffffffffffffffffffffffffffffffff168273ffffffffffffffffffffffffffffffffffffffff16145b1515610c42576040517f08c379a00000000000000000000000000000000000000000000000000000000081526004018080602001828103825260338152602001807f6964656e74696669657220616c7265616479207265676973746572656420627981526020017f20616e6f746865722072656769737472616e740000000000000000000000000081525060400191505060405180910390fd5b600073ffffffffffffffffffffffffffffffffffffffff168273ffffffffffffffffffffffffffffffffffffffff161415610d61576001859080600181540180825580915050906001820390600052602060002001600090919290919091509080519060200190610cb4929190611285565b5050336002866040518082805190602001908083835b602083101515610cef5780518252602082019150602081019050602083039250610cca565b6001836020036101000a038019825116818451168082178552505050505050905001915050908152602001604051809103902060006101000a81548173ffffffffffffffffffffffffffffffffffffffff021916908373ffffffffffffffffffffffffffffffffffffffff1602179055505b6003856040518082805190602001908083835b602083101515610d995780518252602082019150602081019050602083039250610d74565b6001836020036101000a03801982511681845116808217855250505050505090500191505090815260200160405180910390209050600081805490501115610e9857806001828054905003815481101515610df057fe5b906000526020600020015484111515610e97576040517f08c379a000000000000000000000000000000000000000000000000000000000815260040180806020018281038252602d8152602001807f6e65772076657273696f6e206d7573742062652067726561746572207468616e81526020017f206f6c642076657273696f6e730000000000000000000000000000000000000081525060400191505060405180910390fd5b5b80849080600181540180825580915050906001820390600052602060002001600090919290919091505550826004866040518082805190602001908083835b602083101515610efc5780518252602082019150602081019050602083039250610ed7565b6001836020036101000a0380198251168184511680821785525050505050509050019150509081526020016040518091039020600086815260200190815260200160002060006101000a81548173ffffffffffffffffffffffffffffffffffffffff021916908373ffffffffffffffffffffffffffffffffffffffff1602179055505050505050565b6000809054906101000a900473ffffffffffffffffffffffffffffffffffffffff1673ffffffffffffffffffffffffffffffffffffffff163373ffffffffffffffffffffffffffffffffffffffff16141515610fe057600080fd5b6000809054906101000a900473ffffffffffffffffffffffffffffffffffffffff1673ffffffffffffffffffffffffffffffffffffffff167ff8df31144d9c2f0f6b59d69b8b98abd5459d07f2742c4df920b25aae33c6482060405160405180910390a260008060006101000a81548173ffffffffffffffffffffffffffffffffffffffff021916908373ffffffffffffffffffffffffffffffffffffffff160217905550565b6000809054906101000a900473ffffffffffffffffffffffffffffffffffffffff1681565b6000809054906101000a900473ffffffffffffffffffffffffffffffffffffffff1673ffffffffffffffffffffffffffffffffffffffff163373ffffffffffffffffffffffffffffffffffffffff1614151561110757600080fd5b6111108161118b565b50565b6000809054906101000a900473ffffffffffffffffffffffffffffffffffffffff1673ffffffffffffffffffffffffffffffffffffffff163373ffffffffffffffffffffffffffffffffffffffff1614151561116e57600080fd5b6001600060146101000a81548160ff021916908315150217905550565b600073ffffffffffffffffffffffffffffffffffffffff168173ffffffffffffffffffffffffffffffffffffffff16141515156111c757600080fd5b8073ffffffffffffffffffffffffffffffffffffffff166000809054906101000a900473ffffffffffffffffffffffffffffffffffffffff1673ffffffffffffffffffffffffffffffffffffffff167f8be0079c531659141344cd1fd0a4f28419497f9722a3daafe3b4186f6b6457e060405160405180910390a3806000806101000a81548173ffffffffffffffffffffffffffffffffffffffff021916908373ffffffffffffffffffffffffffffffffffffffff16021790555050565b828054600181600116156101000203166002900490600052602060002090601f016020900481019282601f106112c657805160ff19168380011785556112f4565b828001600101855582156112f4579182015b828111156112f35782518255916020019190600101906112d8565b5b5090506113019190611305565b5090565b61132791905b8082111561132357600081600090555060010161130b565b5090565b905600a165627a7a72305820c8b07500fcbfad77c50476056cbec96c7c431855cf96da4e75db27183356c67c0029",
  "source": "pragma solidity ^0.4.24;\n\nimport \"tokenboost-solidity/contracts/registry/Registry.sol\";\n\n/**\n * @title Strategy Registry\n * @notice `Template` to be registered must be a `StrategyTemplate`.\n */\ncontract ERC20SaleStrategyRegistry is Registry(false) {\n}\n",
  "sourcePath": "/Users/yoonjae/SolidityProjects/tokenboost-solidity-erc20sale/contracts/registry/ERC20SaleStrategyRegistry.sol",
  "compiler": {
    "name": "solc",
    "version": "0.4.24+commit.e67f0147.Emscripten.clang"
  },
  "schemaVersion": "2.0.1",
  "updatedAt": "2018-09-19T09:17:43.032Z"
}