{
  "contractName": "FundsRaisedWidgetRenderer",
  "abi": [
    {
      "constant": false,
      "inputs": [],
      "name": "renounceOwnership",
      "outputs": [],
      "payable": false,
      "stateMutability": "nonpayable",
      "type": "function"
    },
    {
      "constant": true,
      "inputs": [],
      "name": "FUNDS_RAISED",
      "outputs": [
        {
          "name": "",
          "type": "string"
        }
      ],
      "payable": false,
      "stateMutability": "view",
      "type": "function"
    },
    {
      "constant": true,
      "inputs": [],
      "name": "SHORT_DESC",
      "outputs": [
        {
          "name": "",
          "type": "string"
        }
      ],
      "payable": false,
      "stateMutability": "view",
      "type": "function"
    },
    {
      "constant": true,
      "inputs": [],
      "name": "owner",
      "outputs": [
        {
          "name": "",
          "type": "address"
        }
      ],
      "payable": false,
      "stateMutability": "view",
      "type": "function"
    },
    {
      "constant": true,
      "inputs": [],
      "name": "LONG_DESC",
      "outputs": [
        {
          "name": "",
          "type": "string"
        }
      ],
      "payable": false,
      "stateMutability": "view",
      "type": "function"
    },
    {
      "constant": false,
      "inputs": [
        {
          "name": "locale",
          "type": "string"
        },
        {
          "name": "key",
          "type": "string"
        },
        {
          "name": "value",
          "type": "string"
        }
      ],
      "name": "setResource",
      "outputs": [],
      "payable": false,
      "stateMutability": "nonpayable",
      "type": "function"
    },
    {
      "constant": false,
      "inputs": [
        {
          "name": "_newOwner",
          "type": "address"
        }
      ],
      "name": "transferOwnership",
      "outputs": [],
      "payable": false,
      "stateMutability": "nonpayable",
      "type": "function"
    },
    {
      "constant": true,
      "inputs": [
        {
          "name": "locale",
          "type": "string"
        },
        {
          "name": "key",
          "type": "string"
        }
      ],
      "name": "resource",
      "outputs": [
        {
          "name": "",
          "type": "string"
        }
      ],
      "payable": false,
      "stateMutability": "view",
      "type": "function"
    },
    {
      "anonymous": false,
      "inputs": [
        {
          "indexed": true,
          "name": "previousOwner",
          "type": "address"
        }
      ],
      "name": "OwnershipRenounced",
      "type": "event"
    },
    {
      "anonymous": false,
      "inputs": [
        {
          "indexed": true,
          "name": "previousOwner",
          "type": "address"
        },
        {
          "indexed": true,
          "name": "newOwner",
          "type": "address"
        }
      ],
      "name": "OwnershipTransferred",
      "type": "event"
    },
    {
      "constant": true,
      "inputs": [
        {
          "name": "_locale",
          "type": "string"
        },
        {
          "name": "_sale",
          "type": "address"
        }
      ],
      "name": "render",
      "outputs": [
        {
          "name": "",
          "type": "string"
        }
      ],
      "payable": false,
      "stateMutability": "view",
      "type": "function"
    }
  ],
  "bytecode": "0x6080604052336000806101000a81548173ffffffffffffffffffffffffffffffffffffffff021916908373ffffffffffffffffffffffffffffffffffffffff160217905550612dde806100536000396000f300608060405260043610610099576000357c0100000000000000000000000000000000000000000000000000000000900463ffffffff168063715018a61461009e57806389a838a8146100b55780638b582712146101455780638da5cb5b146101d5578063ac5c6e121461022c578063ca1a70be146102bc578063ed3487fe146103be578063f2fde38b146104b3578063f65a5c1b146104f6575b600080fd5b3480156100aa57600080fd5b506100b361061e565b005b3480156100c157600080fd5b506100ca610720565b6040518080602001828103825283818151815260200191508051906020019080838360005b8381101561010a5780820151818401526020810190506100ef565b50505050905090810190601f1680156101375780820380516001836020036101000a031916815260200191505b509250505060405180910390f35b34801561015157600080fd5b5061015a610759565b6040518080602001828103825283818151815260200191508051906020019080838360005b8381101561019a57808201518184015260208101905061017f565b50505050905090810190601f1680156101c75780820380516001836020036101000a031916815260200191505b509250505060405180910390f35b3480156101e157600080fd5b506101ea610792565b604051808273ffffffffffffffffffffffffffffffffffffffff1673ffffffffffffffffffffffffffffffffffffffff16815260200191505060405180910390f35b34801561023857600080fd5b506102416107b7565b6040518080602001828103825283818151815260200191508051906020019080838360005b83811015610281578082015181840152602081019050610266565b50505050905090810190601f1680156102ae5780820380516001836020036101000a031916815260200191505b509250505060405180910390f35b3480156102c857600080fd5b50610343600480360381019080803590602001908201803590602001908080601f0160208091040260200160405190810160405280939291908181526020018383808284378201915050505050509192919290803573ffffffffffffffffffffffffffffffffffffffff1690602001909291905050506107f0565b6040518080602001828103825283818151815260200191508051906020019080838360005b83811015610383578082015181840152602081019050610368565b50505050905090810190601f1680156103b05780820380516001836020036101000a031916815260200191505b509250505060405180910390f35b3480156103ca57600080fd5b506104b1600480360381019080803590602001908201803590602001908080601f0160208091040260200160405190810160405280939291908181526020018383808284378201915050505050509192919290803590602001908201803590602001908080601f0160208091040260200160405190810160405280939291908181526020018383808284378201915050505050509192919290803590602001908201803590602001908080601f016020809104026020016040519081016040528093929190818152602001838380828437820191505050505050919291929050505061106c565b005b3480156104bf57600080fd5b506104f4600480360381019080803573ffffffffffffffffffffffffffffffffffffffff1690602001909291905050506111b5565b005b34801561050257600080fd5b506105a3600480360381019080803590602001908201803590602001908080601f0160208091040260200160405190810160405280939291908181526020018383808284378201915050505050509192919290803590602001908201803590602001908080601f016020809104026020016040519081016040528093929190818152602001838380828437820191505050505050919291929050505061121c565b6040518080602001828103825283818151815260200191508051906020019080838360005b838110156105e35780820151818401526020810190506105c8565b50505050905090810190601f1680156106105780820380516001836020036101000a031916815260200191505b509250505060405180910390f35b6000809054906101000a900473ffffffffffffffffffffffffffffffffffffffff1673ffffffffffffffffffffffffffffffffffffffff163373ffffffffffffffffffffffffffffffffffffffff1614151561067957600080fd5b6000809054906101000a900473ffffffffffffffffffffffffffffffffffffffff1673ffffffffffffffffffffffffffffffffffffffff167ff8df31144d9c2f0f6b59d69b8b98abd5459d07f2742c4df920b25aae33c6482060405160405180910390a260008060006101000a81548173ffffffffffffffffffffffffffffffffffffffff021916908373ffffffffffffffffffffffffffffffffffffffff160217905550565b6040805190810160405280600c81526020017f66756e64735f726169736564000000000000000000000000000000000000000081525081565b6040805190810160405280600a81526020017f73686f72745f646573630000000000000000000000000000000000000000000081525081565b6000809054906101000a900473ffffffffffffffffffffffffffffffffffffffff1681565b6040805190810160405280600981526020017f6c6f6e675f64657363000000000000000000000000000000000000000000000081525081565b6060806107fb612b65565b600160405190808252806020026020018201604052801561083657816020015b610823612b95565b81526020019060019003908161081b5790505b50915060e0604051908101604052806001151581526020016040805190810160405280600c81526020017f66756e64735f726169736564000000000000000000000000000000000000000081525081526020016040805190810160405280600381526020017f657468000000000000000000000000000000000000000000000000000000000081525081526020016001876040518082805190602001908083835b6020831015156108fc57805182526020820191506020810190506020830392506108d7565b6001836020036101000a03801982511681845116808217855250505050505090500191505090815260200160405180910390206040805190810160405280600c81526020017f66756e64735f72616973656400000000000000000000000000000000000000008152506040518082805190602001908083835b60208310151561099a5780518252602082019150602081019050602083039250610975565b6001836020036101000a03801982511681845116808217855250505050505090500191505090815260200160405180910390208054600181600116156101000203166002900480601f016020809104026020016040519081016040528092919081815260200182805460018160011615610100020316600290048015610a615780601f10610a3657610100808354040283529160200191610a61565b820191906000526020600020905b815481529060010190602001808311610a4457829003601f168201915b50505050508152602001610b128673ffffffffffffffffffffffffffffffffffffffff16634042b66f6040518163ffffffff167c0100000000000000000000000000000000000000000000000000000000028152600401602060405180830381600087803b158015610ad257600080fd5b505af1158015610ae6573d6000803e3d6000fd5b505050506040513d6020811015610afc57600080fd5b8101908080519060200190929190505050611393565b8152602001610b1f6115b5565b8152602001610b2c611634565b815250826000815181101515610b3e57fe5b9060200190602002018190525060a0604051908101604052806001876040518082805190602001908083835b602083101515610b8f5780518252602082019150602081019050602083039250610b6a565b6001836020036101000a03801982511681845116808217855250505050505090500191505090815260200160405180910390206040805190810160405280600c81526020017f66756e64735f72616973656400000000000000000000000000000000000000008152506040518082805190602001908083835b602083101515610c2d5780518252602082019150602081019050602083039250610c08565b6001836020036101000a03801982511681845116808217855250505050505090500191505090815260200160405180910390208054600181600116156101000203166002900480601f016020809104026020016040519081016040528092919081815260200182805460018160011615610100020316600290048015610cf45780601f10610cc957610100808354040283529160200191610cf4565b820191906000526020600020905b815481529060010190602001808311610cd757829003601f168201915b505050505081526020016001876040518082805190602001908083835b602083101515610d365780518252602082019150602081019050602083039250610d11565b6001836020036101000a03801982511681845116808217855250505050505090500191505090815260200160405180910390206040805190810160405280600a81526020017f73686f72745f64657363000000000000000000000000000000000000000000008152506040518082805190602001908083835b602083101515610dd45780518252602082019150602081019050602083039250610daf565b6001836020036101000a03801982511681845116808217855250505050505090500191505090815260200160405180910390208054600181600116156101000203166002900480601f016020809104026020016040519081016040528092919081815260200182805460018160011615610100020316600290048015610e9b5780601f10610e7057610100808354040283529160200191610e9b565b820191906000526020600020905b815481529060010190602001808311610e7e57829003601f168201915b505050505081526020016001876040518082805190602001908083835b602083101515610edd5780518252602082019150602081019050602083039250610eb8565b6001836020036101000a03801982511681845116808217855250505050505090500191505090815260200160405180910390206040805190810160405280600981526020017f6c6f6e675f6465736300000000000000000000000000000000000000000000008152506040518082805190602001908083835b602083101515610f7b5780518252602082019150602081019050602083039250610f56565b6001836020036101000a03801982511681845116808217855250505050505090500191505090815260200160405180910390208054600181600116156101000203166002900480601f0160208091040260200160405190810160405280929190818152602001828054600181600116156101000203166002900480156110425780601f1061101757610100808354040283529160200191611042565b820191906000526020600020905b81548152906001019060200180831161102557829003601f168201915b5050505050815260200160048152602001838152509050611062816116d0565b9250505092915050565b6000809054906101000a900473ffffffffffffffffffffffffffffffffffffffff1673ffffffffffffffffffffffffffffffffffffffff163373ffffffffffffffffffffffffffffffffffffffff161415156110c757600080fd5b806001846040518082805190602001908083835b60208310151561110057805182526020820191506020810190506020830392506110db565b6001836020036101000a0380198251168184511680821785525050505050509050019150509081526020016040518091039020836040518082805190602001908083835b6020831015156111695780518252602082019150602081019050602083039250611144565b6001836020036101000a038019825116818451168082178552505050505050905001915050908152602001604051809103902090805190602001906111af929190612be2565b50505050565b6000809054906101000a900473ffffffffffffffffffffffffffffffffffffffff1673ffffffffffffffffffffffffffffffffffffffff163373ffffffffffffffffffffffffffffffffffffffff1614151561121057600080fd5b61121981611a4d565b50565b60606001836040518082805190602001908083835b6020831015156112565780518252602082019150602081019050602083039250611231565b6001836020036101000a0380198251168184511680821785525050505050509050019150509081526020016040518091039020826040518082805190602001908083835b6020831015156112bf578051825260208201915060208101905060208303925061129a565b6001836020036101000a03801982511681845116808217855250505050505090500191505090815260200160405180910390208054600181600116156101000203166002900480601f0160208091040260200160405190810160405280929190818152602001828054600181600116156101000203166002900480156113865780601f1061135b57610100808354040283529160200191611386565b820191906000526020600020905b81548152906001019060200180831161136957829003601f168201915b5050505050905092915050565b606080600060606000808614156113e1576040805190810160405280600181526020017f300000000000000000000000000000000000000000000000000000000000000081525094506115ac565b60206040519080825280601f01601f1916602001820160405280156114155781602001602082028038833980820191505090505b509350600092505b60008611156114b2576030600a8781151561143457fe5b06017f010000000000000000000000000000000000000000000000000000000000000002848481518110151561146657fe5b9060200101907effffffffffffffffffffffffffffffffffffffffffffffffffffffffffffff1916908160001a905350600a868115156114a257fe5b049550828060010193505061141d565b82806001900393506040519080825280601f01601f1916602001820160405280156114ec5781602001602082028038833980820191505090505b509150600090505b81518110156115a85783838060019003945081518110151561151257fe5b9060200101517f010000000000000000000000000000000000000000000000000000000000000090047f010000000000000000000000000000000000000000000000000000000000000002828281518110151561156b57fe5b9060200101907effffffffffffffffffffffffffffffffffffffffffffffffffffffffffffff1916908160001a90535080806001019150506114f4565b8194505b50505050919050565b6115bd612c62565b60a060405190810160405280600015158152602001600073ffffffffffffffffffffffffffffffffffffffff16815260200160206040519081016040528060008152508152602001602060405190810160405280600081525081526020016020604051908101604052806000815250815250905090565b61163c612caa565b606060405190810160405280600015158152602001600060405190808252806020026020018201604052801561168c57816020015b611679612cce565b8152602001906001900390816116715790505b50815260200160006040519080825280602002602001820160405280156116c757816020015b60608152602001906001900390816116b25790505b50815250905090565b60608060006040805190810160405280600a81526020017f7b227469746c65223a2200000000000000000000000000000000000000000000815250915061173461171d8560000151611b47565b61172684611b47565b611b7590919063ffffffff16565b915061178e6117776040805190810160405280600f81526020017f222c2273686f727444657363223a220000000000000000000000000000000000815250611b47565b61178084611b47565b611b7590919063ffffffff16565b91506117b76117a08560200151611b47565b6117a984611b47565b611b7590919063ffffffff16565b91506118116117fa6040805190810160405280600e81526020017f222c226c6f6e6744657363223a22000000000000000000000000000000000000815250611b47565b61180384611b47565b611b7590919063ffffffff16565b915061183a6118238560400151611b47565b61182c84611b47565b611b7590919063ffffffff16565b915061189461187d6040805190810160405280600a81526020017f222c227769647468223a00000000000000000000000000000000000000000000815250611b47565b61188684611b47565b611b7590919063ffffffff16565b91506118c56118ae6118a98660600151611393565b611b47565b6118b784611b47565b611b7590919063ffffffff16565b915061191f6119086040805190810160405280600d81526020017f2c22656c656d656e7473223a5b00000000000000000000000000000000000000815250611b47565b61191184611b47565b611b7590919063ffffffff16565b9150600090505b8360800151518110156119ec5760008111156119975761199461197d6040805190810160405280600181526020017f2c00000000000000000000000000000000000000000000000000000000000000815250611b47565b61198684611b47565b611b7590919063ffffffff16565b91505b6119dd6119c66119c18660800151848151811015156119b257fe5b90602001906020020151611bf7565b611b47565b6119cf84611b47565b611b7590919063ffffffff16565b91508080600101915050611926565b611a44611a2d6040805190810160405280600281526020017f5d7d000000000000000000000000000000000000000000000000000000000000815250611b47565b611a3684611b47565b611b7590919063ffffffff16565b92505050919050565b600073ffffffffffffffffffffffffffffffffffffffff168173ffffffffffffffffffffffffffffffffffffffff1614151515611a8957600080fd5b8073ffffffffffffffffffffffffffffffffffffffff166000809054906101000a900473ffffffffffffffffffffffffffffffffffffffff1673ffffffffffffffffffffffffffffffffffffffff167f8be0079c531659141344cd1fd0a4f28419497f9722a3daafe3b4186f6b6457e060405160405180910390a3806000806101000a81548173ffffffffffffffffffffffffffffffffffffffff021916908373ffffffffffffffffffffffffffffffffffffffff16021790555050565b611b4f612d07565b600060208301905060408051908101604052808451815260200182815250915050919050565b606080600083600001518560000151016040519080825280601f01601f191660200182016040528015611bb75781602001602082028038833980820191505090505b509150602082019050611bd3818660200151876000015161201a565b611bec856000015182018560200151866000015161201a565b819250505092915050565b606080826000015115611fdb576040805190810160405280600781526020017f7b226964223a22000000000000000000000000000000000000000000000000008152509050611c63611c4c8460200151611b47565b611c5583611b47565b611b7590919063ffffffff16565b9050611cbd611ca66040805190810160405280600181526020017f2200000000000000000000000000000000000000000000000000000000000000815250611b47565b611caf83611b47565b611b7590919063ffffffff16565b90508260a001516000015115611d5957611d25611d0e6040805190810160405280600b81526020017f2c2022616374696f6e223a000000000000000000000000000000000000000000815250611b47565b611d1783611b47565b611b7590919063ffffffff16565b9050611d56611d3f611d3a8560a00151612065565b611b47565b611d4883611b47565b611b7590919063ffffffff16565b90505b8260c001516000015115611df357611dbf611da86040805190810160405280600a81526020017f2c20227461626c65223a00000000000000000000000000000000000000000000815250611b47565b611db183611b47565b611b7590919063ffffffff16565b9050611df0611dd9611dd48560c00151612318565b611b47565b611de283611b47565b611b7590919063ffffffff16565b90505b611e4b611e346040805190810160405280600981526020017f2c2274797065223a220000000000000000000000000000000000000000000000815250611b47565b611e3d83611b47565b611b7590919063ffffffff16565b9050611e74611e5d8460400151611b47565b611e6683611b47565b611b7590919063ffffffff16565b9050611ece611eb76040805190810160405280600b81526020017f222c226c6162656c223a22000000000000000000000000000000000000000000815250611b47565b611ec083611b47565b611b7590919063ffffffff16565b9050611ef7611ee08460600151611b47565b611ee983611b47565b611b7590919063ffffffff16565b9050611f51611f3a6040805190810160405280600981526020017f222c2264617461223a0000000000000000000000000000000000000000000000815250611b47565b611f4383611b47565b611b7590919063ffffffff16565b9050611f7a611f638460800151611b47565b611f6c83611b47565b611b7590919063ffffffff16565b9050611fd4611fbd6040805190810160405280600181526020017f7d00000000000000000000000000000000000000000000000000000000000000815250611b47565b611fc683611b47565b611b7590919063ffffffff16565b9150612014565b6040805190810160405280600481526020017f6e756c6c0000000000000000000000000000000000000000000000000000000081525091505b50919050565b60005b602082101515612042578251845260208401935060208301925060208203915061201d565b6001826020036101000a0390508019835116818551168181178652505050505050565b6060808260000151156122d9576040805190810160405280600c81526020017f7b2261646472657373223a22000000000000000000000000000000000000000081525090506120ef6120d86120d3856020015173ffffffffffffffffffffffffffffffffffffffff166125fc565b611b47565b6120e183611b47565b611b7590919063ffffffff16565b90506121496121326040805190810160405280601681526020017f222c2266756e6374696f6e53656c6563746f72223a2200000000000000000000815250611b47565b61213b83611b47565b611b7590919063ffffffff16565b905061217261215b8460400151611b47565b61216483611b47565b611b7590919063ffffffff16565b90506121cc6121b56040805190810160405280600e81526020017f222c22617267756d656e7473223a000000000000000000000000000000000000815250611b47565b6121be83611b47565b611b7590919063ffffffff16565b90506121f56121de8460600151611b47565b6121e783611b47565b611b7590919063ffffffff16565b905061224f6122386040805190810160405280600c81526020017f2c22636f6e6669726d223a220000000000000000000000000000000000000000815250611b47565b61224183611b47565b611b7590919063ffffffff16565b90506122786122618460800151611b47565b61226a83611b47565b611b7590919063ffffffff16565b90506122d26122bb6040805190810160405280600281526020017f227d000000000000000000000000000000000000000000000000000000000000815250611b47565b6122c483611b47565b611b7590919063ffffffff16565b9150612312565b6040805190810160405280600481526020017f6e756c6c0000000000000000000000000000000000000000000000000000000081525091505b50919050565b6060806000808460000151156125bb576040805190810160405280600c81526020017f7b22636f6c756d6e73223a5b0000000000000000000000000000000000000000815250925060009150600090505b8460200151518110156124355760008211156123da576123d76123c06040805190810160405280600181526020017f2c00000000000000000000000000000000000000000000000000000000000000815250611b47565b6123c985611b47565b611b7590919063ffffffff16565b92505b6124206124096124048760200151848151811015156123f557fe5b90602001906020020151612805565b611b47565b61241285611b47565b611b7590919063ffffffff16565b92506001820191508080600101915050612369565b61248d6124766040805190810160405280600a81526020017f5d2c22726f7773223a5b00000000000000000000000000000000000000000000815250611b47565b61247f85611b47565b611b7590919063ffffffff16565b925060009150600090505b84604001515181101561255c576000821115612509576125066124ef6040805190810160405280600181526020017f2c00000000000000000000000000000000000000000000000000000000000000815250611b47565b6124f885611b47565b611b7590919063ffffffff16565b92505b61254761253086604001518381518110151561252157fe5b90602001906020020151611b47565b61253985611b47565b611b7590919063ffffffff16565b92506001820191508080600101915050612498565b6125b461259d6040805190810160405280600281526020017f5d7d000000000000000000000000000000000000000000000000000000000000815250611b47565b6125a685611b47565b611b7590919063ffffffff16565b93506125f4565b6040805190810160405280600481526020017f6e756c6c0000000000000000000000000000000000000000000000000000000081525093505b505050919050565b6060806000806000602a6040519080825280601f01601f1916602001820160405280156126385781602001602082028038833980820191505090505b50935060307f01000000000000000000000000000000000000000000000000000000000000000284600081518110151561266e57fe5b9060200101907effffffffffffffffffffffffffffffffffffffffffffffffffffffffffffff1916908160001a90535060787f0100000000000000000000000000000000000000000000000000000000000000028460018151811015156126d157fe5b9060200101907effffffffffffffffffffffffffffffffffffffffffffffffffffffffffffff1916908160001a905350859250600091505b60288210156127f957603060108473ffffffffffffffffffffffffffffffffffffffff1681151561273657fe5b0601905060398173ffffffffffffffffffffffffffffffffffffffff161115612760576027810190505b807f010000000000000000000000000000000000000000000000000000000000000002846001846028030181518110151561279757fe5b9060200101907effffffffffffffffffffffffffffffffffffffffffffffffffffffffffffff1916908160001a90535060108373ffffffffffffffffffffffffffffffffffffffff168115156127e957fe5b0492508180600101925050612709565b83945050505050919050565b606080826000015115612b26576040805190810160405280600781526020017f7b226964223a2200000000000000000000000000000000000000000000000000815250905061287161285a8460200151611b47565b61286383611b47565b611b7590919063ffffffff16565b90506128cb6128b46040805190810160405280600181526020017f2200000000000000000000000000000000000000000000000000000000000000815250611b47565b6128bd83611b47565b611b7590919063ffffffff16565b9050826080015160000151156129c15761293361291c6040805190810160405280600181526020017f2c00000000000000000000000000000000000000000000000000000000000000815250611b47565b61292583611b47565b611b7590919063ffffffff16565b905061298d6129766040805190810160405280600981526020017f22616374696f6e223a0000000000000000000000000000000000000000000000815250611b47565b61297f83611b47565b611b7590919063ffffffff16565b90506129be6129a76129a28560800151612065565b611b47565b6129b083611b47565b611b7590919063ffffffff16565b90505b612a19612a026040805190810160405280600981526020017f2c2274797065223a220000000000000000000000000000000000000000000000815250611b47565b612a0b83611b47565b611b7590919063ffffffff16565b9050612a42612a2b8460400151611b47565b612a3483611b47565b611b7590919063ffffffff16565b9050612a9c612a856040805190810160405280600b81526020017f222c226c6162656c223a22000000000000000000000000000000000000000000815250611b47565b612a8e83611b47565b611b7590919063ffffffff16565b9050612ac5612aae8460600151611b47565b612ab783611b47565b611b7590919063ffffffff16565b9050612b1f612b086040805190810160405280600281526020017f227d000000000000000000000000000000000000000000000000000000000000815250611b47565b612b1183611b47565b611b7590919063ffffffff16565b9150612b5f565b6040805190810160405280600481526020017f6e756c6c0000000000000000000000000000000000000000000000000000000081525091505b50919050565b60a06040519081016040528060608152602001606081526020016060815260200160008152602001606081525090565b6101a06040519081016040528060001515815260200160608152602001606081526020016060815260200160608152602001612bcf612d21565b8152602001612bdc612d69565b81525090565b828054600181600116156101000203166002900490600052602060002090601f016020900481019282601f10612c2357805160ff1916838001178555612c51565b82800160010185558215612c51579182015b82811115612c50578251825591602001919060010190612c35565b5b509050612c5e9190612d8d565b5090565b60a060405190810160405280600015158152602001600073ffffffffffffffffffffffffffffffffffffffff1681526020016060815260200160608152602001606081525090565b60606040519081016040528060001515815260200160608152602001606081525090565b61012060405190810160405280600015158152602001606081526020016060815260200160608152602001612d01612d21565b81525090565b604080519081016040528060008152602001600081525090565b60a060405190810160405280600015158152602001600073ffffffffffffffffffffffffffffffffffffffff1681526020016060815260200160608152602001606081525090565b60606040519081016040528060001515815260200160608152602001606081525090565b612daf91905b80821115612dab576000816000905550600101612d93565b5090565b905600a165627a7a7230582021eab5d8e4bd98dc5e30f375b619bb65eb27a76702eb85ac8844efdf2164e1d50029",
  "source": "pragma solidity ^0.4.24;\n\nimport \"./ERC20SaleWidgetRenderer.sol\";\nimport \"tokenboost-solidity/contracts/widget/Widgets.sol\";\n\ncontract FundsRaisedWidgetRenderer is ERC20SaleWidgetRenderer {\n    using Widgets for Widgets.Widget;\n    using UintUtils for uint;\n\n    string public constant FUNDS_RAISED = \"funds_raised\";\n    string public constant SHORT_DESC = \"short_desc\";\n    string public constant LONG_DESC = \"long_desc\";\n\n    function render(string _locale, ERC20Sale _sale) public view returns (string) {\n        Elements.Element[] memory elements = new Elements.Element[](1);\n        elements[0] = Elements.Element(\n            true,\n            FUNDS_RAISED,\n            \"eth\",\n            resources[_locale][FUNDS_RAISED],\n            _sale.weiRaised().toString(),\n            Actions.empty(),\n            Tables.empty()\n        );\n        Widgets.Widget memory widget = Widgets.Widget(\n            resources[_locale][FUNDS_RAISED],\n            resources[_locale][SHORT_DESC],\n            resources[_locale][LONG_DESC],\n            4,\n            elements\n        );\n        return widget.toJson();\n    }\n}\n",
  "sourcePath": "/Users/yoonjae/SolidityProjects/tokenboost-solidity-erc20sale/contracts/sale/erc20/widget/FundsRaisedWidgetRenderer.sol",
  "compiler": {
    "name": "solc",
    "version": "0.4.24+commit.e67f0147.Emscripten.clang"
  },
  "schemaVersion": "2.0.1",
  "updatedAt": "2018-10-07T19:36:40.445Z"
}