{
  "contractName": "MyInvestmentWidgetRenderer",
  "abi": [
    {
      "constant": true,
      "inputs": [],
      "name": "TOKENS_BOUGHT",
      "outputs": [
        {
          "name": "",
          "type": "string"
        }
      ],
      "payable": false,
      "stateMutability": "view",
      "type": "function"
    },
    {
      "constant": true,
      "inputs": [],
      "name": "ETHS_INVESTED",
      "outputs": [
        {
          "name": "",
          "type": "string"
        }
      ],
      "payable": false,
      "stateMutability": "view",
      "type": "function"
    },
    {
      "constant": false,
      "inputs": [],
      "name": "renounceOwnership",
      "outputs": [],
      "payable": false,
      "stateMutability": "nonpayable",
      "type": "function"
    },
    {
      "constant": true,
      "inputs": [],
      "name": "SHORT_DESC",
      "outputs": [
        {
          "name": "",
          "type": "string"
        }
      ],
      "payable": false,
      "stateMutability": "view",
      "type": "function"
    },
    {
      "constant": true,
      "inputs": [],
      "name": "owner",
      "outputs": [
        {
          "name": "",
          "type": "address"
        }
      ],
      "payable": false,
      "stateMutability": "view",
      "type": "function"
    },
    {
      "constant": true,
      "inputs": [],
      "name": "LONG_DESC",
      "outputs": [
        {
          "name": "",
          "type": "string"
        }
      ],
      "payable": false,
      "stateMutability": "view",
      "type": "function"
    },
    {
      "constant": true,
      "inputs": [],
      "name": "MY_INVESTMENT",
      "outputs": [
        {
          "name": "",
          "type": "string"
        }
      ],
      "payable": false,
      "stateMutability": "view",
      "type": "function"
    },
    {
      "constant": false,
      "inputs": [
        {
          "name": "locale",
          "type": "string"
        },
        {
          "name": "key",
          "type": "string"
        },
        {
          "name": "value",
          "type": "string"
        }
      ],
      "name": "setResource",
      "outputs": [],
      "payable": false,
      "stateMutability": "nonpayable",
      "type": "function"
    },
    {
      "constant": false,
      "inputs": [
        {
          "name": "_newOwner",
          "type": "address"
        }
      ],
      "name": "transferOwnership",
      "outputs": [],
      "payable": false,
      "stateMutability": "nonpayable",
      "type": "function"
    },
    {
      "constant": true,
      "inputs": [
        {
          "name": "locale",
          "type": "string"
        },
        {
          "name": "key",
          "type": "string"
        }
      ],
      "name": "resource",
      "outputs": [
        {
          "name": "",
          "type": "string"
        }
      ],
      "payable": false,
      "stateMutability": "view",
      "type": "function"
    },
    {
      "anonymous": false,
      "inputs": [
        {
          "indexed": true,
          "name": "previousOwner",
          "type": "address"
        }
      ],
      "name": "OwnershipRenounced",
      "type": "event"
    },
    {
      "anonymous": false,
      "inputs": [
        {
          "indexed": true,
          "name": "previousOwner",
          "type": "address"
        },
        {
          "indexed": true,
          "name": "newOwner",
          "type": "address"
        }
      ],
      "name": "OwnershipTransferred",
      "type": "event"
    },
    {
      "constant": true,
      "inputs": [
        {
          "name": "_locale",
          "type": "string"
        },
        {
          "name": "_sale",
          "type": "address"
        }
      ],
      "name": "render",
      "outputs": [
        {
          "name": "",
          "type": "string"
        }
      ],
      "payable": false,
      "stateMutability": "view",
      "type": "function"
    }
  ],
  "bytecode": "0x608060405260008054600160a060020a03191633179055612524806100256000396000f3006080604052600436106100955763ffffffff60e060020a6000350416633750e05a811461009a578063604fb92b14610124578063715018a6146101395780638b582712146101505780638da5cb5b14610165578063ac5c6e1214610196578063ca1a70be146101ab578063d32152ed1461020f578063ed3487fe14610224578063f2fde38b146102f9578063f65a5c1b1461031a575b600080fd5b3480156100a657600080fd5b506100af6103b1565b6040805160208082528351818301528351919283929083019185019080838360005b838110156100e95781810151838201526020016100d1565b50505050905090810190601f1680156101165780820380516001836020036101000a031916815260200191505b509250505060405180910390f35b34801561013057600080fd5b506100af6103e8565b34801561014557600080fd5b5061014e61041f565b005b34801561015c57600080fd5b506100af61048b565b34801561017157600080fd5b5061017a6104c2565b60408051600160a060020a039092168252519081900360200190f35b3480156101a257600080fd5b506100af6104d1565b3480156101b757600080fd5b506040805160206004803580820135601f81018490048402850184019095528484526100af94369492936024939284019190819084018382808284375094975050509235600160a060020a0316935061050892505050565b34801561021b57600080fd5b506100af6110e7565b34801561023057600080fd5b506040805160206004803580820135601f810184900484028501840190955284845261014e94369492936024939284019190819084018382808284375050604080516020601f89358b018035918201839004830284018301909452808352979a99988101979196509182019450925082915084018382808284375050604080516020601f89358b018035918201839004830284018301909452808352979a99988101979196509182019450925082915084018382808284375094975061111e9650505050505050565b34801561030557600080fd5b5061014e600160a060020a036004351661120b565b34801561032657600080fd5b506040805160206004803580820135601f81018490048402850184019095528484526100af94369492936024939284019190819084018382808284375050604080516020601f89358b018035918201839004830284018301909452808352979a99988101979196509182019450925082915084018382808284375094975061122e9650505050505050565b60408051808201909152600d81527f746f6b656e735f626f7567687400000000000000000000000000000000000000602082015281565b60408051808201909152600d81527f657468735f696e76657374656400000000000000000000000000000000000000602082015281565b600054600160a060020a0316331461043657600080fd5b60008054604051600160a060020a03909116917ff8df31144d9c2f0f6b59d69b8b98abd5459d07f2742c4df920b25aae33c6482091a26000805473ffffffffffffffffffffffffffffffffffffffff19169055565b60408051808201909152600a81527f73686f72745f6465736300000000000000000000000000000000000000000000602082015281565b600054600160a060020a031681565b60408051808201909152600981527f6c6f6e675f646573630000000000000000000000000000000000000000000000602082015281565b60606000806060610517612349565b85600160a060020a031663fc0c546a6040518163ffffffff1660e060020a028152600401602060405180830381600087803b15801561055557600080fd5b505af1158015610569573d6000803e3d6000fd5b505050506040513d602081101561057f57600080fd5b5051604080517fcf7c2b310000000000000000000000000000000000000000000000000000000081523260048201529051919550600160a060020a0388169163cf7c2b31916024808201926020929091908290030181600087803b1580156105e657600080fd5b505af11580156105fa573d6000803e3d6000fd5b505050506040513d602081101561061057600080fd5b5051925060008311156110cb576040805160028082526060820190925290816020015b61063b612379565b81526020019060019003908161063357905050915060e0604051908101604052806001151581526020016040805190810160405280600d81526020017f657468735f696e7665737465640000000000000000000000000000000000000081525081526020016040805190810160405280600381526020017f657468000000000000000000000000000000000000000000000000000000000081525081526020016001896040518082805190602001908083835b6020831061070d5780518252601f1990920191602091820191016106ee565b51815160209384036101000a60001901801990921691161790529201948552506040805194859003820185208582018252600d8087527f657468735f696e7665737465640000000000000000000000000000000000000093870193845291519095945092508291908083835b602083106107985780518252601f199092019160209182019101610779565b518151600019602094850361010090810a820192831692199390931691909117909252949092019687526040805197889003820188208054601f600260018316159098029095011695909504928301829004820288018201905281875292945092505083018282801561084c5780601f106108215761010080835404028352916020019161084c565b820191906000526020600020905b81548152906001019060200180831161082f57829003601f168201915b5050505050815260200161085f8561137f565b815260200161086c6114de565b8152602001610879611531565b905282518390600090811061088a57fe5b9060200190602002018190525060e0604051908101604052806001151581526020016040805190810160405280600d81526020017f746f6b656e735f626f7567687400000000000000000000000000000000000000815250815260200161095c86600160a060020a031663313ce5676040518163ffffffff1660e060020a028152600401602060405180830381600087803b15801561092857600080fd5b505af115801561093c573d6000803e3d6000fd5b505050506040513d602081101561095257600080fd5b505160ff1661137f565b60405160200180807f746f6b656e00000000000000000000000000000000000000000000000000000081525060050182805190602001908083835b602083106109b65780518252601f199092019160209182019101610997565b6001836020036101000a03801982511681845116808217855250505050505090500191505060405160208183030381529060405281526020016001896040518082805190602001908083835b60208310610a215780518252601f199092019160209182019101610a02565b51815160209384036101000a60001901801990921691161790529201948552506040805194859003820185208582018252600d8087527f746f6b656e735f626f756768740000000000000000000000000000000000000093870193845291519095945092508291908083835b60208310610aac5780518252601f199092019160209182019101610a8d565b518151600019602094850361010090810a820192831692199390931691909117909252949092019687526040805197889003820188208054601f6002600183161590980290950116959095049283018290048202880182019052818752929450925050830182828015610b605780601f10610b3557610100808354040283529160200191610b60565b820191906000526020600020905b815481529060010190602001808311610b4357829003601f168201915b50505050508152602001610bf988600160a060020a03166397b150ca326040518263ffffffff1660e060020a0281526004018082600160a060020a0316600160a060020a03168152602001915050602060405180830381600087803b158015610bc857600080fd5b505af1158015610bdc573d6000803e3d6000fd5b505050506040513d6020811015610bf257600080fd5b505161137f565b8152602001610c066114de565b8152602001610c13611531565b9052825183906001908110610c2457fe5b9060200190602002018190525060a0604051908101604052806001896040518082805190602001908083835b60208310610c6f5780518252601f199092019160209182019101610c50565b51815160209384036101000a60001901801990921691161790529201948552506040805194859003820185208582018252600d8087527f6d795f696e766573746d656e740000000000000000000000000000000000000093870193845291519095945092508291908083835b60208310610cfa5780518252601f199092019160209182019101610cdb565b518151600019602094850361010090810a820192831692199390931691909117909252949092019687526040805197889003820188208054601f6002600183161590980290950116959095049283018290048202880182019052818752929450925050830182828015610dae5780601f10610d8357610100808354040283529160200191610dae565b820191906000526020600020905b815481529060010190602001808311610d9157829003601f168201915b505050505081526020016001896040518082805190602001908083835b60208310610dea5780518252601f199092019160209182019101610dcb565b51815160209384036101000a60001901801990921691161790529201948552506040805194859003820185208582018252600a8087527f73686f72745f646573630000000000000000000000000000000000000000000093870193845291519095945092508291908083835b60208310610e755780518252601f199092019160209182019101610e56565b518151600019602094850361010090810a820192831692199390931691909117909252949092019687526040805197889003820188208054601f6002600183161590980290950116959095049283018290048202880182019052818752929450925050830182828015610f295780601f10610efe57610100808354040283529160200191610f29565b820191906000526020600020905b815481529060010190602001808311610f0c57829003601f168201915b505050505081526020016001896040518082805190602001908083835b60208310610f655780518252601f199092019160209182019101610f46565b51815160209384036101000a6000190180199092169116179052920194855250604080519485900382018520858201825260098087527f6c6f6e675f64657363000000000000000000000000000000000000000000000093870193845291519095945092508291908083835b60208310610ff05780518252601f199092019160209182019101610fd1565b518151600019602094850361010090810a820192831692199390931691909117909252949092019687526040805197889003820188208054601f60026001831615909802909501169590950492830182900482028801820190528187529294509250508301828280156110a45780601f10611079576101008083540402835291602001916110a4565b820191906000526020600020905b81548152906001019060200180831161108757829003601f168201915b50505050508152602001600481526020018381525090506110c4816115be565b94506110dd565b60408051602081019091526000815294505b5050505092915050565b60408051808201909152600d81527f6d795f696e766573746d656e7400000000000000000000000000000000000000602082015281565b600054600160a060020a0316331461113557600080fd5b806001846040518082805190602001908083835b602083106111685780518252601f199092019160209182019101611149565b51815160209384036101000a6000190180199092169116179052920194855250604051938490038101842087519094889450925082918401908083835b602083106111c45780518252601f1990920191602091820191016111a5565b51815160209384036101000a6000190180199092169116179052920194855250604051938490038101909320845161120595919491909101925090506123c5565b50505050565b600054600160a060020a0316331461122257600080fd5b61122b8161182c565b50565b60606001836040518082805190602001908083835b602083106112625780518252601f199092019160209182019101611243565b51815160209384036101000a6000190180199092169116179052920194855250604051938490038101842086519094879450925082918401908083835b602083106112be5780518252601f19909201916020918201910161129f565b518151600019602094850361010090810a820192831692199390931691909117909252949092019687526040805197889003820188208054601f60026001831615909802909501169590950492830182900482028801820190528187529294509250508301828280156113725780601f1061134757610100808354040283529160200191611372565b820191906000526020600020905b81548152906001019060200180831161135557829003601f168201915b5050505050905092915050565b606080600081818515156113c85760408051808201909152600181527f3000000000000000000000000000000000000000000000000000000000000000602082015294506114d5565b6040805160208082528183019092529080820161040080388339019050509350600092505b600086111561143a57600a860660300160f860020a02848481518110151561141157fe5b906020010190600160f860020a031916908160001a905350600a860495506001909201916113ed565b60408051848152601f19601f8601168101602001909152600019840193801561146d578160200160208202803883390190505b509150600090505b81518110156114d15783516000198401938591811061149057fe5b90602001015160f860020a900460f860020a0282828151811015156114b157fe5b906020010190600160f860020a031916908160001a905350600101611475565b8194505b50505050919050565b6114e6612443565b506040805160a0810182526000808252602080830182905283518082018552828152838501528351808201855282815260608401528351908101909352825260808101919091525b90565b611539612470565b6040805160608101825260008082528251818152602081810190945291928301919061157b565b611568612494565b8152602001906001900390816115605790505b50815260200160006040519080825280602002602001820160405280156115b657816020015b60608152602001906001900390816115a15790505b509052905090565b60408051808201909152600a81527f7b227469746c65223a2200000000000000000000000000000000000000000000602082015281516060919060009061161d90611608906118a9565b611611846118a9565b9063ffffffff6118d216565b91506116606116086040805190810160405280600f81526020017f222c2273686f727444657363223a2200000000000000000000000000000000008152506118a9565b915061167261160885602001516118a9565b91506116b56116086040805190810160405280600e81526020017f222c226c6f6e6744657363223a220000000000000000000000000000000000008152506118a9565b91506116c761160885604001516118a9565b915061170a6116086040805190810160405280600a81526020017f222c227769647468223a000000000000000000000000000000000000000000008152506118a9565b915061172461160861171f866060015161137f565b6118a9565b91506117676116086040805190810160405280600d81526020017f2c22656c656d656e7473223a5b000000000000000000000000000000000000008152506118a9565b9150600090505b8360800151518110156117e35760008111156117af576117ac61160860408051908101604052806001815260200160fa60020a600b028152506118a9565b91505b6117d961160861171f8660800151848151811015156117ca57fe5b90602001906020020151611949565b915060010161176e565b6118246116086040805190810160405280600281526020017f5d7d0000000000000000000000000000000000000000000000000000000000008152506118a9565b949350505050565b600160a060020a038116151561184157600080fd5b60008054604051600160a060020a03808516939216917f8be0079c531659141344cd1fd0a4f28419497f9722a3daafe3b4186f6b6457e091a36000805473ffffffffffffffffffffffffffffffffffffffff1916600160a060020a0392909216919091179055565b6118b16124c7565b50604080518082019091528151815260208281019082018190525b50919050565b606080600083600001518560000151016040519080825280601f01601f19166020018201604052801561190f578160200160208202803883390190505b50915060208201905061192b8186602001518760000151611c37565b8451602085015185516119419284019190611c37565b509392505050565b606080826000015115611bfc576040805190810160405280600781526020017f7b226964223a220000000000000000000000000000000000000000000000000081525090506119a761199e84602001516118a9565b611611836118a9565b90506119ea61199e6040805190810160405280600181526020017f22000000000000000000000000000000000000000000000000000000000000008152506118a9565b60a08401515190915015611a5157611a3961199e6040805190810160405280600b81526020017f2c2022616374696f6e223a0000000000000000000000000000000000000000008152506118a9565b9050611a4e61199e61171f8560a00151611c7b565b90505b60c08301515115611ab557611a9d61199e6040805190810160405280600a81526020017f2c20227461626c65223a000000000000000000000000000000000000000000008152506118a9565b9050611ab261199e61171f8560c00151611e1e565b90505b611af661199e6040805190810160405280600981526020017f2c2274797065223a2200000000000000000000000000000000000000000000008152506118a9565b9050611b0861199e84604001516118a9565b9050611b4b61199e6040805190810160405280600b81526020017f222c226c6162656c223a220000000000000000000000000000000000000000008152506118a9565b9050611b5d61199e84606001516118a9565b9050611ba061199e6040805190810160405280600981526020017f222c2264617461223a00000000000000000000000000000000000000000000008152506118a9565b9050611bb261199e84608001516118a9565b9050611bf561199e6040805190810160405280600181526020017f7d000000000000000000000000000000000000000000000000000000000000008152506118a9565b91506118cc565b60408051808201909152600481527f6e756c6c00000000000000000000000000000000000000000000000000000000602082015291506118cc565b60005b60208210611c5c578251845260209384019390920191601f1990910190611c3a565b50905182516020929092036101000a6000190180199091169116179052565b606080826000015115611bfc576040805190810160405280600c81526020017f7b2261646472657373223a2200000000000000000000000000000000000000008152509050611cdc61199e61171f8560200151600160a060020a0316612035565b9050611d1f61199e6040805190810160405280601681526020017f222c2266756e6374696f6e53656c6563746f72223a22000000000000000000008152506118a9565b9050611d3161199e84604001516118a9565b9050611d7461199e6040805190810160405280600e81526020017f222c22617267756d656e7473223a0000000000000000000000000000000000008152506118a9565b9050611d8661199e84606001516118a9565b9050611dc961199e6040805190810160405280600c81526020017f2c22636f6e6669726d223a2200000000000000000000000000000000000000008152506118a9565b9050611ddb61199e84608001516118a9565b9050611bf561199e6040805190810160405280600281526020017f227d0000000000000000000000000000000000000000000000000000000000008152506118a9565b606080600080846000015115611ff657505060408051808201909152600c81527f7b22636f6c756d6e73223a5b0000000000000000000000000000000000000000602082015290506000805b846020015151811015611eec576000821115611eb457611eb1611ea860408051908101604052806001815260200160fa60020a600b028152506118a9565b611611856118a9565b92505b611ede611ea861171f876020015184815181101515611ecf57fe5b90602001906020020151612178565b925060019182019101611e6a565b611f2d611ea86040805190810160405280600a81526020017f5d2c22726f7773223a5b000000000000000000000000000000000000000000008152506118a9565b925060009150600090505b846040015151811015611fae576000821115611f7957611f76611ea860408051908101604052806001815260200160fa60020a600b028152506118a9565b92505b611fa0611ea8866040015183815181101515611f9157fe5b906020019060200201516118a9565b925060019182019101611f38565b611fef611ea86040805190810160405280600281526020017f5d7d0000000000000000000000000000000000000000000000000000000000008152506118a9565b935061202d565b60408051808201909152600481527f6e756c6c00000000000000000000000000000000000000000000000000000000602082015293505b505050919050565b60408051602a80825260608083019093528291600091829182916020820161054080388339505081519195507f300000000000000000000000000000000000000000000000000000000000000091869150600090811061209157fe5b906020010190600160f860020a031916908160001a90535083517f780000000000000000000000000000000000000000000000000000000000000090859060019081106120da57fe5b906020010190600160f860020a031916908160001a905350859250600091505b602882101561216e57506030600f8316016039600160a060020a0382161115612121576027015b8060f860020a02848360280360010181518110151561213c57fe5b906020010190600160f860020a031916908160001a9053506010600160a060020a0384160492506001909101906120fa565b5091949350505050565b606080826000015115611bfc576040805190810160405280600781526020017f7b226964223a220000000000000000000000000000000000000000000000000081525090506121cd61199e84602001516118a9565b905061221061199e6040805190810160405280600181526020017f22000000000000000000000000000000000000000000000000000000000000008152506118a9565b608084015151909150156122a15761224661199e60408051908101604052806001815260200160fa60020a600b028152506118a9565b905061228961199e6040805190810160405280600981526020017f22616374696f6e223a00000000000000000000000000000000000000000000008152506118a9565b905061229e61199e61171f8560800151611c7b565b90505b6122e261199e6040805190810160405280600981526020017f2c2274797065223a2200000000000000000000000000000000000000000000008152506118a9565b90506122f461199e84604001516118a9565b905061233761199e6040805190810160405280600b81526020017f222c226c6162656c223a220000000000000000000000000000000000000000008152506118a9565b9050611ddb61199e84606001516118a9565b60a06040519081016040528060608152602001606081526020016060815260200160008152602001606081525090565b6101a060405190810160405280600015158152602001606081526020016060815260200160608152602001606081526020016123b3612443565b81526020016123c0612470565b905290565b828054600181600116156101000203166002900490600052602060002090601f016020900481019282601f1061240657805160ff1916838001178555612433565b82800160010185558215612433579182015b82811115612433578251825591602001919060010190612418565b5061243f9291506124de565b5090565b6040805160a081018252600080825260208201526060918101829052818101829052608081019190915290565b60606040519081016040528060001515815260200160608152602001606081525090565b610120604051908101604052806000151581526020016060815260200160608152602001606081526020016123c0612443565b604080518082019091526000808252602082015290565b61152e91905b8082111561243f57600081556001016124e45600a165627a7a723058200b3b70d31ffcfec54af65378401e8c6d9e4215a789abe175ba7f36aa7850bcff0029",
  "source": "pragma solidity ^0.4.24;\n\nimport \"./ERC20SaleWidgetRenderer.sol\";\nimport \"tokenboost-solidity/contracts/widget/Widgets.sol\";\nimport \"zeppelin-solidity/contracts/token/ERC20/DetailedERC20.sol\";\n\ncontract MyInvestmentWidgetRenderer is ERC20SaleWidgetRenderer {\n    using Widgets for Widgets.Widget;\n    using UintUtils for uint;\n\n    string public constant MY_INVESTMENT = \"my_investment\";\n    string public constant SHORT_DESC = \"short_desc\";\n    string public constant LONG_DESC = \"long_desc\";\n    string public constant ETHS_INVESTED = \"eths_invested\";\n    string public constant TOKENS_BOUGHT = \"tokens_bought\";\n\n    function render(string _locale, ERC20Sale _sale) public view returns (string) {\n        DetailedERC20 token = DetailedERC20(_sale.token());\n        uint256 payment = _sale.paymentOf(tx.origin);\n        if (payment > 0) {\n            Elements.Element[] memory elements = new Elements.Element[](2);\n            elements[0] = Elements.Element(\n                true,\n                ETHS_INVESTED,\n                \"eth\",\n                resources[_locale][ETHS_INVESTED],\n                payment.toString(),\n                Actions.empty(),\n                Tables.empty()\n            );\n            elements[1] = Elements.Element(\n                true,\n                TOKENS_BOUGHT,\n                string(abi.encodePacked(\"token\", uint256(token.decimals()).toString())),\n                resources[_locale][TOKENS_BOUGHT],\n                _sale.tokenAmountOf(tx.origin).toString(),\n                Actions.empty(),\n                Tables.empty()\n            );\n            Widgets.Widget memory widget = Widgets.Widget(\n                resources[_locale][MY_INVESTMENT],\n                resources[_locale][SHORT_DESC],\n                resources[_locale][LONG_DESC],\n                4,\n                elements\n            );\n            return widget.toJson();\n        } else {\n            return \"\";\n        }\n    }\n}\n",
  "sourcePath": "/Users/yoonjae/SolidityProjects/tokenboost-solidity-erc20sale/contracts/sale/erc20/widget/MyInvestmentWidgetRenderer.sol",
  "compiler": {
    "name": "solc",
    "version": "0.4.24+commit.e67f0147.Emscripten.clang"
  },
  "schemaVersion": "2.0.1",
  "updatedAt": "2018-12-27T19:56:06.356Z"
}