{
  "contractName": "MyInvestmentWidgetRenderer",
  "abi": [
    {
      "constant": true,
      "inputs": [],
      "name": "ETHS_INVESTED",
      "outputs": [
        {
          "name": "",
          "type": "string"
        }
      ],
      "payable": false,
      "stateMutability": "view",
      "type": "function"
    },
    {
      "constant": false,
      "inputs": [],
      "name": "renounceOwnership",
      "outputs": [],
      "payable": false,
      "stateMutability": "nonpayable",
      "type": "function"
    },
    {
      "constant": true,
      "inputs": [],
      "name": "SHORT_DESC",
      "outputs": [
        {
          "name": "",
          "type": "string"
        }
      ],
      "payable": false,
      "stateMutability": "view",
      "type": "function"
    },
    {
      "constant": true,
      "inputs": [],
      "name": "owner",
      "outputs": [
        {
          "name": "",
          "type": "address"
        }
      ],
      "payable": false,
      "stateMutability": "view",
      "type": "function"
    },
    {
      "constant": true,
      "inputs": [],
      "name": "LONG_DESC",
      "outputs": [
        {
          "name": "",
          "type": "string"
        }
      ],
      "payable": false,
      "stateMutability": "view",
      "type": "function"
    },
    {
      "constant": true,
      "inputs": [],
      "name": "MY_INVESTMENT",
      "outputs": [
        {
          "name": "",
          "type": "string"
        }
      ],
      "payable": false,
      "stateMutability": "view",
      "type": "function"
    },
    {
      "constant": false,
      "inputs": [
        {
          "name": "locale",
          "type": "string"
        },
        {
          "name": "key",
          "type": "string"
        },
        {
          "name": "value",
          "type": "string"
        }
      ],
      "name": "setResource",
      "outputs": [],
      "payable": false,
      "stateMutability": "nonpayable",
      "type": "function"
    },
    {
      "constant": false,
      "inputs": [
        {
          "name": "_newOwner",
          "type": "address"
        }
      ],
      "name": "transferOwnership",
      "outputs": [],
      "payable": false,
      "stateMutability": "nonpayable",
      "type": "function"
    },
    {
      "constant": true,
      "inputs": [
        {
          "name": "locale",
          "type": "string"
        },
        {
          "name": "key",
          "type": "string"
        }
      ],
      "name": "resource",
      "outputs": [
        {
          "name": "",
          "type": "string"
        }
      ],
      "payable": false,
      "stateMutability": "view",
      "type": "function"
    },
    {
      "anonymous": false,
      "inputs": [
        {
          "indexed": true,
          "name": "previousOwner",
          "type": "address"
        }
      ],
      "name": "OwnershipRenounced",
      "type": "event"
    },
    {
      "anonymous": false,
      "inputs": [
        {
          "indexed": true,
          "name": "previousOwner",
          "type": "address"
        },
        {
          "indexed": true,
          "name": "newOwner",
          "type": "address"
        }
      ],
      "name": "OwnershipTransferred",
      "type": "event"
    },
    {
      "constant": true,
      "inputs": [
        {
          "name": "_locale",
          "type": "string"
        },
        {
          "name": "_sale",
          "type": "address"
        }
      ],
      "name": "render",
      "outputs": [
        {
          "name": "",
          "type": "string"
        }
      ],
      "payable": false,
      "stateMutability": "view",
      "type": "function"
    }
  ],
  "bytecode": "0x608060405260008054600160a060020a031916331790556120db806100256000396000f3006080604052600436106100a35763ffffffff7c0100000000000000000000000000000000000000000000000000000000600035041663604fb92b81146100a8578063715018a6146101325780638b582712146101495780638da5cb5b1461015e578063ac5c6e121461018f578063ca1a70be146101a4578063d32152ed14610208578063ed3487fe1461021d578063f2fde38b146102f2578063f65a5c1b14610313575b600080fd5b3480156100b457600080fd5b506100bd6103aa565b6040805160208082528351818301528351919283929083019185019080838360005b838110156100f75781810151838201526020016100df565b50505050905090810190601f1680156101245780820380516001836020036101000a031916815260200191505b509250505060405180910390f35b34801561013e57600080fd5b506101476103e1565b005b34801561015557600080fd5b506100bd61044d565b34801561016a57600080fd5b50610173610484565b60408051600160a060020a039092168252519081900360200190f35b34801561019b57600080fd5b506100bd610493565b3480156101b057600080fd5b506040805160206004803580820135601f81018490048402850184019095528484526100bd94369492936024939284019190819084018382808284375094975050509235600160a060020a031693506104ca92505050565b34801561021457600080fd5b506100bd610c9e565b34801561022957600080fd5b506040805160206004803580820135601f810184900484028501840190955284845261014794369492936024939284019190819084018382808284375050604080516020601f89358b018035918201839004830284018301909452808352979a99988101979196509182019450925082915084018382808284375050604080516020601f89358b018035918201839004830284018301909452808352979a999881019791965091820194509250829150840183828082843750949750610cd59650505050505050565b3480156102fe57600080fd5b50610147600160a060020a0360043516610dc2565b34801561031f57600080fd5b506040805160206004803580820135601f81018490048402850184019095528484526100bd94369492936024939284019190819084018382808284375050604080516020601f89358b018035918201839004830284018301909452808352979a999881019791965091820194509250829150840183828082843750949750610de59650505050505050565b60408051808201909152600d81527f657468735f696e76657374656400000000000000000000000000000000000000602082015281565b600054600160a060020a031633146103f857600080fd5b60008054604051600160a060020a03909116917ff8df31144d9c2f0f6b59d69b8b98abd5459d07f2742c4df920b25aae33c6482091a26000805473ffffffffffffffffffffffffffffffffffffffff19169055565b60408051808201909152600a81527f73686f72745f6465736300000000000000000000000000000000000000000000602082015281565b600054600160a060020a031681565b60408051808201909152600981527f6c6f6e675f646573630000000000000000000000000000000000000000000000602082015281565b6060600060606104d8611f00565b604080517fcf7c2b310000000000000000000000000000000000000000000000000000000081523260048201529051600160a060020a0387169163cf7c2b319160248083019260209291908290030181600087803b15801561053957600080fd5b505af115801561054d573d6000803e3d6000fd5b505050506040513d602081101561056357600080fd5b505192506000831115610c835760408051600180825281830190925290816020015b61058d611f30565b81526020019060019003908161058557905050915060e0604051908101604052806001151581526020016040805190810160405280600d81526020017f657468735f696e7665737465640000000000000000000000000000000000000081525081526020016040805190810160405280600381526020017f657468000000000000000000000000000000000000000000000000000000000081525081526020016001886040518082805190602001908083835b6020831061065f5780518252601f199092019160209182019101610640565b51815160209384036101000a60001901801990921691161790529201948552506040805194859003820185208582018252600d8087527f657468735f696e7665737465640000000000000000000000000000000000000093870193845291519095945092508291908083835b602083106106ea5780518252601f1990920191602091820191016106cb565b518151600019602094850361010090810a820192831692199390931691909117909252949092019687526040805197889003820188208054601f600260018316159098029095011695909504928301829004820288018201905281875292945092505083018282801561079e5780601f106107735761010080835404028352916020019161079e565b820191906000526020600020905b81548152906001019060200180831161078157829003601f168201915b505050505081526020016107b185610f36565b81526020016107be611095565b81526020016107cb6110e8565b90528251839060009081106107dc57fe5b9060200190602002018190525060a0604051908101604052806001886040518082805190602001908083835b602083106108275780518252601f199092019160209182019101610808565b51815160209384036101000a60001901801990921691161790529201948552506040805194859003820185208582018252600d8087527f6d795f696e766573746d656e740000000000000000000000000000000000000093870193845291519095945092508291908083835b602083106108b25780518252601f199092019160209182019101610893565b518151600019602094850361010090810a820192831692199390931691909117909252949092019687526040805197889003820188208054601f60026001831615909802909501169590950492830182900482028801820190528187529294509250508301828280156109665780601f1061093b57610100808354040283529160200191610966565b820191906000526020600020905b81548152906001019060200180831161094957829003601f168201915b505050505081526020016001886040518082805190602001908083835b602083106109a25780518252601f199092019160209182019101610983565b51815160209384036101000a60001901801990921691161790529201948552506040805194859003820185208582018252600a8087527f73686f72745f646573630000000000000000000000000000000000000000000093870193845291519095945092508291908083835b60208310610a2d5780518252601f199092019160209182019101610a0e565b518151600019602094850361010090810a820192831692199390931691909117909252949092019687526040805197889003820188208054601f6002600183161590980290950116959095049283018290048202880182019052818752929450925050830182828015610ae15780601f10610ab657610100808354040283529160200191610ae1565b820191906000526020600020905b815481529060010190602001808311610ac457829003601f168201915b505050505081526020016001886040518082805190602001908083835b60208310610b1d5780518252601f199092019160209182019101610afe565b51815160209384036101000a6000190180199092169116179052920194855250604080519485900382018520858201825260098087527f6c6f6e675f64657363000000000000000000000000000000000000000000000093870193845291519095945092508291908083835b60208310610ba85780518252601f199092019160209182019101610b89565b518151600019602094850361010090810a820192831692199390931691909117909252949092019687526040805197889003820188208054601f6002600183161590980290950116959095049283018290048202880182019052818752929450925050830182828015610c5c5780601f10610c3157610100808354040283529160200191610c5c565b820191906000526020600020905b815481529060010190602001808311610c3f57829003601f168201915b5050505050815260200160048152602001838152509050610c7c81611175565b9350610c95565b60408051602081019091526000815293505b50505092915050565b60408051808201909152600d81527f6d795f696e766573746d656e7400000000000000000000000000000000000000602082015281565b600054600160a060020a03163314610cec57600080fd5b806001846040518082805190602001908083835b60208310610d1f5780518252601f199092019160209182019101610d00565b51815160209384036101000a6000190180199092169116179052920194855250604051938490038101842087519094889450925082918401908083835b60208310610d7b5780518252601f199092019160209182019101610d5c565b51815160209384036101000a60001901801990921691161790529201948552506040519384900381019093208451610dbc9591949190910192509050611f7c565b50505050565b600054600160a060020a03163314610dd957600080fd5b610de2816113e3565b50565b60606001836040518082805190602001908083835b60208310610e195780518252601f199092019160209182019101610dfa565b51815160209384036101000a6000190180199092169116179052920194855250604051938490038101842086519094879450925082918401908083835b60208310610e755780518252601f199092019160209182019101610e56565b518151600019602094850361010090810a820192831692199390931691909117909252949092019687526040805197889003820188208054601f6002600183161590980290950116959095049283018290048202880182019052818752929450925050830182828015610f295780601f10610efe57610100808354040283529160200191610f29565b820191906000526020600020905b815481529060010190602001808311610f0c57829003601f168201915b5050505050905092915050565b60608060008181851515610f7f5760408051808201909152600181527f30000000000000000000000000000000000000000000000000000000000000006020820152945061108c565b6040805160208082528183019092529080820161040080388339019050509350600092505b6000861115610ff157600a860660300160f860020a028484815181101515610fc857fe5b906020010190600160f860020a031916908160001a905350600a86049550600190920191610fa4565b60408051848152601f19601f86011681016020019091526000198401938015611024578160200160208202803883390190505b509150600090505b81518110156110885783516000198401938591811061104757fe5b90602001015160f860020a900460f860020a02828281518110151561106857fe5b906020010190600160f860020a031916908160001a90535060010161102c565b8194505b50505050919050565b61109d611ffa565b506040805160a0810182526000808252602080830182905283518082018552828152838501528351808201855282815260608401528351908101909352825260808101919091525b90565b6110f0612027565b60408051606081018252600080825282518181526020818101909452919283019190611132565b61111f61204b565b8152602001906001900390816111175790505b508152602001600060405190808252806020026020018201604052801561116d57816020015b60608152602001906001900390816111585790505b509052905090565b60408051808201909152600a81527f7b227469746c65223a220000000000000000000000000000000000000000000060208201528151606091906000906111d4906111bf90611460565b6111c884611460565b9063ffffffff61148916565b91506112176111bf6040805190810160405280600f81526020017f222c2273686f727444657363223a220000000000000000000000000000000000815250611460565b91506112296111bf8560200151611460565b915061126c6111bf6040805190810160405280600e81526020017f222c226c6f6e6744657363223a22000000000000000000000000000000000000815250611460565b915061127e6111bf8560400151611460565b91506112c16111bf6040805190810160405280600a81526020017f222c227769647468223a00000000000000000000000000000000000000000000815250611460565b91506112db6111bf6112d68660600151610f36565b611460565b915061131e6111bf6040805190810160405280600d81526020017f2c22656c656d656e7473223a5b00000000000000000000000000000000000000815250611460565b9150600090505b83608001515181101561139a576000811115611366576113636111bf60408051908101604052806001815260200160fa60020a600b02815250611460565b91505b6113906111bf6112d686608001518481518110151561138157fe5b90602001906020020151611500565b9150600101611325565b6113db6111bf6040805190810160405280600281526020017f5d7d000000000000000000000000000000000000000000000000000000000000815250611460565b949350505050565b600160a060020a03811615156113f857600080fd5b60008054604051600160a060020a03808516939216917f8be0079c531659141344cd1fd0a4f28419497f9722a3daafe3b4186f6b6457e091a36000805473ffffffffffffffffffffffffffffffffffffffff1916600160a060020a0392909216919091179055565b61146861207e565b50604080518082019091528151815260208281019082018190525b50919050565b606080600083600001518560000151016040519080825280601f01601f1916602001820160405280156114c6578160200160208202803883390190505b5091506020820190506114e281866020015187600001516117ee565b8451602085015185516114f892840191906117ee565b509392505050565b6060808260000151156117b3576040805190810160405280600781526020017f7b226964223a2200000000000000000000000000000000000000000000000000815250905061155e6115558460200151611460565b6111c883611460565b90506115a16115556040805190810160405280600181526020017f2200000000000000000000000000000000000000000000000000000000000000815250611460565b60a08401515190915015611608576115f06115556040805190810160405280600b81526020017f2c2022616374696f6e223a000000000000000000000000000000000000000000815250611460565b90506116056115556112d68560a00151611832565b90505b60c0830151511561166c576116546115556040805190810160405280600a81526020017f2c20227461626c65223a00000000000000000000000000000000000000000000815250611460565b90506116696115556112d68560c001516119d5565b90505b6116ad6115556040805190810160405280600981526020017f2c2274797065223a220000000000000000000000000000000000000000000000815250611460565b90506116bf6115558460400151611460565b90506117026115556040805190810160405280600b81526020017f222c226c6162656c223a22000000000000000000000000000000000000000000815250611460565b90506117146115558460600151611460565b90506117576115556040805190810160405280600981526020017f222c2264617461223a0000000000000000000000000000000000000000000000815250611460565b90506117696115558460800151611460565b90506117ac6115556040805190810160405280600181526020017f7d00000000000000000000000000000000000000000000000000000000000000815250611460565b9150611483565b60408051808201909152600481527f6e756c6c0000000000000000000000000000000000000000000000000000000060208201529150611483565b60005b60208210611813578251845260209384019390920191601f19909101906117f1565b50905182516020929092036101000a6000190180199091169116179052565b6060808260000151156117b3576040805190810160405280600c81526020017f7b2261646472657373223a22000000000000000000000000000000000000000081525090506118936115556112d68560200151600160a060020a0316611bec565b90506118d66115556040805190810160405280601681526020017f222c2266756e6374696f6e53656c6563746f72223a2200000000000000000000815250611460565b90506118e86115558460400151611460565b905061192b6115556040805190810160405280600e81526020017f222c22617267756d656e7473223a000000000000000000000000000000000000815250611460565b905061193d6115558460600151611460565b90506119806115556040805190810160405280600c81526020017f2c22636f6e6669726d223a220000000000000000000000000000000000000000815250611460565b90506119926115558460800151611460565b90506117ac6115556040805190810160405280600281526020017f227d000000000000000000000000000000000000000000000000000000000000815250611460565b606080600080846000015115611bad57505060408051808201909152600c81527f7b22636f6c756d6e73223a5b0000000000000000000000000000000000000000602082015290506000805b846020015151811015611aa3576000821115611a6b57611a68611a5f60408051908101604052806001815260200160fa60020a600b02815250611460565b6111c885611460565b92505b611a95611a5f6112d6876020015184815181101515611a8657fe5b90602001906020020151611d2f565b925060019182019101611a21565b611ae4611a5f6040805190810160405280600a81526020017f5d2c22726f7773223a5b00000000000000000000000000000000000000000000815250611460565b925060009150600090505b846040015151811015611b65576000821115611b3057611b2d611a5f60408051908101604052806001815260200160fa60020a600b02815250611460565b92505b611b57611a5f866040015183815181101515611b4857fe5b90602001906020020151611460565b925060019182019101611aef565b611ba6611a5f6040805190810160405280600281526020017f5d7d000000000000000000000000000000000000000000000000000000000000815250611460565b9350611be4565b60408051808201909152600481527f6e756c6c00000000000000000000000000000000000000000000000000000000602082015293505b505050919050565b60408051602a80825260608083019093528291600091829182916020820161054080388339505081519195507f3000000000000000000000000000000000000000000000000000000000000000918691506000908110611c4857fe5b906020010190600160f860020a031916908160001a90535083517f78000000000000000000000000000000000000000000000000000000000000009085906001908110611c9157fe5b906020010190600160f860020a031916908160001a905350859250600091505b6028821015611d2557506030600f8316016039600160a060020a0382161115611cd8576027015b8060f860020a028483602803600101815181101515611cf357fe5b906020010190600160f860020a031916908160001a9053506010600160a060020a038416049250600190910190611cb1565b5091949350505050565b6060808260000151156117b3576040805190810160405280600781526020017f7b226964223a22000000000000000000000000000000000000000000000000008152509050611d846115558460200151611460565b9050611dc76115556040805190810160405280600181526020017f2200000000000000000000000000000000000000000000000000000000000000815250611460565b60808401515190915015611e5857611dfd61155560408051908101604052806001815260200160fa60020a600b02815250611460565b9050611e406115556040805190810160405280600981526020017f22616374696f6e223a0000000000000000000000000000000000000000000000815250611460565b9050611e556115556112d68560800151611832565b90505b611e996115556040805190810160405280600981526020017f2c2274797065223a220000000000000000000000000000000000000000000000815250611460565b9050611eab6115558460400151611460565b9050611eee6115556040805190810160405280600b81526020017f222c226c6162656c223a22000000000000000000000000000000000000000000815250611460565b90506119926115558460600151611460565b60a06040519081016040528060608152602001606081526020016060815260200160008152602001606081525090565b6101a06040519081016040528060001515815260200160608152602001606081526020016060815260200160608152602001611f6a611ffa565b8152602001611f77612027565b905290565b828054600181600116156101000203166002900490600052602060002090601f016020900481019282601f10611fbd57805160ff1916838001178555611fea565b82800160010185558215611fea579182015b82811115611fea578251825591602001919060010190611fcf565b50611ff6929150612095565b5090565b6040805160a081018252600080825260208201526060918101829052818101829052608081019190915290565b60606040519081016040528060001515815260200160608152602001606081525090565b61012060405190810160405280600015158152602001606081526020016060815260200160608152602001611f77611ffa565b604080518082019091526000808252602082015290565b6110e591905b80821115611ff6576000815560010161209b5600a165627a7a72305820f1054080e344ee76e03d5631523ea81a20a795220ef6875e93baf05c55ab38ca0029",
  "source": "pragma solidity ^0.4.24;\n\nimport \"./ERC20SaleWidgetRenderer.sol\";\nimport \"tokenboost-solidity/contracts/widget/Widgets.sol\";\n\ncontract MyInvestmentWidgetRenderer is ERC20SaleWidgetRenderer {\n    using Widgets for Widgets.Widget;\n    using UintUtils for uint;\n\n    string public constant MY_INVESTMENT = \"my_investment\";\n    string public constant SHORT_DESC = \"short_desc\";\n    string public constant LONG_DESC = \"long_desc\";\n    string public constant ETHS_INVESTED = \"eths_invested\";\n\n    function render(string _locale, ERC20Sale _sale) public view returns (string) {\n        uint256 payment = _sale.paymentOf(tx.origin);\n        if (payment > 0) {\n            Elements.Element[] memory elements = new Elements.Element[](1);\n            elements[0] = Elements.Element(\n                true,\n                ETHS_INVESTED,\n                \"eth\",\n                resources[_locale][ETHS_INVESTED],\n                payment.toString(),\n                Actions.empty(),\n                Tables.empty()\n            );\n            Widgets.Widget memory widget = Widgets.Widget(\n                resources[_locale][MY_INVESTMENT],\n                resources[_locale][SHORT_DESC],\n                resources[_locale][LONG_DESC],\n                4,\n                elements\n            );\n            return widget.toJson();\n        } else {\n            return \"\";\n        }\n    }\n}\n",
  "sourcePath": "/Users/yoonjae/SolidityProjects/tokenboost-solidity-erc20sale/contracts/sale/erc20/widget/MyInvestmentWidgetRenderer.sol",
  "compiler": {
    "name": "solc",
    "version": "0.4.24+commit.e67f0147.Emscripten.clang"
  },
  "schemaVersion": "2.0.1",
  "updatedAt": "2018-12-27T06:35:44.788Z"
}