{
  "contractName": "PurchasersStrategyRenderer",
  "abi": [
    {
      "constant": true,
      "inputs": [],
      "name": "PURCHASERS_SHORT_DESC",
      "outputs": [
        {
          "name": "",
          "type": "string"
        }
      ],
      "payable": false,
      "stateMutability": "view",
      "type": "function"
    },
    {
      "constant": true,
      "inputs": [],
      "name": "PURCHASERS",
      "outputs": [
        {
          "name": "",
          "type": "string"
        }
      ],
      "payable": false,
      "stateMutability": "view",
      "type": "function"
    },
    {
      "constant": true,
      "inputs": [],
      "name": "ETHS_INVESTED",
      "outputs": [
        {
          "name": "",
          "type": "string"
        }
      ],
      "payable": false,
      "stateMutability": "view",
      "type": "function"
    },
    {
      "constant": false,
      "inputs": [],
      "name": "renounceOwnership",
      "outputs": [],
      "payable": false,
      "stateMutability": "nonpayable",
      "type": "function"
    },
    {
      "constant": true,
      "inputs": [],
      "name": "PURCHASERS_LONG_DESC",
      "outputs": [
        {
          "name": "",
          "type": "string"
        }
      ],
      "payable": false,
      "stateMutability": "view",
      "type": "function"
    },
    {
      "constant": true,
      "inputs": [],
      "name": "owner",
      "outputs": [
        {
          "name": "",
          "type": "address"
        }
      ],
      "payable": false,
      "stateMutability": "view",
      "type": "function"
    },
    {
      "constant": true,
      "inputs": [],
      "name": "PURCHASER",
      "outputs": [
        {
          "name": "",
          "type": "string"
        }
      ],
      "payable": false,
      "stateMutability": "view",
      "type": "function"
    },
    {
      "constant": true,
      "inputs": [],
      "name": "TOKENS_PURCHASED",
      "outputs": [
        {
          "name": "",
          "type": "string"
        }
      ],
      "payable": false,
      "stateMutability": "view",
      "type": "function"
    },
    {
      "constant": false,
      "inputs": [
        {
          "name": "locale",
          "type": "string"
        },
        {
          "name": "key",
          "type": "string"
        },
        {
          "name": "value",
          "type": "string"
        }
      ],
      "name": "setResource",
      "outputs": [],
      "payable": false,
      "stateMutability": "nonpayable",
      "type": "function"
    },
    {
      "constant": false,
      "inputs": [
        {
          "name": "_newOwner",
          "type": "address"
        }
      ],
      "name": "transferOwnership",
      "outputs": [],
      "payable": false,
      "stateMutability": "nonpayable",
      "type": "function"
    },
    {
      "constant": true,
      "inputs": [
        {
          "name": "locale",
          "type": "string"
        },
        {
          "name": "key",
          "type": "string"
        }
      ],
      "name": "resource",
      "outputs": [
        {
          "name": "",
          "type": "string"
        }
      ],
      "payable": false,
      "stateMutability": "view",
      "type": "function"
    },
    {
      "anonymous": false,
      "inputs": [
        {
          "indexed": true,
          "name": "previousOwner",
          "type": "address"
        }
      ],
      "name": "OwnershipRenounced",
      "type": "event"
    },
    {
      "anonymous": false,
      "inputs": [
        {
          "indexed": true,
          "name": "previousOwner",
          "type": "address"
        },
        {
          "indexed": true,
          "name": "newOwner",
          "type": "address"
        }
      ],
      "name": "OwnershipTransferred",
      "type": "event"
    },
    {
      "constant": true,
      "inputs": [
        {
          "name": "_locale",
          "type": "string"
        },
        {
          "name": "_sale",
          "type": "address"
        }
      ],
      "name": "render",
      "outputs": [
        {
          "name": "",
          "type": "string"
        }
      ],
      "payable": false,
      "stateMutability": "view",
      "type": "function"
    }
  ],
  "bytecode": "0x608060405260008054600160a060020a03191633179055612b81806100256000396000f3006080604052600436106100a05763ffffffff60e060020a60003504166333d83a3e81146100a55780635bd9426a1461012f578063604fb92b14610144578063715018a6146101595780638b0b59fa146101705780638da5cb5b14610185578063c398b602146101b6578063ca1a70be146101cb578063e2dade281461022f578063ed3487fe14610244578063f2fde38b14610319578063f65a5c1b1461033a575b600080fd5b3480156100b157600080fd5b506100ba6103d1565b6040805160208082528351818301528351919283929083019185019080838360005b838110156100f45781810151838201526020016100dc565b50505050905090810190601f1680156101215780820380516001836020036101000a031916815260200191505b509250505060405180910390f35b34801561013b57600080fd5b506100ba610408565b34801561015057600080fd5b506100ba61042d565b34801561016557600080fd5b5061016e610464565b005b34801561017c57600080fd5b506100ba6104d0565b34801561019157600080fd5b5061019a610507565b60408051600160a060020a039092168252519081900360200190f35b3480156101c257600080fd5b506100ba610516565b3480156101d757600080fd5b506040805160206004803580820135601f81018490048402850184019095528484526100ba94369492936024939284019190819084018382808284375094975050509235600160a060020a0316935061054d92505050565b34801561023b57600080fd5b506100ba610c8c565b34801561025057600080fd5b506040805160206004803580820135601f810184900484028501840190955284845261016e94369492936024939284019190819084018382808284375050604080516020601f89358b018035918201839004830284018301909452808352979a99988101979196509182019450925082915084018382808284375050604080516020601f89358b018035918201839004830284018301909452808352979a999881019791965091820194509250829150840183828082843750949750610cc39650505050505050565b34801561032557600080fd5b5061016e600160a060020a0360043516610db0565b34801561034657600080fd5b506040805160206004803580820135601f81018490048402850184019095528484526100ba94369492936024939284019190819084018382808284375050604080516020601f89358b018035918201839004830284018301909452808352979a999881019791965091820194509250829150840183828082843750949750610dd39650505050505050565b60408051808201909152601581527f707572636861736572735f73686f72745f646573630000000000000000000000602082015281565b60408051808201909152600a8152600080516020612b36833981519152602082015281565b60408051808201909152600d81527f657468735f696e76657374656400000000000000000000000000000000000000602082015281565b600054600160a060020a0316331461047b57600080fd5b60008054604051600160a060020a03909116917ff8df31144d9c2f0f6b59d69b8b98abd5459d07f2742c4df920b25aae33c6482091a26000805473ffffffffffffffffffffffffffffffffffffffff19169055565b60408051808201909152601481527f707572636861736572735f6c6f6e675f64657363000000000000000000000000602082015281565b600054600160a060020a031681565b60408051808201909152600981527f7075726368617365720000000000000000000000000000000000000000000000602082015281565b606080610558612986565b60408051600180825281830190925290816020015b6105756129b6565b81526020019060019003908161056d57905050915060e0604051908101604052806001151581526020016040805190810160405280600a8152602001600080516020612b3683398151915281525081526020016040805190810160405280600581526020017f7461626c6500000000000000000000000000000000000000000000000000000081525081526020016001876040518082805190602001908083835b602083106106355780518252601f199092019160209182019101610616565b51815160209384036101000a60001901801990921691161790529201948552506040805194859003820185208582018252600a808752600080516020612b3683398151915293870193845291519095945092508291908083835b602083106106ae5780518252601f19909201916020918201910161068f565b518151600019602094850361010090810a820192831692199390931691909117909252949092019687526040805197889003820188208054601f60026001831615909802909501169590950492830182900482028801820190528187529294509250508301828280156107625780601f1061073757610100808354040283529160200191610762565b820191906000526020600020905b81548152906001019060200180831161074557829003601f168201915b505050505081526020016040805190810160405280600481526020017f6e756c6c0000000000000000000000000000000000000000000000000000000081525081526020016107af610f24565b81526020016060604051908101604052806001151581526020016107d38989610f77565b81526020016107e2898961173a565b905290528251839060009081106107f557fe5b9060200190602002018190525060a0604051908101604052806001876040518082805190602001908083835b602083106108405780518252601f199092019160209182019101610821565b51815160209384036101000a60001901801990921691161790529201948552506040805194859003820185208582018252600a808752600080516020612b3683398151915293870193845291519095945092508291908083835b602083106108b95780518252601f19909201916020918201910161089a565b518151600019602094850361010090810a820192831692199390931691909117909252949092019687526040805197889003820188208054601f600260018316159098029095011695909504928301829004820288018201905281875292945092505083018282801561096d5780601f106109425761010080835404028352916020019161096d565b820191906000526020600020905b81548152906001019060200180831161095057829003601f168201915b505050505081526020016001876040518082805190602001908083835b602083106109a95780518252601f19909201916020918201910161098a565b51815160209384036101000a6000190180199092169116179052920194855250604080519485900382018520858201825260158087527f707572636861736572735f73686f72745f64657363000000000000000000000093870193845291519095945092508291908083835b60208310610a345780518252601f199092019160209182019101610a15565b518151600019602094850361010090810a820192831692199390931691909117909252949092019687526040805197889003820188208054601f6002600183161590980290950116959095049283018290048202880182019052818752929450925050830182828015610ae85780601f10610abd57610100808354040283529160200191610ae8565b820191906000526020600020905b815481529060010190602001808311610acb57829003601f168201915b505050505081526020016001876040518082805190602001908083835b60208310610b245780518252601f199092019160209182019101610b05565b51815160209384036101000a6000190180199092169116179052920194855250604080519485900382018520858201825260148087527f707572636861736572735f6c6f6e675f6465736300000000000000000000000093870193845291519095945092508291908083835b60208310610baf5780518252601f199092019160209182019101610b90565b518151600019602094850361010090810a820192831692199390931691909117909252949092019687526040805197889003820188208054601f6002600183161590980290950116959095049283018290048202880182019052818752929450925050830182828015610c635780601f10610c3857610100808354040283529160200191610c63565b820191906000526020600020905b815481529060010190602001808311610c4657829003601f168201915b5050505050815260200160088152602001838152509050610c8381611ab6565b95945050505050565b60408051808201909152601081527f746f6b656e735f70757263686173656400000000000000000000000000000000602082015281565b600054600160a060020a03163314610cda57600080fd5b806001846040518082805190602001908083835b60208310610d0d5780518252601f199092019160209182019101610cee565b51815160209384036101000a6000190180199092169116179052920194855250604051938490038101842087519094889450925082918401908083835b60208310610d695780518252601f199092019160209182019101610d4a565b51815160209384036101000a60001901801990921691161790529201948552506040519384900381019093208451610daa9591949190910192509050612a02565b50505050565b600054600160a060020a03163314610dc757600080fd5b610dd081611d13565b50565b60606001836040518082805190602001908083835b60208310610e075780518252601f199092019160209182019101610de8565b51815160209384036101000a6000190180199092169116179052920194855250604051938490038101842086519094879450925082918401908083835b60208310610e635780518252601f199092019160209182019101610e44565b518151600019602094850361010090810a820192831692199390931691909117909252949092019687526040805197889003820188208054601f6002600183161590980290950116959095049283018290048202880182019052818752929450925050830182828015610f175780601f10610eec57610100808354040283529160200191610f17565b820191906000526020600020905b815481529060010190602001808311610efa57829003601f168201915b5050505050905092915050565b610f2c612a80565b506040805160a0810182526000808252602080830182905283518082018552828152838501528351808201855282815260608401528351908101909352825260808101919091525b90565b60606000606083600160a060020a031663fc0c546a6040518163ffffffff1660e060020a028152600401602060405180830381600087803b158015610fbb57600080fd5b505af1158015610fcf573d6000803e3d6000fd5b505050506040513d6020811015610fe557600080fd5b505160408051600380825260808201909252919350816020015b611007612aad565b815260200190600190039081610fff57905050905060a0604051908101604052806001151581526020016040805190810160405280600981526020017f707572636861736572000000000000000000000000000000000000000000000081525081526020016040805190810160405280600781526020017f616464726573730000000000000000000000000000000000000000000000000081525081526020016001876040518082805190602001908083835b602083106110d95780518252601f1990920191602091820191016110ba565b51815160209384036101000a6000190180199092169116179052920194855250604080519485900382018520858201825260098087527f707572636861736572000000000000000000000000000000000000000000000093870193845291519095945092508291908083835b602083106111645780518252601f199092019160209182019101611145565b518151600019602094850361010090810a820192831692199390931691909117909252949092019687526040805197889003820188208054601f60026001831615909802909501169590950492830182900482028801820190528187529294509250508301828280156112185780601f106111ed57610100808354040283529160200191611218565b820191906000526020600020905b8154815290600101906020018083116111fb57829003601f168201915b5050505050815260200161122a610f24565b905281518290600090811061123b57fe5b9060200190602002018190525060a0604051908101604052806001151581526020016040805190810160405280600d81526020017f657468735f696e7665737465640000000000000000000000000000000000000081525081526020016040805190810160405280600381526020017f657468000000000000000000000000000000000000000000000000000000000081525081526020016001876040518082805190602001908083835b602083106113055780518252601f1990920191602091820191016112e6565b51815160209384036101000a60001901801990921691161790529201948552506040805194859003820185208582018252600d8087527f657468735f696e7665737465640000000000000000000000000000000000000093870193845291519095945092508291908083835b602083106113905780518252601f199092019160209182019101611371565b518151600019602094850361010090810a820192831692199390931691909117909252949092019687526040805197889003820188208054601f60026001831615909802909501169590950492830182900482028801820190528187529294509250508301828280156114445780601f1061141957610100808354040283529160200191611444565b820191906000526020600020905b81548152906001019060200180831161142757829003601f168201915b50505050508152602001611456610f24565b905281518290600190811061146757fe5b9060200190602002018190525060a0604051908101604052806001151581526020016040805190810160405280601081526020017f746f6b656e735f70757263686173656400000000000000000000000000000000815250815260200161158e61154461153f86600160a060020a031663313ce5676040518163ffffffff1660e060020a028152600401602060405180830381600087803b15801561150b57600080fd5b505af115801561151f573d6000803e3d6000fd5b505050506040513d602081101561153557600080fd5b505160ff16611d90565b611eef565b6115826040805190810160405280600581526020017f746f6b656e000000000000000000000000000000000000000000000000000000815250611eef565b9063ffffffff611f1816565b81526020016001876040518082805190602001908083835b602083106115c55780518252601f1990920191602091820191016115a6565b51815160209384036101000a6000190180199092169116179052920194855250604080519485900382018520858201825260108087527f746f6b656e735f7075726368617365640000000000000000000000000000000093870193845291519095945092508291908083835b602083106116505780518252601f199092019160209182019101611631565b518151600019602094850361010090810a820192831692199390931691909117909252949092019687526040805197889003820188208054601f60026001831615909802909501169590950492830182900482028801820190528187529294509250508301828280156117045780601f106116d957610100808354040283529160200191611704565b820191906000526020600020905b8154815290600101906020018083116116e757829003601f168201915b50505050508152602001611716610f24565b905281518290600290811061172757fe5b6020908102909101015291505092915050565b606080600080606085600160a060020a031663580c2ae96040518163ffffffff1660e060020a028152600401602060405180830381600087803b15801561178057600080fd5b505af1158015611794573d6000803e3d6000fd5b505050506040513d60208110156117aa57600080fd5b50516040805182815260208084028201019091529080156117df57816020015b60608152602001906001900390816117ca5790505b509350600092505b8351831015611aab5785600160a060020a03166391c62b79846040518263ffffffff1660e060020a02815260040180828152602001915050602060405180830381600087803b15801561183957600080fd5b505af115801561184d573d6000803e3d6000fd5b505050506040513d602081101561186357600080fd5b505160408051808201909152600e81527f7b22707572636861736572223a22000000000000000000000000000000000000602082015290925090506118bf6118b661153f600160a060020a038516611f8f565b61158283611eef565b90506119026118b66040805190810160405280601281526020017f222c22657468735f696e766573746564223a0000000000000000000000000000815250611eef565b90506119996118b661153f88600160a060020a031663cf7c2b31866040518263ffffffff1660e060020a0281526004018082600160a060020a0316600160a060020a03168152602001915050602060405180830381600087803b15801561196857600080fd5b505af115801561197c573d6000803e3d6000fd5b505050506040513d602081101561199257600080fd5b5051611d90565b90506119dc6118b66040805190810160405280601481526020017f2c22746f6b656e735f707572636861736564223a000000000000000000000000815250611eef565b9050611a426118b661153f88600160a060020a03166397b150ca866040518263ffffffff1660e060020a0281526004018082600160a060020a0316600160a060020a03168152602001915050602060405180830381600087803b15801561196857600080fd5b9050611a856118b66040805190810160405280600181526020017f7d00000000000000000000000000000000000000000000000000000000000000815250611eef565b9050808484815181101515611a9657fe5b602090810290910101526001909201916117e7565b509195945050505050565b60408051808201909152600a81527f7b227469746c65223a22000000000000000000000000000000000000000000006020820152815160609190600090611b0990611b0090611eef565b61158284611eef565b9150611b4c611b006040805190810160405280600f81526020017f222c2273686f727444657363223a220000000000000000000000000000000000815250611eef565b9150611b5e611b008560200151611eef565b9150611ba1611b006040805190810160405280600e81526020017f222c226c6f6e6744657363223a22000000000000000000000000000000000000815250611eef565b9150611bb3611b008560400151611eef565b9150611bf6611b006040805190810160405280600a81526020017f222c227769647468223a00000000000000000000000000000000000000000000815250611eef565b9150611c0b611b0061153f8660600151611d90565b9150611c4e611b006040805190810160405280600d81526020017f2c22656c656d656e7473223a5b00000000000000000000000000000000000000815250611eef565b9150600090505b836080015151811015611cca576000811115611c9657611c93611b0060408051908101604052806001815260200160fa60020a600b02815250611eef565b91505b611cc0611b0061153f866080015184815181101515611cb157fe5b906020019060200201516120d2565b9150600101611c55565b611d0b611b006040805190810160405280600281526020017f5d7d000000000000000000000000000000000000000000000000000000000000815250611eef565b949350505050565b600160a060020a0381161515611d2857600080fd5b60008054604051600160a060020a03808516939216917f8be0079c531659141344cd1fd0a4f28419497f9722a3daafe3b4186f6b6457e091a36000805473ffffffffffffffffffffffffffffffffffffffff1916600160a060020a0392909216919091179055565b60608060008181851515611dd95760408051808201909152600181527f300000000000000000000000000000000000000000000000000000000000000060208201529450611ee6565b6040805160208082528183019092529080820161040080388339019050509350600092505b6000861115611e4b57600a860660300160f860020a028484815181101515611e2257fe5b906020010190600160f860020a031916908160001a905350600a86049550600190920191611dfe565b60408051848152601f19601f86011681016020019091526000198401938015611e7e578160200160208202803883390190505b509150600090505b8151811015611ee257835160001984019385918110611ea157fe5b90602001015160f860020a900460f860020a028282815181101515611ec257fe5b906020010190600160f860020a031916908160001a905350600101611e86565b8194505b50505050919050565b611ef7612ae0565b50604080518082019091528151815260208281019082018190525b50919050565b606080600083600001518560000151016040519080825280601f01601f191660200182016040528015611f55578160200160208202803883390190505b509150602082019050611f7181866020015187600001516123b7565b845160208501518551611f8792840191906123b7565b509392505050565b60408051602a80825260608083019093528291600091829182916020820161054080388339505081519195507f3000000000000000000000000000000000000000000000000000000000000000918691506000908110611feb57fe5b906020010190600160f860020a031916908160001a90535083517f7800000000000000000000000000000000000000000000000000000000000000908590600190811061203457fe5b906020010190600160f860020a031916908160001a905350859250600091505b60288210156120c857506030600f8316016039600160a060020a038216111561207b576027015b8060f860020a02848360280360010181518110151561209657fe5b906020010190600160f860020a031916908160001a9053506010600160a060020a038416049250600190910190612054565b5091949350505050565b60608082600001511561237c576040805190810160405280600781526020017f7b226964223a220000000000000000000000000000000000000000000000000081525090506121276118b68460200151611eef565b905061216a6118b66040805190810160405280600181526020017f2200000000000000000000000000000000000000000000000000000000000000815250611eef565b60a084015151909150156121d1576121b96118b66040805190810160405280600b81526020017f2c2022616374696f6e223a000000000000000000000000000000000000000000815250611eef565b90506121ce6118b661153f8560a001516123fb565b90505b60c083015151156122355761221d6118b66040805190810160405280600a81526020017f2c20227461626c65223a00000000000000000000000000000000000000000000815250611eef565b90506122326118b661153f8560c0015161259e565b90505b6122766118b66040805190810160405280600981526020017f2c2274797065223a220000000000000000000000000000000000000000000000815250611eef565b90506122886118b68460400151611eef565b90506122cb6118b66040805190810160405280600b81526020017f222c226c6162656c223a22000000000000000000000000000000000000000000815250611eef565b90506122dd6118b68460600151611eef565b90506123206118b66040805190810160405280600981526020017f222c2264617461223a0000000000000000000000000000000000000000000000815250611eef565b90506123326118b68460800151611eef565b90506123756118b66040805190810160405280600181526020017f7d00000000000000000000000000000000000000000000000000000000000000815250611eef565b9150611f12565b60408051808201909152600481527f6e756c6c0000000000000000000000000000000000000000000000000000000060208201529150611f12565b60005b602082106123dc578251845260209384019390920191601f19909101906123ba565b50905182516020929092036101000a6000190180199091169116179052565b60608082600001511561237c576040805190810160405280600c81526020017f7b2261646472657373223a220000000000000000000000000000000000000000815250905061245c6118b661153f8560200151600160a060020a0316611f8f565b905061249f6118b66040805190810160405280601681526020017f222c2266756e6374696f6e53656c6563746f72223a2200000000000000000000815250611eef565b90506124b16118b68460400151611eef565b90506124f46118b66040805190810160405280600e81526020017f222c22617267756d656e7473223a000000000000000000000000000000000000815250611eef565b90506125066118b68460600151611eef565b90506125496118b66040805190810160405280600c81526020017f2c22636f6e6669726d223a220000000000000000000000000000000000000000815250611eef565b905061255b6118b68460800151611eef565b90506123756118b66040805190810160405280600281526020017f227d000000000000000000000000000000000000000000000000000000000000815250611eef565b60608060008084600001511561277657505060408051808201909152600c81527f7b22636f6c756d6e73223a5b0000000000000000000000000000000000000000602082015290506000805b84602001515181101561266c5760008211156126345761263161262860408051908101604052806001815260200160fa60020a600b02815250611eef565b61158285611eef565b92505b61265e61262861153f87602001518481518110151561264f57fe5b906020019060200201516127b5565b9250600191820191016125ea565b6126ad6126286040805190810160405280600a81526020017f5d2c22726f7773223a5b00000000000000000000000000000000000000000000815250611eef565b925060009150600090505b84604001515181101561272e5760008211156126f9576126f661262860408051908101604052806001815260200160fa60020a600b02815250611eef565b92505b61272061262886604001518381518110151561271157fe5b90602001906020020151611eef565b9250600191820191016126b8565b61276f6126286040805190810160405280600281526020017f5d7d000000000000000000000000000000000000000000000000000000000000815250611eef565b93506127ad565b60408051808201909152600481527f6e756c6c00000000000000000000000000000000000000000000000000000000602082015293505b505050919050565b60608082600001511561237c576040805190810160405280600781526020017f7b226964223a2200000000000000000000000000000000000000000000000000815250905061280a6118b68460200151611eef565b905061284d6118b66040805190810160405280600181526020017f2200000000000000000000000000000000000000000000000000000000000000815250611eef565b608084015151909150156128de576128836118b660408051908101604052806001815260200160fa60020a600b02815250611eef565b90506128c66118b66040805190810160405280600981526020017f22616374696f6e223a0000000000000000000000000000000000000000000000815250611eef565b90506128db6118b661153f85608001516123fb565b90505b61291f6118b66040805190810160405280600981526020017f2c2274797065223a220000000000000000000000000000000000000000000000815250611eef565b90506129316118b68460400151611eef565b90506129746118b66040805190810160405280600b81526020017f222c226c6162656c223a22000000000000000000000000000000000000000000815250611eef565b905061255b6118b68460600151611eef565b60a06040519081016040528060608152602001606081526020016060815260200160008152602001606081525090565b6101a060405190810160405280600015158152602001606081526020016060815260200160608152602001606081526020016129f0612a80565b81526020016129fd612af7565b905290565b828054600181600116156101000203166002900490600052602060002090601f016020900481019282601f10612a4357805160ff1916838001178555612a70565b82800160010185558215612a70579182015b82811115612a70578251825591602001919060010190612a55565b50612a7c929150612b1b565b5090565b6040805160a081018252600080825260208201526060918101829052818101829052608081019190915290565b610120604051908101604052806000151581526020016060815260200160608152602001606081526020016129fd612a80565b604080518082019091526000808252602082015290565b60606040519081016040528060001515815260200160608152602001606081525090565b610f7491905b80821115612a7c5760008155600101612b2156007075726368617365727300000000000000000000000000000000000000000000a165627a7a723058207dd83e6253b5973a4a3b4645cb244a6b03105c21e32073e869edfea77dded1a70029",
  "source": "pragma solidity ^0.4.24;\n\nimport \"./ERC20SaleWidgetRenderer.sol\";\nimport \"tokenboost-solidity/contracts/widget/Localizable.sol\";\nimport \"tokenboost-solidity/contracts/widget/Widgets.sol\";\nimport \"zeppelin-solidity/contracts/token/ERC20/DetailedERC20.sol\";\n\ncontract PurchasersStrategyRenderer is ERC20SaleWidgetRenderer {\n    using Widgets for Widgets.Widget;\n    using UintUtils for uint;\n    using AddressUtils for address;\n    using strings for *;\n\n    string public constant PURCHASERS = \"purchasers\";\n    string public constant PURCHASERS_SHORT_DESC = \"purchasers_short_desc\";\n    string public constant PURCHASERS_LONG_DESC = \"purchasers_long_desc\";\n    string public constant PURCHASER = \"purchaser\";\n    string public constant ETHS_INVESTED = \"eths_invested\";\n    string public constant TOKENS_PURCHASED = \"tokens_purchased\";\n\n    function render(string _locale, ERC20Sale _sale) public view returns (string) {\n        Elements.Element[] memory elements = new Elements.Element[](1);\n        elements[0] = Elements.Element(\n            true,\n            PURCHASERS,\n            \"table\",\n            resources[_locale][PURCHASERS],\n            \"null\",\n            Actions.empty(),\n            Tables.Table(true, _columns(_locale, _sale), _rows(_locale, _sale))\n        );\n        Widgets.Widget memory widget = Widgets.Widget(\n            resources[_locale][PURCHASERS],\n            resources[_locale][PURCHASERS_SHORT_DESC],\n            resources[_locale][PURCHASERS_LONG_DESC],\n            8,\n            elements\n        );\n        return widget.toJson();\n    }\n\n    function _columns(string _locale, ERC20Sale _sale) private view returns (Tables.Column[]) {\n        DetailedERC20 token = DetailedERC20(_sale.token());\n        Tables.Column[] memory columns = new Tables.Column[](3);\n        columns[0] = Tables.Column(\n            true,\n            PURCHASER,\n            \"address\",\n            resources[_locale][PURCHASER],\n            Actions.empty()\n        );\n        columns[1] = Tables.Column(\n            true,\n            ETHS_INVESTED,\n            \"eth\",\n            resources[_locale][ETHS_INVESTED],\n            Actions.empty()\n        );\n        columns[2] = Tables.Column(\n            true,\n            TOKENS_PURCHASED,\n            \"token\".toSlice().concat(uint256(token.decimals()).toString().toSlice()),\n            resources[_locale][TOKENS_PURCHASED],\n            Actions.empty()\n        );\n        return columns;\n    }\n\n    function _rows(string _locale, ERC20Sale _sale) private view returns (string[]) {\n        string[] memory rows = new string[](_sale.numberOfPurchasers());\n        for (uint i = 0; i < rows.length; i++) {\n            address purchaser = _sale.purchaserAt(i);\n            string memory row = '{\"purchaser\":\"';\n            row = row.toSlice().concat(purchaser.toString().toSlice());\n            row = row.toSlice().concat('\",\"eths_invested\":'.toSlice());\n            row = row.toSlice().concat(_sale.paymentOf(purchaser).toString().toSlice());\n            row = row.toSlice().concat(',\"tokens_purchased\":'.toSlice());\n            row = row.toSlice().concat(_sale.tokenAmountOf(purchaser).toString().toSlice());\n            row = row.toSlice().concat('}'.toSlice());\n            rows[i] = row;\n        }\n        return rows;\n    }\n}\n",
  "sourcePath": "/Users/yoonjae/SolidityProjects/tokenboost-solidity-erc20sale/contracts/sale/erc20/widget/PurchasersStrategyRenderer.sol",
  "compiler": {
    "name": "solc",
    "version": "0.4.24+commit.e67f0147.Emscripten.clang"
  },
  "schemaVersion": "2.0.1",
  "updatedAt": "2018-10-17T07:46:19.444Z"
}