{
  "contractName": "RenderableERC20Sale",
  "abi": [
    {
      "constant": true,
      "inputs": [
        {
          "name": "_interfaceId",
          "type": "bytes4"
        }
      ],
      "name": "supportsInterface",
      "outputs": [
        {
          "name": "",
          "type": "bool"
        }
      ],
      "payable": false,
      "stateMutability": "view",
      "type": "function"
    },
    {
      "constant": true,
      "inputs": [],
      "name": "name",
      "outputs": [
        {
          "name": "",
          "type": "string"
        }
      ],
      "payable": false,
      "stateMutability": "view",
      "type": "function"
    },
    {
      "constant": true,
      "inputs": [],
      "name": "numberOfStrategies",
      "outputs": [
        {
          "name": "",
          "type": "uint256"
        }
      ],
      "payable": false,
      "stateMutability": "view",
      "type": "function"
    },
    {
      "constant": false,
      "inputs": [],
      "name": "activate",
      "outputs": [
        {
          "name": "",
          "type": "bool"
        }
      ],
      "payable": false,
      "stateMutability": "nonpayable",
      "type": "function"
    },
    {
      "constant": true,
      "inputs": [
        {
          "name": "index",
          "type": "uint256"
        }
      ],
      "name": "strategyAt",
      "outputs": [
        {
          "name": "",
          "type": "address"
        }
      ],
      "payable": false,
      "stateMutability": "view",
      "type": "function"
    },
    {
      "constant": false,
      "inputs": [
        {
          "name": "_projectName",
          "type": "string"
        },
        {
          "name": "_projectSummary",
          "type": "string"
        },
        {
          "name": "_projectDescription",
          "type": "string"
        },
        {
          "name": "_logoUrl",
          "type": "string"
        },
        {
          "name": "_coverImageUrl",
          "type": "string"
        },
        {
          "name": "_websiteUrl",
          "type": "string"
        },
        {
          "name": "_whitepaperUrl",
          "type": "string"
        },
        {
          "name": "_name",
          "type": "string"
        },
        {
          "name": "_token",
          "type": "address"
        }
      ],
      "name": "update",
      "outputs": [],
      "payable": false,
      "stateMutability": "nonpayable",
      "type": "function"
    },
    {
      "constant": true,
      "inputs": [],
      "name": "activated",
      "outputs": [
        {
          "name": "",
          "type": "bool"
        }
      ],
      "payable": false,
      "stateMutability": "view",
      "type": "function"
    },
    {
      "constant": true,
      "inputs": [],
      "name": "InterfaceId_ERC165",
      "outputs": [
        {
          "name": "",
          "type": "bytes4"
        }
      ],
      "payable": false,
      "stateMutability": "view",
      "type": "function"
    },
    {
      "constant": true,
      "inputs": [],
      "name": "started",
      "outputs": [
        {
          "name": "",
          "type": "bool"
        }
      ],
      "payable": false,
      "stateMutability": "view",
      "type": "function"
    },
    {
      "constant": true,
      "inputs": [],
      "name": "InterfaceId_ERC20Sale",
      "outputs": [
        {
          "name": "",
          "type": "bytes4"
        }
      ],
      "payable": false,
      "stateMutability": "view",
      "type": "function"
    },
    {
      "constant": true,
      "inputs": [],
      "name": "whitepaperUrl",
      "outputs": [
        {
          "name": "",
          "type": "string"
        }
      ],
      "payable": false,
      "stateMutability": "view",
      "type": "function"
    },
    {
      "constant": true,
      "inputs": [],
      "name": "numberOfActivatedStrategies",
      "outputs": [
        {
          "name": "",
          "type": "uint256"
        }
      ],
      "payable": false,
      "stateMutability": "view",
      "type": "function"
    },
    {
      "constant": false,
      "inputs": [],
      "name": "withdraw",
      "outputs": [
        {
          "name": "",
          "type": "bool"
        }
      ],
      "payable": false,
      "stateMutability": "nonpayable",
      "type": "function"
    },
    {
      "constant": true,
      "inputs": [],
      "name": "weiRaised",
      "outputs": [
        {
          "name": "",
          "type": "uint256"
        }
      ],
      "payable": false,
      "stateMutability": "view",
      "type": "function"
    },
    {
      "constant": true,
      "inputs": [
        {
          "name": "index",
          "type": "uint256"
        }
      ],
      "name": "activatedStrategyAt",
      "outputs": [
        {
          "name": "",
          "type": "address"
        }
      ],
      "payable": false,
      "stateMutability": "view",
      "type": "function"
    },
    {
      "constant": true,
      "inputs": [],
      "name": "numberOfPurchasers",
      "outputs": [
        {
          "name": "",
          "type": "uint256"
        }
      ],
      "payable": false,
      "stateMutability": "view",
      "type": "function"
    },
    {
      "constant": true,
      "inputs": [
        {
          "name": "_weiAmount",
          "type": "uint256"
        }
      ],
      "name": "purchasable",
      "outputs": [
        {
          "name": "",
          "type": "bool"
        }
      ],
      "payable": false,
      "stateMutability": "view",
      "type": "function"
    },
    {
      "constant": true,
      "inputs": [],
      "name": "template",
      "outputs": [
        {
          "name": "",
          "type": "address"
        }
      ],
      "payable": false,
      "stateMutability": "view",
      "type": "function"
    },
    {
      "constant": false,
      "inputs": [],
      "name": "renounceOwnership",
      "outputs": [],
      "payable": false,
      "stateMutability": "nonpayable",
      "type": "function"
    },
    {
      "constant": true,
      "inputs": [],
      "name": "projectDescription",
      "outputs": [
        {
          "name": "",
          "type": "string"
        }
      ],
      "payable": false,
      "stateMutability": "view",
      "type": "function"
    },
    {
      "constant": false,
      "inputs": [
        {
          "name": "_template",
          "type": "address"
        },
        {
          "name": "_bytecode",
          "type": "bytes"
        }
      ],
      "name": "addStrategy",
      "outputs": [],
      "payable": true,
      "stateMutability": "payable",
      "type": "function"
    },
    {
      "constant": true,
      "inputs": [],
      "name": "renderer",
      "outputs": [
        {
          "name": "",
          "type": "address"
        }
      ],
      "payable": false,
      "stateMutability": "view",
      "type": "function"
    },
    {
      "constant": true,
      "inputs": [],
      "name": "owner",
      "outputs": [
        {
          "name": "",
          "type": "address"
        }
      ],
      "payable": false,
      "stateMutability": "view",
      "type": "function"
    },
    {
      "constant": true,
      "inputs": [
        {
          "name": "_index",
          "type": "uint256"
        }
      ],
      "name": "purchaserAt",
      "outputs": [
        {
          "name": "",
          "type": "address"
        }
      ],
      "payable": false,
      "stateMutability": "view",
      "type": "function"
    },
    {
      "constant": true,
      "inputs": [
        {
          "name": "_purchaser",
          "type": "address"
        }
      ],
      "name": "tokenAmountOf",
      "outputs": [
        {
          "name": "",
          "type": "uint256"
        }
      ],
      "payable": false,
      "stateMutability": "view",
      "type": "function"
    },
    {
      "constant": true,
      "inputs": [],
      "name": "logoUrl",
      "outputs": [
        {
          "name": "",
          "type": "string"
        }
      ],
      "payable": false,
      "stateMutability": "view",
      "type": "function"
    },
    {
      "constant": true,
      "inputs": [],
      "name": "projectName",
      "outputs": [
        {
          "name": "",
          "type": "string"
        }
      ],
      "payable": false,
      "stateMutability": "view",
      "type": "function"
    },
    {
      "constant": true,
      "inputs": [],
      "name": "successful",
      "outputs": [
        {
          "name": "",
          "type": "bool"
        }
      ],
      "payable": false,
      "stateMutability": "view",
      "type": "function"
    },
    {
      "constant": true,
      "inputs": [],
      "name": "projectSummary",
      "outputs": [
        {
          "name": "",
          "type": "string"
        }
      ],
      "payable": false,
      "stateMutability": "view",
      "type": "function"
    },
    {
      "constant": true,
      "inputs": [],
      "name": "websiteUrl",
      "outputs": [
        {
          "name": "",
          "type": "string"
        }
      ],
      "payable": false,
      "stateMutability": "view",
      "type": "function"
    },
    {
      "constant": false,
      "inputs": [],
      "name": "claimRefund",
      "outputs": [
        {
          "name": "",
          "type": "bool"
        }
      ],
      "payable": false,
      "stateMutability": "nonpayable",
      "type": "function"
    },
    {
      "constant": true,
      "inputs": [],
      "name": "finished",
      "outputs": [
        {
          "name": "",
          "type": "bool"
        }
      ],
      "payable": false,
      "stateMutability": "view",
      "type": "function"
    },
    {
      "constant": true,
      "inputs": [
        {
          "name": "_weiAmount",
          "type": "uint256"
        }
      ],
      "name": "getTokenAmount",
      "outputs": [
        {
          "name": "",
          "type": "uint256"
        }
      ],
      "payable": false,
      "stateMutability": "view",
      "type": "function"
    },
    {
      "constant": true,
      "inputs": [],
      "name": "withdrawn",
      "outputs": [
        {
          "name": "",
          "type": "bool"
        }
      ],
      "payable": false,
      "stateMutability": "view",
      "type": "function"
    },
    {
      "constant": true,
      "inputs": [
        {
          "name": "_purchaser",
          "type": "address"
        }
      ],
      "name": "paymentOf",
      "outputs": [
        {
          "name": "weiAmount",
          "type": "uint256"
        }
      ],
      "payable": false,
      "stateMutability": "view",
      "type": "function"
    },
    {
      "constant": true,
      "inputs": [],
      "name": "InterfaceId_Sale",
      "outputs": [
        {
          "name": "",
          "type": "bytes4"
        }
      ],
      "payable": false,
      "stateMutability": "view",
      "type": "function"
    },
    {
      "constant": true,
      "inputs": [],
      "name": "coverImageUrl",
      "outputs": [
        {
          "name": "",
          "type": "string"
        }
      ],
      "payable": false,
      "stateMutability": "view",
      "type": "function"
    },
    {
      "constant": false,
      "inputs": [
        {
          "name": "_projectName",
          "type": "string"
        },
        {
          "name": "_projectSummary",
          "type": "string"
        },
        {
          "name": "_projectDescription",
          "type": "string"
        },
        {
          "name": "_logoUrl",
          "type": "string"
        },
        {
          "name": "_coverImageUrl",
          "type": "string"
        },
        {
          "name": "_websiteUrl",
          "type": "string"
        },
        {
          "name": "_whitepaperUrl",
          "type": "string"
        },
        {
          "name": "_name",
          "type": "string"
        }
      ],
      "name": "update",
      "outputs": [],
      "payable": false,
      "stateMutability": "nonpayable",
      "type": "function"
    },
    {
      "constant": false,
      "inputs": [
        {
          "name": "_newOwner",
          "type": "address"
        }
      ],
      "name": "transferOwnership",
      "outputs": [],
      "payable": false,
      "stateMutability": "nonpayable",
      "type": "function"
    },
    {
      "constant": true,
      "inputs": [],
      "name": "InterfaceId_Contract",
      "outputs": [
        {
          "name": "",
          "type": "bytes4"
        }
      ],
      "payable": false,
      "stateMutability": "view",
      "type": "function"
    },
    {
      "constant": true,
      "inputs": [],
      "name": "token",
      "outputs": [
        {
          "name": "",
          "type": "address"
        }
      ],
      "payable": false,
      "stateMutability": "view",
      "type": "function"
    },
    {
      "inputs": [
        {
          "name": "_owner",
          "type": "address"
        },
        {
          "name": "_projectName",
          "type": "string"
        },
        {
          "name": "_name",
          "type": "string"
        },
        {
          "name": "_token",
          "type": "address"
        }
      ],
      "payable": false,
      "stateMutability": "nonpayable",
      "type": "constructor"
    },
    {
      "payable": true,
      "stateMutability": "payable",
      "type": "fallback"
    },
    {
      "anonymous": false,
      "inputs": [
        {
          "indexed": true,
          "name": "purchaser",
          "type": "address"
        },
        {
          "indexed": false,
          "name": "weiAmount",
          "type": "uint256"
        },
        {
          "indexed": false,
          "name": "tokenAmount",
          "type": "uint256"
        }
      ],
      "name": "TokenPurchase",
      "type": "event"
    },
    {
      "anonymous": false,
      "inputs": [
        {
          "indexed": true,
          "name": "previousOwner",
          "type": "address"
        }
      ],
      "name": "OwnershipRenounced",
      "type": "event"
    },
    {
      "anonymous": false,
      "inputs": [
        {
          "indexed": true,
          "name": "previousOwner",
          "type": "address"
        },
        {
          "indexed": true,
          "name": "newOwner",
          "type": "address"
        }
      ],
      "name": "OwnershipTransferred",
      "type": "event"
    },
    {
      "constant": true,
      "inputs": [
        {
          "name": "_locale",
          "type": "string"
        }
      ],
      "name": "adminWidgets",
      "outputs": [
        {
          "name": "jsonObject",
          "type": "string"
        }
      ],
      "payable": false,
      "stateMutability": "view",
      "type": "function"
    },
    {
      "constant": true,
      "inputs": [
        {
          "name": "_locale",
          "type": "string"
        }
      ],
      "name": "userWidgets",
      "outputs": [
        {
          "name": "jsonObject",
          "type": "string"
        }
      ],
      "payable": false,
      "stateMutability": "view",
      "type": "function"
    },
    {
      "constant": true,
      "inputs": [
        {
          "name": "_locale",
          "type": "string"
        }
      ],
      "name": "inputs",
      "outputs": [
        {
          "name": "jsonArray",
          "type": "string"
        }
      ],
      "payable": false,
      "stateMutability": "view",
      "type": "function"
    }
  ],
  "bytecode": "0x60806040523480156200001157600080fd5b50604051620028f2380380620028f28339810160409081528151602083015191830151606084015160008054600160a060020a03191633179055919392830192019083838383838383826200008f7f01ffc9a700000000000000000000000000000000000000000000000000000000640100000000620001d9810204565b600160a060020a0381161515620000a557600080fd5b6002805433600160a060020a03199182161790915560008054909116600160a060020a038316179055620001027f6125ede500000000000000000000000000000000000000000000000000000000640100000000620001d9810204565b5081516200011890600390602085019062000249565b5080516200012e90600a90602084019062000249565b50620001637f8139792d00000000000000000000000000000000000000000000000000000000640100000000620001d9810204565b505050600160a060020a03811615156200017c57600080fd5b60128054600160a060020a031916600160a060020a038316179055620001cb7ffd20e2b900000000000000000000000000000000000000000000000000000000640100000000620001d9810204565b5050505050505050620002ee565b7fffffffff0000000000000000000000000000000000000000000000000000000080821614156200020957600080fd5b7fffffffff00000000000000000000000000000000000000000000000000000000166000908152600160208190526040909120805460ff19169091179055565b828054600181600116156101000203166002900490600052602060002090601f016020900481019282601f106200028c57805160ff1916838001178555620002bc565b82800160010185558215620002bc579182015b82811115620002bc5782518255916020019190600101906200029f565b50620002ca929150620002ce565b5090565b620002eb91905b80821115620002ca5760008155600101620002d5565b90565b6125f480620002fe6000396000f3006080604052600436106102005763ffffffff60e060020a60003504166301bd341181146102ed57806301ffc9a7146103bb57806306fdde03146104065780630956e5a61461041b5780630f15f4c0146104425780630fc8c0b614610457578063148cb6e61461048b578063186601ca146106a357806319fa8f50146106b85780631f2698ab146106ff57806327f6c75a146107145780632c7a72f814610729578063334ff6321461073e5780633ccfd60b146107535780634042b66f146107685780635027a9161461077d578063580c2ae914610795578063655ded03146107aa5780636f2ddd93146107c2578063715018a6146107d7578063755f047b146107ec5780637aeedf2a146108015780638ada6b0f1461085b5780638da5cb5b14610870578063908ba6481461088557806391c62b79146108de57806397b150ca146108f6578063993d77af146109175780639a33e3001461092c5780639a9e3fd8146109415780639ec318bf14610956578063a3a8fd2c1461096b578063abb5ca09146109c4578063b5545a3c146109d9578063bef4876b146109ee578063c2507ac114610a03578063c80ec52214610a1b578063cf7c2b3114610a30578063d04be2da14610a51578063dea53c2014610a66578063df1c5c7c14610a7b578063f2fde38b14610c86578063fbf964eb14610ca7578063fc0c546a14610cbc575b6000806000600260149054906101000a900460ff16151561022057600080fd5b610228610cd1565b1561023257600080fd5b61023a610dae565b151561024557600080fd5b61024e34610e8a565b151561025957600080fd5b33925061026583610f76565b61026f8334611021565b610278346110a2565b9150610284838361119e565b61028e83836111e7565b905061029a81836112d0565b15156102a557600080fd5b60408051348152602081018490528151600160a060020a038616927fcd60aa75dea3072fbc07ae6d7d856b5dc5f4eee88854f5b4abf7b680ef8bc50f928290030190a2505050005b3480156102f957600080fd5b506040805160206004803580820135601f81018490048402850184019095528484526103469436949293602493928401919081908401838280828437509497506113ae9650505050505050565b6040805160208082528351818301528351919283929083019185019080838360005b83811015610380578181015183820152602001610368565b50505050905090810190601f1680156103ad5780820380516001836020036101000a031916815260200191505b509250505060405180910390f35b3480156103c757600080fd5b506103f27bffffffffffffffffffffffffffffffffffffffffffffffffffffffff1960043516611517565b604080519115158252519081900360200190f35b34801561041257600080fd5b5061034661154b565b34801561042757600080fd5b506104306115d9565b60408051918252519081900360200190f35b34801561044e57600080fd5b506103f26115e0565b34801561046357600080fd5b5061046f60043561171b565b60408051600160a060020a039092168252519081900360200190f35b34801561049757600080fd5b506040805160206004803580820135601f81018490048402850184019095528484526106a194369492936024939284019190819084018382808284375050604080516020601f89358b018035918201839004830284018301909452808352979a99988101979196509182019450925082915084018382808284375050604080516020601f89358b018035918201839004830284018301909452808352979a99988101979196509182019450925082915084018382808284375050604080516020601f89358b018035918201839004830284018301909452808352979a99988101979196509182019450925082915084018382808284375050604080516020601f89358b018035918201839004830284018301909452808352979a99988101979196509182019450925082915084018382808284375050604080516020601f89358b018035918201839004830284018301909452808352979a99988101979196509182019450925082915084018382808284375050604080516020601f89358b018035918201839004830284018301909452808352979a99988101979196509182019450925082915084018382808284375050604080516020601f89358b018035918201839004830284018301909452808352979a99988101979196509182019450925082915084018382808284375094975050509235600160a060020a0316935061174792505050565b005b3480156106af57600080fd5b506103f261178e565b3480156106c457600080fd5b506106cd61179e565b604080517bffffffffffffffffffffffffffffffffffffffffffffffffffffffff199092168252519081900360200190f35b34801561070b57600080fd5b506103f2610dae565b34801561072057600080fd5b506106cd6117c2565b34801561073557600080fd5b506103466117e6565b34801561074a57600080fd5b50610430611841565b34801561075f57600080fd5b506103f2611847565b34801561077457600080fd5b506104306118f0565b34801561078957600080fd5b5061046f6004356118f6565b3480156107a157600080fd5b50610430611907565b3480156107b657600080fd5b506103f2600435610e8a565b3480156107ce57600080fd5b5061046f61190d565b3480156107e357600080fd5b506106a161191c565b3480156107f857600080fd5b50610346611988565b60408051602060046024803582810135601f81018590048502860185019096528585526106a1958335600160a060020a03169536956044949193909101919081908401838280828437509497506119e39650505050505050565b34801561086757600080fd5b5061046f611d56565b34801561087c57600080fd5b5061046f611d6e565b34801561089157600080fd5b506040805160206004803580820135601f8101849004840285018401909552848452610346943694929360249392840191908190840183828082843750949750611d7d9650505050505050565b3480156108ea57600080fd5b5061046f600435611e0a565b34801561090257600080fd5b50610430600160a060020a0360043516611e1b565b34801561092357600080fd5b50610346611e36565b34801561093857600080fd5b50610346611e91565b34801561094d57600080fd5b506103f2611eec565b34801561096257600080fd5b50610346611fc0565b34801561097757600080fd5b506040805160206004803580820135601f810184900484028501840190955284845261034694369492936024939284019190819084018382808284375094975061201b9650505050505050565b3480156109d057600080fd5b506103466120a8565b3480156109e557600080fd5b506103f2612103565b3480156109fa57600080fd5b506103f2610cd1565b348015610a0f57600080fd5b506104306004356110a2565b348015610a2757600080fd5b506103f26121a7565b348015610a3c57600080fd5b50610430600160a060020a03600435166121b0565b348015610a5d57600080fd5b506106cd6121cb565b348015610a7257600080fd5b506103466121ef565b348015610a8757600080fd5b506040805160206004803580820135601f81018490048402850184019095528484526106a194369492936024939284019190819084018382808284375050604080516020601f89358b018035918201839004830284018301909452808352979a99988101979196509182019450925082915084018382808284375050604080516020601f89358b018035918201839004830284018301909452808352979a99988101979196509182019450925082915084018382808284375050604080516020601f89358b018035918201839004830284018301909452808352979a99988101979196509182019450925082915084018382808284375050604080516020601f89358b018035918201839004830284018301909452808352979a99988101979196509182019450925082915084018382808284375050604080516020601f89358b018035918201839004830284018301909452808352979a99988101979196509182019450925082915084018382808284375050604080516020601f89358b018035918201839004830284018301909452808352979a99988101979196509182019450925082915084018382808284375050604080516020601f89358b018035918201839004830284018301909452808352979a99988101979196509182019450925082915084018382808284375094975061224a9650505050505050565b348015610c9257600080fd5b506106a1600160a060020a0360043516612322565b348015610cb357600080fd5b506106cd612345565b348015610cc857600080fd5b5061046f612369565b6000806000610cde610dae565b1515610ced5760009250610da9565b5060009050805b600e54811015610da5578180610d9b5750600e805482908110610d1357fe5b9060005260206000200160009054906101000a9004600160a060020a0316600160a060020a031663bef4876b6040518163ffffffff1660e060020a028152600401602060405180830381600087803b158015610d6e57600080fd5b505af1158015610d82573d6000803e3d6000fd5b505050506040513d6020811015610d9857600080fd5b50515b9150600101610cf4565b8192505b505090565b6000806000600260149054906101000a900460ff161515610dd25760009250610da9565b5060009050805b600e54811015610da5578180610e805750600e805482908110610df857fe5b9060005260206000200160009054906101000a9004600160a060020a0316600160a060020a0316631f2698ab6040518163ffffffff1660e060020a028152600401602060405180830381600087803b158015610e5357600080fd5b505af1158015610e67573d6000803e3d6000fd5b505050506040513d6020811015610e7d57600080fd5b50515b9150600101610dd9565b6000600181805b600e54821015610f6a57600e805483908110610ea957fe5b600091825260209091200154600160a060020a03169050828015610f5d5750604080517f4f9a82d6000000000000000000000000000000000000000000000000000000008152336004820152602481018790529051600160a060020a03831691634f9a82d69160448083019260209291908290030181600087803b158015610f3057600080fd5b505af1158015610f44573d6000803e3d6000fd5b505050506040513d6020811015610f5a57600080fd5b50515b9250600190910190610e91565b8293505b505050919050565b60005b601054811015610fc45781600160a060020a0316601082815481101515610f9c57fe5b600091825260209091200154600160a060020a03161415610fbc5761101d565b600101610f79565b601080546001810182556000919091527f1b6847dc741a1b0cd08d278845f9d819d87b734759afb55fe2de5cb82a9ae67201805473ffffffffffffffffffffffffffffffffffffffff1916600160a060020a0384161790555b5050565b611029610cd1565b1561103357600080fd5b61103b610dae565b151561104657600080fd5b600160a060020a0382166000908152600f602052604090205461106f908263ffffffff61237816565b600160a060020a0383166000908152600f6020526040902055600b5461109b908263ffffffff61237816565b600b555050565b60008080805b600e5483101561119357600e8054849081106110c057fe5b6000918252602080832090910154604080517f5589530e000000000000000000000000000000000000000000000000000000008152336004820152602481018a90529051600160a060020a0390921695508593635589530e9360448084019491939192918390030190829087803b15801561113a57600080fd5b505af115801561114e573d6000803e3d6000fd5b505050506040513d602081101561116457600080fd5b50519050600081111561118857611181858263ffffffff61238b16565b9350610f6e565b6001909201916110a8565b506000949350505050565b600160a060020a0382166000908152601160205260409020546111c7908263ffffffff61237816565b600160a060020a0390921660009081526011602052604090209190915550565b600080805b600e548210156112c457600e80548390811061120457fe5b6000918252602080832090910154604080517fe67c8646000000000000000000000000000000000000000000000000000000008152600160a060020a038a81166004830152602482018a90529151919092169450849363e67c864693604480850194919392918390030190829087803b15801561128057600080fd5b505af1158015611294573d6000803e3d6000fd5b505050506040513d60208110156112aa57600080fd5b5051156112b9578092506112c8565b6001909101906111ec565b8492505b505092915050565b600080805b600e5482101561119357600e8054839081106112ed57fe5b6000918252602080832090910154604080517f587775e8000000000000000000000000000000000000000000000000000000008152600160a060020a038a81166004830152602482018a90529151919092169450849363587775e893604480850194919392918390030190829087803b15801561136957600080fd5b505af115801561137d573d6000803e3d6000fd5b505050506040513d602081101561139357600080fd5b5051156113a357600192506112c8565b6001909101906112d5565b604080517fbf3bed54000000000000000000000000000000000000000000000000000000008152306024820181905260048201928352835160448301528351606093735f5f455243323053616c6552656e64657265725f9363bf3bed549387939092918291606490910190602086019080838360005b8381101561143c578181015183820152602001611424565b50505050905090810190601f1680156114695780820380516001836020036101000a031916815260200191505b509350505050600060405180830381600087803b15801561148957600080fd5b505af115801561149d573d6000803e3d6000fd5b505050506040513d6000823e601f3d908101601f1916820160405260208110156114c657600080fd5b8101908080516401000000008111156114de57600080fd5b820160208101848111156114f157600080fd5b815164010000000081118282018710171561150b57600080fd5b50909695505050505050565b7bffffffffffffffffffffffffffffffffffffffffffffffffffffffff191660009081526001602052604090205460ff1690565b600a805460408051602060026001851615610100026000190190941693909304601f810184900484028201840190925281815292918301828280156115d15780601f106115a6576101008083540402835291602001916115d1565b820191906000526020600020905b8154815290600101906020018083116115b457829003601f168201915b505050505081565b600d545b90565b6000805481908190600160a060020a031633146115fc57600080fd5b600091505b600d5482101561170c57600d80548390811061161957fe5b9060005260206000200160009054906101000a9004600160a060020a0316905080600160a060020a031663186601ca6040518163ffffffff1660e060020a028152600401602060405180830381600087803b15801561167757600080fd5b505af115801561168b573d6000803e3d6000fd5b505050506040513d60208110156116a157600080fd5b50511561170157600e80546001810182556000919091527fbb7b4a454dc3493923482f07822329ed19e8244eff582cc204f8554c3620c3fd01805473ffffffffffffffffffffffffffffffffffffffff1916600160a060020a0383161790555b600190910190611601565b6117146123b4565b9250505090565b6000600d8281548110151561172c57fe5b600091825260209091200154600160a060020a031692915050565b611757898989898989898961224a565b6012805473ffffffffffffffffffffffffffffffffffffffff1916600160a060020a03929092169190911790555050505050505050565b60025460a060020a900460ff1681565b7f01ffc9a70000000000000000000000000000000000000000000000000000000081565b7ffd20e2b90000000000000000000000000000000000000000000000000000000081565b6009805460408051602060026001851615610100026000190190941693909304601f810184900484028201840190925281815292918301828280156115d15780601f106115a6576101008083540402835291602001916115d1565b600e5490565b60008054600160a060020a0316331461185f57600080fd5b60025460a060020a900460ff16151561187757600080fd5b600c5460ff161561188757600080fd5b61188f610cd1565b151561189a57600080fd5b6118a2611eec565b15156118ad57600080fd5b600c805460ff19166001179055600b54604051339180156108fc02916000818181858888f193505050501580156118e8573d6000803e3d6000fd5b506001905090565b600b5481565b6000600e8281548110151561172c57fe5b60105490565b600254600160a060020a031681565b600054600160a060020a0316331461193357600080fd5b60008054604051600160a060020a03909116917ff8df31144d9c2f0f6b59d69b8b98abd5459d07f2742c4df920b25aae33c6482091a26000805473ffffffffffffffffffffffffffffffffffffffff19169055565b6005805460408051602060026001851615610100026000190190941693909304601f810184900484028201840190925281815292918301828280156115d15780601f106115a6576101008083540402835291602001916115d1565b6000805460609190600160a060020a031633146119ff57600080fd5b60025460a060020a900460ff1615611a1657600080fd5b604080517f01ffc9a70000000000000000000000000000000000000000000000000000000080825260048201529051600160a060020a038616916301ffc9a79160248083019260209291908290030181600087803b158015611a7757600080fd5b505af1158015611a8b573d6000803e3d6000fd5b505050506040513d6020811015611aa157600080fd5b50511515611aae57600080fd5b604080517f01ffc9a70000000000000000000000000000000000000000000000000000000081527fd48445ff0000000000000000000000000000000000000000000000000000000060048201529051600160a060020a038616916301ffc9a79160248083019260209291908290030181600087803b158015611b2f57600080fd5b505af1158015611b43573d6000803e3d6000fd5b505050506040513d6020811015611b5957600080fd5b50511515611b6657600080fd5b611b6f846123dd565b1515611b7a57600080fd5b60408051336020808301919091523082840152825180830384018152606083018085527f6535b4a500000000000000000000000000000000000000000000000000000000905260648301938452865160a48401528651909550600160a060020a03881693636535b4a593349389938993928392608482019260c4909201919087019080838360005b83811015611c1a578181015183820152602001611c02565b50505050905090810190601f168015611c475780820380516001836020036101000a031916815260200191505b50838103825284518152845160209182019186019080838360005b83811015611c7a578181015183820152602001611c62565b50505050905090810190601f168015611ca75780820380516001836020036101000a031916815260200191505b509450505050506020604051808303818588803b158015611cc757600080fd5b505af1158015611cdb573d6000803e3d6000fd5b50505050506040513d6020811015611cf257600080fd5b5051600d80546001810182556000919091527fd7b6990105719101dabeb77144f2a3385c8033acd3af97e9423a695e81ad1eb501805473ffffffffffffffffffffffffffffffffffffffff1916600160a060020a0390921691909117905550505050565b735f5f455243323053616c6552656e64657265725f81565b600054600160a060020a031681565b604080517fe77cee3d000000000000000000000000000000000000000000000000000000008152306024820181905260048201928352835160448301528351606093735f5f455243323053616c6552656e64657265725f9363e77cee3d9387939092918291606490910190602086019080838360008381101561143c578181015183820152602001611424565b600060108281548110151561172c57fe5b600160a060020a031660009081526011602052604090205490565b6006805460408051602060026001851615610100026000190190941693909304601f810184900484028201840190925281815292918301828280156115d15780601f106115a6576101008083540402835291602001916115d1565b6003805460408051602060026001851615610100026000190190941693909304601f810184900484028201840190925281815292918301828280156115d15780601f106115a6576101008083540402835291602001916115d1565b6000806000611ef9610dae565b1515611f085760009250610da9565b5060009050805b600e54811015610da5578180611fb65750600e805482908110611f2e57fe5b9060005260206000200160009054906101000a9004600160a060020a0316600160a060020a0316639a9e3fd86040518163ffffffff1660e060020a028152600401602060405180830381600087803b158015611f8957600080fd5b505af1158015611f9d573d6000803e3d6000fd5b505050506040513d6020811015611fb357600080fd5b50515b9150600101611f0f565b6004805460408051602060026001851615610100026000190190941693909304601f810184900484028201840190925281815292918301828280156115d15780601f106115a6576101008083540402835291602001916115d1565b604080517fe9499555000000000000000000000000000000000000000000000000000000008152306024820181905260048201928352835160448301528351606093735f5f455243323053616c6552656e64657265725f9363e94995559387939092918291606490910190602086019080838360008381101561143c578181015183820152602001611424565b6008805460408051602060026001851615610100026000190190941693909304601f810184900484028201840190925281815292918301828280156115d15780601f106115a6576101008083540402835291602001916115d1565b600254600090819060a060020a900460ff16151561212057600080fd5b612128610cd1565b151561213357600080fd5b61213b611eec565b1561214557600080fd5b50336000908152600f602052604081205490811161216257600080fd5b336000818152600f60205260408082208290555183156108fc0291849190818181858888f1935050505015801561219d573d6000803e3d6000fd5b50600191505b5090565b600c5460ff1681565b600160a060020a03166000908152600f602052604090205490565b7f8139792d0000000000000000000000000000000000000000000000000000000081565b6007805460408051602060026001851615610100026000190190941693909304601f810184900484028201840190925281815292918301828280156115d15780601f106115a6576101008083540402835291602001916115d1565b600054600160a060020a0316331461226157600080fd5b60025460a060020a900460ff161561227857600080fd5b875161228b9060039060208b019061253a565b50865161229f9060049060208a019061253a565b5085516122b390600590602089019061253a565b5084516122c790600690602088019061253a565b5083516122db90600790602087019061253a565b5082516122ef90600890602086019061253a565b50815161230390600990602085019061253a565b50805161231790600a90602084019061253a565b505050505050505050565b600054600160a060020a0316331461233957600080fd5b612342816124bd565b50565b7f6125ede50000000000000000000000000000000000000000000000000000000081565b601254600160a060020a031681565b8181018281101561238557fe5b92915050565b600082151561239c57506000612385565b508181028183828115156123ac57fe5b041461238557fe5b6002805474ff0000000000000000000000000000000000000000191660a060020a179055600190565b600080805b600d548210156124b157600d8054839081106123fa57fe5b9060005260206000200160009054906101000a9004600160a060020a0316905083600160a060020a031681600160a060020a0316636f2ddd936040518163ffffffff1660e060020a028152600401602060405180830381600087803b15801561246257600080fd5b505af1158015612476573d6000803e3d6000fd5b505050506040513d602081101561248c57600080fd5b5051600160a060020a031614156124a657600092506124b6565b6001909101906123e2565b600192505b5050919050565b600160a060020a03811615156124d257600080fd5b60008054604051600160a060020a03808516939216917f8be0079c531659141344cd1fd0a4f28419497f9722a3daafe3b4186f6b6457e091a36000805473ffffffffffffffffffffffffffffffffffffffff1916600160a060020a0392909216919091179055565b828054600181600116156101000203166002900490600052602060002090601f016020900481019282601f1061257b57805160ff19168380011785556125a8565b828001600101855582156125a8579182015b828111156125a857825182559160200191906001019061258d565b506121a3926115dd9250905b808211156121a357600081556001016125b45600a165627a7a7230582068f715509532673387f557e91dbec2f85d551c35749966b2d0b03499f1a2a2880029",
  "source": "pragma solidity ^0.4.24;\n\nimport \"tokenboost-solidity/contracts/widget/Renderable.sol\";\nimport \"./ERC20Sale.sol\";\nimport \"./widget/ERC20SaleRenderer.sol\";\n\ncontract RenderableERC20Sale is ERC20Sale, Renderable {\n    ERC20SaleRenderer constant public renderer = ERC20SaleRenderer(address(bytes20(\"__ERC20SaleRenderer_\")));\n\n    constructor(\n        address _owner,\n        string _projectName,\n        string _name,\n        ERC20 _token\n    ) public ERC20Sale(_owner, _projectName, _name, _token) {\n    }\n\n    function adminWidgets(string _locale) public view returns (string jsonObject) {\n        return renderer.adminWidgets(_locale, this);\n    }\n\n    function userWidgets(string _locale) public view returns (string jsonObject) {\n        return renderer.userWidgets(_locale, this);\n    }\n\n    function inputs(string _locale) public view returns (string jsonArray) {\n        return renderer.inputs(_locale, this);\n    }\n}\n",
  "sourcePath": "/Users/yoonjae/SolidityProjects/tokenboost-solidity-erc20sale/contracts/sale/erc20/RenderableERC20Sale.sol",
  "compiler": {
    "name": "solc",
    "version": "0.4.24+commit.e67f0147.Emscripten.clang"
  },
  "schemaVersion": "2.0.1",
  "updatedAt": "2018-10-22T16:25:48.156Z"
}