{
  "contractName": "RenderableERC20Sale",
  "abi": [
    {
      "constant": true,
      "inputs": [
        {
          "name": "_interfaceId",
          "type": "bytes4"
        }
      ],
      "name": "supportsInterface",
      "outputs": [
        {
          "name": "",
          "type": "bool"
        }
      ],
      "payable": false,
      "stateMutability": "view",
      "type": "function"
    },
    {
      "constant": true,
      "inputs": [],
      "name": "name",
      "outputs": [
        {
          "name": "",
          "type": "string"
        }
      ],
      "payable": false,
      "stateMutability": "view",
      "type": "function"
    },
    {
      "constant": true,
      "inputs": [],
      "name": "numberOfStrategies",
      "outputs": [
        {
          "name": "",
          "type": "uint256"
        }
      ],
      "payable": false,
      "stateMutability": "view",
      "type": "function"
    },
    {
      "constant": false,
      "inputs": [],
      "name": "activate",
      "outputs": [
        {
          "name": "",
          "type": "bool"
        }
      ],
      "payable": false,
      "stateMutability": "nonpayable",
      "type": "function"
    },
    {
      "constant": true,
      "inputs": [
        {
          "name": "index",
          "type": "uint256"
        }
      ],
      "name": "strategyAt",
      "outputs": [
        {
          "name": "",
          "type": "address"
        }
      ],
      "payable": false,
      "stateMutability": "view",
      "type": "function"
    },
    {
      "constant": false,
      "inputs": [
        {
          "name": "_projectName",
          "type": "string"
        },
        {
          "name": "_projectSummary",
          "type": "string"
        },
        {
          "name": "_projectDescription",
          "type": "string"
        },
        {
          "name": "_logoUrl",
          "type": "string"
        },
        {
          "name": "_coverImageUrl",
          "type": "string"
        },
        {
          "name": "_websiteUrl",
          "type": "string"
        },
        {
          "name": "_whitepaperUrl",
          "type": "string"
        },
        {
          "name": "_name",
          "type": "string"
        },
        {
          "name": "_token",
          "type": "address"
        }
      ],
      "name": "update",
      "outputs": [],
      "payable": false,
      "stateMutability": "nonpayable",
      "type": "function"
    },
    {
      "constant": true,
      "inputs": [],
      "name": "activated",
      "outputs": [
        {
          "name": "",
          "type": "bool"
        }
      ],
      "payable": false,
      "stateMutability": "view",
      "type": "function"
    },
    {
      "constant": true,
      "inputs": [],
      "name": "InterfaceId_ERC165",
      "outputs": [
        {
          "name": "",
          "type": "bytes4"
        }
      ],
      "payable": false,
      "stateMutability": "view",
      "type": "function"
    },
    {
      "constant": true,
      "inputs": [],
      "name": "started",
      "outputs": [
        {
          "name": "",
          "type": "bool"
        }
      ],
      "payable": false,
      "stateMutability": "view",
      "type": "function"
    },
    {
      "constant": true,
      "inputs": [],
      "name": "InterfaceId_ERC20Sale",
      "outputs": [
        {
          "name": "",
          "type": "bytes4"
        }
      ],
      "payable": false,
      "stateMutability": "view",
      "type": "function"
    },
    {
      "constant": true,
      "inputs": [],
      "name": "whitepaperUrl",
      "outputs": [
        {
          "name": "",
          "type": "string"
        }
      ],
      "payable": false,
      "stateMutability": "view",
      "type": "function"
    },
    {
      "constant": true,
      "inputs": [],
      "name": "numberOfActivatedStrategies",
      "outputs": [
        {
          "name": "",
          "type": "uint256"
        }
      ],
      "payable": false,
      "stateMutability": "view",
      "type": "function"
    },
    {
      "constant": false,
      "inputs": [],
      "name": "withdraw",
      "outputs": [
        {
          "name": "",
          "type": "bool"
        }
      ],
      "payable": false,
      "stateMutability": "nonpayable",
      "type": "function"
    },
    {
      "constant": true,
      "inputs": [],
      "name": "weiRaised",
      "outputs": [
        {
          "name": "",
          "type": "uint256"
        }
      ],
      "payable": false,
      "stateMutability": "view",
      "type": "function"
    },
    {
      "constant": true,
      "inputs": [
        {
          "name": "index",
          "type": "uint256"
        }
      ],
      "name": "activatedStrategyAt",
      "outputs": [
        {
          "name": "",
          "type": "address"
        }
      ],
      "payable": false,
      "stateMutability": "view",
      "type": "function"
    },
    {
      "constant": true,
      "inputs": [
        {
          "name": "_weiAmount",
          "type": "uint256"
        }
      ],
      "name": "purchasable",
      "outputs": [
        {
          "name": "",
          "type": "bool"
        }
      ],
      "payable": false,
      "stateMutability": "view",
      "type": "function"
    },
    {
      "constant": true,
      "inputs": [],
      "name": "template",
      "outputs": [
        {
          "name": "",
          "type": "address"
        }
      ],
      "payable": false,
      "stateMutability": "view",
      "type": "function"
    },
    {
      "constant": false,
      "inputs": [],
      "name": "renounceOwnership",
      "outputs": [],
      "payable": false,
      "stateMutability": "nonpayable",
      "type": "function"
    },
    {
      "constant": true,
      "inputs": [],
      "name": "projectDescription",
      "outputs": [
        {
          "name": "",
          "type": "string"
        }
      ],
      "payable": false,
      "stateMutability": "view",
      "type": "function"
    },
    {
      "constant": false,
      "inputs": [
        {
          "name": "_template",
          "type": "address"
        },
        {
          "name": "_bytecode",
          "type": "bytes"
        }
      ],
      "name": "addStrategy",
      "outputs": [],
      "payable": true,
      "stateMutability": "payable",
      "type": "function"
    },
    {
      "constant": true,
      "inputs": [],
      "name": "renderer",
      "outputs": [
        {
          "name": "",
          "type": "address"
        }
      ],
      "payable": false,
      "stateMutability": "view",
      "type": "function"
    },
    {
      "constant": true,
      "inputs": [],
      "name": "owner",
      "outputs": [
        {
          "name": "",
          "type": "address"
        }
      ],
      "payable": false,
      "stateMutability": "view",
      "type": "function"
    },
    {
      "constant": true,
      "inputs": [],
      "name": "logoUrl",
      "outputs": [
        {
          "name": "",
          "type": "string"
        }
      ],
      "payable": false,
      "stateMutability": "view",
      "type": "function"
    },
    {
      "constant": true,
      "inputs": [],
      "name": "projectName",
      "outputs": [
        {
          "name": "",
          "type": "string"
        }
      ],
      "payable": false,
      "stateMutability": "view",
      "type": "function"
    },
    {
      "constant": true,
      "inputs": [],
      "name": "successful",
      "outputs": [
        {
          "name": "",
          "type": "bool"
        }
      ],
      "payable": false,
      "stateMutability": "view",
      "type": "function"
    },
    {
      "constant": true,
      "inputs": [],
      "name": "projectSummary",
      "outputs": [
        {
          "name": "",
          "type": "string"
        }
      ],
      "payable": false,
      "stateMutability": "view",
      "type": "function"
    },
    {
      "constant": true,
      "inputs": [],
      "name": "websiteUrl",
      "outputs": [
        {
          "name": "",
          "type": "string"
        }
      ],
      "payable": false,
      "stateMutability": "view",
      "type": "function"
    },
    {
      "constant": false,
      "inputs": [],
      "name": "claimRefund",
      "outputs": [
        {
          "name": "",
          "type": "bool"
        }
      ],
      "payable": false,
      "stateMutability": "nonpayable",
      "type": "function"
    },
    {
      "constant": true,
      "inputs": [],
      "name": "finished",
      "outputs": [
        {
          "name": "",
          "type": "bool"
        }
      ],
      "payable": false,
      "stateMutability": "view",
      "type": "function"
    },
    {
      "constant": true,
      "inputs": [
        {
          "name": "_weiAmount",
          "type": "uint256"
        }
      ],
      "name": "getTokenAmount",
      "outputs": [
        {
          "name": "",
          "type": "uint256"
        }
      ],
      "payable": false,
      "stateMutability": "view",
      "type": "function"
    },
    {
      "constant": true,
      "inputs": [],
      "name": "withdrawn",
      "outputs": [
        {
          "name": "",
          "type": "bool"
        }
      ],
      "payable": false,
      "stateMutability": "view",
      "type": "function"
    },
    {
      "constant": true,
      "inputs": [
        {
          "name": "_purchaser",
          "type": "address"
        }
      ],
      "name": "paymentOf",
      "outputs": [
        {
          "name": "weiAmount",
          "type": "uint256"
        }
      ],
      "payable": false,
      "stateMutability": "view",
      "type": "function"
    },
    {
      "constant": true,
      "inputs": [],
      "name": "InterfaceId_Sale",
      "outputs": [
        {
          "name": "",
          "type": "bytes4"
        }
      ],
      "payable": false,
      "stateMutability": "view",
      "type": "function"
    },
    {
      "constant": true,
      "inputs": [],
      "name": "coverImageUrl",
      "outputs": [
        {
          "name": "",
          "type": "string"
        }
      ],
      "payable": false,
      "stateMutability": "view",
      "type": "function"
    },
    {
      "constant": false,
      "inputs": [
        {
          "name": "_projectName",
          "type": "string"
        },
        {
          "name": "_projectSummary",
          "type": "string"
        },
        {
          "name": "_projectDescription",
          "type": "string"
        },
        {
          "name": "_logoUrl",
          "type": "string"
        },
        {
          "name": "_coverImageUrl",
          "type": "string"
        },
        {
          "name": "_websiteUrl",
          "type": "string"
        },
        {
          "name": "_whitepaperUrl",
          "type": "string"
        },
        {
          "name": "_name",
          "type": "string"
        }
      ],
      "name": "update",
      "outputs": [],
      "payable": false,
      "stateMutability": "nonpayable",
      "type": "function"
    },
    {
      "constant": false,
      "inputs": [
        {
          "name": "_newOwner",
          "type": "address"
        }
      ],
      "name": "transferOwnership",
      "outputs": [],
      "payable": false,
      "stateMutability": "nonpayable",
      "type": "function"
    },
    {
      "constant": true,
      "inputs": [],
      "name": "InterfaceId_Contract",
      "outputs": [
        {
          "name": "",
          "type": "bytes4"
        }
      ],
      "payable": false,
      "stateMutability": "view",
      "type": "function"
    },
    {
      "constant": true,
      "inputs": [],
      "name": "token",
      "outputs": [
        {
          "name": "",
          "type": "address"
        }
      ],
      "payable": false,
      "stateMutability": "view",
      "type": "function"
    },
    {
      "inputs": [
        {
          "name": "_owner",
          "type": "address"
        },
        {
          "name": "_projectName",
          "type": "string"
        },
        {
          "name": "_name",
          "type": "string"
        },
        {
          "name": "_token",
          "type": "address"
        }
      ],
      "payable": false,
      "stateMutability": "nonpayable",
      "type": "constructor"
    },
    {
      "payable": true,
      "stateMutability": "payable",
      "type": "fallback"
    },
    {
      "anonymous": false,
      "inputs": [
        {
          "indexed": true,
          "name": "purchaser",
          "type": "address"
        },
        {
          "indexed": false,
          "name": "weiAmount",
          "type": "uint256"
        },
        {
          "indexed": false,
          "name": "tokenAmount",
          "type": "uint256"
        }
      ],
      "name": "TokenPurchase",
      "type": "event"
    },
    {
      "anonymous": false,
      "inputs": [
        {
          "indexed": true,
          "name": "previousOwner",
          "type": "address"
        }
      ],
      "name": "OwnershipRenounced",
      "type": "event"
    },
    {
      "anonymous": false,
      "inputs": [
        {
          "indexed": true,
          "name": "previousOwner",
          "type": "address"
        },
        {
          "indexed": true,
          "name": "newOwner",
          "type": "address"
        }
      ],
      "name": "OwnershipTransferred",
      "type": "event"
    },
    {
      "constant": true,
      "inputs": [
        {
          "name": "_locale",
          "type": "string"
        }
      ],
      "name": "adminWidgets",
      "outputs": [
        {
          "name": "jsonObject",
          "type": "string"
        }
      ],
      "payable": false,
      "stateMutability": "view",
      "type": "function"
    },
    {
      "constant": true,
      "inputs": [
        {
          "name": "_locale",
          "type": "string"
        }
      ],
      "name": "userWidgets",
      "outputs": [
        {
          "name": "jsonObject",
          "type": "string"
        }
      ],
      "payable": false,
      "stateMutability": "view",
      "type": "function"
    },
    {
      "constant": true,
      "inputs": [
        {
          "name": "_locale",
          "type": "string"
        }
      ],
      "name": "inputs",
      "outputs": [
        {
          "name": "jsonArray",
          "type": "string"
        }
      ],
      "payable": false,
      "stateMutability": "view",
      "type": "function"
    }
  ],
  "bytecode": "0x60806040523480156200001157600080fd5b506040516200270c3803806200270c8339810160409081528151602083015191830151606084015160008054600160a060020a03191633179055919392830192019083838383838383826200008f7f01ffc9a700000000000000000000000000000000000000000000000000000000640100000000620001ad810204565b6002805433600160a060020a03199182161790915560008054909116600160a060020a038316179055620000ec7f6125ede500000000000000000000000000000000000000000000000000000000640100000000620001ad810204565b508151620001029060039060208501906200021d565b5080516200011890600a9060208401906200021d565b506200014d7f8139792d00000000000000000000000000000000000000000000000000000000640100000000620001ad810204565b505060108054600160a060020a031916600160a060020a038416179055506200019f7f5f57e78900000000000000000000000000000000000000000000000000000000640100000000620001ad810204565b5050505050505050620002c2565b7fffffffff000000000000000000000000000000000000000000000000000000008082161415620001dd57600080fd5b7fffffffff00000000000000000000000000000000000000000000000000000000166000908152600160208190526040909120805460ff19169091179055565b828054600181600116156101000203166002900490600052602060002090601f016020900481019282601f106200026057805160ff191683800117855562000290565b8280016001018555821562000290579182015b828111156200029057825182559160200191906001019062000273565b506200029e929150620002a2565b5090565b620002bf91905b808211156200029e5760008155600101620002a9565b90565b61243a80620002d26000396000f3006080604052600436106101df5763ffffffff60e060020a60003504166301bd341181146102a957806301ffc9a71461037757806306fdde03146103c25780630956e5a6146103d75780630f15f4c0146103fe5780630fc8c0b614610413578063148cb6e614610447578063186601ca1461065f57806319fa8f50146106745780631f2698ab146106bb57806327f6c75a146106d05780632c7a72f8146106e5578063334ff632146106fa5780633ccfd60b1461070f5780634042b66f146107245780635027a91614610739578063655ded03146107515780636f2ddd9314610769578063715018a61461077e578063755f047b146107935780637aeedf2a146107a85780638ada6b0f146108025780638da5cb5b14610817578063908ba6481461082c578063993d77af146108855780639a33e3001461089a5780639a9e3fd8146108af5780639ec318bf146108c4578063a3a8fd2c146108d9578063abb5ca0914610932578063b5545a3c14610947578063bef4876b1461095c578063c2507ac114610971578063c80ec52214610989578063cf7c2b311461099e578063d04be2da146109bf578063dea53c20146109d4578063df1c5c7c146109e9578063f2fde38b14610bf4578063fbf964eb14610c15578063fc0c546a14610c2a575b600254600090819060a060020a900460ff1615156101fc57600080fd5b610204610c3f565b1561020e57600080fd5b610216610d1c565b151561022157600080fd5b61022a34610df8565b151561023557600080fd5b61023f3334610ee2565b61024834610f63565b9150610254338361105f565b90506102608183611148565b151561026b57600080fd5b6040805134815260208101849052815133927fcd60aa75dea3072fbc07ae6d7d856b5dc5f4eee88854f5b4abf7b680ef8bc50f928290030190a25050005b3480156102b557600080fd5b506040805160206004803580820135601f81018490048402850184019095528484526103029436949293602493928401919081908401838280828437509497506112269650505050505050565b6040805160208082528351818301528351919283929083019185019080838360005b8381101561033c578181015183820152602001610324565b50505050905090810190601f1680156103695780820380516001836020036101000a031916815260200191505b509250505060405180910390f35b34801561038357600080fd5b506103ae7bffffffffffffffffffffffffffffffffffffffffffffffffffffffff196004351661138f565b604080519115158252519081900360200190f35b3480156103ce57600080fd5b506103026113c3565b3480156103e357600080fd5b506103ec611451565b60408051918252519081900360200190f35b34801561040a57600080fd5b506103ae611458565b34801561041f57600080fd5b5061042b600435611593565b60408051600160a060020a039092168252519081900360200190f35b34801561045357600080fd5b506040805160206004803580820135601f810184900484028501840190955284845261065d94369492936024939284019190819084018382808284375050604080516020601f89358b018035918201839004830284018301909452808352979a99988101979196509182019450925082915084018382808284375050604080516020601f89358b018035918201839004830284018301909452808352979a99988101979196509182019450925082915084018382808284375050604080516020601f89358b018035918201839004830284018301909452808352979a99988101979196509182019450925082915084018382808284375050604080516020601f89358b018035918201839004830284018301909452808352979a99988101979196509182019450925082915084018382808284375050604080516020601f89358b018035918201839004830284018301909452808352979a99988101979196509182019450925082915084018382808284375050604080516020601f89358b018035918201839004830284018301909452808352979a99988101979196509182019450925082915084018382808284375050604080516020601f89358b018035918201839004830284018301909452808352979a99988101979196509182019450925082915084018382808284375094975050509235600160a060020a031693506115bf92505050565b005b34801561066b57600080fd5b506103ae611606565b34801561068057600080fd5b50610689611616565b604080517bffffffffffffffffffffffffffffffffffffffffffffffffffffffff199092168252519081900360200190f35b3480156106c757600080fd5b506103ae610d1c565b3480156106dc57600080fd5b5061068961163a565b3480156106f157600080fd5b5061030261165e565b34801561070657600080fd5b506103ec6116b9565b34801561071b57600080fd5b506103ae6116bf565b34801561073057600080fd5b506103ec611768565b34801561074557600080fd5b5061042b60043561176e565b34801561075d57600080fd5b506103ae600435610df8565b34801561077557600080fd5b5061042b61177f565b34801561078a57600080fd5b5061065d61178e565b34801561079f57600080fd5b506103026117fa565b60408051602060046024803582810135601f810185900485028601850190965285855261065d958335600160a060020a03169536956044949193909101919081908401838280828437509497506118559650505050505050565b34801561080e57600080fd5b5061042b611bc8565b34801561082357600080fd5b5061042b611be0565b34801561083857600080fd5b506040805160206004803580820135601f8101849004840285018401909552848452610302943694929360249392840191908190840183828082843750949750611bef9650505050505050565b34801561089157600080fd5b50610302611c7c565b3480156108a657600080fd5b50610302611cd7565b3480156108bb57600080fd5b506103ae611d32565b3480156108d057600080fd5b50610302611e06565b3480156108e557600080fd5b506040805160206004803580820135601f8101849004840285018401909552848452610302943694929360249392840191908190840183828082843750949750611e619650505050505050565b34801561093e57600080fd5b50610302611eee565b34801561095357600080fd5b506103ae611f49565b34801561096857600080fd5b506103ae610c3f565b34801561097d57600080fd5b506103ec600435610f63565b34801561099557600080fd5b506103ae611fed565b3480156109aa57600080fd5b506103ec600160a060020a0360043516611ff6565b3480156109cb57600080fd5b50610689612011565b3480156109e057600080fd5b50610302612035565b3480156109f557600080fd5b506040805160206004803580820135601f810184900484028501840190955284845261065d94369492936024939284019190819084018382808284375050604080516020601f89358b018035918201839004830284018301909452808352979a99988101979196509182019450925082915084018382808284375050604080516020601f89358b018035918201839004830284018301909452808352979a99988101979196509182019450925082915084018382808284375050604080516020601f89358b018035918201839004830284018301909452808352979a99988101979196509182019450925082915084018382808284375050604080516020601f89358b018035918201839004830284018301909452808352979a99988101979196509182019450925082915084018382808284375050604080516020601f89358b018035918201839004830284018301909452808352979a99988101979196509182019450925082915084018382808284375050604080516020601f89358b018035918201839004830284018301909452808352979a99988101979196509182019450925082915084018382808284375050604080516020601f89358b018035918201839004830284018301909452808352979a9998810197919650918201945092508291508401838280828437509497506120909650505050505050565b348015610c0057600080fd5b5061065d600160a060020a0360043516612168565b348015610c2157600080fd5b5061068961218b565b348015610c3657600080fd5b5061042b6121af565b6000806000610c4c610d1c565b1515610c5b5760009250610d17565b5060009050805b600e54811015610d13578180610d095750600e805482908110610c8157fe5b9060005260206000200160009054906101000a9004600160a060020a0316600160a060020a031663bef4876b6040518163ffffffff1660e060020a028152600401602060405180830381600087803b158015610cdc57600080fd5b505af1158015610cf0573d6000803e3d6000fd5b505050506040513d6020811015610d0657600080fd5b50515b9150600101610c62565b8192505b505090565b6000806000600260149054906101000a900460ff161515610d405760009250610d17565b5060009050805b600e54811015610d13578180610dee5750600e805482908110610d6657fe5b9060005260206000200160009054906101000a9004600160a060020a0316600160a060020a0316631f2698ab6040518163ffffffff1660e060020a028152600401602060405180830381600087803b158015610dc157600080fd5b505af1158015610dd5573d6000803e3d6000fd5b505050506040513d6020811015610deb57600080fd5b50515b9150600101610d47565b60008080805b600e54821015610ed657600e805483908110610e1657fe5b600091825260209091200154600160a060020a031690508280610ec95750604080517f4f9a82d6000000000000000000000000000000000000000000000000000000008152336004820152602481018790529051600160a060020a03831691634f9a82d69160448083019260209291908290030181600087803b158015610e9c57600080fd5b505af1158015610eb0573d6000803e3d6000fd5b505050506040513d6020811015610ec657600080fd5b50515b9250600190910190610dfe565b8293505b505050919050565b610eea610c3f565b15610ef457600080fd5b610efc610d1c565b1515610f0757600080fd5b600160a060020a0382166000908152600f6020526040902054610f30908263ffffffff6121be16565b600160a060020a0383166000908152600f6020526040902055600b54610f5c908263ffffffff6121be16565b600b555050565b60008080805b600e5483101561105457600e805484908110610f8157fe5b6000918252602080832090910154604080517f5589530e000000000000000000000000000000000000000000000000000000008152336004820152602481018a90529051600160a060020a0390921695508593635589530e9360448084019491939192918390030190829087803b158015610ffb57600080fd5b505af115801561100f573d6000803e3d6000fd5b505050506040513d602081101561102557600080fd5b50519050600081111561104957611042858263ffffffff6121d116565b9350610eda565b600190920191610f69565b506000949350505050565b600080805b600e5482101561113c57600e80548390811061107c57fe5b6000918252602080832090910154604080517fe67c8646000000000000000000000000000000000000000000000000000000008152600160a060020a038a81166004830152602482018a90529151919092169450849363e67c864693604480850194919392918390030190829087803b1580156110f857600080fd5b505af115801561110c573d6000803e3d6000fd5b505050506040513d602081101561112257600080fd5b50511561113157809250611140565b600190910190611064565b8492505b505092915050565b600080805b600e5482101561105457600e80548390811061116557fe5b6000918252602080832090910154604080517f587775e8000000000000000000000000000000000000000000000000000000008152600160a060020a038a81166004830152602482018a90529151919092169450849363587775e893604480850194919392918390030190829087803b1580156111e157600080fd5b505af11580156111f5573d6000803e3d6000fd5b505050506040513d602081101561120b57600080fd5b50511561121b5760019250611140565b60019091019061114d565b604080517fbf3bed54000000000000000000000000000000000000000000000000000000008152306024820181905260048201928352835160448301528351606093735f5f455243323053616c6552656e64657265725f9363bf3bed549387939092918291606490910190602086019080838360005b838110156112b457818101518382015260200161129c565b50505050905090810190601f1680156112e15780820380516001836020036101000a031916815260200191505b509350505050600060405180830381600087803b15801561130157600080fd5b505af1158015611315573d6000803e3d6000fd5b505050506040513d6000823e601f3d908101601f19168201604052602081101561133e57600080fd5b81019080805164010000000081111561135657600080fd5b8201602081018481111561136957600080fd5b815164010000000081118282018710171561138357600080fd5b50909695505050505050565b7bffffffffffffffffffffffffffffffffffffffffffffffffffffffff191660009081526001602052604090205460ff1690565b600a805460408051602060026001851615610100026000190190941693909304601f810184900484028201840190925281815292918301828280156114495780601f1061141e57610100808354040283529160200191611449565b820191906000526020600020905b81548152906001019060200180831161142c57829003601f168201915b505050505081565b600d545b90565b6000805481908190600160a060020a0316331461147457600080fd5b600091505b600d5482101561158457600d80548390811061149157fe5b9060005260206000200160009054906101000a9004600160a060020a0316905080600160a060020a031663186601ca6040518163ffffffff1660e060020a028152600401602060405180830381600087803b1580156114ef57600080fd5b505af1158015611503573d6000803e3d6000fd5b505050506040513d602081101561151957600080fd5b50511561157957600e80546001810182556000919091527fbb7b4a454dc3493923482f07822329ed19e8244eff582cc204f8554c3620c3fd01805473ffffffffffffffffffffffffffffffffffffffff1916600160a060020a0383161790555b600190910190611479565b61158c6121fa565b9250505090565b6000600d828154811015156115a457fe5b600091825260209091200154600160a060020a031692915050565b6115cf8989898989898989612090565b6010805473ffffffffffffffffffffffffffffffffffffffff1916600160a060020a03929092169190911790555050505050505050565b60025460a060020a900460ff1681565b7f01ffc9a70000000000000000000000000000000000000000000000000000000081565b7f5f57e7890000000000000000000000000000000000000000000000000000000081565b6009805460408051602060026001851615610100026000190190941693909304601f810184900484028201840190925281815292918301828280156114495780601f1061141e57610100808354040283529160200191611449565b600e5490565b60008054600160a060020a031633146116d757600080fd5b60025460a060020a900460ff1615156116ef57600080fd5b600c5460ff16156116ff57600080fd5b611707610c3f565b151561171257600080fd5b61171a611d32565b151561172557600080fd5b600c805460ff19166001179055600b54604051339180156108fc02916000818181858888f19350505050158015611760573d6000803e3d6000fd5b506001905090565b600b5481565b6000600e828154811015156115a457fe5b600254600160a060020a031681565b600054600160a060020a031633146117a557600080fd5b60008054604051600160a060020a03909116917ff8df31144d9c2f0f6b59d69b8b98abd5459d07f2742c4df920b25aae33c6482091a26000805473ffffffffffffffffffffffffffffffffffffffff19169055565b6005805460408051602060026001851615610100026000190190941693909304601f810184900484028201840190925281815292918301828280156114495780601f1061141e57610100808354040283529160200191611449565b6000805460609190600160a060020a0316331461187157600080fd5b60025460a060020a900460ff161561188857600080fd5b604080517f01ffc9a70000000000000000000000000000000000000000000000000000000080825260048201529051600160a060020a038616916301ffc9a79160248083019260209291908290030181600087803b1580156118e957600080fd5b505af11580156118fd573d6000803e3d6000fd5b505050506040513d602081101561191357600080fd5b5051151561192057600080fd5b604080517f01ffc9a70000000000000000000000000000000000000000000000000000000081527fd48445ff0000000000000000000000000000000000000000000000000000000060048201529051600160a060020a038616916301ffc9a79160248083019260209291908290030181600087803b1580156119a157600080fd5b505af11580156119b5573d6000803e3d6000fd5b505050506040513d60208110156119cb57600080fd5b505115156119d857600080fd5b6119e184612223565b15156119ec57600080fd5b60408051336020808301919091523082840152825180830384018152606083018085527f6535b4a500000000000000000000000000000000000000000000000000000000905260648301938452865160a48401528651909550600160a060020a03881693636535b4a593349389938993928392608482019260c4909201919087019080838360005b83811015611a8c578181015183820152602001611a74565b50505050905090810190601f168015611ab95780820380516001836020036101000a031916815260200191505b50838103825284518152845160209182019186019080838360005b83811015611aec578181015183820152602001611ad4565b50505050905090810190601f168015611b195780820380516001836020036101000a031916815260200191505b509450505050506020604051808303818588803b158015611b3957600080fd5b505af1158015611b4d573d6000803e3d6000fd5b50505050506040513d6020811015611b6457600080fd5b5051600d80546001810182556000919091527fd7b6990105719101dabeb77144f2a3385c8033acd3af97e9423a695e81ad1eb501805473ffffffffffffffffffffffffffffffffffffffff1916600160a060020a0390921691909117905550505050565b735f5f455243323053616c6552656e64657265725f81565b600054600160a060020a031681565b604080517fe77cee3d000000000000000000000000000000000000000000000000000000008152306024820181905260048201928352835160448301528351606093735f5f455243323053616c6552656e64657265725f9363e77cee3d938793909291829160649091019060208601908083836000838110156112b457818101518382015260200161129c565b6006805460408051602060026001851615610100026000190190941693909304601f810184900484028201840190925281815292918301828280156114495780601f1061141e57610100808354040283529160200191611449565b6003805460408051602060026001851615610100026000190190941693909304601f810184900484028201840190925281815292918301828280156114495780601f1061141e57610100808354040283529160200191611449565b6000806000611d3f610d1c565b1515611d4e5760009250610d17565b5060009050805b600e54811015610d13578180611dfc5750600e805482908110611d7457fe5b9060005260206000200160009054906101000a9004600160a060020a0316600160a060020a0316639a9e3fd86040518163ffffffff1660e060020a028152600401602060405180830381600087803b158015611dcf57600080fd5b505af1158015611de3573d6000803e3d6000fd5b505050506040513d6020811015611df957600080fd5b50515b9150600101611d55565b6004805460408051602060026001851615610100026000190190941693909304601f810184900484028201840190925281815292918301828280156114495780601f1061141e57610100808354040283529160200191611449565b604080517fe9499555000000000000000000000000000000000000000000000000000000008152306024820181905260048201928352835160448301528351606093735f5f455243323053616c6552656e64657265725f9363e9499555938793909291829160649091019060208601908083836000838110156112b457818101518382015260200161129c565b6008805460408051602060026001851615610100026000190190941693909304601f810184900484028201840190925281815292918301828280156114495780601f1061141e57610100808354040283529160200191611449565b600254600090819060a060020a900460ff161515611f6657600080fd5b611f6e610c3f565b1515611f7957600080fd5b611f81611d32565b15611f8b57600080fd5b50336000908152600f6020526040812054908111611fa857600080fd5b336000818152600f60205260408082208290555183156108fc0291849190818181858888f19350505050158015611fe3573d6000803e3d6000fd5b50600191505b5090565b600c5460ff1681565b600160a060020a03166000908152600f602052604090205490565b7f8139792d0000000000000000000000000000000000000000000000000000000081565b6007805460408051602060026001851615610100026000190190941693909304601f810184900484028201840190925281815292918301828280156114495780601f1061141e57610100808354040283529160200191611449565b600054600160a060020a031633146120a757600080fd5b60025460a060020a900460ff16156120be57600080fd5b87516120d19060039060208b0190612380565b5086516120e59060049060208a0190612380565b5085516120f9906005906020890190612380565b50845161210d906006906020880190612380565b508351612121906007906020870190612380565b508251612135906008906020860190612380565b508151612149906009906020850190612380565b50805161215d90600a906020840190612380565b505050505050505050565b600054600160a060020a0316331461217f57600080fd5b61218881612303565b50565b7f6125ede50000000000000000000000000000000000000000000000000000000081565b601054600160a060020a031681565b818101828110156121cb57fe5b92915050565b60008215156121e2575060006121cb565b508181028183828115156121f257fe5b04146121cb57fe5b6002805474ff0000000000000000000000000000000000000000191660a060020a179055600190565b600080805b600d548210156122f757600d80548390811061224057fe5b9060005260206000200160009054906101000a9004600160a060020a0316905083600160a060020a031681600160a060020a0316636f2ddd936040518163ffffffff1660e060020a028152600401602060405180830381600087803b1580156122a857600080fd5b505af11580156122bc573d6000803e3d6000fd5b505050506040513d60208110156122d257600080fd5b5051600160a060020a031614156122ec57600092506122fc565b600190910190612228565b600192505b5050919050565b600160a060020a038116151561231857600080fd5b60008054604051600160a060020a03808516939216917f8be0079c531659141344cd1fd0a4f28419497f9722a3daafe3b4186f6b6457e091a36000805473ffffffffffffffffffffffffffffffffffffffff1916600160a060020a0392909216919091179055565b828054600181600116156101000203166002900490600052602060002090601f016020900481019282601f106123c157805160ff19168380011785556123ee565b828001600101855582156123ee579182015b828111156123ee5782518255916020019190600101906123d3565b50611fe9926114559250905b80821115611fe957600081556001016123fa5600a165627a7a72305820c8bcc6d248f29fbf5462d5e66fcd8dcf5d54b7ff5c9eff73cd7ad1cc7d954efe0029",
  "source": "pragma solidity ^0.4.24;\n\nimport \"tokenboost-solidity/contracts/widget/Renderable.sol\";\nimport \"./ERC20Sale.sol\";\nimport \"./widget/ERC20SaleRenderer.sol\";\n\ncontract RenderableERC20Sale is ERC20Sale, Renderable {\n    ERC20SaleRenderer constant public renderer = ERC20SaleRenderer(address(bytes20(\"__ERC20SaleRenderer_\")));\n\n    constructor(\n        address _owner,\n        string _projectName,\n        string _name,\n        ERC20 _token\n    ) public ERC20Sale(_owner, _projectName, _name, _token) {\n    }\n\n    function adminWidgets(string _locale) public view returns (string jsonObject) {\n        return renderer.adminWidgets(_locale, this);\n    }\n\n    function userWidgets(string _locale) public view returns (string jsonObject) {\n        return renderer.userWidgets(_locale, this);\n    }\n\n    function inputs(string _locale) public view returns (string jsonArray) {\n        return renderer.inputs(_locale, this);\n    }\n}\n",
  "sourcePath": "/Users/yoonjae/SolidityProjects/tokenboost-solidity-erc20sale/contracts/sale/erc20/RenderableERC20Sale.sol",
  "compiler": {
    "name": "solc",
    "version": "0.4.24+commit.e67f0147.Emscripten.clang"
  },
  "schemaVersion": "2.0.1",
  "updatedAt": "2018-10-05T08:52:04.322Z"
}