{
  "contractName": "SaleStatusWidgetRenderer",
  "abi": [
    {
      "constant": true,
      "inputs": [],
      "name": "SALE_STATUS",
      "outputs": [
        {
          "name": "",
          "type": "string"
        }
      ],
      "payable": false,
      "stateMutability": "view",
      "type": "function"
    },
    {
      "constant": true,
      "inputs": [],
      "name": "STARTED",
      "outputs": [
        {
          "name": "",
          "type": "string"
        }
      ],
      "payable": false,
      "stateMutability": "view",
      "type": "function"
    },
    {
      "constant": true,
      "inputs": [],
      "name": "FINISHED_DESC",
      "outputs": [
        {
          "name": "",
          "type": "string"
        }
      ],
      "payable": false,
      "stateMutability": "view",
      "type": "function"
    },
    {
      "constant": true,
      "inputs": [],
      "name": "SUCCESSFUL",
      "outputs": [
        {
          "name": "",
          "type": "string"
        }
      ],
      "payable": false,
      "stateMutability": "view",
      "type": "function"
    },
    {
      "constant": false,
      "inputs": [],
      "name": "renounceOwnership",
      "outputs": [],
      "payable": false,
      "stateMutability": "nonpayable",
      "type": "function"
    },
    {
      "constant": true,
      "inputs": [],
      "name": "STARTED_DESC",
      "outputs": [
        {
          "name": "",
          "type": "string"
        }
      ],
      "payable": false,
      "stateMutability": "view",
      "type": "function"
    },
    {
      "constant": true,
      "inputs": [],
      "name": "SHORT_DESC",
      "outputs": [
        {
          "name": "",
          "type": "string"
        }
      ],
      "payable": false,
      "stateMutability": "view",
      "type": "function"
    },
    {
      "constant": true,
      "inputs": [],
      "name": "owner",
      "outputs": [
        {
          "name": "",
          "type": "address"
        }
      ],
      "payable": false,
      "stateMutability": "view",
      "type": "function"
    },
    {
      "constant": true,
      "inputs": [],
      "name": "LONG_DESC",
      "outputs": [
        {
          "name": "",
          "type": "string"
        }
      ],
      "payable": false,
      "stateMutability": "view",
      "type": "function"
    },
    {
      "constant": true,
      "inputs": [],
      "name": "FINISHED",
      "outputs": [
        {
          "name": "",
          "type": "string"
        }
      ],
      "payable": false,
      "stateMutability": "view",
      "type": "function"
    },
    {
      "constant": true,
      "inputs": [],
      "name": "ACTIVATED",
      "outputs": [
        {
          "name": "",
          "type": "string"
        }
      ],
      "payable": false,
      "stateMutability": "view",
      "type": "function"
    },
    {
      "constant": false,
      "inputs": [
        {
          "name": "locale",
          "type": "string"
        },
        {
          "name": "key",
          "type": "string"
        },
        {
          "name": "value",
          "type": "string"
        }
      ],
      "name": "setResource",
      "outputs": [],
      "payable": false,
      "stateMutability": "nonpayable",
      "type": "function"
    },
    {
      "constant": false,
      "inputs": [
        {
          "name": "_newOwner",
          "type": "address"
        }
      ],
      "name": "transferOwnership",
      "outputs": [],
      "payable": false,
      "stateMutability": "nonpayable",
      "type": "function"
    },
    {
      "constant": true,
      "inputs": [
        {
          "name": "locale",
          "type": "string"
        },
        {
          "name": "key",
          "type": "string"
        }
      ],
      "name": "resource",
      "outputs": [
        {
          "name": "",
          "type": "string"
        }
      ],
      "payable": false,
      "stateMutability": "view",
      "type": "function"
    },
    {
      "constant": true,
      "inputs": [],
      "name": "ACTIVATED_DESC",
      "outputs": [
        {
          "name": "",
          "type": "string"
        }
      ],
      "payable": false,
      "stateMutability": "view",
      "type": "function"
    },
    {
      "constant": true,
      "inputs": [],
      "name": "SUCCESSFUL_DESC",
      "outputs": [
        {
          "name": "",
          "type": "string"
        }
      ],
      "payable": false,
      "stateMutability": "view",
      "type": "function"
    },
    {
      "anonymous": false,
      "inputs": [
        {
          "indexed": true,
          "name": "previousOwner",
          "type": "address"
        }
      ],
      "name": "OwnershipRenounced",
      "type": "event"
    },
    {
      "anonymous": false,
      "inputs": [
        {
          "indexed": true,
          "name": "previousOwner",
          "type": "address"
        },
        {
          "indexed": true,
          "name": "newOwner",
          "type": "address"
        }
      ],
      "name": "OwnershipTransferred",
      "type": "event"
    },
    {
      "constant": true,
      "inputs": [
        {
          "name": "_locale",
          "type": "string"
        },
        {
          "name": "_sale",
          "type": "address"
        }
      ],
      "name": "render",
      "outputs": [
        {
          "name": "",
          "type": "string"
        }
      ],
      "payable": false,
      "stateMutability": "view",
      "type": "function"
    }
  ],
  "bytecode": "0x608060405260008054600160a060020a03191633179055612d1f806100256000396000f3006080604052600436106100d75763ffffffff60e060020a6000350416630a82f53b81146100dc5780631be35a591461016657806353e957211461017b5780636e21759914610190578063715018a6146101a557806385df338a146101bc5780638b582712146101d15780638da5cb5b146101e6578063ac5c6e1214610217578063b54e5e8f1461022c578063ca1a70be14610241578063d5db8135146102a5578063ed3487fe146102ba578063f2fde38b1461038f578063f65a5c1b146103b0578063fe3d32a514610447578063fff9844a1461045c575b600080fd5b3480156100e857600080fd5b506100f1610471565b6040805160208082528351818301528351919283929083019185019080838360005b8381101561012b578181015183820152602001610113565b50505050905090810190601f1680156101585780820380516001836020036101000a031916815260200191505b509250505060405180910390f35b34801561017257600080fd5b506100f16104a8565b34801561018757600080fd5b506100f16104df565b34801561019c57600080fd5b506100f1610516565b3480156101b157600080fd5b506101ba61054d565b005b3480156101c857600080fd5b506100f16105b9565b3480156101dd57600080fd5b506100f16105f0565b3480156101f257600080fd5b506101fb610627565b60408051600160a060020a039092168252519081900360200190f35b34801561022357600080fd5b506100f1610636565b34801561023857600080fd5b506100f161066d565b34801561024d57600080fd5b506040805160206004803580820135601f81018490048402850184019095528484526100f194369492936024939284019190819084018382808284375094975050509235600160a060020a031693506106a492505050565b3480156102b157600080fd5b506100f1611842565b3480156102c657600080fd5b506040805160206004803580820135601f81018490048402850184019095528484526101ba94369492936024939284019190819084018382808284375050604080516020601f89358b018035918201839004830284018301909452808352979a99988101979196509182019450925082915084018382808284375050604080516020601f89358b018035918201839004830284018301909452808352979a9998810197919650918201945092508291508401838280828437509497506118799650505050505050565b34801561039b57600080fd5b506101ba600160a060020a0360043516611966565b3480156103bc57600080fd5b506040805160206004803580820135601f81018490048402850184019095528484526100f194369492936024939284019190819084018382808284375050604080516020601f89358b018035918201839004830284018301909452808352979a9998810197919650918201945092508291508401838280828437509497506119899650505050505050565b34801561045357600080fd5b506100f1611ada565b34801561046857600080fd5b506100f1611b11565b60408051808201909152600b81527f73616c655f737461747573000000000000000000000000000000000000000000602082015281565b60408051808201909152600781527f7374617274656400000000000000000000000000000000000000000000000000602082015281565b60408051808201909152600d81527f66696e69736865645f6465736300000000000000000000000000000000000000602082015281565b60408051808201909152600a81527f7375636365737366756c00000000000000000000000000000000000000000000602082015281565b600054600160a060020a0316331461056457600080fd5b60008054604051600160a060020a03909116917ff8df31144d9c2f0f6b59d69b8b98abd5459d07f2742c4df920b25aae33c6482091a26000805473ffffffffffffffffffffffffffffffffffffffff19169055565b60408051808201909152600c81527f737461727465645f646573630000000000000000000000000000000000000000602082015281565b60408051808201909152600a81527f73686f72745f6465736300000000000000000000000000000000000000000000602082015281565b600054600160a060020a031681565b60408051808201909152600981527f6c6f6e675f646573630000000000000000000000000000000000000000000000602082015281565b60408051808201909152600881527f66696e6973686564000000000000000000000000000000000000000000000000602082015281565b6060806060806106b2612b44565b85600160a060020a031663186601ca6040518163ffffffff1660e060020a028152600401602060405180830381600087803b1580156106f057600080fd5b505af1158015610704573d6000803e3d6000fd5b505050506040513d602081101561071a57600080fd5b5051156118265785600160a060020a031663bef4876b6040518163ffffffff1660e060020a028152600401602060405180830381600087803b15801561075f57600080fd5b505af1158015610773573d6000803e3d6000fd5b505050506040513d602081101561078957600080fd5b505115610a85576001876040518082805190602001908083835b602083106107c25780518252601f1990920191602091820191016107a3565b51815160209384036101000a6000190180199092169116179052920194855250604080519485900382018520858201825260088087527f66696e697368656400000000000000000000000000000000000000000000000093870193845291519095945092508291908083835b6020831061084d5780518252601f19909201916020918201910161082e565b518151600019602094850361010090810a820192831692199390931691909117909252949092019687526040805197889003820188208054601f60026001831615909802909501169590950492830182900482028801820190528187529294509250508301828280156109015780601f106108d657610100808354040283529160200191610901565b820191906000526020600020905b8154815290600101906020018083116108e457829003601f168201915b505050505093506001876040518082805190602001908083835b6020831061093a5780518252601f19909201916020918201910161091b565b51815160209384036101000a60001901801990921691161790529201948552506040805194859003820185208582018252600d8087527f66696e69736865645f646573630000000000000000000000000000000000000093870193845291519095945092508291908083835b602083106109c55780518252601f1990920191602091820191016109a6565b518151600019602094850361010090810a820192831692199390931691909117909252949092019687526040805197889003820188208054601f6002600183161590980290950116959095049283018290048202880182019052818752929450925050830182828015610a795780601f10610a4e57610100808354040283529160200191610a79565b820191906000526020600020905b815481529060010190602001808311610a5c57829003601f168201915b50505050509250611288565b85600160a060020a0316639a9e3fd86040518163ffffffff1660e060020a028152600401602060405180830381600087803b158015610ac357600080fd5b505af1158015610ad7573d6000803e3d6000fd5b505050506040513d6020811015610aed57600080fd5b505115610d0e576001876040518082805190602001908083835b60208310610b265780518252601f199092019160209182019101610b07565b51815160209384036101000a60001901801990921691161790529201948552506040805194859003820185208582018252600a8087527f7375636365737366756c0000000000000000000000000000000000000000000093870193845291519095945092508291908083835b60208310610bb15780518252601f199092019160209182019101610b92565b518151600019602094850361010090810a820192831692199390931691909117909252949092019687526040805197889003820188208054601f6002600183161590980290950116959095049283018290048202880182019052818752929450925050830182828015610c655780601f10610c3a57610100808354040283529160200191610c65565b820191906000526020600020905b815481529060010190602001808311610c4857829003601f168201915b505050505093506001876040518082805190602001908083835b60208310610c9e5780518252601f199092019160209182019101610c7f565b51815160209384036101000a60001901801990921691161790529201948552506040805194859003820185208582018252600f8087527f7375636365737366756c5f64657363000000000000000000000000000000000093870193845291519095945092508291908083836109c5565b85600160a060020a0316631f2698ab6040518163ffffffff1660e060020a028152600401602060405180830381600087803b158015610d4c57600080fd5b505af1158015610d60573d6000803e3d6000fd5b505050506040513d6020811015610d7657600080fd5b505115610f97576001876040518082805190602001908083835b60208310610daf5780518252601f199092019160209182019101610d90565b51815160209384036101000a6000190180199092169116179052920194855250604080519485900382018520858201825260078087527f737461727465640000000000000000000000000000000000000000000000000093870193845291519095945092508291908083835b60208310610e3a5780518252601f199092019160209182019101610e1b565b518151600019602094850361010090810a820192831692199390931691909117909252949092019687526040805197889003820188208054601f6002600183161590980290950116959095049283018290048202880182019052818752929450925050830182828015610eee5780601f10610ec357610100808354040283529160200191610eee565b820191906000526020600020905b815481529060010190602001808311610ed157829003601f168201915b505050505093506001876040518082805190602001908083835b60208310610f275780518252601f199092019160209182019101610f08565b51815160209384036101000a60001901801990921691161790529201948552506040805194859003820185208582018252600c8087527f737461727465645f64657363000000000000000000000000000000000000000093870193845291519095945092508291908083836109c5565b6001876040518082805190602001908083835b60208310610fc95780518252601f199092019160209182019101610faa565b51815160209384036101000a6000190180199092169116179052920194855250604080519485900382018520858201825260098087527f616374697661746564000000000000000000000000000000000000000000000093870193845291519095945092508291908083835b602083106110545780518252601f199092019160209182019101611035565b518151600019602094850361010090810a820192831692199390931691909117909252949092019687526040805197889003820188208054601f60026001831615909802909501169590950492830182900482028801820190528187529294509250508301828280156111085780601f106110dd57610100808354040283529160200191611108565b820191906000526020600020905b8154815290600101906020018083116110eb57829003601f168201915b505050505093506001876040518082805190602001908083835b602083106111415780518252601f199092019160209182019101611122565b51815160209384036101000a60001901801990921691161790529201948552506040805194859003820185208582018252600e8087527f6163746976617465645f6465736300000000000000000000000000000000000093870193845291519095945092508291908083835b602083106111cc5780518252601f1990920191602091820191016111ad565b518151600019602094850361010090810a820192831692199390931691909117909252949092019687526040805197889003820188208054601f60026001831615909802909501169590950492830182900482028801820190528187529294509250508301828280156112805780601f1061125557610100808354040283529160200191611280565b820191906000526020600020905b81548152906001019060200180831161126357829003601f168201915b505050505092505b60408051600180825281830190925290816020015b6112a5612b74565b81526020019060019003908161129d57905050915060e0604051908101604052806001151581526020016040805190810160405280600b81526020017f73616c655f73746174757300000000000000000000000000000000000000000081525081526020016040805190810160405280600481526020017f7465787400000000000000000000000000000000000000000000000000000000815250815260200185815260200161135485611b48565b8152602001611361611bbd565b815260200161136e611c10565b905282518390600090811061137f57fe5b9060200190602002018190525060a0604051908101604052806001896040518082805190602001908083835b602083106113ca5780518252601f1990920191602091820191016113ab565b51815160209384036101000a60001901801990921691161790529201948552506040805194859003820185208582018252600b8087527f73616c655f73746174757300000000000000000000000000000000000000000093870193845291519095945092508291908083835b602083106114555780518252601f199092019160209182019101611436565b518151600019602094850361010090810a820192831692199390931691909117909252949092019687526040805197889003820188208054601f60026001831615909802909501169590950492830182900482028801820190528187529294509250508301828280156115095780601f106114de57610100808354040283529160200191611509565b820191906000526020600020905b8154815290600101906020018083116114ec57829003601f168201915b505050505081526020016001896040518082805190602001908083835b602083106115455780518252601f199092019160209182019101611526565b51815160209384036101000a60001901801990921691161790529201948552506040805194859003820185208582018252600a8087527f73686f72745f646573630000000000000000000000000000000000000000000093870193845291519095945092508291908083835b602083106115d05780518252601f1990920191602091820191016115b1565b518151600019602094850361010090810a820192831692199390931691909117909252949092019687526040805197889003820188208054601f60026001831615909802909501169590950492830182900482028801820190528187529294509250508301828280156116845780601f1061165957610100808354040283529160200191611684565b820191906000526020600020905b81548152906001019060200180831161166757829003601f168201915b505050505081526020016001896040518082805190602001908083835b602083106116c05780518252601f1990920191602091820191016116a1565b51815160209384036101000a6000190180199092169116179052920194855250604080519485900382018520858201825260098087527f6c6f6e675f64657363000000000000000000000000000000000000000000000093870193845291519095945092508291908083835b6020831061174b5780518252601f19909201916020918201910161172c565b518151600019602094850361010090810a820192831692199390931691909117909252949092019687526040805197889003820188208054601f60026001831615909802909501169590950492830182900482028801820190528187529294509250508301828280156117ff5780601f106117d4576101008083540402835291602001916117ff565b820191906000526020600020905b8154815290600101906020018083116117e257829003601f168201915b505050505081526020016004815260200183815250905061181f81611c9d565b9450611838565b60408051602081019091526000815294505b5050505092915050565b60408051808201909152600981527f6163746976617465640000000000000000000000000000000000000000000000602082015281565b600054600160a060020a0316331461189057600080fd5b806001846040518082805190602001908083835b602083106118c35780518252601f1990920191602091820191016118a4565b51815160209384036101000a6000190180199092169116179052920194855250604051938490038101842087519094889450925082918401908083835b6020831061191f5780518252601f199092019160209182019101611900565b51815160209384036101000a600019018019909216911617905292019485525060405193849003810190932084516119609591949190910192509050612bc0565b50505050565b600054600160a060020a0316331461197d57600080fd5b61198681611efa565b50565b60606001836040518082805190602001908083835b602083106119bd5780518252601f19909201916020918201910161199e565b51815160209384036101000a6000190180199092169116179052920194855250604051938490038101842086519094879450925082918401908083835b60208310611a195780518252601f1990920191602091820191016119fa565b518151600019602094850361010090810a820192831692199390931691909117909252949092019687526040805197889003820188208054601f6002600183161590980290950116959095049283018290048202880182019052818752929450925050830182828015611acd5780601f10611aa257610100808354040283529160200191611acd565b820191906000526020600020905b815481529060010190602001808311611ab057829003601f168201915b5050505050905092915050565b60408051808201909152600e81527f6163746976617465645f64657363000000000000000000000000000000000000602082015281565b60408051808201909152600f81527f7375636365737366756c5f646573630000000000000000000000000000000000602082015281565b6060611bb7611b7260408051908101604052806001815260200160f960020a601102815250611f77565b611ba6611bb2611b8186611f77565b611ba660408051908101604052806001815260200160f960020a601102815250611f77565b9063ffffffff611fa016565b611f77565b92915050565b611bc5612c3e565b506040805160a0810182526000808252602080830182905283518082018552828152838501528351808201855282815260608401528351908101909352825260808101919091525b90565b611c18612c6b565b60408051606081018252600080825282518181526020818101909452919283019190611c5a565b611c47612c8f565b815260200190600190039081611c3f5790505b5081526020016000604051908082528060200260200182016040528015611c9557816020015b6060815260200190600190039081611c805790505b509052905090565b60408051808201909152600a81527f7b227469746c65223a22000000000000000000000000000000000000000000006020820152815160609190600090611cf090611ce790611f77565b611ba684611f77565b9150611d33611ce76040805190810160405280600f81526020017f222c2273686f727444657363223a220000000000000000000000000000000000815250611f77565b9150611d45611ce78560200151611f77565b9150611d88611ce76040805190810160405280600e81526020017f222c226c6f6e6744657363223a22000000000000000000000000000000000000815250611f77565b9150611d9a611ce78560400151611f77565b9150611ddd611ce76040805190810160405280600a81526020017f222c227769647468223a00000000000000000000000000000000000000000000815250611f77565b9150611df2611ce7611bb28660600151612017565b9150611e35611ce76040805190810160405280600d81526020017f2c22656c656d656e7473223a5b00000000000000000000000000000000000000815250611f77565b9150600090505b836080015151811015611eb1576000811115611e7d57611e7a611ce760408051908101604052806001815260200160fa60020a600b02815250611f77565b91505b611ea7611ce7611bb2866080015184815181101515611e9857fe5b90602001906020020151612176565b9150600101611e3c565b611ef2611ce76040805190810160405280600281526020017f5d7d000000000000000000000000000000000000000000000000000000000000815250611f77565b949350505050565b600160a060020a0381161515611f0f57600080fd5b60008054604051600160a060020a03808516939216917f8be0079c531659141344cd1fd0a4f28419497f9722a3daafe3b4186f6b6457e091a36000805473ffffffffffffffffffffffffffffffffffffffff1916600160a060020a0392909216919091179055565b611f7f612cc2565b50604080518082019091528151815260208281019082018190525b50919050565b606080600083600001518560000151016040519080825280601f01601f191660200182016040528015611fdd578160200160208202803883390190505b509150602082019050611ff9818660200151876000015161244b565b84516020850151855161200f928401919061244b565b509392505050565b606080600081818515156120605760408051808201909152600181527f30000000000000000000000000000000000000000000000000000000000000006020820152945061216d565b6040805160208082528183019092529080820161040080388339019050509350600092505b60008611156120d257600a860660300160f860020a0284848151811015156120a957fe5b906020010190600160f860020a031916908160001a905350600a86049550600190920191612085565b60408051848152601f19601f86011681016020019091526000198401938015612105578160200160208202803883390190505b509150600090505b81518110156121695783516000198401938591811061212857fe5b90602001015160f860020a900460f860020a02828281518110151561214957fe5b906020010190600160f860020a031916908160001a90535060010161210d565b8194505b50505050919050565b606080826000015115612410576040805190810160405280600781526020017f7b226964223a220000000000000000000000000000000000000000000000000081525090506121d46121cb8460200151611f77565b611ba683611f77565b90506121fe6121cb60408051908101604052806001815260200160f960020a601102815250611f77565b60a084015151909150156122655761224d6121cb6040805190810160405280600b81526020017f2c2022616374696f6e223a000000000000000000000000000000000000000000815250611f77565b90506122626121cb611bb28560a0015161248f565b90505b60c083015151156122c9576122b16121cb6040805190810160405280600a81526020017f2c20227461626c65223a00000000000000000000000000000000000000000000815250611f77565b90506122c66121cb611bb28560c00151612632565b90505b61230a6121cb6040805190810160405280600981526020017f2c2274797065223a220000000000000000000000000000000000000000000000815250611f77565b905061231c6121cb8460400151611f77565b905061235f6121cb6040805190810160405280600b81526020017f222c226c6162656c223a22000000000000000000000000000000000000000000815250611f77565b90506123716121cb8460600151611f77565b90506123b46121cb6040805190810160405280600981526020017f222c2264617461223a0000000000000000000000000000000000000000000000815250611f77565b90506123c66121cb8460800151611f77565b90506124096121cb6040805190810160405280600181526020017f7d00000000000000000000000000000000000000000000000000000000000000815250611f77565b9150611f9a565b60408051808201909152600481527f6e756c6c0000000000000000000000000000000000000000000000000000000060208201529150611f9a565b60005b60208210612470578251845260209384019390920191601f199091019061244e565b50905182516020929092036101000a6000190180199091169116179052565b606080826000015115612410576040805190810160405280600c81526020017f7b2261646472657373223a22000000000000000000000000000000000000000081525090506124f06121cb611bb28560200151600160a060020a0316612849565b90506125336121cb6040805190810160405280601681526020017f222c2266756e6374696f6e53656c6563746f72223a2200000000000000000000815250611f77565b90506125456121cb8460400151611f77565b90506125886121cb6040805190810160405280600e81526020017f222c22617267756d656e7473223a000000000000000000000000000000000000815250611f77565b905061259a6121cb8460600151611f77565b90506125dd6121cb6040805190810160405280600c81526020017f2c22636f6e6669726d223a220000000000000000000000000000000000000000815250611f77565b90506125ef6121cb8460800151611f77565b90506124096121cb6040805190810160405280600281526020017f227d000000000000000000000000000000000000000000000000000000000000815250611f77565b60608060008084600001511561280a57505060408051808201909152600c81527f7b22636f6c756d6e73223a5b0000000000000000000000000000000000000000602082015290506000805b8460200151518110156127005760008211156126c8576126c56126bc60408051908101604052806001815260200160fa60020a600b02815250611f77565b611ba685611f77565b92505b6126f26126bc611bb28760200151848151811015156126e357fe5b9060200190602002015161298c565b92506001918201910161267e565b6127416126bc6040805190810160405280600a81526020017f5d2c22726f7773223a5b00000000000000000000000000000000000000000000815250611f77565b925060009150600090505b8460400151518110156127c257600082111561278d5761278a6126bc60408051908101604052806001815260200160fa60020a600b02815250611f77565b92505b6127b46126bc8660400151838151811015156127a557fe5b90602001906020020151611f77565b92506001918201910161274c565b6128036126bc6040805190810160405280600281526020017f5d7d000000000000000000000000000000000000000000000000000000000000815250611f77565b9350612841565b60408051808201909152600481527f6e756c6c00000000000000000000000000000000000000000000000000000000602082015293505b505050919050565b60408051602a80825260608083019093528291600091829182916020820161054080388339505081519195507f30000000000000000000000000000000000000000000000000000000000000009186915060009081106128a557fe5b906020010190600160f860020a031916908160001a90535083517f780000000000000000000000000000000000000000000000000000000000000090859060019081106128ee57fe5b906020010190600160f860020a031916908160001a905350859250600091505b602882101561298257506030600f8316016039600160a060020a0382161115612935576027015b8060f860020a02848360280360010181518110151561295057fe5b906020010190600160f860020a031916908160001a9053506010600160a060020a03841604925060019091019061290e565b5091949350505050565b606080826000015115612410576040805190810160405280600781526020017f7b226964223a220000000000000000000000000000000000000000000000000081525090506129e16121cb8460200151611f77565b9050612a0b6121cb60408051908101604052806001815260200160f960020a601102815250611f77565b60808401515190915015612a9c57612a416121cb60408051908101604052806001815260200160fa60020a600b02815250611f77565b9050612a846121cb6040805190810160405280600981526020017f22616374696f6e223a0000000000000000000000000000000000000000000000815250611f77565b9050612a996121cb611bb2856080015161248f565b90505b612add6121cb6040805190810160405280600981526020017f2c2274797065223a220000000000000000000000000000000000000000000000815250611f77565b9050612aef6121cb8460400151611f77565b9050612b326121cb6040805190810160405280600b81526020017f222c226c6162656c223a22000000000000000000000000000000000000000000815250611f77565b90506125ef6121cb8460600151611f77565b60a06040519081016040528060608152602001606081526020016060815260200160008152602001606081525090565b6101a06040519081016040528060001515815260200160608152602001606081526020016060815260200160608152602001612bae612c3e565b8152602001612bbb612c6b565b905290565b828054600181600116156101000203166002900490600052602060002090601f016020900481019282601f10612c0157805160ff1916838001178555612c2e565b82800160010185558215612c2e579182015b82811115612c2e578251825591602001919060010190612c13565b50612c3a929150612cd9565b5090565b6040805160a081018252600080825260208201526060918101829052818101829052608081019190915290565b60606040519081016040528060001515815260200160608152602001606081525090565b61012060405190810160405280600015158152602001606081526020016060815260200160608152602001612bbb612c3e565b604080518082019091526000808252602082015290565b611c0d91905b80821115612c3a5760008155600101612cdf5600a165627a7a72305820f797632e1ccbfe8563beaa28e5c93c54b9fb039516be6784ca2b72cd92c858700029",
  "source": "pragma solidity ^0.4.24;\n\nimport \"./ERC20SaleWidgetRenderer.sol\";\nimport \"tokenboost-solidity/contracts/widget/Widgets.sol\";\nimport \"tokenboost-solidity/contracts/utils/StringUtils.sol\";\n\ncontract SaleStatusWidgetRenderer is ERC20SaleWidgetRenderer {\n    using Widgets for Widgets.Widget;\n    using StringUtils for string;\n\n    string public constant SALE_STATUS = \"sale_status\";\n    string public constant SHORT_DESC = \"short_desc\";\n    string public constant LONG_DESC = \"long_desc\";\n    string public constant ACTIVATED = \"activated\";\n    string public constant ACTIVATED_DESC = \"activated_desc\";\n    string public constant STARTED = \"started\";\n    string public constant STARTED_DESC = \"started_desc\";\n    string public constant SUCCESSFUL = \"successful\";\n    string public constant SUCCESSFUL_DESC = \"successful_desc\";\n    string public constant FINISHED = \"finished\";\n    string public constant FINISHED_DESC = \"finished_desc\";\n\n    function render(string _locale, ERC20Sale _sale) public view returns (string) {\n        if (_sale.activated()) {\n            string memory status;\n            string memory desc;\n            if (_sale.finished()) {\n                status = resources[_locale][FINISHED];\n                desc = resources[_locale][FINISHED_DESC];\n            } else if (_sale.successful()) {\n                status = resources[_locale][SUCCESSFUL];\n                desc = resources[_locale][SUCCESSFUL_DESC];\n            } else if (_sale.started()) {\n                status = resources[_locale][STARTED];\n                desc = resources[_locale][STARTED_DESC];\n            } else {\n                status = resources[_locale][ACTIVATED];\n                desc = resources[_locale][ACTIVATED_DESC];\n            }\n            Elements.Element[] memory elements = new Elements.Element[](1);\n            elements[0] = Elements.Element(\n                true,\n                SALE_STATUS,\n                \"text\",\n                status,\n                desc.quoted(),\n                Actions.empty(),\n                Tables.empty()\n            );\n            Widgets.Widget memory widget = Widgets.Widget(\n                resources[_locale][SALE_STATUS],\n                resources[_locale][SHORT_DESC],\n                resources[_locale][LONG_DESC],\n                4,\n                elements\n            );\n            return widget.toJson();\n        } else {\n            return \"\";\n        }\n    }\n}\n",
  "sourcePath": "/Users/yoonjae/SolidityProjects/tokenboost-solidity-erc20sale/contracts/sale/erc20/widget/SaleStatusWidgetRenderer.sol",
  "compiler": {
    "name": "solc",
    "version": "0.4.24+commit.e67f0147.Emscripten.clang"
  },
  "schemaVersion": "2.0.1",
  "updatedAt": "2018-11-01T09:28:40.930Z"
}