{
  "contractName": "TokenInfoWidgetRenderer",
  "abi": [
    {
      "constant": true,
      "inputs": [],
      "name": "TOKEN_ADDRESS",
      "outputs": [
        {
          "name": "",
          "type": "string"
        }
      ],
      "payable": false,
      "stateMutability": "view",
      "type": "function"
    },
    {
      "constant": true,
      "inputs": [],
      "name": "TOKEN_INFO",
      "outputs": [
        {
          "name": "",
          "type": "string"
        }
      ],
      "payable": false,
      "stateMutability": "view",
      "type": "function"
    },
    {
      "constant": false,
      "inputs": [],
      "name": "renounceOwnership",
      "outputs": [],
      "payable": false,
      "stateMutability": "nonpayable",
      "type": "function"
    },
    {
      "constant": true,
      "inputs": [],
      "name": "SHORT_DESC",
      "outputs": [
        {
          "name": "",
          "type": "string"
        }
      ],
      "payable": false,
      "stateMutability": "view",
      "type": "function"
    },
    {
      "constant": true,
      "inputs": [],
      "name": "owner",
      "outputs": [
        {
          "name": "",
          "type": "address"
        }
      ],
      "payable": false,
      "stateMutability": "view",
      "type": "function"
    },
    {
      "constant": true,
      "inputs": [],
      "name": "LONG_DESC",
      "outputs": [
        {
          "name": "",
          "type": "string"
        }
      ],
      "payable": false,
      "stateMutability": "view",
      "type": "function"
    },
    {
      "constant": false,
      "inputs": [
        {
          "name": "locale",
          "type": "string"
        },
        {
          "name": "key",
          "type": "string"
        },
        {
          "name": "value",
          "type": "string"
        }
      ],
      "name": "setResource",
      "outputs": [],
      "payable": false,
      "stateMutability": "nonpayable",
      "type": "function"
    },
    {
      "constant": false,
      "inputs": [
        {
          "name": "_newOwner",
          "type": "address"
        }
      ],
      "name": "transferOwnership",
      "outputs": [],
      "payable": false,
      "stateMutability": "nonpayable",
      "type": "function"
    },
    {
      "constant": true,
      "inputs": [
        {
          "name": "locale",
          "type": "string"
        },
        {
          "name": "key",
          "type": "string"
        }
      ],
      "name": "resource",
      "outputs": [
        {
          "name": "",
          "type": "string"
        }
      ],
      "payable": false,
      "stateMutability": "view",
      "type": "function"
    },
    {
      "anonymous": false,
      "inputs": [
        {
          "indexed": true,
          "name": "previousOwner",
          "type": "address"
        }
      ],
      "name": "OwnershipRenounced",
      "type": "event"
    },
    {
      "anonymous": false,
      "inputs": [
        {
          "indexed": true,
          "name": "previousOwner",
          "type": "address"
        },
        {
          "indexed": true,
          "name": "newOwner",
          "type": "address"
        }
      ],
      "name": "OwnershipTransferred",
      "type": "event"
    },
    {
      "constant": true,
      "inputs": [
        {
          "name": "_locale",
          "type": "string"
        },
        {
          "name": "_sale",
          "type": "address"
        }
      ],
      "name": "render",
      "outputs": [
        {
          "name": "",
          "type": "string"
        }
      ],
      "payable": false,
      "stateMutability": "view",
      "type": "function"
    }
  ],
  "bytecode": "0x608060405260008054600160a060020a031916331790556124c0806100256000396000f30060806040526004361061008a5763ffffffff60e060020a6000350416630bdf5300811461008f5780636da26d4e14610119578063715018a61461012e5780638b582712146101455780638da5cb5b1461015a578063ac5c6e121461018b578063ca1a70be146101a0578063ed3487fe14610204578063f2fde38b146102d9578063f65a5c1b146102fa575b600080fd5b34801561009b57600080fd5b506100a4610391565b6040805160208082528351818301528351919283929083019185019080838360005b838110156100de5781810151838201526020016100c6565b50505050905090810190601f16801561010b5780820380516001836020036101000a031916815260200191505b509250505060405180910390f35b34801561012557600080fd5b506100a46103c8565b34801561013a57600080fd5b506101436103ff565b005b34801561015157600080fd5b506100a461046b565b34801561016657600080fd5b5061016f6104a2565b60408051600160a060020a039092168252519081900360200190f35b34801561019757600080fd5b506100a46104b1565b3480156101ac57600080fd5b506040805160206004803580820135601f81018490048402850184019095528484526100a494369492936024939284019190819084018382808284375094975050509235600160a060020a031693506104e892505050565b34801561021057600080fd5b506040805160206004803580820135601f810184900484028501840190955284845261014394369492936024939284019190819084018382808284375050604080516020601f89358b018035918201839004830284018301909452808352979a99988101979196509182019450925082915084018382808284375050604080516020601f89358b018035918201839004830284018301909452808352979a9998810197919650918201945092508291508401838280828437509497506110899650505050505050565b3480156102e557600080fd5b50610143600160a060020a0360043516611176565b34801561030657600080fd5b506040805160206004803580820135601f81018490048402850184019095528484526100a494369492936024939284019190819084018382808284375050604080516020601f89358b018035918201839004830284018301909452808352979a9998810197919650918201945092508291508401838280828437509497506111999650505050505050565b60408051808201909152600d81527f746f6b656e5f6164647265737300000000000000000000000000000000000000602082015281565b60408051808201909152600a81527f746f6b656e5f696e666f00000000000000000000000000000000000000000000602082015281565b600054600160a060020a0316331461041657600080fd5b60008054604051600160a060020a03909116917ff8df31144d9c2f0f6b59d69b8b98abd5459d07f2742c4df920b25aae33c6482091a26000805473ffffffffffffffffffffffffffffffffffffffff19169055565b60408051808201909152600a81527f73686f72745f6465736300000000000000000000000000000000000000000000602082015281565b600054600160a060020a031681565b60408051808201909152600981527f6c6f6e675f646573630000000000000000000000000000000000000000000000602082015281565b6060600060606104f66122e5565b84600160a060020a031663fc0c546a6040518163ffffffff1660e060020a028152600401602060405180830381600087803b15801561053457600080fd5b505af1158015610548573d6000803e3d6000fd5b505050506040513d602081101561055e57600080fd5b505160408051600280825260608201909252919450816020015b610580612315565b81526020019060019003908161057857905050915060e0604051908101604052806001151581526020016040805190810160405280600a81526020017f746f6b656e5f696e666f0000000000000000000000000000000000000000000081525081526020016040805190810160405280600481526020017f746578740000000000000000000000000000000000000000000000000000000081525081526020016040805190810160405280600581526020017f455243323000000000000000000000000000000000000000000000000000000081525081526020016108f385600160a060020a03166306fdde036040518163ffffffff1660e060020a028152600401600060405180830381600087803b15801561069c57600080fd5b505af11580156106b0573d6000803e3d6000fd5b505050506040513d6000823e601f3d908101601f1916820160405260208110156106d957600080fd5b8101908080516401000000008111156106f157600080fd5b8201602081018481111561070457600080fd5b815164010000000081118282018710171561071e57600080fd5b505092919050505086600160a060020a03166395d89b416040518163ffffffff1660e060020a028152600401600060405180830381600087803b15801561076457600080fd5b505af1158015610778573d6000803e3d6000fd5b505050506040513d6000823e601f3d908101601f1916820160405260208110156107a157600080fd5b8101908080516401000000008111156107b957600080fd5b820160208101848111156107cc57600080fd5b81516401000000008111828201871017156107e657600080fd5b50509291905050506040516020018083805190602001908083835b602083106108205780518252601f199092019160209182019101610801565b51815160209384036101000a60001901801990921691161790527f2028000000000000000000000000000000000000000000000000000000000000919093019081528451600290910192850191508083835b602083106108915780518252601f199092019160209182019101610872565b6001836020036101000a038019825116818451168082178552505050505050905001807f2900000000000000000000000000000000000000000000000000000000000000815250600101925050506040516020818303038152906040526112ea565b815260200161090061135f565b815260200161090d6113b2565b905282518390600090811061091e57fe5b9060200190602002018190525060e0604051908101604052806001151581526020016040805190810160405280600d81526020017f746f6b656e5f616464726573730000000000000000000000000000000000000081525081526020016040805190810160405280600781526020017f616464726573730000000000000000000000000000000000000000000000000081525081526020016001886040518082805190602001908083835b602083106109e85780518252601f1990920191602091820191016109c9565b51815160209384036101000a60001901801990921691161790529201948552506040805194859003820185208582018252600d8087527f746f6b656e5f616464726573730000000000000000000000000000000000000093870193845291519095945092508291908083835b60208310610a735780518252601f199092019160209182019101610a54565b518151600019602094850361010090810a820192831692199390931691909117909252949092019687526040805197889003820188208054601f6002600183161590980290950116959095049283018290048202880182019052818752929450925050830182828015610b275780601f10610afc57610100808354040283529160200191610b27565b820191906000526020600020905b815481529060010190602001808311610b0a57829003601f168201915b50505050508152602001610bb4610baf88600160a060020a031663fc0c546a6040518163ffffffff1660e060020a028152600401602060405180830381600087803b158015610b7557600080fd5b505af1158015610b89573d6000803e3d6000fd5b505050506040513d6020811015610b9f57600080fd5b5051600160a060020a031661143f565b6112ea565b8152602001610bc161135f565b8152602001610bce6113b2565b9052825183906001908110610bdf57fe5b9060200190602002018190525060a0604051908101604052806001886040518082805190602001908083835b60208310610c2a5780518252601f199092019160209182019101610c0b565b51815160209384036101000a60001901801990921691161790529201948552506040805194859003820185208582018252600a8087527f746f6b656e5f696e666f0000000000000000000000000000000000000000000093870193845291519095945092508291908083835b60208310610cb55780518252601f199092019160209182019101610c96565b518151600019602094850361010090810a820192831692199390931691909117909252949092019687526040805197889003820188208054601f6002600183161590980290950116959095049283018290048202880182019052818752929450925050830182828015610d695780601f10610d3e57610100808354040283529160200191610d69565b820191906000526020600020905b815481529060010190602001808311610d4c57829003601f168201915b505050505081526020016001886040518082805190602001908083835b60208310610da55780518252601f199092019160209182019101610d86565b51815160209384036101000a60001901801990921691161790529201948552506040805194859003820185208582018252600a8087527f73686f72745f646573630000000000000000000000000000000000000000000093870193845291519095945092508291908083835b60208310610e305780518252601f199092019160209182019101610e11565b518151600019602094850361010090810a820192831692199390931691909117909252949092019687526040805197889003820188208054601f6002600183161590980290950116959095049283018290048202880182019052818752929450925050830182828015610ee45780601f10610eb957610100808354040283529160200191610ee4565b820191906000526020600020905b815481529060010190602001808311610ec757829003601f168201915b505050505081526020016001886040518082805190602001908083835b60208310610f205780518252601f199092019160209182019101610f01565b51815160209384036101000a6000190180199092169116179052920194855250604080519485900382018520858201825260098087527f6c6f6e675f64657363000000000000000000000000000000000000000000000093870193845291519095945092508291908083835b60208310610fab5780518252601f199092019160209182019101610f8c565b518151600019602094850361010090810a820192831692199390931691909117909252949092019687526040805197889003820188208054601f600260018316159098029095011695909504928301829004820288018201905281875292945092505083018282801561105f5780601f106110345761010080835404028352916020019161105f565b820191906000526020600020905b81548152906001019060200180831161104257829003601f168201915b505050505081526020016004815260200183815250905061107f81611585565b9695505050505050565b600054600160a060020a031633146110a057600080fd5b806001846040518082805190602001908083835b602083106110d35780518252601f1990920191602091820191016110b4565b51815160209384036101000a6000190180199092169116179052920194855250604051938490038101842087519094889450925082918401908083835b6020831061112f5780518252601f199092019160209182019101611110565b51815160209384036101000a600019018019909216911617905292019485525060405193849003810190932084516111709591949190910192509050612361565b50505050565b600054600160a060020a0316331461118d57600080fd5b611196816117e2565b50565b60606001836040518082805190602001908083835b602083106111cd5780518252601f1990920191602091820191016111ae565b51815160209384036101000a6000190180199092169116179052920194855250604051938490038101842086519094879450925082918401908083835b602083106112295780518252601f19909201916020918201910161120a565b518151600019602094850361010090810a820192831692199390931691909117909252949092019687526040805197889003820188208054601f60026001831615909802909501169590950492830182900482028801820190528187529294509250508301828280156112dd5780601f106112b2576101008083540402835291602001916112dd565b820191906000526020600020905b8154815290600101906020018083116112c057829003601f168201915b5050505050905092915050565b606061135961131460408051908101604052806001815260200160f960020a60110281525061185f565b6113486113546113238661185f565b61134860408051908101604052806001815260200160f960020a60110281525061185f565b9063ffffffff61188816565b61185f565b92915050565b6113676123df565b506040805160a0810182526000808252602080830182905283518082018552828152838501528351808201855282815260608401528351908101909352825260808101919091525b90565b6113ba61240c565b604080516060810182526000808252825181815260208181019094529192830191906113fc565b6113e9612430565b8152602001906001900390816113e15790505b508152602001600060405190808252806020026020018201604052801561143757816020015b60608152602001906001900390816114225790505b509052905090565b60408051602a80825260608083019093528291600091829182916020820161054080388339505081519195507f300000000000000000000000000000000000000000000000000000000000000091869150600090811061149b57fe5b906020010190600160f860020a031916908160001a90535083517f780000000000000000000000000000000000000000000000000000000000000090859060019081106114e457fe5b906020010190600160f860020a031916908160001a905350859250600091505b602882101561157857506030600f8316016039600160a060020a038216111561152b576027015b8060f860020a02848360280360010181518110151561154657fe5b906020010190600160f860020a031916908160001a9053506010600160a060020a038416049250600190910190611504565b8394505b50505050919050565b60408051808201909152600a81527f7b227469746c65223a220000000000000000000000000000000000000000000060208201528151606091906000906115d8906115cf9061185f565b6113488461185f565b915061161b6115cf6040805190810160405280600f81526020017f222c2273686f727444657363223a22000000000000000000000000000000000081525061185f565b915061162d6115cf856020015161185f565b91506116706115cf6040805190810160405280600e81526020017f222c226c6f6e6744657363223a2200000000000000000000000000000000000081525061185f565b91506116826115cf856040015161185f565b91506116c56115cf6040805190810160405280600a81526020017f222c227769647468223a0000000000000000000000000000000000000000000081525061185f565b91506116da6115cf61135486606001516118ff565b915061171d6115cf6040805190810160405280600d81526020017f2c22656c656d656e7473223a5b0000000000000000000000000000000000000081525061185f565b9150600090505b836080015151811015611799576000811115611765576117626115cf60408051908101604052806001815260200160fa60020a600b0281525061185f565b91505b61178f6115cf61135486608001518481518110151561178057fe5b90602001906020020151611a5a565b9150600101611724565b6117da6115cf6040805190810160405280600281526020017f5d7d00000000000000000000000000000000000000000000000000000000000081525061185f565b949350505050565b600160a060020a03811615156117f757600080fd5b60008054604051600160a060020a03808516939216917f8be0079c531659141344cd1fd0a4f28419497f9722a3daafe3b4186f6b6457e091a36000805473ffffffffffffffffffffffffffffffffffffffff1916600160a060020a0392909216919091179055565b611867612463565b50604080518082019091528151815260208281019082018190525b50919050565b606080600083600001518560000151016040519080825280601f01601f1916602001820160405280156118c5578160200160208202803883390190505b5091506020820190506118e18186602001518760000151611d2f565b8451602085015185516118f79284019190611d2f565b509392505050565b606080600081818515156119485760408051808201909152600181527f30000000000000000000000000000000000000000000000000000000000000006020820152945061157c565b6040805160208082528183019092529080820161040080388339019050509350600092505b60008611156119ba57600a860660300160f860020a02848481518110151561199157fe5b906020010190600160f860020a031916908160001a905350600a8604955060019092019161196d565b60408051848152601f19601f860116810160200190915260001984019380156119ed578160200160208202803883390190505b509150600090505b8151811015611a5157835160001984019385918110611a1057fe5b90602001015160f860020a900460f860020a028282815181101515611a3157fe5b906020010190600160f860020a031916908160001a9053506001016119f5565b50949350505050565b606080826000015115611cf4576040805190810160405280600781526020017f7b226964223a22000000000000000000000000000000000000000000000000008152509050611ab8611aaf846020015161185f565b6113488361185f565b9050611ae2611aaf60408051908101604052806001815260200160f960020a60110281525061185f565b60a08401515190915015611b4957611b31611aaf6040805190810160405280600b81526020017f2c2022616374696f6e223a00000000000000000000000000000000000000000081525061185f565b9050611b46611aaf6113548560a00151611d73565b90505b60c08301515115611bad57611b95611aaf6040805190810160405280600a81526020017f2c20227461626c65223a0000000000000000000000000000000000000000000081525061185f565b9050611baa611aaf6113548560c00151611f16565b90505b611bee611aaf6040805190810160405280600981526020017f2c2274797065223a22000000000000000000000000000000000000000000000081525061185f565b9050611c00611aaf846040015161185f565b9050611c43611aaf6040805190810160405280600b81526020017f222c226c6162656c223a2200000000000000000000000000000000000000000081525061185f565b9050611c55611aaf846060015161185f565b9050611c98611aaf6040805190810160405280600981526020017f222c2264617461223a000000000000000000000000000000000000000000000081525061185f565b9050611caa611aaf846080015161185f565b9050611ced611aaf6040805190810160405280600181526020017f7d0000000000000000000000000000000000000000000000000000000000000081525061185f565b9150611882565b60408051808201909152600481527f6e756c6c0000000000000000000000000000000000000000000000000000000060208201529150611882565b60005b60208210611d54578251845260209384019390920191601f1990910190611d32565b50905182516020929092036101000a6000190180199091169116179052565b606080826000015115611cf4576040805190810160405280600c81526020017f7b2261646472657373223a2200000000000000000000000000000000000000008152509050611dd4611aaf6113548560200151600160a060020a031661143f565b9050611e17611aaf6040805190810160405280601681526020017f222c2266756e6374696f6e53656c6563746f72223a220000000000000000000081525061185f565b9050611e29611aaf846040015161185f565b9050611e6c611aaf6040805190810160405280600e81526020017f222c22617267756d656e7473223a00000000000000000000000000000000000081525061185f565b9050611e7e611aaf846060015161185f565b9050611ec1611aaf6040805190810160405280600c81526020017f2c22636f6e6669726d223a22000000000000000000000000000000000000000081525061185f565b9050611ed3611aaf846080015161185f565b9050611ced611aaf6040805190810160405280600281526020017f227d00000000000000000000000000000000000000000000000000000000000081525061185f565b6060806000808460000151156120ee57505060408051808201909152600c81527f7b22636f6c756d6e73223a5b0000000000000000000000000000000000000000602082015290506000805b846020015151811015611fe4576000821115611fac57611fa9611fa060408051908101604052806001815260200160fa60020a600b0281525061185f565b6113488561185f565b92505b611fd6611fa0611354876020015184815181101515611fc757fe5b9060200190602002015161212d565b925060019182019101611f62565b612025611fa06040805190810160405280600a81526020017f5d2c22726f7773223a5b0000000000000000000000000000000000000000000081525061185f565b925060009150600090505b8460400151518110156120a65760008211156120715761206e611fa060408051908101604052806001815260200160fa60020a600b0281525061185f565b92505b612098611fa086604001518381518110151561208957fe5b9060200190602002015161185f565b925060019182019101612030565b6120e7611fa06040805190810160405280600281526020017f5d7d00000000000000000000000000000000000000000000000000000000000081525061185f565b9350612125565b60408051808201909152600481527f6e756c6c00000000000000000000000000000000000000000000000000000000602082015293505b505050919050565b606080826000015115611cf4576040805190810160405280600781526020017f7b226964223a22000000000000000000000000000000000000000000000000008152509050612182611aaf846020015161185f565b90506121ac611aaf60408051908101604052806001815260200160f960020a60110281525061185f565b6080840151519091501561223d576121e2611aaf60408051908101604052806001815260200160fa60020a600b0281525061185f565b9050612225611aaf6040805190810160405280600981526020017f22616374696f6e223a000000000000000000000000000000000000000000000081525061185f565b905061223a611aaf6113548560800151611d73565b90505b61227e611aaf6040805190810160405280600981526020017f2c2274797065223a22000000000000000000000000000000000000000000000081525061185f565b9050612290611aaf846040015161185f565b90506122d3611aaf6040805190810160405280600b81526020017f222c226c6162656c223a2200000000000000000000000000000000000000000081525061185f565b9050611ed3611aaf846060015161185f565b60a06040519081016040528060608152602001606081526020016060815260200160008152602001606081525090565b6101a0604051908101604052806000151581526020016060815260200160608152602001606081526020016060815260200161234f6123df565b815260200161235c61240c565b905290565b828054600181600116156101000203166002900490600052602060002090601f016020900481019282601f106123a257805160ff19168380011785556123cf565b828001600101855582156123cf579182015b828111156123cf5782518255916020019190600101906123b4565b506123db92915061247a565b5090565b6040805160a081018252600080825260208201526060918101829052818101829052608081019190915290565b60606040519081016040528060001515815260200160608152602001606081525090565b6101206040519081016040528060001515815260200160608152602001606081526020016060815260200161235c6123df565b604080518082019091526000808252602082015290565b6113af91905b808211156123db57600081556001016124805600a165627a7a723058207c74dc6c5e54b18a95026ffd5341fe9b530e5fbcd8764cedbd7b8529e9bd2c890029",
  "source": "pragma solidity ^0.4.24;\n\nimport \"./ERC20SaleWidgetRenderer.sol\";\nimport \"tokenboost-solidity/contracts/widget/Widgets.sol\";\nimport \"tokenboost-solidity/contracts/utils/StringUtils.sol\";\nimport \"zeppelin-solidity/contracts/token/ERC20/DetailedERC20.sol\";\n\ncontract TokenInfoWidgetRenderer is ERC20SaleWidgetRenderer {\n    using Widgets for Widgets.Widget;\n    using AddressUtils for address;\n    using StringUtils for string;\n\n    string public constant TOKEN_INFO = \"token_info\";\n    string public constant TOKEN_ADDRESS = \"token_address\";\n    string public constant SHORT_DESC = \"short_desc\";\n    string public constant LONG_DESC = \"long_desc\";\n\n    function render(string _locale, ERC20Sale _sale) public view returns (string) {\n        DetailedERC20 token = DetailedERC20(_sale.token());\n        Elements.Element[] memory elements = new Elements.Element[](2);\n        elements[0] = Elements.Element(\n            true,\n            TOKEN_INFO,\n            \"text\",\n            \"ERC20\",\n            string(abi.encodePacked(token.name(), \" (\", token.symbol(), \")\")).quoted(),\n            Actions.empty(),\n            Tables.empty()\n        );\n        elements[1] = Elements.Element(\n            true,\n            TOKEN_ADDRESS,\n            \"address\",\n            resources[_locale][TOKEN_ADDRESS],\n            address(_sale.token()).toString().quoted(),\n            Actions.empty(),\n            Tables.empty()\n        );\n        Widgets.Widget memory widget = Widgets.Widget(\n            resources[_locale][TOKEN_INFO],\n            resources[_locale][SHORT_DESC],\n            resources[_locale][LONG_DESC],\n            4,\n            elements\n        );\n        return widget.toJson();\n    }\n}\n",
  "sourcePath": "/Users/yoonjae/SolidityProjects/tokenboost-solidity-erc20sale/contracts/sale/erc20/widget/TokenInfoWidgetRenderer.sol",
  "compiler": {
    "name": "solc",
    "version": "0.4.24+commit.e67f0147.Emscripten.clang"
  },
  "schemaVersion": "2.0.1",
  "updatedAt": "2018-10-23T16:45:32.917Z"
}