{
  "contractName": "TokenInfoWidgetRenderer",
  "abi": [
    {
      "constant": true,
      "inputs": [],
      "name": "TOKEN_ADDRESS",
      "outputs": [
        {
          "name": "",
          "type": "string"
        }
      ],
      "payable": false,
      "stateMutability": "view",
      "type": "function"
    },
    {
      "constant": true,
      "inputs": [],
      "name": "TOKEN_NAME",
      "outputs": [
        {
          "name": "",
          "type": "string"
        }
      ],
      "payable": false,
      "stateMutability": "view",
      "type": "function"
    },
    {
      "constant": true,
      "inputs": [],
      "name": "TOKEN_SYMBOL",
      "outputs": [
        {
          "name": "",
          "type": "string"
        }
      ],
      "payable": false,
      "stateMutability": "view",
      "type": "function"
    },
    {
      "constant": true,
      "inputs": [],
      "name": "TOKEN_INFO",
      "outputs": [
        {
          "name": "",
          "type": "string"
        }
      ],
      "payable": false,
      "stateMutability": "view",
      "type": "function"
    },
    {
      "constant": false,
      "inputs": [],
      "name": "renounceOwnership",
      "outputs": [],
      "payable": false,
      "stateMutability": "nonpayable",
      "type": "function"
    },
    {
      "constant": true,
      "inputs": [],
      "name": "SHORT_DESC",
      "outputs": [
        {
          "name": "",
          "type": "string"
        }
      ],
      "payable": false,
      "stateMutability": "view",
      "type": "function"
    },
    {
      "constant": true,
      "inputs": [],
      "name": "owner",
      "outputs": [
        {
          "name": "",
          "type": "address"
        }
      ],
      "payable": false,
      "stateMutability": "view",
      "type": "function"
    },
    {
      "constant": true,
      "inputs": [],
      "name": "TOKEN_STANDARD",
      "outputs": [
        {
          "name": "",
          "type": "string"
        }
      ],
      "payable": false,
      "stateMutability": "view",
      "type": "function"
    },
    {
      "constant": true,
      "inputs": [],
      "name": "LONG_DESC",
      "outputs": [
        {
          "name": "",
          "type": "string"
        }
      ],
      "payable": false,
      "stateMutability": "view",
      "type": "function"
    },
    {
      "constant": false,
      "inputs": [
        {
          "name": "locale",
          "type": "string"
        },
        {
          "name": "key",
          "type": "string"
        },
        {
          "name": "value",
          "type": "string"
        }
      ],
      "name": "setResource",
      "outputs": [],
      "payable": false,
      "stateMutability": "nonpayable",
      "type": "function"
    },
    {
      "constant": false,
      "inputs": [
        {
          "name": "_newOwner",
          "type": "address"
        }
      ],
      "name": "transferOwnership",
      "outputs": [],
      "payable": false,
      "stateMutability": "nonpayable",
      "type": "function"
    },
    {
      "constant": true,
      "inputs": [
        {
          "name": "locale",
          "type": "string"
        },
        {
          "name": "key",
          "type": "string"
        }
      ],
      "name": "resource",
      "outputs": [
        {
          "name": "",
          "type": "string"
        }
      ],
      "payable": false,
      "stateMutability": "view",
      "type": "function"
    },
    {
      "anonymous": false,
      "inputs": [
        {
          "indexed": true,
          "name": "previousOwner",
          "type": "address"
        }
      ],
      "name": "OwnershipRenounced",
      "type": "event"
    },
    {
      "anonymous": false,
      "inputs": [
        {
          "indexed": true,
          "name": "previousOwner",
          "type": "address"
        },
        {
          "indexed": true,
          "name": "newOwner",
          "type": "address"
        }
      ],
      "name": "OwnershipTransferred",
      "type": "event"
    },
    {
      "constant": true,
      "inputs": [
        {
          "name": "_locale",
          "type": "string"
        },
        {
          "name": "_sale",
          "type": "address"
        }
      ],
      "name": "render",
      "outputs": [
        {
          "name": "",
          "type": "string"
        }
      ],
      "payable": false,
      "stateMutability": "view",
      "type": "function"
    }
  ],
  "bytecode": "0x608060405260008054600160a060020a03191633179055612a30806100256000396000f3006080604052600436106100ab5763ffffffff60e060020a6000350416630bdf530081146100b0578063188214001461013a5780632a9053181461014f5780636da26d4e14610164578063715018a6146101795780638b582712146101905780638da5cb5b146101a5578063a6a1497e146101d6578063ac5c6e12146101eb578063ca1a70be14610200578063ed3487fe14610264578063f2fde38b14610339578063f65a5c1b1461035a575b600080fd5b3480156100bc57600080fd5b506100c56103f1565b6040805160208082528351818301528351919283929083019185019080838360005b838110156100ff5781810151838201526020016100e7565b50505050905090810190601f16801561012c5780820380516001836020036101000a031916815260200191505b509250505060405180910390f35b34801561014657600080fd5b506100c5610428565b34801561015b57600080fd5b506100c561045f565b34801561017057600080fd5b506100c5610496565b34801561018557600080fd5b5061018e6104cd565b005b34801561019c57600080fd5b506100c5610539565b3480156101b157600080fd5b506101ba610570565b60408051600160a060020a039092168252519081900360200190f35b3480156101e257600080fd5b506100c561057f565b3480156101f757600080fd5b506100c56105b6565b34801561020c57600080fd5b506040805160206004803580820135601f81018490048402850184019095528484526100c594369492936024939284019190819084018382808284375094975050509235600160a060020a031693506105ed92505050565b34801561027057600080fd5b506040805160206004803580820135601f810184900484028501840190955284845261018e94369492936024939284019190819084018382808284375050604080516020601f89358b018035918201839004830284018301909452808352979a99988101979196509182019450925082915084018382808284375050604080516020601f89358b018035918201839004830284018301909452808352979a9998810197919650918201945092508291508401838280828437509497506115f99650505050505050565b34801561034557600080fd5b5061018e600160a060020a03600435166116e6565b34801561036657600080fd5b506040805160206004803580820135601f81018490048402850184019095528484526100c594369492936024939284019190819084018382808284375050604080516020601f89358b018035918201839004830284018301909452808352979a9998810197919650918201945092508291508401838280828437509497506117099650505050505050565b60408051808201909152600d81527f746f6b656e5f6164647265737300000000000000000000000000000000000000602082015281565b60408051808201909152600a81527f746f6b656e5f6e616d6500000000000000000000000000000000000000000000602082015281565b60408051808201909152600c81527f746f6b656e5f73796d626f6c0000000000000000000000000000000000000000602082015281565b60408051808201909152600a81527f746f6b656e5f696e666f00000000000000000000000000000000000000000000602082015281565b600054600160a060020a031633146104e457600080fd5b60008054604051600160a060020a03909116917ff8df31144d9c2f0f6b59d69b8b98abd5459d07f2742c4df920b25aae33c6482091a26000805473ffffffffffffffffffffffffffffffffffffffff19169055565b60408051808201909152600a81527f73686f72745f6465736300000000000000000000000000000000000000000000602082015281565b600054600160a060020a031681565b60408051808201909152600e81527f746f6b656e5f7374616e64617264000000000000000000000000000000000000602082015281565b60408051808201909152600981527f6c6f6e675f646573630000000000000000000000000000000000000000000000602082015281565b6060600060606105fb612855565b84600160a060020a031663fc0c546a6040518163ffffffff1660e060020a028152600401602060405180830381600087803b15801561063957600080fd5b505af115801561064d573d6000803e3d6000fd5b505050506040513d602081101561066357600080fd5b505160408051600480825260a08201909252919450816020015b610685612885565b81526020019060019003908161067d57905050915060e0604051908101604052806001151581526020016040805190810160405280600e81526020017f746f6b656e5f7374616e6461726400000000000000000000000000000000000081525081526020016040805190810160405280600481526020017f746578740000000000000000000000000000000000000000000000000000000081525081526020016001886040518082805190602001908083835b602083106107575780518252601f199092019160209182019101610738565b51815160209384036101000a60001901801990921691161790529201948552506040805194859003820185208582018252600e8087527f746f6b656e5f7374616e6461726400000000000000000000000000000000000093870193845291519095945092508291908083835b602083106107e25780518252601f1990920191602091820191016107c3565b518151600019602094850361010090810a820192831692199390931691909117909252949092019687526040805197889003820188208054601f60026001831615909802909501169590950492830182900482028801820190528187529294509250508301828280156108965780601f1061086b57610100808354040283529160200191610896565b820191906000526020600020905b81548152906001019060200180831161087957829003601f168201915b505050505081526020016040805190810160405280600781526020017f224552433230220000000000000000000000000000000000000000000000000081525081526020016108e361185a565b81526020016108f06118ad565b905282518390600090811061090157fe5b9060200190602002018190525060e0604051908101604052806001151581526020016040805190810160405280600a81526020017f746f6b656e5f6e616d650000000000000000000000000000000000000000000081525081526020016040805190810160405280600481526020017f746578740000000000000000000000000000000000000000000000000000000081525081526020016001886040518082805190602001908083835b602083106109cb5780518252601f1990920191602091820191016109ac565b51815160209384036101000a60001901801990921691161790529201948552506040805194859003820185208582018252600a8087527f746f6b656e5f6e616d650000000000000000000000000000000000000000000093870193845291519095945092508291908083835b60208310610a565780518252601f199092019160209182019101610a37565b518151600019602094850361010090810a820192831692199390931691909117909252949092019687526040805197889003820188208054601f6002600183161590980290950116959095049283018290048202880182019052818752929450925050830182828015610b0a5780601f10610adf57610100808354040283529160200191610b0a565b820191906000526020600020905b815481529060010190602001808311610aed57829003601f168201915b50505050508152602001610be485600160a060020a03166306fdde036040518163ffffffff1660e060020a028152600401600060405180830381600087803b158015610b5557600080fd5b505af1158015610b69573d6000803e3d6000fd5b505050506040513d6000823e601f3d908101601f191682016040526020811015610b9257600080fd5b810190808051640100000000811115610baa57600080fd5b82016020810184811115610bbd57600080fd5b8151640100000000811182820187101715610bd757600080fd5b505092919050505061193a565b8152602001610bf161185a565b8152602001610bfe6118ad565b9052825183906001908110610c0f57fe5b9060200190602002018190525060e0604051908101604052806001151581526020016040805190810160405280600c81526020017f746f6b656e5f73796d626f6c000000000000000000000000000000000000000081525081526020016040805190810160405280600481526020017f746578740000000000000000000000000000000000000000000000000000000081525081526020016001886040518082805190602001908083835b60208310610cd95780518252601f199092019160209182019101610cba565b51815160209384036101000a60001901801990921691161790529201948552506040805194859003820185208582018252600c8087527f746f6b656e5f73796d626f6c000000000000000000000000000000000000000093870193845291519095945092508291908083835b60208310610d645780518252601f199092019160209182019101610d45565b518151600019602094850361010090810a820192831692199390931691909117909252949092019687526040805197889003820188208054601f6002600183161590980290950116959095049283018290048202880182019052818752929450925050830182828015610e185780601f10610ded57610100808354040283529160200191610e18565b820191906000526020600020905b815481529060010190602001808311610dfb57829003601f168201915b50505050508152602001610e6385600160a060020a03166395d89b416040518163ffffffff1660e060020a028152600401600060405180830381600087803b158015610b5557600080fd5b8152602001610e7061185a565b8152602001610e7d6118ad565b9052825183906002908110610e8e57fe5b9060200190602002018190525060e0604051908101604052806001151581526020016040805190810160405280600d81526020017f746f6b656e5f616464726573730000000000000000000000000000000000000081525081526020016040805190810160405280600781526020017f616464726573730000000000000000000000000000000000000000000000000081525081526020016001886040518082805190602001908083835b60208310610f585780518252601f199092019160209182019101610f39565b51815160209384036101000a60001901801990921691161790529201948552506040805194859003820185208582018252600d8087527f746f6b656e5f616464726573730000000000000000000000000000000000000093870193845291519095945092508291908083835b60208310610fe35780518252601f199092019160209182019101610fc4565b518151600019602094850361010090810a820192831692199390931691909117909252949092019687526040805197889003820188208054601f60026001831615909802909501169590950492830182900482028801820190528187529294509250508301828280156110975780601f1061106c57610100808354040283529160200191611097565b820191906000526020600020905b81548152906001019060200180831161107a57829003601f168201915b5050505050815260200161112461111f88600160a060020a031663fc0c546a6040518163ffffffff1660e060020a028152600401602060405180830381600087803b1580156110e557600080fd5b505af11580156110f9573d6000803e3d6000fd5b505050506040513d602081101561110f57600080fd5b5051600160a060020a03166119af565b61193a565b815260200161113161185a565b815260200161113e6118ad565b905282518390600390811061114f57fe5b9060200190602002018190525060a0604051908101604052806001886040518082805190602001908083835b6020831061119a5780518252601f19909201916020918201910161117b565b51815160209384036101000a60001901801990921691161790529201948552506040805194859003820185208582018252600a8087527f746f6b656e5f696e666f0000000000000000000000000000000000000000000093870193845291519095945092508291908083835b602083106112255780518252601f199092019160209182019101611206565b518151600019602094850361010090810a820192831692199390931691909117909252949092019687526040805197889003820188208054601f60026001831615909802909501169590950492830182900482028801820190528187529294509250508301828280156112d95780601f106112ae576101008083540402835291602001916112d9565b820191906000526020600020905b8154815290600101906020018083116112bc57829003601f168201915b505050505081526020016001886040518082805190602001908083835b602083106113155780518252601f1990920191602091820191016112f6565b51815160209384036101000a60001901801990921691161790529201948552506040805194859003820185208582018252600a8087527f73686f72745f646573630000000000000000000000000000000000000000000093870193845291519095945092508291908083835b602083106113a05780518252601f199092019160209182019101611381565b518151600019602094850361010090810a820192831692199390931691909117909252949092019687526040805197889003820188208054601f60026001831615909802909501169590950492830182900482028801820190528187529294509250508301828280156114545780601f1061142957610100808354040283529160200191611454565b820191906000526020600020905b81548152906001019060200180831161143757829003601f168201915b505050505081526020016001886040518082805190602001908083835b602083106114905780518252601f199092019160209182019101611471565b51815160209384036101000a6000190180199092169116179052920194855250604080519485900382018520858201825260098087527f6c6f6e675f64657363000000000000000000000000000000000000000000000093870193845291519095945092508291908083835b6020831061151b5780518252601f1990920191602091820191016114fc565b518151600019602094850361010090810a820192831692199390931691909117909252949092019687526040805197889003820188208054601f60026001831615909802909501169590950492830182900482028801820190528187529294509250508301828280156115cf5780601f106115a4576101008083540402835291602001916115cf565b820191906000526020600020905b8154815290600101906020018083116115b257829003601f168201915b50505050508152602001600481526020018381525090506115ef81611af5565b9695505050505050565b600054600160a060020a0316331461161057600080fd5b806001846040518082805190602001908083835b602083106116435780518252601f199092019160209182019101611624565b51815160209384036101000a6000190180199092169116179052920194855250604051938490038101842087519094889450925082918401908083835b6020831061169f5780518252601f199092019160209182019101611680565b51815160209384036101000a600019018019909216911617905292019485525060405193849003810190932084516116e095919491909101925090506128d1565b50505050565b600054600160a060020a031633146116fd57600080fd5b61170681611d52565b50565b60606001836040518082805190602001908083835b6020831061173d5780518252601f19909201916020918201910161171e565b51815160209384036101000a6000190180199092169116179052920194855250604051938490038101842086519094879450925082918401908083835b602083106117995780518252601f19909201916020918201910161177a565b518151600019602094850361010090810a820192831692199390931691909117909252949092019687526040805197889003820188208054601f600260018316159098029095011695909504928301829004820288018201905281875292945092505083018282801561184d5780601f106118225761010080835404028352916020019161184d565b820191906000526020600020905b81548152906001019060200180831161183057829003601f168201915b5050505050905092915050565b61186261294f565b506040805160a0810182526000808252602080830182905283518082018552828152838501528351808201855282815260608401528351908101909352825260808101919091525b90565b6118b561297c565b604080516060810182526000808252825181815260208181019094529192830191906118f7565b6118e46129a0565b8152602001906001900390816118dc5790505b508152602001600060405190808252806020026020018201604052801561193257816020015b606081526020019060019003908161191d5790505b509052905090565b60606119a961196460408051908101604052806001815260200160f960020a601102815250611dcf565b6119986119a461197386611dcf565b61199860408051908101604052806001815260200160f960020a601102815250611dcf565b9063ffffffff611df816565b611dcf565b92915050565b60408051602a80825260608083019093528291600091829182916020820161054080388339505081519195507f3000000000000000000000000000000000000000000000000000000000000000918691506000908110611a0b57fe5b906020010190600160f860020a031916908160001a90535083517f78000000000000000000000000000000000000000000000000000000000000009085906001908110611a5457fe5b906020010190600160f860020a031916908160001a905350859250600091505b6028821015611ae857506030600f8316016039600160a060020a0382161115611a9b576027015b8060f860020a028483602803600101815181101515611ab657fe5b906020010190600160f860020a031916908160001a9053506010600160a060020a038416049250600190910190611a74565b8394505b50505050919050565b60408051808201909152600a81527f7b227469746c65223a22000000000000000000000000000000000000000000006020820152815160609190600090611b4890611b3f90611dcf565b61199884611dcf565b9150611b8b611b3f6040805190810160405280600f81526020017f222c2273686f727444657363223a220000000000000000000000000000000000815250611dcf565b9150611b9d611b3f8560200151611dcf565b9150611be0611b3f6040805190810160405280600e81526020017f222c226c6f6e6744657363223a22000000000000000000000000000000000000815250611dcf565b9150611bf2611b3f8560400151611dcf565b9150611c35611b3f6040805190810160405280600a81526020017f222c227769647468223a00000000000000000000000000000000000000000000815250611dcf565b9150611c4a611b3f6119a48660600151611e6f565b9150611c8d611b3f6040805190810160405280600d81526020017f2c22656c656d656e7473223a5b00000000000000000000000000000000000000815250611dcf565b9150600090505b836080015151811015611d09576000811115611cd557611cd2611b3f60408051908101604052806001815260200160fa60020a600b02815250611dcf565b91505b611cff611b3f6119a4866080015184815181101515611cf057fe5b90602001906020020151611fca565b9150600101611c94565b611d4a611b3f6040805190810160405280600281526020017f5d7d000000000000000000000000000000000000000000000000000000000000815250611dcf565b949350505050565b600160a060020a0381161515611d6757600080fd5b60008054604051600160a060020a03808516939216917f8be0079c531659141344cd1fd0a4f28419497f9722a3daafe3b4186f6b6457e091a36000805473ffffffffffffffffffffffffffffffffffffffff1916600160a060020a0392909216919091179055565b611dd76129d3565b50604080518082019091528151815260208281019082018190525b50919050565b606080600083600001518560000151016040519080825280601f01601f191660200182016040528015611e35578160200160208202803883390190505b509150602082019050611e51818660200151876000015161229f565b845160208501518551611e67928401919061229f565b509392505050565b60608060008181851515611eb85760408051808201909152600181527f300000000000000000000000000000000000000000000000000000000000000060208201529450611aec565b6040805160208082528183019092529080820161040080388339019050509350600092505b6000861115611f2a57600a860660300160f860020a028484815181101515611f0157fe5b906020010190600160f860020a031916908160001a905350600a86049550600190920191611edd565b60408051848152601f19601f86011681016020019091526000198401938015611f5d578160200160208202803883390190505b509150600090505b8151811015611fc157835160001984019385918110611f8057fe5b90602001015160f860020a900460f860020a028282815181101515611fa157fe5b906020010190600160f860020a031916908160001a905350600101611f65565b50949350505050565b606080826000015115612264576040805190810160405280600781526020017f7b226964223a2200000000000000000000000000000000000000000000000000815250905061202861201f8460200151611dcf565b61199883611dcf565b905061205261201f60408051908101604052806001815260200160f960020a601102815250611dcf565b60a084015151909150156120b9576120a161201f6040805190810160405280600b81526020017f2c2022616374696f6e223a000000000000000000000000000000000000000000815250611dcf565b90506120b661201f6119a48560a001516122e3565b90505b60c0830151511561211d5761210561201f6040805190810160405280600a81526020017f2c20227461626c65223a00000000000000000000000000000000000000000000815250611dcf565b905061211a61201f6119a48560c00151612486565b90505b61215e61201f6040805190810160405280600981526020017f2c2274797065223a220000000000000000000000000000000000000000000000815250611dcf565b905061217061201f8460400151611dcf565b90506121b361201f6040805190810160405280600b81526020017f222c226c6162656c223a22000000000000000000000000000000000000000000815250611dcf565b90506121c561201f8460600151611dcf565b905061220861201f6040805190810160405280600981526020017f222c2264617461223a0000000000000000000000000000000000000000000000815250611dcf565b905061221a61201f8460800151611dcf565b905061225d61201f6040805190810160405280600181526020017f7d00000000000000000000000000000000000000000000000000000000000000815250611dcf565b9150611df2565b60408051808201909152600481527f6e756c6c0000000000000000000000000000000000000000000000000000000060208201529150611df2565b60005b602082106122c4578251845260209384019390920191601f19909101906122a2565b50905182516020929092036101000a6000190180199091169116179052565b606080826000015115612264576040805190810160405280600c81526020017f7b2261646472657373223a220000000000000000000000000000000000000000815250905061234461201f6119a48560200151600160a060020a03166119af565b905061238761201f6040805190810160405280601681526020017f222c2266756e6374696f6e53656c6563746f72223a2200000000000000000000815250611dcf565b905061239961201f8460400151611dcf565b90506123dc61201f6040805190810160405280600e81526020017f222c22617267756d656e7473223a000000000000000000000000000000000000815250611dcf565b90506123ee61201f8460600151611dcf565b905061243161201f6040805190810160405280600c81526020017f2c22636f6e6669726d223a220000000000000000000000000000000000000000815250611dcf565b905061244361201f8460800151611dcf565b905061225d61201f6040805190810160405280600281526020017f227d000000000000000000000000000000000000000000000000000000000000815250611dcf565b60608060008084600001511561265e57505060408051808201909152600c81527f7b22636f6c756d6e73223a5b0000000000000000000000000000000000000000602082015290506000805b84602001515181101561255457600082111561251c5761251961251060408051908101604052806001815260200160fa60020a600b02815250611dcf565b61199885611dcf565b92505b6125466125106119a487602001518481518110151561253757fe5b9060200190602002015161269d565b9250600191820191016124d2565b6125956125106040805190810160405280600a81526020017f5d2c22726f7773223a5b00000000000000000000000000000000000000000000815250611dcf565b925060009150600090505b8460400151518110156126165760008211156125e1576125de61251060408051908101604052806001815260200160fa60020a600b02815250611dcf565b92505b6126086125108660400151838151811015156125f957fe5b90602001906020020151611dcf565b9250600191820191016125a0565b6126576125106040805190810160405280600281526020017f5d7d000000000000000000000000000000000000000000000000000000000000815250611dcf565b9350612695565b60408051808201909152600481527f6e756c6c00000000000000000000000000000000000000000000000000000000602082015293505b505050919050565b606080826000015115612264576040805190810160405280600781526020017f7b226964223a220000000000000000000000000000000000000000000000000081525090506126f261201f8460200151611dcf565b905061271c61201f60408051908101604052806001815260200160f960020a601102815250611dcf565b608084015151909150156127ad5761275261201f60408051908101604052806001815260200160fa60020a600b02815250611dcf565b905061279561201f6040805190810160405280600981526020017f22616374696f6e223a0000000000000000000000000000000000000000000000815250611dcf565b90506127aa61201f6119a485608001516122e3565b90505b6127ee61201f6040805190810160405280600981526020017f2c2274797065223a220000000000000000000000000000000000000000000000815250611dcf565b905061280061201f8460400151611dcf565b905061284361201f6040805190810160405280600b81526020017f222c226c6162656c223a22000000000000000000000000000000000000000000815250611dcf565b905061244361201f8460600151611dcf565b60a06040519081016040528060608152602001606081526020016060815260200160008152602001606081525090565b6101a060405190810160405280600015158152602001606081526020016060815260200160608152602001606081526020016128bf61294f565b81526020016128cc61297c565b905290565b828054600181600116156101000203166002900490600052602060002090601f016020900481019282601f1061291257805160ff191683800117855561293f565b8280016001018555821561293f579182015b8281111561293f578251825591602001919060010190612924565b5061294b9291506129ea565b5090565b6040805160a081018252600080825260208201526060918101829052818101829052608081019190915290565b60606040519081016040528060001515815260200160608152602001606081525090565b610120604051908101604052806000151581526020016060815260200160608152602001606081526020016128cc61294f565b604080518082019091526000808252602082015290565b6118aa91905b8082111561294b57600081556001016129f05600a165627a7a72305820267daf46c85b82c56651c86f052aff5bd354a2acb3830e52e38a80415ff53df90029",
  "source": "pragma solidity ^0.4.24;\n\nimport \"./ERC20SaleWidgetRenderer.sol\";\nimport \"tokenboost-solidity/contracts/widget/Widgets.sol\";\nimport \"tokenboost-solidity/contracts/utils/StringUtils.sol\";\nimport \"zeppelin-solidity/contracts/token/ERC20/DetailedERC20.sol\";\n\ncontract TokenInfoWidgetRenderer is ERC20SaleWidgetRenderer {\n    using Widgets for Widgets.Widget;\n    using AddressUtils for address;\n    using StringUtils for string;\n\n    string public constant TOKEN_INFO = \"token_info\";\n    string public constant TOKEN_STANDARD = \"token_standard\";\n    string public constant TOKEN_NAME = \"token_name\";\n    string public constant TOKEN_SYMBOL = \"token_symbol\";\n    string public constant TOKEN_ADDRESS = \"token_address\";\n    string public constant SHORT_DESC = \"short_desc\";\n    string public constant LONG_DESC = \"long_desc\";\n\n    function render(string _locale, ERC20Sale _sale) public view returns (string) {\n        DetailedERC20 token = DetailedERC20(_sale.token());\n        Elements.Element[] memory elements = new Elements.Element[](4);\n        elements[0] = Elements.Element(\n            true,\n            TOKEN_STANDARD,\n            \"text\",\n            resources[_locale][TOKEN_STANDARD],\n            '\"ERC20\"',\n            Actions.empty(),\n            Tables.empty()\n        );\n        elements[1] = Elements.Element(\n            true,\n            TOKEN_NAME,\n            \"text\",\n            resources[_locale][TOKEN_NAME],\n            token.name().quoted(),\n            Actions.empty(),\n            Tables.empty()\n        );\n        elements[2] = Elements.Element(\n            true,\n            TOKEN_SYMBOL,\n            \"text\",\n            resources[_locale][TOKEN_SYMBOL],\n            token.symbol().quoted(),\n            Actions.empty(),\n            Tables.empty()\n        );\n        elements[3] = Elements.Element(\n            true,\n            TOKEN_ADDRESS,\n            \"address\",\n            resources[_locale][TOKEN_ADDRESS],\n            address(_sale.token()).toString().quoted(),\n            Actions.empty(),\n            Tables.empty()\n        );\n        Widgets.Widget memory widget = Widgets.Widget(\n            resources[_locale][TOKEN_INFO],\n            resources[_locale][SHORT_DESC],\n            resources[_locale][LONG_DESC],\n            4,\n            elements\n        );\n        return widget.toJson();\n    }\n}\n",
  "sourcePath": "/Users/yoonjae/SolidityProjects/tokenboost-solidity-erc20sale/contracts/sale/erc20/widget/TokenInfoWidgetRenderer.sol",
  "compiler": {
    "name": "solc",
    "version": "0.4.24+commit.e67f0147.Emscripten.clang"
  },
  "schemaVersion": "2.0.1",
  "updatedAt": "2018-10-16T06:52:13.295Z"
}