{
  "contractName": "TokenInfoWidgetRenderer",
  "abi": [
    {
      "constant": true,
      "inputs": [],
      "name": "TOKEN_ADDRESS",
      "outputs": [
        {
          "name": "",
          "type": "string"
        }
      ],
      "payable": false,
      "stateMutability": "view",
      "type": "function"
    },
    {
      "constant": true,
      "inputs": [],
      "name": "TOKEN_INFO",
      "outputs": [
        {
          "name": "",
          "type": "string"
        }
      ],
      "payable": false,
      "stateMutability": "view",
      "type": "function"
    },
    {
      "constant": false,
      "inputs": [],
      "name": "renounceOwnership",
      "outputs": [],
      "payable": false,
      "stateMutability": "nonpayable",
      "type": "function"
    },
    {
      "constant": true,
      "inputs": [],
      "name": "SHORT_DESC",
      "outputs": [
        {
          "name": "",
          "type": "string"
        }
      ],
      "payable": false,
      "stateMutability": "view",
      "type": "function"
    },
    {
      "constant": true,
      "inputs": [],
      "name": "owner",
      "outputs": [
        {
          "name": "",
          "type": "address"
        }
      ],
      "payable": false,
      "stateMutability": "view",
      "type": "function"
    },
    {
      "constant": true,
      "inputs": [],
      "name": "TOKEN_STANDARD",
      "outputs": [
        {
          "name": "",
          "type": "string"
        }
      ],
      "payable": false,
      "stateMutability": "view",
      "type": "function"
    },
    {
      "constant": true,
      "inputs": [],
      "name": "LONG_DESC",
      "outputs": [
        {
          "name": "",
          "type": "string"
        }
      ],
      "payable": false,
      "stateMutability": "view",
      "type": "function"
    },
    {
      "constant": false,
      "inputs": [
        {
          "name": "locale",
          "type": "string"
        },
        {
          "name": "key",
          "type": "string"
        },
        {
          "name": "value",
          "type": "string"
        }
      ],
      "name": "setResource",
      "outputs": [],
      "payable": false,
      "stateMutability": "nonpayable",
      "type": "function"
    },
    {
      "constant": false,
      "inputs": [
        {
          "name": "_newOwner",
          "type": "address"
        }
      ],
      "name": "transferOwnership",
      "outputs": [],
      "payable": false,
      "stateMutability": "nonpayable",
      "type": "function"
    },
    {
      "constant": true,
      "inputs": [
        {
          "name": "locale",
          "type": "string"
        },
        {
          "name": "key",
          "type": "string"
        }
      ],
      "name": "resource",
      "outputs": [
        {
          "name": "",
          "type": "string"
        }
      ],
      "payable": false,
      "stateMutability": "view",
      "type": "function"
    },
    {
      "anonymous": false,
      "inputs": [
        {
          "indexed": true,
          "name": "previousOwner",
          "type": "address"
        }
      ],
      "name": "OwnershipRenounced",
      "type": "event"
    },
    {
      "anonymous": false,
      "inputs": [
        {
          "indexed": true,
          "name": "previousOwner",
          "type": "address"
        },
        {
          "indexed": true,
          "name": "newOwner",
          "type": "address"
        }
      ],
      "name": "OwnershipTransferred",
      "type": "event"
    },
    {
      "constant": true,
      "inputs": [
        {
          "name": "_locale",
          "type": "string"
        },
        {
          "name": "_sale",
          "type": "address"
        }
      ],
      "name": "render",
      "outputs": [
        {
          "name": "",
          "type": "string"
        }
      ],
      "payable": false,
      "stateMutability": "view",
      "type": "function"
    }
  ],
  "bytecode": "0x6080604052336000806101000a81548173ffffffffffffffffffffffffffffffffffffffff021916908373ffffffffffffffffffffffffffffffffffffffff1602179055506132fd806100536000396000f3006080604052600436106100af576000357c0100000000000000000000000000000000000000000000000000000000900463ffffffff1680630bdf5300146100b45780636da26d4e14610144578063715018a6146101d45780638b582712146101eb5780638da5cb5b1461027b578063a6a1497e146102d2578063ac5c6e1214610362578063ca1a70be146103f2578063ed3487fe146104f4578063f2fde38b146105e9578063f65a5c1b1461062c575b600080fd5b3480156100c057600080fd5b506100c9610754565b6040518080602001828103825283818151815260200191508051906020019080838360005b838110156101095780820151818401526020810190506100ee565b50505050905090810190601f1680156101365780820380516001836020036101000a031916815260200191505b509250505060405180910390f35b34801561015057600080fd5b5061015961078d565b6040518080602001828103825283818151815260200191508051906020019080838360005b8381101561019957808201518184015260208101905061017e565b50505050905090810190601f1680156101c65780820380516001836020036101000a031916815260200191505b509250505060405180910390f35b3480156101e057600080fd5b506101e96107c6565b005b3480156101f757600080fd5b506102006108c8565b6040518080602001828103825283818151815260200191508051906020019080838360005b83811015610240578082015181840152602081019050610225565b50505050905090810190601f16801561026d5780820380516001836020036101000a031916815260200191505b509250505060405180910390f35b34801561028757600080fd5b50610290610901565b604051808273ffffffffffffffffffffffffffffffffffffffff1673ffffffffffffffffffffffffffffffffffffffff16815260200191505060405180910390f35b3480156102de57600080fd5b506102e7610926565b6040518080602001828103825283818151815260200191508051906020019080838360005b8381101561032757808201518184015260208101905061030c565b50505050905090810190601f1680156103545780820380516001836020036101000a031916815260200191505b509250505060405180910390f35b34801561036e57600080fd5b5061037761095f565b6040518080602001828103825283818151815260200191508051906020019080838360005b838110156103b757808201518184015260208101905061039c565b50505050905090810190601f1680156103e45780820380516001836020036101000a031916815260200191505b509250505060405180910390f35b3480156103fe57600080fd5b50610479600480360381019080803590602001908201803590602001908080601f0160208091040260200160405190810160405280939291908181526020018383808284378201915050505050509192919290803573ffffffffffffffffffffffffffffffffffffffff169060200190929190505050610998565b6040518080602001828103825283818151815260200191508051906020019080838360005b838110156104b957808201518184015260208101905061049e565b50505050905090810190601f1680156104e65780820380516001836020036101000a031916815260200191505b509250505060405180910390f35b34801561050057600080fd5b506105e7600480360381019080803590602001908201803590602001908080601f0160208091040260200160405190810160405280939291908181526020018383808284378201915050505050509192919290803590602001908201803590602001908080601f0160208091040260200160405190810160405280939291908181526020018383808284378201915050505050509192919290803590602001908201803590602001908080601f01602080910402602001604051908101604052809392919081815260200183838082843782019150505050505091929192905050506114d3565b005b3480156105f557600080fd5b5061062a600480360381019080803573ffffffffffffffffffffffffffffffffffffffff16906020019092919050505061161c565b005b34801561063857600080fd5b506106d9600480360381019080803590602001908201803590602001908080601f0160208091040260200160405190810160405280939291908181526020018383808284378201915050505050509192919290803590602001908201803590602001908080601f0160208091040260200160405190810160405280939291908181526020018383808284378201915050505050509192919290505050611683565b6040518080602001828103825283818151815260200191508051906020019080838360005b838110156107195780820151818401526020810190506106fe565b50505050905090810190601f1680156107465780820380516001836020036101000a031916815260200191505b509250505060405180910390f35b6040805190810160405280600d81526020017f746f6b656e5f616464726573730000000000000000000000000000000000000081525081565b6040805190810160405280600a81526020017f746f6b656e5f696e666f0000000000000000000000000000000000000000000081525081565b6000809054906101000a900473ffffffffffffffffffffffffffffffffffffffff1673ffffffffffffffffffffffffffffffffffffffff163373ffffffffffffffffffffffffffffffffffffffff1614151561082157600080fd5b6000809054906101000a900473ffffffffffffffffffffffffffffffffffffffff1673ffffffffffffffffffffffffffffffffffffffff167ff8df31144d9c2f0f6b59d69b8b98abd5459d07f2742c4df920b25aae33c6482060405160405180910390a260008060006101000a81548173ffffffffffffffffffffffffffffffffffffffff021916908373ffffffffffffffffffffffffffffffffffffffff160217905550565b6040805190810160405280600a81526020017f73686f72745f646573630000000000000000000000000000000000000000000081525081565b6000809054906101000a900473ffffffffffffffffffffffffffffffffffffffff1681565b6040805190810160405280600e81526020017f746f6b656e5f7374616e6461726400000000000000000000000000000000000081525081565b6040805190810160405280600981526020017f6c6f6e675f64657363000000000000000000000000000000000000000000000081525081565b6060806109a3613084565b60026040519080825280602002602001820160405280156109de57816020015b6109cb6130b4565b8152602001906001900390816109c35790505b50915060e0604051908101604052806001151581526020016040805190810160405280600e81526020017f746f6b656e5f7374616e6461726400000000000000000000000000000000000081525081526020016040805190810160405280600481526020017f746578740000000000000000000000000000000000000000000000000000000081525081526020016001876040518082805190602001908083835b602083101515610aa45780518252602082019150602081019050602083039250610a7f565b6001836020036101000a03801982511681845116808217855250505050505090500191505090815260200160405180910390206040805190810160405280600e81526020017f746f6b656e5f7374616e646172640000000000000000000000000000000000008152506040518082805190602001908083835b602083101515610b425780518252602082019150602081019050602083039250610b1d565b6001836020036101000a03801982511681845116808217855250505050505090500191505090815260200160405180910390208054600181600116156101000203166002900480601f016020809104026020016040519081016040528092919081815260200182805460018160011615610100020316600290048015610c095780601f10610bde57610100808354040283529160200191610c09565b820191906000526020600020905b815481529060010190602001808311610bec57829003601f168201915b505050505081526020016040805190810160405280600781526020017f22455243323022000000000000000000000000000000000000000000000000008152508152602001610c566117fa565b8152602001610c63611879565b815250826000815181101515610c7557fe5b9060200190602002018190525060e0604051908101604052806001151581526020016040805190810160405280600d81526020017f746f6b656e5f616464726573730000000000000000000000000000000000000081525081526020016040805190810160405280600781526020017f616464726573730000000000000000000000000000000000000000000000000081525081526020016001876040518082805190602001908083835b602083101515610d455780518252602082019150602081019050602083039250610d20565b6001836020036101000a03801982511681845116808217855250505050505090500191505090815260200160405180910390206040805190810160405280600d81526020017f746f6b656e5f61646472657373000000000000000000000000000000000000008152506040518082805190602001908083835b602083101515610de35780518252602082019150602081019050602083039250610dbe565b6001836020036101000a03801982511681845116808217855250505050505090500191505090815260200160405180910390208054600181600116156101000203166002900480601f016020809104026020016040519081016040528092919081815260200182805460018160011615610100020316600290048015610eaa5780601f10610e7f57610100808354040283529160200191610eaa565b820191906000526020600020905b815481529060010190602001808311610e8d57829003601f168201915b50505050508152602001610f79610f748773ffffffffffffffffffffffffffffffffffffffff1663fc0c546a6040518163ffffffff167c0100000000000000000000000000000000000000000000000000000000028152600401602060405180830381600087803b158015610f1e57600080fd5b505af1158015610f32573d6000803e3d6000fd5b505050506040513d6020811015610f4857600080fd5b810190808051906020019092919050505073ffffffffffffffffffffffffffffffffffffffff16611915565b611b1e565b8152602001610f866117fa565b8152602001610f93611879565b815250826001815181101515610fa557fe5b9060200190602002018190525060a0604051908101604052806001876040518082805190602001908083835b602083101515610ff65780518252602082019150602081019050602083039250610fd1565b6001836020036101000a03801982511681845116808217855250505050505090500191505090815260200160405180910390206040805190810160405280600a81526020017f746f6b656e5f696e666f000000000000000000000000000000000000000000008152506040518082805190602001908083835b602083101515611094578051825260208201915060208101905060208303925061106f565b6001836020036101000a03801982511681845116808217855250505050505090500191505090815260200160405180910390208054600181600116156101000203166002900480601f01602080910402602001604051908101604052809291908181526020018280546001816001161561010002031660029004801561115b5780601f106111305761010080835404028352916020019161115b565b820191906000526020600020905b81548152906001019060200180831161113e57829003601f168201915b505050505081526020016001876040518082805190602001908083835b60208310151561119d5780518252602082019150602081019050602083039250611178565b6001836020036101000a03801982511681845116808217855250505050505090500191505090815260200160405180910390206040805190810160405280600a81526020017f73686f72745f64657363000000000000000000000000000000000000000000008152506040518082805190602001908083835b60208310151561123b5780518252602082019150602081019050602083039250611216565b6001836020036101000a03801982511681845116808217855250505050505090500191505090815260200160405180910390208054600181600116156101000203166002900480601f0160208091040260200160405190810160405280929190818152602001828054600181600116156101000203166002900480156113025780601f106112d757610100808354040283529160200191611302565b820191906000526020600020905b8154815290600101906020018083116112e557829003601f168201915b505050505081526020016001876040518082805190602001908083835b602083101515611344578051825260208201915060208101905060208303925061131f565b6001836020036101000a03801982511681845116808217855250505050505090500191505090815260200160405180910390206040805190810160405280600981526020017f6c6f6e675f6465736300000000000000000000000000000000000000000000008152506040518082805190602001908083835b6020831015156113e257805182526020820191506020810190506020830392506113bd565b6001836020036101000a03801982511681845116808217855250505050505090500191505090815260200160405180910390208054600181600116156101000203166002900480601f0160208091040260200160405190810160405280929190818152602001828054600181600116156101000203166002900480156114a95780601f1061147e576101008083540402835291602001916114a9565b820191906000526020600020905b81548152906001019060200180831161148c57829003601f168201915b50505050508152602001600481526020018381525090506114c981611bd6565b9250505092915050565b6000809054906101000a900473ffffffffffffffffffffffffffffffffffffffff1673ffffffffffffffffffffffffffffffffffffffff163373ffffffffffffffffffffffffffffffffffffffff1614151561152e57600080fd5b806001846040518082805190602001908083835b6020831015156115675780518252602082019150602081019050602083039250611542565b6001836020036101000a0380198251168184511680821785525050505050509050019150509081526020016040518091039020836040518082805190602001908083835b6020831015156115d057805182526020820191506020810190506020830392506115ab565b6001836020036101000a03801982511681845116808217855250505050505090500191505090815260200160405180910390209080519060200190611616929190613101565b50505050565b6000809054906101000a900473ffffffffffffffffffffffffffffffffffffffff1673ffffffffffffffffffffffffffffffffffffffff163373ffffffffffffffffffffffffffffffffffffffff1614151561167757600080fd5b61168081611f53565b50565b60606001836040518082805190602001908083835b6020831015156116bd5780518252602082019150602081019050602083039250611698565b6001836020036101000a0380198251168184511680821785525050505050509050019150509081526020016040518091039020826040518082805190602001908083835b6020831015156117265780518252602082019150602081019050602083039250611701565b6001836020036101000a03801982511681845116808217855250505050505090500191505090815260200160405180910390208054600181600116156101000203166002900480601f0160208091040260200160405190810160405280929190818152602001828054600181600116156101000203166002900480156117ed5780601f106117c2576101008083540402835291602001916117ed565b820191906000526020600020905b8154815290600101906020018083116117d057829003601f168201915b5050505050905092915050565b611802613181565b60a060405190810160405280600015158152602001600073ffffffffffffffffffffffffffffffffffffffff16815260200160206040519081016040528060008152508152602001602060405190810160405280600081525081526020016020604051908101604052806000815250815250905090565b6118816131c9565b60606040519081016040528060001515815260200160006040519080825280602002602001820160405280156118d157816020015b6118be6131ed565b8152602001906001900390816118b65790505b508152602001600060405190808252806020026020018201604052801561190c57816020015b60608152602001906001900390816118f75790505b50815250905090565b6060806000806000602a6040519080825280601f01601f1916602001820160405280156119515781602001602082028038833980820191505090505b50935060307f01000000000000000000000000000000000000000000000000000000000000000284600081518110151561198757fe5b9060200101907effffffffffffffffffffffffffffffffffffffffffffffffffffffffffffff1916908160001a90535060787f0100000000000000000000000000000000000000000000000000000000000000028460018151811015156119ea57fe5b9060200101907effffffffffffffffffffffffffffffffffffffffffffffffffffffffffffff1916908160001a905350859250600091505b6028821015611b1257603060108473ffffffffffffffffffffffffffffffffffffffff16811515611a4f57fe5b0601905060398173ffffffffffffffffffffffffffffffffffffffff161115611a79576027810190505b807f0100000000000000000000000000000000000000000000000000000000000000028460018460280301815181101515611ab057fe5b9060200101907effffffffffffffffffffffffffffffffffffffffffffffffffffffffffffff1916908160001a90535060108373ffffffffffffffffffffffffffffffffffffffff16811515611b0257fe5b0492508180600101925050611a22565b83945050505050919050565b6060611bcf611b616040805190810160405280600181526020017f220000000000000000000000000000000000000000000000000000000000000081525061204d565b611bc1611bbc611b708661204d565b611bae6040805190810160405280600181526020017f220000000000000000000000000000000000000000000000000000000000000081525061204d565b61207b90919063ffffffff16565b61204d565b61207b90919063ffffffff16565b9050919050565b60608060006040805190810160405280600a81526020017f7b227469746c65223a22000000000000000000000000000000000000000000008152509150611c3a611c23856000015161204d565b611c2c8461204d565b61207b90919063ffffffff16565b9150611c94611c7d6040805190810160405280600f81526020017f222c2273686f727444657363223a22000000000000000000000000000000000081525061204d565b611c868461204d565b61207b90919063ffffffff16565b9150611cbd611ca6856020015161204d565b611caf8461204d565b61207b90919063ffffffff16565b9150611d17611d006040805190810160405280600e81526020017f222c226c6f6e6744657363223a2200000000000000000000000000000000000081525061204d565b611d098461204d565b61207b90919063ffffffff16565b9150611d40611d29856040015161204d565b611d328461204d565b61207b90919063ffffffff16565b9150611d9a611d836040805190810160405280600a81526020017f222c227769647468223a0000000000000000000000000000000000000000000081525061204d565b611d8c8461204d565b61207b90919063ffffffff16565b9150611dcb611db4611daf86606001516120fd565b61204d565b611dbd8461204d565b61207b90919063ffffffff16565b9150611e25611e0e6040805190810160405280600d81526020017f2c22656c656d656e7473223a5b0000000000000000000000000000000000000081525061204d565b611e178461204d565b61207b90919063ffffffff16565b9150600090505b836080015151811015611ef2576000811115611e9d57611e9a611e836040805190810160405280600181526020017f2c0000000000000000000000000000000000000000000000000000000000000081525061204d565b611e8c8461204d565b61207b90919063ffffffff16565b91505b611ee3611ecc611ec7866080015184815181101515611eb857fe5b9060200190602002015161231f565b61204d565b611ed58461204d565b61207b90919063ffffffff16565b91508080600101915050611e2c565b611f4a611f336040805190810160405280600281526020017f5d7d00000000000000000000000000000000000000000000000000000000000081525061204d565b611f3c8461204d565b61207b90919063ffffffff16565b92505050919050565b600073ffffffffffffffffffffffffffffffffffffffff168173ffffffffffffffffffffffffffffffffffffffff1614151515611f8f57600080fd5b8073ffffffffffffffffffffffffffffffffffffffff166000809054906101000a900473ffffffffffffffffffffffffffffffffffffffff1673ffffffffffffffffffffffffffffffffffffffff167f8be0079c531659141344cd1fd0a4f28419497f9722a3daafe3b4186f6b6457e060405160405180910390a3806000806101000a81548173ffffffffffffffffffffffffffffffffffffffff021916908373ffffffffffffffffffffffffffffffffffffffff16021790555050565b612055613226565b600060208301905060408051908101604052808451815260200182815250915050919050565b606080600083600001518560000151016040519080825280601f01601f1916602001820160405280156120bd5781602001602082028038833980820191505090505b5091506020820190506120d98186602001518760000151612742565b6120f28560000151820185602001518660000151612742565b819250505092915050565b6060806000606060008086141561214b576040805190810160405280600181526020017f30000000000000000000000000000000000000000000000000000000000000008152509450612316565b60206040519080825280601f01601f19166020018201604052801561217f5781602001602082028038833980820191505090505b509350600092505b600086111561221c576030600a8781151561219e57fe5b06017f01000000000000000000000000000000000000000000000000000000000000000284848151811015156121d057fe5b9060200101907effffffffffffffffffffffffffffffffffffffffffffffffffffffffffffff1916908160001a905350600a8681151561220c57fe5b0495508280600101935050612187565b82806001900393506040519080825280601f01601f1916602001820160405280156122565781602001602082028038833980820191505090505b509150600090505b81518110156123125783838060019003945081518110151561227c57fe5b9060200101517f010000000000000000000000000000000000000000000000000000000000000090047f01000000000000000000000000000000000000000000000000000000000000000282828151811015156122d557fe5b9060200101907effffffffffffffffffffffffffffffffffffffffffffffffffffffffffffff1916908160001a905350808060010191505061225e565b8194505b50505050919050565b606080826000015115612703576040805190810160405280600781526020017f7b226964223a2200000000000000000000000000000000000000000000000000815250905061238b612374846020015161204d565b61237d8361204d565b61207b90919063ffffffff16565b90506123e56123ce6040805190810160405280600181526020017f220000000000000000000000000000000000000000000000000000000000000081525061204d565b6123d78361204d565b61207b90919063ffffffff16565b90508260a0015160000151156124815761244d6124366040805190810160405280600b81526020017f2c2022616374696f6e223a00000000000000000000000000000000000000000081525061204d565b61243f8361204d565b61207b90919063ffffffff16565b905061247e6124676124628560a0015161278d565b61204d565b6124708361204d565b61207b90919063ffffffff16565b90505b8260c00151600001511561251b576124e76124d06040805190810160405280600a81526020017f2c20227461626c65223a0000000000000000000000000000000000000000000081525061204d565b6124d98361204d565b61207b90919063ffffffff16565b90506125186125016124fc8560c00151612a40565b61204d565b61250a8361204d565b61207b90919063ffffffff16565b90505b61257361255c6040805190810160405280600981526020017f2c2274797065223a22000000000000000000000000000000000000000000000081525061204d565b6125658361204d565b61207b90919063ffffffff16565b905061259c612585846040015161204d565b61258e8361204d565b61207b90919063ffffffff16565b90506125f66125df6040805190810160405280600b81526020017f222c226c6162656c223a2200000000000000000000000000000000000000000081525061204d565b6125e88361204d565b61207b90919063ffffffff16565b905061261f612608846060015161204d565b6126118361204d565b61207b90919063ffffffff16565b90506126796126626040805190810160405280600981526020017f222c2264617461223a000000000000000000000000000000000000000000000081525061204d565b61266b8361204d565b61207b90919063ffffffff16565b90506126a261268b846080015161204d565b6126948361204d565b61207b90919063ffffffff16565b90506126fc6126e56040805190810160405280600181526020017f7d0000000000000000000000000000000000000000000000000000000000000081525061204d565b6126ee8361204d565b61207b90919063ffffffff16565b915061273c565b6040805190810160405280600481526020017f6e756c6c0000000000000000000000000000000000000000000000000000000081525091505b50919050565b60005b60208210151561276a5782518452602084019350602083019250602082039150612745565b6001826020036101000a0390508019835116818551168181178652505050505050565b606080826000015115612a01576040805190810160405280600c81526020017f7b2261646472657373223a22000000000000000000000000000000000000000081525090506128176128006127fb856020015173ffffffffffffffffffffffffffffffffffffffff16611915565b61204d565b6128098361204d565b61207b90919063ffffffff16565b905061287161285a6040805190810160405280601681526020017f222c2266756e6374696f6e53656c6563746f72223a220000000000000000000081525061204d565b6128638361204d565b61207b90919063ffffffff16565b905061289a612883846040015161204d565b61288c8361204d565b61207b90919063ffffffff16565b90506128f46128dd6040805190810160405280600e81526020017f222c22617267756d656e7473223a00000000000000000000000000000000000081525061204d565b6128e68361204d565b61207b90919063ffffffff16565b905061291d612906846060015161204d565b61290f8361204d565b61207b90919063ffffffff16565b90506129776129606040805190810160405280600c81526020017f2c22636f6e6669726d223a22000000000000000000000000000000000000000081525061204d565b6129698361204d565b61207b90919063ffffffff16565b90506129a0612989846080015161204d565b6129928361204d565b61207b90919063ffffffff16565b90506129fa6129e36040805190810160405280600281526020017f227d00000000000000000000000000000000000000000000000000000000000081525061204d565b6129ec8361204d565b61207b90919063ffffffff16565b9150612a3a565b6040805190810160405280600481526020017f6e756c6c0000000000000000000000000000000000000000000000000000000081525091505b50919050565b606080600080846000015115612ce3576040805190810160405280600c81526020017f7b22636f6c756d6e73223a5b0000000000000000000000000000000000000000815250925060009150600090505b846020015151811015612b5d576000821115612b0257612aff612ae86040805190810160405280600181526020017f2c0000000000000000000000000000000000000000000000000000000000000081525061204d565b612af18561204d565b61207b90919063ffffffff16565b92505b612b48612b31612b2c876020015184815181101515612b1d57fe5b90602001906020020151612d24565b61204d565b612b3a8561204d565b61207b90919063ffffffff16565b92506001820191508080600101915050612a91565b612bb5612b9e6040805190810160405280600a81526020017f5d2c22726f7773223a5b0000000000000000000000000000000000000000000081525061204d565b612ba78561204d565b61207b90919063ffffffff16565b925060009150600090505b846040015151811015612c84576000821115612c3157612c2e612c176040805190810160405280600181526020017f2c0000000000000000000000000000000000000000000000000000000000000081525061204d565b612c208561204d565b61207b90919063ffffffff16565b92505b612c6f612c58866040015183815181101515612c4957fe5b9060200190602002015161204d565b612c618561204d565b61207b90919063ffffffff16565b92506001820191508080600101915050612bc0565b612cdc612cc56040805190810160405280600281526020017f5d7d00000000000000000000000000000000000000000000000000000000000081525061204d565b612cce8561204d565b61207b90919063ffffffff16565b9350612d1c565b6040805190810160405280600481526020017f6e756c6c0000000000000000000000000000000000000000000000000000000081525093505b505050919050565b606080826000015115613045576040805190810160405280600781526020017f7b226964223a22000000000000000000000000000000000000000000000000008152509050612d90612d79846020015161204d565b612d828361204d565b61207b90919063ffffffff16565b9050612dea612dd36040805190810160405280600181526020017f220000000000000000000000000000000000000000000000000000000000000081525061204d565b612ddc8361204d565b61207b90919063ffffffff16565b905082608001516000015115612ee057612e52612e3b6040805190810160405280600181526020017f2c0000000000000000000000000000000000000000000000000000000000000081525061204d565b612e448361204d565b61207b90919063ffffffff16565b9050612eac612e956040805190810160405280600981526020017f22616374696f6e223a000000000000000000000000000000000000000000000081525061204d565b612e9e8361204d565b61207b90919063ffffffff16565b9050612edd612ec6612ec1856080015161278d565b61204d565b612ecf8361204d565b61207b90919063ffffffff16565b90505b612f38612f216040805190810160405280600981526020017f2c2274797065223a22000000000000000000000000000000000000000000000081525061204d565b612f2a8361204d565b61207b90919063ffffffff16565b9050612f61612f4a846040015161204d565b612f538361204d565b61207b90919063ffffffff16565b9050612fbb612fa46040805190810160405280600b81526020017f222c226c6162656c223a2200000000000000000000000000000000000000000081525061204d565b612fad8361204d565b61207b90919063ffffffff16565b9050612fe4612fcd846060015161204d565b612fd68361204d565b61207b90919063ffffffff16565b905061303e6130276040805190810160405280600281526020017f227d00000000000000000000000000000000000000000000000000000000000081525061204d565b6130308361204d565b61207b90919063ffffffff16565b915061307e565b6040805190810160405280600481526020017f6e756c6c0000000000000000000000000000000000000000000000000000000081525091505b50919050565b60a06040519081016040528060608152602001606081526020016060815260200160008152602001606081525090565b6101a060405190810160405280600015158152602001606081526020016060815260200160608152602001606081526020016130ee613240565b81526020016130fb613288565b81525090565b828054600181600116156101000203166002900490600052602060002090601f016020900481019282601f1061314257805160ff1916838001178555613170565b82800160010185558215613170579182015b8281111561316f578251825591602001919060010190613154565b5b50905061317d91906132ac565b5090565b60a060405190810160405280600015158152602001600073ffffffffffffffffffffffffffffffffffffffff1681526020016060815260200160608152602001606081525090565b60606040519081016040528060001515815260200160608152602001606081525090565b61012060405190810160405280600015158152602001606081526020016060815260200160608152602001613220613240565b81525090565b604080519081016040528060008152602001600081525090565b60a060405190810160405280600015158152602001600073ffffffffffffffffffffffffffffffffffffffff1681526020016060815260200160608152602001606081525090565b60606040519081016040528060001515815260200160608152602001606081525090565b6132ce91905b808211156132ca5760008160009055506001016132b2565b5090565b905600a165627a7a7230582089dac8e517f3c975e0a0f2029600dc06dd6d6790de0a1d4722b2cf49be2cd43a0029",
  "source": "pragma solidity ^0.4.24;\n\nimport \"./ERC20SaleWidgetRenderer.sol\";\nimport \"tokenboost-solidity/contracts/widget/Widgets.sol\";\nimport \"tokenboost-solidity/contracts/utils/StringUtils.sol\";\n\ncontract TokenInfoWidgetRenderer is ERC20SaleWidgetRenderer {\n    using Widgets for Widgets.Widget;\n    using AddressUtils for address;\n    using StringUtils for string;\n\n    string public constant TOKEN_INFO = \"token_info\";\n    string public constant TOKEN_STANDARD = \"token_standard\";\n    string public constant TOKEN_ADDRESS = \"token_address\";\n    string public constant SHORT_DESC = \"short_desc\";\n    string public constant LONG_DESC = \"long_desc\";\n\n    function render(string _locale, ERC20Sale _sale) public view returns (string) {\n        Elements.Element[] memory elements = new Elements.Element[](2);\n        elements[0] = Elements.Element(\n            true,\n            TOKEN_STANDARD,\n            \"text\",\n            resources[_locale][TOKEN_STANDARD],\n            '\"ERC20\"',\n            Actions.empty(),\n            Tables.empty()\n        );\n        elements[1] = Elements.Element(\n            true,\n            TOKEN_ADDRESS,\n            \"address\",\n            resources[_locale][TOKEN_ADDRESS],\n            address(_sale.token()).toString().quoted(),\n            Actions.empty(),\n            Tables.empty()\n        );\n        Widgets.Widget memory widget = Widgets.Widget(\n            resources[_locale][TOKEN_INFO],\n            resources[_locale][SHORT_DESC],\n            resources[_locale][LONG_DESC],\n            4,\n            elements\n        );\n        return widget.toJson();\n    }\n}\n",
  "sourcePath": "/Users/yoonjae/SolidityProjects/tokenboost-solidity-erc20sale/contracts/sale/erc20/widget/TokenInfoWidgetRenderer.sol",
  "compiler": {
    "name": "solc",
    "version": "0.4.24+commit.e67f0147.Emscripten.clang"
  },
  "schemaVersion": "2.0.1",
  "updatedAt": "2018-09-19T13:47:24.358Z"
}