{
  "contractName": "WithdrawFundsWidgetRenderer",
  "abi": [
    {
      "constant": true,
      "inputs": [],
      "name": "WITHDRAW",
      "outputs": [
        {
          "name": "",
          "type": "string"
        }
      ],
      "payable": false,
      "stateMutability": "view",
      "type": "function"
    },
    {
      "constant": false,
      "inputs": [],
      "name": "renounceOwnership",
      "outputs": [],
      "payable": false,
      "stateMutability": "nonpayable",
      "type": "function"
    },
    {
      "constant": true,
      "inputs": [],
      "name": "SHORT_DESC",
      "outputs": [
        {
          "name": "",
          "type": "string"
        }
      ],
      "payable": false,
      "stateMutability": "view",
      "type": "function"
    },
    {
      "constant": true,
      "inputs": [],
      "name": "owner",
      "outputs": [
        {
          "name": "",
          "type": "address"
        }
      ],
      "payable": false,
      "stateMutability": "view",
      "type": "function"
    },
    {
      "constant": true,
      "inputs": [],
      "name": "LONG_DESC",
      "outputs": [
        {
          "name": "",
          "type": "string"
        }
      ],
      "payable": false,
      "stateMutability": "view",
      "type": "function"
    },
    {
      "constant": true,
      "inputs": [],
      "name": "WITHDRAW_CONFIRM",
      "outputs": [
        {
          "name": "",
          "type": "string"
        }
      ],
      "payable": false,
      "stateMutability": "view",
      "type": "function"
    },
    {
      "constant": true,
      "inputs": [],
      "name": "WITHDRAW_FUNDS",
      "outputs": [
        {
          "name": "",
          "type": "string"
        }
      ],
      "payable": false,
      "stateMutability": "view",
      "type": "function"
    },
    {
      "constant": false,
      "inputs": [
        {
          "name": "locale",
          "type": "string"
        },
        {
          "name": "key",
          "type": "string"
        },
        {
          "name": "value",
          "type": "string"
        }
      ],
      "name": "setResource",
      "outputs": [],
      "payable": false,
      "stateMutability": "nonpayable",
      "type": "function"
    },
    {
      "constant": false,
      "inputs": [
        {
          "name": "_newOwner",
          "type": "address"
        }
      ],
      "name": "transferOwnership",
      "outputs": [],
      "payable": false,
      "stateMutability": "nonpayable",
      "type": "function"
    },
    {
      "constant": true,
      "inputs": [
        {
          "name": "locale",
          "type": "string"
        },
        {
          "name": "key",
          "type": "string"
        }
      ],
      "name": "resource",
      "outputs": [
        {
          "name": "",
          "type": "string"
        }
      ],
      "payable": false,
      "stateMutability": "view",
      "type": "function"
    },
    {
      "anonymous": false,
      "inputs": [
        {
          "indexed": true,
          "name": "previousOwner",
          "type": "address"
        }
      ],
      "name": "OwnershipRenounced",
      "type": "event"
    },
    {
      "anonymous": false,
      "inputs": [
        {
          "indexed": true,
          "name": "previousOwner",
          "type": "address"
        },
        {
          "indexed": true,
          "name": "newOwner",
          "type": "address"
        }
      ],
      "name": "OwnershipTransferred",
      "type": "event"
    },
    {
      "constant": true,
      "inputs": [
        {
          "name": "_locale",
          "type": "string"
        },
        {
          "name": "_sale",
          "type": "address"
        }
      ],
      "name": "render",
      "outputs": [
        {
          "name": "",
          "type": "string"
        }
      ],
      "payable": false,
      "stateMutability": "view",
      "type": "function"
    }
  ],
  "bytecode": "0x6080604052336000806101000a81548173ffffffffffffffffffffffffffffffffffffffff021916908373ffffffffffffffffffffffffffffffffffffffff1602179055506131f6806100536000396000f3006080604052600436106100af576000357c0100000000000000000000000000000000000000000000000000000000900463ffffffff16806316ba7197146100b4578063715018a6146101445780638b5827121461015b5780638da5cb5b146101eb578063ac5c6e1214610242578063b488bed4146102d2578063ca1a70be14610362578063d573e65614610464578063ed3487fe146104f4578063f2fde38b146105e9578063f65a5c1b1461062c575b600080fd5b3480156100c057600080fd5b506100c9610754565b6040518080602001828103825283818151815260200191508051906020019080838360005b838110156101095780820151818401526020810190506100ee565b50505050905090810190601f1680156101365780820380516001836020036101000a031916815260200191505b509250505060405180910390f35b34801561015057600080fd5b5061015961078d565b005b34801561016757600080fd5b5061017061088f565b6040518080602001828103825283818151815260200191508051906020019080838360005b838110156101b0578082015181840152602081019050610195565b50505050905090810190601f1680156101dd5780820380516001836020036101000a031916815260200191505b509250505060405180910390f35b3480156101f757600080fd5b506102006108c8565b604051808273ffffffffffffffffffffffffffffffffffffffff1673ffffffffffffffffffffffffffffffffffffffff16815260200191505060405180910390f35b34801561024e57600080fd5b506102576108ed565b6040518080602001828103825283818151815260200191508051906020019080838360005b8381101561029757808201518184015260208101905061027c565b50505050905090810190601f1680156102c45780820380516001836020036101000a031916815260200191505b509250505060405180910390f35b3480156102de57600080fd5b506102e7610926565b6040518080602001828103825283818151815260200191508051906020019080838360005b8381101561032757808201518184015260208101905061030c565b50505050905090810190601f1680156103545780820380516001836020036101000a031916815260200191505b509250505060405180910390f35b34801561036e57600080fd5b506103e9600480360381019080803590602001908201803590602001908080601f0160208091040260200160405190810160405280939291908181526020018383808284378201915050505050509192919290803573ffffffffffffffffffffffffffffffffffffffff16906020019092919050505061095f565b6040518080602001828103825283818151815260200191508051906020019080838360005b8381101561042957808201518184015260208101905061040e565b50505050905090810190601f1680156104565780820380516001836020036101000a031916815260200191505b509250505060405180910390f35b34801561047057600080fd5b50610479611512565b6040518080602001828103825283818151815260200191508051906020019080838360005b838110156104b957808201518184015260208101905061049e565b50505050905090810190601f1680156104e65780820380516001836020036101000a031916815260200191505b509250505060405180910390f35b34801561050057600080fd5b506105e7600480360381019080803590602001908201803590602001908080601f0160208091040260200160405190810160405280939291908181526020018383808284378201915050505050509192919290803590602001908201803590602001908080601f0160208091040260200160405190810160405280939291908181526020018383808284378201915050505050509192919290803590602001908201803590602001908080601f016020809104026020016040519081016040528093929190818152602001838380828437820191505050505050919291929050505061154b565b005b3480156105f557600080fd5b5061062a600480360381019080803573ffffffffffffffffffffffffffffffffffffffff169060200190929190505050611694565b005b34801561063857600080fd5b506106d9600480360381019080803590602001908201803590602001908080601f0160208091040260200160405190810160405280939291908181526020018383808284378201915050505050509192919290803590602001908201803590602001908080601f01602080910402602001604051908101604052809392919081815260200183838082843782019150505050505091929192905050506116fb565b6040518080602001828103825283818151815260200191508051906020019080838360005b838110156107195780820151818401526020810190506106fe565b50505050905090810190601f1680156107465780820380516001836020036101000a031916815260200191505b509250505060405180910390f35b6040805190810160405280600881526020017f776974686472617700000000000000000000000000000000000000000000000081525081565b6000809054906101000a900473ffffffffffffffffffffffffffffffffffffffff1673ffffffffffffffffffffffffffffffffffffffff163373ffffffffffffffffffffffffffffffffffffffff161415156107e857600080fd5b6000809054906101000a900473ffffffffffffffffffffffffffffffffffffffff1673ffffffffffffffffffffffffffffffffffffffff167ff8df31144d9c2f0f6b59d69b8b98abd5459d07f2742c4df920b25aae33c6482060405160405180910390a260008060006101000a81548173ffffffffffffffffffffffffffffffffffffffff021916908373ffffffffffffffffffffffffffffffffffffffff160217905550565b6040805190810160405280600a81526020017f73686f72745f646573630000000000000000000000000000000000000000000081525081565b6000809054906101000a900473ffffffffffffffffffffffffffffffffffffffff1681565b6040805190810160405280600981526020017f6c6f6e675f64657363000000000000000000000000000000000000000000000081525081565b6040805190810160405280601081526020017f77697468647261775f636f6e6669726d0000000000000000000000000000000081525081565b60608061096a612fc5565b8373ffffffffffffffffffffffffffffffffffffffff1663bef4876b6040518163ffffffff167c0100000000000000000000000000000000000000000000000000000000028152600401602060405180830381600087803b1580156109ce57600080fd5b505af11580156109e2573d6000803e3d6000fd5b505050506040513d60208110156109f857600080fd5b81019080805190602001909291905050508015610ab057508373ffffffffffffffffffffffffffffffffffffffff16639a9e3fd86040518163ffffffff167c0100000000000000000000000000000000000000000000000000000000028152600401602060405180830381600087803b158015610a7457600080fd5b505af1158015610a88573d6000803e3d6000fd5b505050506040513d6020811015610a9e57600080fd5b81019080805190602001909291905050505b156114f6576001604051908082528060200260200182016040528015610af057816020015b610add612ff5565b815260200190600190039081610ad55790505b50915060e0604051908101604052806001151581526020016040805190810160405280600881526020017f776974686472617700000000000000000000000000000000000000000000000081525081526020016040805190810160405280600681526020017f627574746f6e000000000000000000000000000000000000000000000000000081525081526020016001876040518082805190602001908083835b602083101515610bb65780518252602082019150602081019050602083039250610b91565b6001836020036101000a03801982511681845116808217855250505050505090500191505090815260200160405180910390206040805190810160405280600881526020017f77697468647261770000000000000000000000000000000000000000000000008152506040518082805190602001908083835b602083101515610c545780518252602082019150602081019050602083039250610c2f565b6001836020036101000a03801982511681845116808217855250505050505090500191505090815260200160405180910390208054600181600116156101000203166002900480601f016020809104026020016040519081016040528092919081815260200182805460018160011615610100020316600290048015610d1b5780601f10610cf057610100808354040283529160200191610d1b565b820191906000526020600020905b815481529060010190602001808311610cfe57829003601f168201915b505050505081526020016040805190810160405280600481526020017f6e756c6c00000000000000000000000000000000000000000000000000000000815250815260200160a0604051908101604052806001151581526020018773ffffffffffffffffffffffffffffffffffffffff1681526020016040805190810160405280600a81526020017f776974686472617728290000000000000000000000000000000000000000000081525081526020016040805190810160405280600281526020017f5b5d00000000000000000000000000000000000000000000000000000000000081525081526020016001896040518082805190602001908083835b602083101515610e3f5780518252602082019150602081019050602083039250610e1a565b6001836020036101000a03801982511681845116808217855250505050505090500191505090815260200160405180910390206040805190810160405280601081526020017f77697468647261775f636f6e6669726d000000000000000000000000000000008152506040518082805190602001908083835b602083101515610edd5780518252602082019150602081019050602083039250610eb8565b6001836020036101000a03801982511681845116808217855250505050505090500191505090815260200160405180910390208054600181600116156101000203166002900480601f016020809104026020016040519081016040528092919081815260200182805460018160011615610100020316600290048015610fa45780601f10610f7957610100808354040283529160200191610fa4565b820191906000526020600020905b815481529060010190602001808311610f8757829003601f168201915b50505050508152508152602001610fb9611872565b815250826001815181101515610fcb57fe5b9060200190602002018190525060a0604051908101604052806001876040518082805190602001908083835b60208310151561101c5780518252602082019150602081019050602083039250610ff7565b6001836020036101000a03801982511681845116808217855250505050505090500191505090815260200160405180910390206040805190810160405280600e81526020017f77697468647261775f66756e64730000000000000000000000000000000000008152506040518082805190602001908083835b6020831015156110ba5780518252602082019150602081019050602083039250611095565b6001836020036101000a03801982511681845116808217855250505050505090500191505090815260200160405180910390208054600181600116156101000203166002900480601f0160208091040260200160405190810160405280929190818152602001828054600181600116156101000203166002900480156111815780601f1061115657610100808354040283529160200191611181565b820191906000526020600020905b81548152906001019060200180831161116457829003601f168201915b505050505081526020016001876040518082805190602001908083835b6020831015156111c3578051825260208201915060208101905060208303925061119e565b6001836020036101000a03801982511681845116808217855250505050505090500191505090815260200160405180910390206040805190810160405280600a81526020017f73686f72745f64657363000000000000000000000000000000000000000000008152506040518082805190602001908083835b602083101515611261578051825260208201915060208101905060208303925061123c565b6001836020036101000a03801982511681845116808217855250505050505090500191505090815260200160405180910390208054600181600116156101000203166002900480601f0160208091040260200160405190810160405280929190818152602001828054600181600116156101000203166002900480156113285780601f106112fd57610100808354040283529160200191611328565b820191906000526020600020905b81548152906001019060200180831161130b57829003601f168201915b505050505081526020016001876040518082805190602001908083835b60208310151561136a5780518252602082019150602081019050602083039250611345565b6001836020036101000a03801982511681845116808217855250505050505090500191505090815260200160405180910390206040805190810160405280600981526020017f6c6f6e675f6465736300000000000000000000000000000000000000000000008152506040518082805190602001908083835b60208310151561140857805182526020820191506020810190506020830392506113e3565b6001836020036101000a03801982511681845116808217855250505050505090500191505090815260200160405180910390208054600181600116156101000203166002900480601f0160208091040260200160405190810160405280929190818152602001828054600181600116156101000203166002900480156114cf5780601f106114a4576101008083540402835291602001916114cf565b820191906000526020600020905b8154815290600101906020018083116114b257829003601f168201915b50505050508152602001600481526020018381525090506114ef8161190e565b925061150a565b602060405190810160405280600081525092505b505092915050565b6040805190810160405280600e81526020017f77697468647261775f66756e647300000000000000000000000000000000000081525081565b6000809054906101000a900473ffffffffffffffffffffffffffffffffffffffff1673ffffffffffffffffffffffffffffffffffffffff163373ffffffffffffffffffffffffffffffffffffffff161415156115a657600080fd5b806001846040518082805190602001908083835b6020831015156115df57805182526020820191506020810190506020830392506115ba565b6001836020036101000a0380198251168184511680821785525050505050509050019150509081526020016040518091039020836040518082805190602001908083835b6020831015156116485780518252602082019150602081019050602083039250611623565b6001836020036101000a0380198251168184511680821785525050505050509050019150509081526020016040518091039020908051906020019061168e929190613042565b50505050565b6000809054906101000a900473ffffffffffffffffffffffffffffffffffffffff1673ffffffffffffffffffffffffffffffffffffffff163373ffffffffffffffffffffffffffffffffffffffff161415156116ef57600080fd5b6116f881611c8b565b50565b60606001836040518082805190602001908083835b6020831015156117355780518252602082019150602081019050602083039250611710565b6001836020036101000a0380198251168184511680821785525050505050509050019150509081526020016040518091039020826040518082805190602001908083835b60208310151561179e5780518252602082019150602081019050602083039250611779565b6001836020036101000a03801982511681845116808217855250505050505090500191505090815260200160405180910390208054600181600116156101000203166002900480601f0160208091040260200160405190810160405280929190818152602001828054600181600116156101000203166002900480156118655780601f1061183a57610100808354040283529160200191611865565b820191906000526020600020905b81548152906001019060200180831161184857829003601f168201915b5050505050905092915050565b61187a6130c2565b60606040519081016040528060001515815260200160006040519080825280602002602001820160405280156118ca57816020015b6118b76130e6565b8152602001906001900390816118af5790505b508152602001600060405190808252806020026020018201604052801561190557816020015b60608152602001906001900390816118f05790505b50815250905090565b60608060006040805190810160405280600a81526020017f7b227469746c65223a2200000000000000000000000000000000000000000000815250915061197261195b8560000151611d85565b61196484611d85565b611db390919063ffffffff16565b91506119cc6119b56040805190810160405280600f81526020017f222c2273686f727444657363223a220000000000000000000000000000000000815250611d85565b6119be84611d85565b611db390919063ffffffff16565b91506119f56119de8560200151611d85565b6119e784611d85565b611db390919063ffffffff16565b9150611a4f611a386040805190810160405280600e81526020017f222c226c6f6e6744657363223a22000000000000000000000000000000000000815250611d85565b611a4184611d85565b611db390919063ffffffff16565b9150611a78611a618560400151611d85565b611a6a84611d85565b611db390919063ffffffff16565b9150611ad2611abb6040805190810160405280600a81526020017f222c227769647468223a00000000000000000000000000000000000000000000815250611d85565b611ac484611d85565b611db390919063ffffffff16565b9150611b03611aec611ae78660600151611e35565b611d85565b611af584611d85565b611db390919063ffffffff16565b9150611b5d611b466040805190810160405280600d81526020017f2c22656c656d656e7473223a5b00000000000000000000000000000000000000815250611d85565b611b4f84611d85565b611db390919063ffffffff16565b9150600090505b836080015151811015611c2a576000811115611bd557611bd2611bbb6040805190810160405280600181526020017f2c00000000000000000000000000000000000000000000000000000000000000815250611d85565b611bc484611d85565b611db390919063ffffffff16565b91505b611c1b611c04611bff866080015184815181101515611bf057fe5b90602001906020020151612057565b611d85565b611c0d84611d85565b611db390919063ffffffff16565b91508080600101915050611b64565b611c82611c6b6040805190810160405280600281526020017f5d7d000000000000000000000000000000000000000000000000000000000000815250611d85565b611c7484611d85565b611db390919063ffffffff16565b92505050919050565b600073ffffffffffffffffffffffffffffffffffffffff168173ffffffffffffffffffffffffffffffffffffffff1614151515611cc757600080fd5b8073ffffffffffffffffffffffffffffffffffffffff166000809054906101000a900473ffffffffffffffffffffffffffffffffffffffff1673ffffffffffffffffffffffffffffffffffffffff167f8be0079c531659141344cd1fd0a4f28419497f9722a3daafe3b4186f6b6457e060405160405180910390a3806000806101000a81548173ffffffffffffffffffffffffffffffffffffffff021916908373ffffffffffffffffffffffffffffffffffffffff16021790555050565b611d8d61311f565b600060208301905060408051908101604052808451815260200182815250915050919050565b606080600083600001518560000151016040519080825280601f01601f191660200182016040528015611df55781602001602082028038833980820191505090505b509150602082019050611e11818660200151876000015161247a565b611e2a856000015182018560200151866000015161247a565b819250505092915050565b60608060006060600080861415611e83576040805190810160405280600181526020017f3000000000000000000000000000000000000000000000000000000000000000815250945061204e565b60206040519080825280601f01601f191660200182016040528015611eb75781602001602082028038833980820191505090505b509350600092505b6000861115611f54576030600a87811515611ed657fe5b06017f0100000000000000000000000000000000000000000000000000000000000000028484815181101515611f0857fe5b9060200101907effffffffffffffffffffffffffffffffffffffffffffffffffffffffffffff1916908160001a905350600a86811515611f4457fe5b0495508280600101935050611ebf565b82806001900393506040519080825280601f01601f191660200182016040528015611f8e5781602001602082028038833980820191505090505b509150600090505b815181101561204a57838380600190039450815181101515611fb457fe5b9060200101517f010000000000000000000000000000000000000000000000000000000000000090047f010000000000000000000000000000000000000000000000000000000000000002828281518110151561200d57fe5b9060200101907effffffffffffffffffffffffffffffffffffffffffffffffffffffffffffff1916908160001a9053508080600101915050611f96565b8194505b50505050919050565b60608082600001511561243b576040805190810160405280600781526020017f7b226964223a220000000000000000000000000000000000000000000000000081525090506120c36120ac8460200151611d85565b6120b583611d85565b611db390919063ffffffff16565b905061211d6121066040805190810160405280600181526020017f2200000000000000000000000000000000000000000000000000000000000000815250611d85565b61210f83611d85565b611db390919063ffffffff16565b90508260a0015160000151156121b95761218561216e6040805190810160405280600b81526020017f2c2022616374696f6e223a000000000000000000000000000000000000000000815250611d85565b61217783611d85565b611db390919063ffffffff16565b90506121b661219f61219a8560a001516124c5565b611d85565b6121a883611d85565b611db390919063ffffffff16565b90505b8260c0015160000151156122535761221f6122086040805190810160405280600a81526020017f2c20227461626c65223a00000000000000000000000000000000000000000000815250611d85565b61221183611d85565b611db390919063ffffffff16565b90506122506122396122348560c00151612778565b611d85565b61224283611d85565b611db390919063ffffffff16565b90505b6122ab6122946040805190810160405280600981526020017f2c2274797065223a220000000000000000000000000000000000000000000000815250611d85565b61229d83611d85565b611db390919063ffffffff16565b90506122d46122bd8460400151611d85565b6122c683611d85565b611db390919063ffffffff16565b905061232e6123176040805190810160405280600b81526020017f222c226c6162656c223a22000000000000000000000000000000000000000000815250611d85565b61232083611d85565b611db390919063ffffffff16565b90506123576123408460600151611d85565b61234983611d85565b611db390919063ffffffff16565b90506123b161239a6040805190810160405280600981526020017f222c2264617461223a0000000000000000000000000000000000000000000000815250611d85565b6123a383611d85565b611db390919063ffffffff16565b90506123da6123c38460800151611d85565b6123cc83611d85565b611db390919063ffffffff16565b905061243461241d6040805190810160405280600181526020017f7d00000000000000000000000000000000000000000000000000000000000000815250611d85565b61242683611d85565b611db390919063ffffffff16565b9150612474565b6040805190810160405280600481526020017f6e756c6c0000000000000000000000000000000000000000000000000000000081525091505b50919050565b60005b6020821015156124a2578251845260208401935060208301925060208203915061247d565b6001826020036101000a0390508019835116818551168181178652505050505050565b606080826000015115612739576040805190810160405280600c81526020017f7b2261646472657373223a220000000000000000000000000000000000000000815250905061254f612538612533856020015173ffffffffffffffffffffffffffffffffffffffff16612a5c565b611d85565b61254183611d85565b611db390919063ffffffff16565b90506125a96125926040805190810160405280601681526020017f222c2266756e6374696f6e53656c6563746f72223a2200000000000000000000815250611d85565b61259b83611d85565b611db390919063ffffffff16565b90506125d26125bb8460400151611d85565b6125c483611d85565b611db390919063ffffffff16565b905061262c6126156040805190810160405280600e81526020017f222c22617267756d656e7473223a000000000000000000000000000000000000815250611d85565b61261e83611d85565b611db390919063ffffffff16565b905061265561263e8460600151611d85565b61264783611d85565b611db390919063ffffffff16565b90506126af6126986040805190810160405280600c81526020017f2c22636f6e6669726d223a220000000000000000000000000000000000000000815250611d85565b6126a183611d85565b611db390919063ffffffff16565b90506126d86126c18460800151611d85565b6126ca83611d85565b611db390919063ffffffff16565b905061273261271b6040805190810160405280600281526020017f227d000000000000000000000000000000000000000000000000000000000000815250611d85565b61272483611d85565b611db390919063ffffffff16565b9150612772565b6040805190810160405280600481526020017f6e756c6c0000000000000000000000000000000000000000000000000000000081525091505b50919050565b606080600080846000015115612a1b576040805190810160405280600c81526020017f7b22636f6c756d6e73223a5b0000000000000000000000000000000000000000815250925060009150600090505b84602001515181101561289557600082111561283a576128376128206040805190810160405280600181526020017f2c00000000000000000000000000000000000000000000000000000000000000815250611d85565b61282985611d85565b611db390919063ffffffff16565b92505b61288061286961286487602001518481518110151561285557fe5b90602001906020020151612c65565b611d85565b61287285611d85565b611db390919063ffffffff16565b925060018201915080806001019150506127c9565b6128ed6128d66040805190810160405280600a81526020017f5d2c22726f7773223a5b00000000000000000000000000000000000000000000815250611d85565b6128df85611d85565b611db390919063ffffffff16565b925060009150600090505b8460400151518110156129bc5760008211156129695761296661294f6040805190810160405280600181526020017f2c00000000000000000000000000000000000000000000000000000000000000815250611d85565b61295885611d85565b611db390919063ffffffff16565b92505b6129a761299086604001518381518110151561298157fe5b90602001906020020151611d85565b61299985611d85565b611db390919063ffffffff16565b925060018201915080806001019150506128f8565b612a146129fd6040805190810160405280600281526020017f5d7d000000000000000000000000000000000000000000000000000000000000815250611d85565b612a0685611d85565b611db390919063ffffffff16565b9350612a54565b6040805190810160405280600481526020017f6e756c6c0000000000000000000000000000000000000000000000000000000081525093505b505050919050565b6060806000806000602a6040519080825280601f01601f191660200182016040528015612a985781602001602082028038833980820191505090505b50935060307f010000000000000000000000000000000000000000000000000000000000000002846000815181101515612ace57fe5b9060200101907effffffffffffffffffffffffffffffffffffffffffffffffffffffffffffff1916908160001a90535060787f010000000000000000000000000000000000000000000000000000000000000002846001815181101515612b3157fe5b9060200101907effffffffffffffffffffffffffffffffffffffffffffffffffffffffffffff1916908160001a905350859250600091505b6028821015612c5957603060108473ffffffffffffffffffffffffffffffffffffffff16811515612b9657fe5b0601905060398173ffffffffffffffffffffffffffffffffffffffff161115612bc0576027810190505b807f0100000000000000000000000000000000000000000000000000000000000000028460018460280301815181101515612bf757fe5b9060200101907effffffffffffffffffffffffffffffffffffffffffffffffffffffffffffff1916908160001a90535060108373ffffffffffffffffffffffffffffffffffffffff16811515612c4957fe5b0492508180600101925050612b69565b83945050505050919050565b606080826000015115612f86576040805190810160405280600781526020017f7b226964223a22000000000000000000000000000000000000000000000000008152509050612cd1612cba8460200151611d85565b612cc383611d85565b611db390919063ffffffff16565b9050612d2b612d146040805190810160405280600181526020017f2200000000000000000000000000000000000000000000000000000000000000815250611d85565b612d1d83611d85565b611db390919063ffffffff16565b905082608001516000015115612e2157612d93612d7c6040805190810160405280600181526020017f2c00000000000000000000000000000000000000000000000000000000000000815250611d85565b612d8583611d85565b611db390919063ffffffff16565b9050612ded612dd66040805190810160405280600981526020017f22616374696f6e223a0000000000000000000000000000000000000000000000815250611d85565b612ddf83611d85565b611db390919063ffffffff16565b9050612e1e612e07612e0285608001516124c5565b611d85565b612e1083611d85565b611db390919063ffffffff16565b90505b612e79612e626040805190810160405280600981526020017f2c2274797065223a220000000000000000000000000000000000000000000000815250611d85565b612e6b83611d85565b611db390919063ffffffff16565b9050612ea2612e8b8460400151611d85565b612e9483611d85565b611db390919063ffffffff16565b9050612efc612ee56040805190810160405280600b81526020017f222c226c6162656c223a22000000000000000000000000000000000000000000815250611d85565b612eee83611d85565b611db390919063ffffffff16565b9050612f25612f0e8460600151611d85565b612f1783611d85565b611db390919063ffffffff16565b9050612f7f612f686040805190810160405280600281526020017f227d000000000000000000000000000000000000000000000000000000000000815250611d85565b612f7183611d85565b611db390919063ffffffff16565b9150612fbf565b6040805190810160405280600481526020017f6e756c6c0000000000000000000000000000000000000000000000000000000081525091505b50919050565b60a06040519081016040528060608152602001606081526020016060815260200160008152602001606081525090565b6101a0604051908101604052806000151581526020016060815260200160608152602001606081526020016060815260200161302f613139565b815260200161303c613181565b81525090565b828054600181600116156101000203166002900490600052602060002090601f016020900481019282601f1061308357805160ff19168380011785556130b1565b828001600101855582156130b1579182015b828111156130b0578251825591602001919060010190613095565b5b5090506130be91906131a5565b5090565b60606040519081016040528060001515815260200160608152602001606081525090565b61012060405190810160405280600015158152602001606081526020016060815260200160608152602001613119613139565b81525090565b604080519081016040528060008152602001600081525090565b60a060405190810160405280600015158152602001600073ffffffffffffffffffffffffffffffffffffffff1681526020016060815260200160608152602001606081525090565b60606040519081016040528060001515815260200160608152602001606081525090565b6131c791905b808211156131c35760008160009055506001016131ab565b5090565b905600a165627a7a72305820965d4c939a6942becac4953b6c6fc2e84e964d7cf8f9bcee6c86c26217e21d2d0029",
  "source": "pragma solidity ^0.4.24;\n\nimport \"./ERC20SaleWidgetRenderer.sol\";\nimport \"tokenboost-solidity/contracts/widget/Widgets.sol\";\n\ncontract WithdrawFundsWidgetRenderer is ERC20SaleWidgetRenderer {\n    using Widgets for Widgets.Widget;\n\n    string public constant WITHDRAW_FUNDS = \"withdraw_funds\";\n    string public constant SHORT_DESC = \"short_desc\";\n    string public constant LONG_DESC = \"long_desc\";\n    string public constant WITHDRAW = \"withdraw\";\n    string public constant WITHDRAW_CONFIRM = \"withdraw_confirm\";\n\n    function render(string _locale, ERC20Sale _sale) public view returns (string) {\n        if (_sale.finished() && _sale.successful()) {\n            Elements.Element[] memory elements = new Elements.Element[](1);\n            elements[1] = Elements.Element(\n                true,\n                WITHDRAW,\n                \"button\",\n                resources[_locale][WITHDRAW],\n                \"null\",\n                Actions.Action(\n                    true,\n                    address(_sale),\n                    \"withdraw()\",\n                    '[]',\n                    resources[_locale][WITHDRAW_CONFIRM]\n                ),\n                Tables.empty()\n            );\n            Widgets.Widget memory widget = Widgets.Widget(\n                resources[_locale][WITHDRAW_FUNDS],\n                resources[_locale][SHORT_DESC],\n                resources[_locale][LONG_DESC],\n                4,\n                elements\n            );\n            return widget.toJson();\n        } else {\n            return \"\";\n        }\n    }\n}\n",
  "sourcePath": "/Users/yoonjae/SolidityProjects/tokenboost-solidity-erc20sale/contracts/sale/erc20/widget/WithdrawFundsWidgetRenderer.sol",
  "compiler": {
    "name": "solc",
    "version": "0.4.24+commit.e67f0147.Emscripten.clang"
  },
  "schemaVersion": "2.0.1",
  "updatedAt": "2018-10-07T19:36:40.457Z"
}