{
  "contractName": "WithdrawFundsWidgetRenderer",
  "abi": [
    {
      "constant": true,
      "inputs": [],
      "name": "WITHDRAW",
      "outputs": [
        {
          "name": "",
          "type": "string"
        }
      ],
      "payable": false,
      "stateMutability": "view",
      "type": "function"
    },
    {
      "constant": false,
      "inputs": [],
      "name": "renounceOwnership",
      "outputs": [],
      "payable": false,
      "stateMutability": "nonpayable",
      "type": "function"
    },
    {
      "constant": true,
      "inputs": [],
      "name": "SHORT_DESC",
      "outputs": [
        {
          "name": "",
          "type": "string"
        }
      ],
      "payable": false,
      "stateMutability": "view",
      "type": "function"
    },
    {
      "constant": true,
      "inputs": [],
      "name": "owner",
      "outputs": [
        {
          "name": "",
          "type": "address"
        }
      ],
      "payable": false,
      "stateMutability": "view",
      "type": "function"
    },
    {
      "constant": true,
      "inputs": [],
      "name": "LONG_DESC",
      "outputs": [
        {
          "name": "",
          "type": "string"
        }
      ],
      "payable": false,
      "stateMutability": "view",
      "type": "function"
    },
    {
      "constant": true,
      "inputs": [],
      "name": "WITHDRAW_CONFIRM",
      "outputs": [
        {
          "name": "",
          "type": "string"
        }
      ],
      "payable": false,
      "stateMutability": "view",
      "type": "function"
    },
    {
      "constant": true,
      "inputs": [],
      "name": "WITHDRAW_FUNDS",
      "outputs": [
        {
          "name": "",
          "type": "string"
        }
      ],
      "payable": false,
      "stateMutability": "view",
      "type": "function"
    },
    {
      "constant": false,
      "inputs": [
        {
          "name": "locale",
          "type": "string"
        },
        {
          "name": "key",
          "type": "string"
        },
        {
          "name": "value",
          "type": "string"
        }
      ],
      "name": "setResource",
      "outputs": [],
      "payable": false,
      "stateMutability": "nonpayable",
      "type": "function"
    },
    {
      "constant": false,
      "inputs": [
        {
          "name": "_newOwner",
          "type": "address"
        }
      ],
      "name": "transferOwnership",
      "outputs": [],
      "payable": false,
      "stateMutability": "nonpayable",
      "type": "function"
    },
    {
      "constant": true,
      "inputs": [
        {
          "name": "locale",
          "type": "string"
        },
        {
          "name": "key",
          "type": "string"
        }
      ],
      "name": "resource",
      "outputs": [
        {
          "name": "",
          "type": "string"
        }
      ],
      "payable": false,
      "stateMutability": "view",
      "type": "function"
    },
    {
      "anonymous": false,
      "inputs": [
        {
          "indexed": true,
          "name": "previousOwner",
          "type": "address"
        }
      ],
      "name": "OwnershipRenounced",
      "type": "event"
    },
    {
      "anonymous": false,
      "inputs": [
        {
          "indexed": true,
          "name": "previousOwner",
          "type": "address"
        },
        {
          "indexed": true,
          "name": "newOwner",
          "type": "address"
        }
      ],
      "name": "OwnershipTransferred",
      "type": "event"
    },
    {
      "constant": true,
      "inputs": [
        {
          "name": "_locale",
          "type": "string"
        },
        {
          "name": "_sale",
          "type": "address"
        }
      ],
      "name": "render",
      "outputs": [
        {
          "name": "",
          "type": "string"
        }
      ],
      "payable": false,
      "stateMutability": "view",
      "type": "function"
    }
  ],
  "bytecode": "0x608060405260008054600160a060020a03191633179055612344806100256000396000f3006080604052600436106100955763ffffffff60e060020a60003504166316ba7197811461009a578063715018a6146101245780638b5827121461013b5780638da5cb5b14610150578063ac5c6e1214610181578063b488bed414610196578063ca1a70be146101ab578063d573e6561461020f578063ed3487fe14610224578063f2fde38b146102f9578063f65a5c1b1461031a575b600080fd5b3480156100a657600080fd5b506100af6103b1565b6040805160208082528351818301528351919283929083019185019080838360005b838110156100e95781810151838201526020016100d1565b50505050905090810190601f1680156101165780820380516001836020036101000a031916815260200191505b509250505060405180910390f35b34801561013057600080fd5b506101396103e8565b005b34801561014757600080fd5b506100af610454565b34801561015c57600080fd5b5061016561048b565b60408051600160a060020a039092168252519081900360200190f35b34801561018d57600080fd5b506100af61049a565b3480156101a257600080fd5b506100af6104d1565b3480156101b757600080fd5b506040805160206004803580820135601f81018490048402850184019095528484526100af94369492936024939284019190819084018382808284375094975050509235600160a060020a0316935061050892505050565b34801561021b57600080fd5b506100af610f59565b34801561023057600080fd5b506040805160206004803580820135601f810184900484028501840190955284845261013994369492936024939284019190819084018382808284375050604080516020601f89358b018035918201839004830284018301909452808352979a99988101979196509182019450925082915084018382808284375050604080516020601f89358b018035918201839004830284018301909452808352979a999881019791965091820194509250829150840183828082843750949750610f909650505050505050565b34801561030557600080fd5b50610139600160a060020a036004351661107d565b34801561032657600080fd5b506040805160206004803580820135601f81018490048402850184019095528484526100af94369492936024939284019190819084018382808284375050604080516020601f89358b018035918201839004830284018301909452808352979a9998810197919650918201945092508291508401838280828437509497506110a09650505050505050565b60408051808201909152600881527f7769746864726177000000000000000000000000000000000000000000000000602082015281565b600054600160a060020a031633146103ff57600080fd5b60008054604051600160a060020a03909116917ff8df31144d9c2f0f6b59d69b8b98abd5459d07f2742c4df920b25aae33c6482091a26000805473ffffffffffffffffffffffffffffffffffffffff19169055565b60408051808201909152600a81527f73686f72745f6465736300000000000000000000000000000000000000000000602082015281565b600054600160a060020a031681565b60408051808201909152600981527f6c6f6e675f646573630000000000000000000000000000000000000000000000602082015281565b60408051808201909152601081527f77697468647261775f636f6e6669726d00000000000000000000000000000000602082015281565b606080610513612169565b83600160a060020a031663bef4876b6040518163ffffffff1660e060020a028152600401602060405180830381600087803b15801561055157600080fd5b505af1158015610565573d6000803e3d6000fd5b505050506040513d602081101561057b57600080fd5b505180156105ef575083600160a060020a0316639a9e3fd86040518163ffffffff1660e060020a028152600401602060405180830381600087803b1580156105c257600080fd5b505af11580156105d6573d6000803e3d6000fd5b505050506040513d60208110156105ec57600080fd5b50515b15610f3f5760408051600180825281830190925290816020015b610611612199565b81526020019060019003908161060957905050915060e0604051908101604052806001151581526020016040805190810160405280600881526020017f776974686472617700000000000000000000000000000000000000000000000081525081526020016040805190810160405280600681526020017f627574746f6e000000000000000000000000000000000000000000000000000081525081526020016001876040518082805190602001908083835b602083106106e35780518252601f1990920191602091820191016106c4565b51815160209384036101000a6000190180199092169116179052920194855250604080519485900382018520858201825260088087527f776974686472617700000000000000000000000000000000000000000000000093870193845291519095945092508291908083835b6020831061076e5780518252601f19909201916020918201910161074f565b518151600019602094850361010090810a820192831692199390931691909117909252949092019687526040805197889003820188208054601f60026001831615909802909501169590950492830182900482028801820190528187529294509250508301828280156108225780601f106107f757610100808354040283529160200191610822565b820191906000526020600020905b81548152906001019060200180831161080557829003601f168201915b505050505081526020016040805190810160405280600481526020017f6e756c6c00000000000000000000000000000000000000000000000000000000815250815260200160a06040519081016040528060011515815260200187600160a060020a031681526020016040805190810160405280600a81526020017f776974686472617728290000000000000000000000000000000000000000000081525081526020016040805190810160405280600281526020017f5b5d00000000000000000000000000000000000000000000000000000000000081525081526020016001896040518082805190602001908083835b602083106109335780518252601f199092019160209182019101610914565b51815160209384036101000a6000190180199092169116179052920194855250604080519485900382018520858201825260108087527f77697468647261775f636f6e6669726d0000000000000000000000000000000093870193845291519095945092508291908083835b602083106109be5780518252601f19909201916020918201910161099f565b518151600019602094850361010090810a820192831692199390931691909117909252949092019687526040805197889003820188208054601f6002600183161590980290950116959095049283018290048202880182019052818752929450925050830182828015610a725780601f10610a4757610100808354040283529160200191610a72565b820191906000526020600020905b815481529060010190602001808311610a5557829003601f168201915b50505050508152508152602001610a876111f1565b9052825183906000908110610a9857fe5b9060200190602002018190525060a0604051908101604052806001876040518082805190602001908083835b60208310610ae35780518252601f199092019160209182019101610ac4565b51815160209384036101000a60001901801990921691161790529201948552506040805194859003820185208582018252600e8087527f77697468647261775f66756e647300000000000000000000000000000000000093870193845291519095945092508291908083835b60208310610b6e5780518252601f199092019160209182019101610b4f565b518151600019602094850361010090810a820192831692199390931691909117909252949092019687526040805197889003820188208054601f6002600183161590980290950116959095049283018290048202880182019052818752929450925050830182828015610c225780601f10610bf757610100808354040283529160200191610c22565b820191906000526020600020905b815481529060010190602001808311610c0557829003601f168201915b505050505081526020016001876040518082805190602001908083835b60208310610c5e5780518252601f199092019160209182019101610c3f565b51815160209384036101000a60001901801990921691161790529201948552506040805194859003820185208582018252600a8087527f73686f72745f646573630000000000000000000000000000000000000000000093870193845291519095945092508291908083835b60208310610ce95780518252601f199092019160209182019101610cca565b518151600019602094850361010090810a820192831692199390931691909117909252949092019687526040805197889003820188208054601f6002600183161590980290950116959095049283018290048202880182019052818752929450925050830182828015610d9d5780601f10610d7257610100808354040283529160200191610d9d565b820191906000526020600020905b815481529060010190602001808311610d8057829003601f168201915b505050505081526020016001876040518082805190602001908083835b60208310610dd95780518252601f199092019160209182019101610dba565b51815160209384036101000a6000190180199092169116179052920194855250604080519485900382018520858201825260098087527f6c6f6e675f64657363000000000000000000000000000000000000000000000093870193845291519095945092508291908083835b60208310610e645780518252601f199092019160209182019101610e45565b518151600019602094850361010090810a820192831692199390931691909117909252949092019687526040805197889003820188208054601f6002600183161590980290950116959095049283018290048202880182019052818752929450925050830182828015610f185780601f10610eed57610100808354040283529160200191610f18565b820191906000526020600020905b815481529060010190602001808311610efb57829003601f168201915b5050505050815260200160048152602001838152509050610f388161127f565b9250610f51565b60408051602081019091526000815292505b505092915050565b60408051808201909152600e81527f77697468647261775f66756e6473000000000000000000000000000000000000602082015281565b600054600160a060020a03163314610fa757600080fd5b806001846040518082805190602001908083835b60208310610fda5780518252601f199092019160209182019101610fbb565b51815160209384036101000a6000190180199092169116179052920194855250604051938490038101842087519094889450925082918401908083835b602083106110365780518252601f199092019160209182019101611017565b51815160209384036101000a6000190180199092169116179052920194855250604051938490038101909320845161107795919491909101925090506121e5565b50505050565b600054600160a060020a0316331461109457600080fd5b61109d816114ed565b50565b60606001836040518082805190602001908083835b602083106110d45780518252601f1990920191602091820191016110b5565b51815160209384036101000a6000190180199092169116179052920194855250604051938490038101842086519094879450925082918401908083835b602083106111305780518252601f199092019160209182019101611111565b518151600019602094850361010090810a820192831692199390931691909117909252949092019687526040805197889003820188208054601f60026001831615909802909501169590950492830182900482028801820190528187529294509250508301828280156111e45780601f106111b9576101008083540402835291602001916111e4565b820191906000526020600020905b8154815290600101906020018083116111c757829003601f168201915b5050505050905092915050565b6111f9612263565b6040805160608101825260008082528251818152602081810190945291928301919061123b565b611228612287565b8152602001906001900390816112205790505b508152602001600060405190808252806020026020018201604052801561127657816020015b60608152602001906001900390816112615790505b50905290505b90565b60408051808201909152600a81527f7b227469746c65223a220000000000000000000000000000000000000000000060208201528151606091906000906112de906112c99061156a565b6112d28461156a565b9063ffffffff61159316565b91506113216112c96040805190810160405280600f81526020017f222c2273686f727444657363223a22000000000000000000000000000000000081525061156a565b91506113336112c9856020015161156a565b91506113766112c96040805190810160405280600e81526020017f222c226c6f6e6744657363223a2200000000000000000000000000000000000081525061156a565b91506113886112c9856040015161156a565b91506113cb6112c96040805190810160405280600a81526020017f222c227769647468223a0000000000000000000000000000000000000000000081525061156a565b91506113e56112c96113e0866060015161160a565b61156a565b91506114286112c96040805190810160405280600d81526020017f2c22656c656d656e7473223a5b0000000000000000000000000000000000000081525061156a565b9150600090505b8360800151518110156114a45760008111156114705761146d6112c960408051908101604052806001815260200160fa60020a600b0281525061156a565b91505b61149a6112c96113e086608001518481518110151561148b57fe5b90602001906020020151611769565b915060010161142f565b6114e56112c96040805190810160405280600281526020017f5d7d00000000000000000000000000000000000000000000000000000000000081525061156a565b949350505050565b600160a060020a038116151561150257600080fd5b60008054604051600160a060020a03808516939216917f8be0079c531659141344cd1fd0a4f28419497f9722a3daafe3b4186f6b6457e091a36000805473ffffffffffffffffffffffffffffffffffffffff1916600160a060020a0392909216919091179055565b6115726122ba565b50604080518082019091528151815260208281019082018190525b50919050565b606080600083600001518560000151016040519080825280601f01601f1916602001820160405280156115d0578160200160208202803883390190505b5091506020820190506115ec8186602001518760000151611a57565b8451602085015185516116029284019190611a57565b509392505050565b606080600081818515156116535760408051808201909152600181527f300000000000000000000000000000000000000000000000000000000000000060208201529450611760565b6040805160208082528183019092529080820161040080388339019050509350600092505b60008611156116c557600a860660300160f860020a02848481518110151561169c57fe5b906020010190600160f860020a031916908160001a905350600a86049550600190920191611678565b60408051848152601f19601f860116810160200190915260001984019380156116f8578160200160208202803883390190505b509150600090505b815181101561175c5783516000198401938591811061171b57fe5b90602001015160f860020a900460f860020a02828281518110151561173c57fe5b906020010190600160f860020a031916908160001a905350600101611700565b8194505b50505050919050565b606080826000015115611a1c576040805190810160405280600781526020017f7b226964223a220000000000000000000000000000000000000000000000000081525090506117c76117be846020015161156a565b6112d28361156a565b905061180a6117be6040805190810160405280600181526020017f220000000000000000000000000000000000000000000000000000000000000081525061156a565b60a08401515190915015611871576118596117be6040805190810160405280600b81526020017f2c2022616374696f6e223a00000000000000000000000000000000000000000081525061156a565b905061186e6117be6113e08560a00151611a9b565b90505b60c083015151156118d5576118bd6117be6040805190810160405280600a81526020017f2c20227461626c65223a0000000000000000000000000000000000000000000081525061156a565b90506118d26117be6113e08560c00151611c3e565b90505b6119166117be6040805190810160405280600981526020017f2c2274797065223a22000000000000000000000000000000000000000000000081525061156a565b90506119286117be846040015161156a565b905061196b6117be6040805190810160405280600b81526020017f222c226c6162656c223a2200000000000000000000000000000000000000000081525061156a565b905061197d6117be846060015161156a565b90506119c06117be6040805190810160405280600981526020017f222c2264617461223a000000000000000000000000000000000000000000000081525061156a565b90506119d26117be846080015161156a565b9050611a156117be6040805190810160405280600181526020017f7d0000000000000000000000000000000000000000000000000000000000000081525061156a565b915061158d565b60408051808201909152600481527f6e756c6c000000000000000000000000000000000000000000000000000000006020820152915061158d565b60005b60208210611a7c578251845260209384019390920191601f1990910190611a5a565b50905182516020929092036101000a6000190180199091169116179052565b606080826000015115611a1c576040805190810160405280600c81526020017f7b2261646472657373223a2200000000000000000000000000000000000000008152509050611afc6117be6113e08560200151600160a060020a0316611e55565b9050611b3f6117be6040805190810160405280601681526020017f222c2266756e6374696f6e53656c6563746f72223a220000000000000000000081525061156a565b9050611b516117be846040015161156a565b9050611b946117be6040805190810160405280600e81526020017f222c22617267756d656e7473223a00000000000000000000000000000000000081525061156a565b9050611ba66117be846060015161156a565b9050611be96117be6040805190810160405280600c81526020017f2c22636f6e6669726d223a22000000000000000000000000000000000000000081525061156a565b9050611bfb6117be846080015161156a565b9050611a156117be6040805190810160405280600281526020017f227d00000000000000000000000000000000000000000000000000000000000081525061156a565b606080600080846000015115611e1657505060408051808201909152600c81527f7b22636f6c756d6e73223a5b0000000000000000000000000000000000000000602082015290506000805b846020015151811015611d0c576000821115611cd457611cd1611cc860408051908101604052806001815260200160fa60020a600b0281525061156a565b6112d28561156a565b92505b611cfe611cc86113e0876020015184815181101515611cef57fe5b90602001906020020151611f98565b925060019182019101611c8a565b611d4d611cc86040805190810160405280600a81526020017f5d2c22726f7773223a5b0000000000000000000000000000000000000000000081525061156a565b925060009150600090505b846040015151811015611dce576000821115611d9957611d96611cc860408051908101604052806001815260200160fa60020a600b0281525061156a565b92505b611dc0611cc8866040015183815181101515611db157fe5b9060200190602002015161156a565b925060019182019101611d58565b611e0f611cc86040805190810160405280600281526020017f5d7d00000000000000000000000000000000000000000000000000000000000081525061156a565b9350611e4d565b60408051808201909152600481527f6e756c6c00000000000000000000000000000000000000000000000000000000602082015293505b505050919050565b60408051602a80825260608083019093528291600091829182916020820161054080388339505081519195507f3000000000000000000000000000000000000000000000000000000000000000918691506000908110611eb157fe5b906020010190600160f860020a031916908160001a90535083517f78000000000000000000000000000000000000000000000000000000000000009085906001908110611efa57fe5b906020010190600160f860020a031916908160001a905350859250600091505b6028821015611f8e57506030600f8316016039600160a060020a0382161115611f41576027015b8060f860020a028483602803600101815181101515611f5c57fe5b906020010190600160f860020a031916908160001a9053506010600160a060020a038416049250600190910190611f1a565b5091949350505050565b606080826000015115611a1c576040805190810160405280600781526020017f7b226964223a22000000000000000000000000000000000000000000000000008152509050611fed6117be846020015161156a565b90506120306117be6040805190810160405280600181526020017f220000000000000000000000000000000000000000000000000000000000000081525061156a565b608084015151909150156120c1576120666117be60408051908101604052806001815260200160fa60020a600b0281525061156a565b90506120a96117be6040805190810160405280600981526020017f22616374696f6e223a000000000000000000000000000000000000000000000081525061156a565b90506120be6117be6113e08560800151611a9b565b90505b6121026117be6040805190810160405280600981526020017f2c2274797065223a22000000000000000000000000000000000000000000000081525061156a565b90506121146117be846040015161156a565b90506121576117be6040805190810160405280600b81526020017f222c226c6162656c223a2200000000000000000000000000000000000000000081525061156a565b9050611bfb6117be846060015161156a565b60a06040519081016040528060608152602001606081526020016060815260200160008152602001606081525090565b6101a060405190810160405280600015158152602001606081526020016060815260200160608152602001606081526020016121d36122d1565b81526020016121e0612263565b905290565b828054600181600116156101000203166002900490600052602060002090601f016020900481019282601f1061222657805160ff1916838001178555612253565b82800160010185558215612253579182015b82811115612253578251825591602001919060010190612238565b5061225f9291506122fe565b5090565b60606040519081016040528060001515815260200160608152602001606081525090565b610120604051908101604052806000151581526020016060815260200160608152602001606081526020016121e06122d1565b604080518082019091526000808252602082015290565b6040805160a081018252600080825260208201526060918101829052818101829052608081019190915290565b61127c91905b8082111561225f57600081556001016123045600a165627a7a72305820b3e75b34a7303bb94350ee7b7cd3671abd92dd8ab617aeb9e787d5c7ce9dc7450029",
  "source": "pragma solidity ^0.4.24;\n\nimport \"./ERC20SaleWidgetRenderer.sol\";\nimport \"tokenboost-solidity/contracts/widget/Widgets.sol\";\n\ncontract WithdrawFundsWidgetRenderer is ERC20SaleWidgetRenderer {\n    using Widgets for Widgets.Widget;\n\n    string public constant WITHDRAW_FUNDS = \"withdraw_funds\";\n    string public constant SHORT_DESC = \"short_desc\";\n    string public constant LONG_DESC = \"long_desc\";\n    string public constant WITHDRAW = \"withdraw\";\n    string public constant WITHDRAW_CONFIRM = \"withdraw_confirm\";\n\n    function render(string _locale, ERC20Sale _sale) public view returns (string) {\n        if (_sale.finished() && _sale.successful()) {\n            Elements.Element[] memory elements = new Elements.Element[](1);\n            elements[0] = Elements.Element(\n                true,\n                WITHDRAW,\n                \"button\",\n                resources[_locale][WITHDRAW],\n                \"null\",\n                Actions.Action(\n                    true,\n                    address(_sale),\n                    \"withdraw()\",\n                    '[]',\n                    resources[_locale][WITHDRAW_CONFIRM]\n                ),\n                Tables.empty()\n            );\n            Widgets.Widget memory widget = Widgets.Widget(\n                resources[_locale][WITHDRAW_FUNDS],\n                resources[_locale][SHORT_DESC],\n                resources[_locale][LONG_DESC],\n                4,\n                elements\n            );\n            return widget.toJson();\n        } else {\n            return \"\";\n        }\n    }\n}\n",
  "sourcePath": "/Users/yoonjae/SolidityProjects/tokenboost-solidity-erc20sale/contracts/sale/erc20/widget/WithdrawFundsWidgetRenderer.sol",
  "compiler": {
    "name": "solc",
    "version": "0.4.24+commit.e67f0147.Emscripten.clang"
  },
  "schemaVersion": "2.0.1",
  "updatedAt": "2018-12-27T19:56:06.348Z"
}